:1000000018210020612000005D2000005D2000001C
:1000100000000000000000000000000000000000E0
:100020000000000000000000000000005D20000053
:1000300000000000000000005D2000005D200000C6
:100040005D2000005D2000005D2000005D200000BC
:100050005D2000005D2000005D2000005D200000AC
:100060005D200000A5190000B5190000C5190000A9
:10007000D5190000E5190000F51900005D20000009
:100080005D2000005D2000005D2000005D2000007C
:100090005D2000005D2000005D2000005D2000006C
:1000A0005D2000005D2000005D2000005D2000005C
:1000B0000000000010B5064C2378002B07D1054B3B
:1000C000002B02D0044800E000BF0123237010BDC4
:1000D0000C00002000000000D0280000084B10B5E4
:1000E000002B03D00749084800E000BF0748036819
:1000F000002B00D110BD064B002BFBD09847F9E731
:100100000000000010000020D0280000D0280000CF
:1001100000000000F0B585B06B46D91D0F246C447B
:1001200000232370402318430870064D80263604B0
:10013000AE61022322000448044FB8476E61207864
:1001400005B0F0BD00440041BC000020691400006F
:1001500030B583B06B46D91D40235B42184308700D
:10016000054C80252D04A56101220448044B9847C5
:10017000656103B030BDC04600440041BC000020B2
:100180007D12000010B52320024B98470F23184022
:1001900010BDC0461501000030B583B03F231940A3
:1001A000000208436B46991D0880054C80252D04EC
:1001B000A56102220348044B9847656103B030BD36
:1001C00000440041BC0000207D12000070B50020FA
:1001D000154DA84700218020144CA047042112206F
:1001E000A04701210020A04706210220A0470821A6
:1001F0000020A04709210020A0470A210220A04793
:1002000004200B4EB0470620B0470420A847062024
:10021000A847FA208000074B984720218020A0475C
:100220001720A84770BDC046510100009901000089
:100230001501000099050000F0B591B0384B1B780E
:10024000002B01D011B0F0BD02AC012626700025B4
:100250006560A560C0239B03E36025746574A67484
:10026000E67425752427E5550C22002108A82D4B9E
:10027000984780235B02E3602B4BA36201235B4220
:10028000E3622A4B23632A4B636380235B05A360ED
:100290006560E555274BA361274D220027492800BB
:1002A000274B98472C682000264B98471F2318405F
:1002B0008640254B1E60204B1B68DB69002BFAD162
:1002C00023680222134323600023204C153222703E
:1002D0006370A370163A69464A708B700A701720D3
:1002E0001B4B98472178CA094B09002A15D1DB011D
:1002F000184A944663441F220A4001210800904096
:100300009861074B1970012210490B48124B98470E
:100310000528F8D0114B984794E70023EBE7C04637
:1003200028000020F7270000020016000200180035
:100330000200190040420F00BC00002000140042DF
:10034000951000008119000000E100E0F800002095
:10035000C90500000044004181110000CD010000EA
:1003600010B590B08023DB05009300230193FF229A
:1003700069460A8100228B72CB72012124206C46CF
:1003800021540130215425316354013163540A93BF
:10039000053163540131635405932382E376227659
:1003A000227762761323A37662779623DB01089384
:1003B00090235B030393124B0C93124B0D93012379
:1003C0005B420E930F936A460F491048104B9847B3
:1003D0000028F8D10D4B1C6820000E4B98471F23B6
:1003E00018401E3B83400C4A1360084B1B68DB69B6
:1003F000002BFAD1236802221343236010B010BDF2
:100400000200080002000900000800422C00002041
:10041000310B00008119000000E100E010B50AE096
:100420000D4B1B783E2B14D001200C4B98470A4BE8
:100430001B783E2B0BD00849FF230B700122084884
:10044000084B98470028EBD01228E9D002E004209E
:1004500000E0002010BDC0466000002099050000AB
:100460002C000020150D000070B5074C402565617B
:10047000064B9847A561002804D1054B1B783E2BFD
:1004800000D0043070BDC046004400411D0400008F
:100490006000002010B558210548064B984704001D
:1004A0000528F8D00120044B9847200010BDC04615
:1004B0002C000020750C00009905000010B582B0DA
:1004C00000226B46DA7153210D480E4B98470528E0
:1004D000F9D06B46DC1D0122210009480A4B9847E0
:1004E0000A4B984720780A4B9847FC218905094B0D
:1004F000984780231B069C46604402B010BDC0464E
:100500002C000020750C0000150D00001D040000DB
:10051000D52600005524000070B50A4D80266E6176
:100520000A20094CA047AE610420A047074B98471A
:10053000074B9847041C074B9847201C064B9847CD
:1005400000B270BD0044004199050000690400003C
:10055000BD040000950400009526000010B50020A1
:10056000084B9847084CFA218900A047074B1860B0
:10057000FA218900A047064B18600522054B1A6036
:1005800010BDC046E51D0000E9220000000000206B
:100590000400002010E000E000E01000421E0028EF
:1005A0000CD0074B1B68002BF7D006494B6000238B
:1005B0008B60044B1B68DB03FBD5EEE77047C0463E
:1005C0000000002010E000E000B583B001AB802205
:1005D0001A700A785A704A789A708A78DA70190014
:1005E000014B984703B000BDFD1F0000F0B5DE468B
:1005F00057464E464546E0B585B0894616001F0071
:100600000022002300218B468A463F250096019751
:1006100002904946039111E02021491B0024013436
:10062000CC4013E000980199121A8B41594660465C
:1006300001438B46514621438A46013D002D23DB71
:10064000202149426918E7D401248C400121A940A6
:100650008C4692185B4110001900029E67463E408E
:10066000B146039E2640B0464E4647463E4303D021
:100670000126064332000B00009801999942DCD80C
:10068000D0D19042D9D8CDE75846514605B03CBCB0
:1006900090469946A246AB46F0BD4908814201D238
:1006A00040207047002302E0091A01339BB28142C7
:1006B000FAD2013B9BB2FF2B01D94020F1E7138016
:1006C0000020EEE770B582B00C00150006AA117884
:1006D00002004A43A24202D9402002B070BD002B62
:1006E00014D10200080000211B4EB0470100220077
:1006F00000230020194CA04700220123121A8B412D
:10070000100C1B04184328800020E6E7012B01D0C1
:100710000020F8E70A00002300210F4EB047020036
:100720000B0000920193200000210C4EB047060000
:1007300080239B01984201D94020CEE7610FE00061
:10074000009A019B054CA047C0B2F300DBB2C01A6F
:10075000C0B240033043D6E701240000ED0500009D
:1007600010B582B004000E4B1B78002B07D0002977
:1007700005D10B4B5B78834210D01D200CE001A902
:100780000C701320074B98471320074B9847044BD6
:100790005C7001221A70002002B010BD0020FBE73F
:1007A00080000020191F0000911E0000404B98425D
:1007B00031D00AD93F4B98424DD03F4B98425AD046
:1007C0003E4B984237D0002070473D4B98420CD0AA
:1007D0003C4B9842F7D101295FD0002915D002295E
:1007E00015D0032915D00020EEE7012953D00029A8
:1007F00005D0022905D0032905D00020E4E73248BE
:10080000E2E73248E0E73248DEE70320DCE7314840
:10081000DAE73148D8E7012941D0002905D002297B
:1008200005D0032905D00020CEE72C48CCE72C4882
:10083000CAE72C48C8E7012933D0002905D002298E
:1008400005D0032905D00020BEE72748BCE727488C
:10085000BAE72748B8E7012925D0002905D00229A1
:1008600005D0032905D00020AEE72248ACE7224896
:10087000AAE72248A8E7012917D0002905D00229B4
:1008800005D0032905D000209EE71D489CE71D48A0
:100890009AE71D4898E71D4896E71D4894E71D48CC
:1008A00092E71D4890E71D488EE71D488CE7C0463B
:1008B0000010004200180042001C004200140042D8
:1008C00000080042000C0042030004000300060080
:1008D0000300070003001E0003001F0003000800C0
:1008E00003000A0003000B000300100003001200C5
:1008F0000300130003000C0003000E0003000F00B0
:10090000030016000300180003001900030005008F
:1009100003000100030009000300110003000D00A3
:100920000300170030B587B00A4C6B46220032CA6C
:1009300032C332CA32C30023052B08D89A00694655
:100940005258824201D00133F6E7D8B200E00020CD
:1009500007B030BD08280000F0B5DE4657464E46C9
:100960004546E0B587B004000D00066830006B4BCB
:100970009847143000220E2302A98C4663441A8043
:100980002A8A8023DB019A423BD00CD9C023DB01A9
:100990009A4231D080231B029A420DD103239A46FA
:1009A000002399460CE080239B019A4204D1102336
:1009B0009A460F3B994603E010239A460023994636
:1009C0002B68E9680B4369690B4313432A7E1202C3
:1009D00013432622AF5C7F071F4303976B6898463B
:1009E000002B21D080235B0598453ED12723EB5C6B
:1009F000002B0BD0002039E008239A46073B99468C
:100A0000DEE708239A4600239946D9E72B6A9946E0
:100A1000C0B2434B984701000E2202AB9C46624491
:100A20004846404B984721E02723EB5C002B0BD036
:100A3000534600934B460E2202A98C466244A96A93
:100A4000286A394FB84711E02B6A9B46C0B2344B35
:100A500098470100534600934B460E2202A8844655
:100A600062445846304FB84700E00020002846D185
:100A70006B7E002B01D0AB7EB3732368DB69002B48
:100A8000FBD10E3302AA944663441B88B3814346CC
:100A9000039F1F432723EB5C002B01D104331F432B
:100AA0006A7E92022B7F5B021A436B7F1B021A4302
:100AB0002423EB5C5B041A432523EB5C1B041A43E1
:100AC000AB7A1A43EB7A1A432B89FF2B1ED0802175
:100AD00049040F431A432C23EB5C002B03D1134B27
:100AE0009B789B0701D580231F432368DB69002B7C
:100AF000FBD172602368DB69002BFBD1376007B044
:100B00003CBC90469946A246AB46F0BDEB7E002B1E
:100B1000E1D08023DB041F43DDE7C0462509000048
:100B2000351F00009B060000C506000000200041A4
:100B3000F0B589B006000C00170031600800424B88
:100B40009847821C14302368DB0703D5052528004D
:100B500009B0F0BD23689B0701D51C25F7E70123E9
:100B600093403A4A116A0B4313622D257B5D07A916
:100B70000B70C3B201931800354B98470198354B61
:100B80009847785D0021344B9847FB7A7371242392
:100B9000FB5CB3712523FB5CF371FB7E33723B7FFF
:100BA0007372390030002D4B9847051ECFD106AB2C
:100BB00080221A7000225A70DA709A703B6B02938E
:100BC0007B6B0393BB6B0493FB6B01930593002733
:100BD00006E039002000224B984708E00137FFB2B9
:100BE000032F0DD8BB0002AA98580028F1D0431C4F
:100BF000F4D006A90870000CC0B21A4B9847EDE774
:100C00000022052A06D8931C9B00F3180021596086
:100C10000132F6E70022B26272620023F285B285E9
:100C20003032B3540132B3540132B3540132B354AD
:100C30003068054B984704000B490C4B9847A400BB
:100C40000B4BE65083E7C046250900000004004036
:100C5000191F0000911E00006107000059090000E3
:100C6000AD070000FD1F0000A10D000041190000AC
:100C7000000100200368C279002A01D11C207047BE
:100C8000C28D92B2002A01D00520F8E7DA69002A65
:100C9000FCD119851A7E9207FCD50020EFE7026887
:100CA0008379002B01D11C207047838D9BB2002BD0
:100CB00001D00520F8E7137E5B0701D40520F3E798
:100CC000D369002BFCD1538BDBB298061DD098075B
:100CD00003D5022353831A20E6E7580703D50423DC
:100CE00053831E20E0E7D80703D501235383132045
:100CF000DAE7D80603D5102353834220D4E79B06B6
:100D000003D5202353834120CEE7138D0B80002091
:100D1000CAE70000F0B585B004000191002A02D1B5
:100D2000172005B0F0BD8379002B01D11C20F8E716
:100D30000668002514E002AB991D00230B802000FB
:100D4000154B98470028ECD16B1C9BB202AA0632C7
:100D5000128801994A556279012A11D01D003A0082
:100D6000571EBFB2002A15D000230C4A9342E2D886
:100D7000327E5207DFD4094A934209D00133F4E7A7
:100D8000023502AA06321288120ACA54ABB2E5E74B
:100D90001220C6E70020C4E79F0C0000FFFF000000
:100DA000F0B5C64600B58000644BC5582C68E369B1
:100DB000002BFCD1237EA67D1E403023EB5C31222C
:100DC000AF5C1F40F30725D5EB8D9BB2002B1FD0E6
:100DD000A96A0A78D2B293B29846481CA8626B7985
:100DE000012B0ED04346DB05DB0D2385EB8D013B4C
:100DF0009BB2EB85002B0DD1013323750133A37515
:100E000008E04B781B0213439846881CA862E9E768
:100E100001232375B30706D502232375002231333E
:100E2000EA54FB071CD4730764D5AB8D9BB2002B2F
:100E30005ED0628BD2B23F231340110701D5372316
:100E40001340002B31D09A070ED51A223223EA54D0
:100E5000303B63837B074DD528006B69984749E099
:100E60002800EB689847DEE75A0705D51E22322393
:100E7000EA542E3B6383EDE7DA0705D513223223CC
:100E8000EA54313B6383E5E7DA0605D54222322393
:100E9000EA54223B6383DDE720221A42DAD0213272
:100EA0003223EA54123B6383D4E7238DDB05DB0D49
:100EB000DAB2696A0A706A6A511C69626979012941
:100EC00010D0AB8D013B9BB2AB85002B12D104330C
:100ED000237500222E33EA54BB070BD528002B695B
:100EE000984707E01B0A53706B6A01336B62E8E7AF
:100EF00004232375F30604D5102323752376FB06FC
:100F000010D4B30604D52023237523763B070DD4D4
:100F1000330704D5082323752376BB060AD404BC03
:100F20009046F0BD2800EB699847EAE72800AB69D6
:100F30009847EDE72B6A28009847F0E7000100206A
:100F4000036802221A767047F0B587B007000D00DB
:100F5000066805AB80221A7000225A700121997030
:100F6000DA702B78002B01D105AB9A70AB6A019334
:100F7000EB6A02932B6B03936B6B0493002406E0E4
:100F8000210030003D4B984708E00134E4B2032CC7
:100F90000DD8A30001AA98580028F1D0431CF4D022
:100FA00005A90870000CC0B2354B9847EDE72B78C7
:100FB0007B712B7CBB71AB7CFB712B7D3B72002268
:100FC0006B465A802B78012B14D02B78002B27D11D
:100FD000AB69AA8B1100706AAC7FEF7F3F043C4382
:100FE000204370622020285C00281BD04021114340
:100FF00089B217E03868234B98471430C0B2224BAF
:10100000984701006B469A1CA869204B9847002816
:1010100001D0172030E06B4602331B783373D4E7DE
:10102000002100236A681343AA681343EA68134344
:101030002A7C0A43697C002903D1154989788907EC
:1010400001D580210B43A97C002902D0802189028F
:101050000A43E97C002902D0802189000A43297DC6
:10106000002902D0802189010A4331680B43336093
:1010700073681A437260002007B0F0BDAD0700002E
:10108000FD1F000025090000351F00009B06000021
:1010900000200041F0B585B005000C001600296065
:1010A0000B689B0702D51C2005B0F0BD0B68DB0761
:1010B00001D50520F8E70800284B9847821C14301A
:1010C00001239340264A116A0B4313622427F35DE0
:1010D00003A90B70C3B201931800224B98470198E3
:1010E000214B9847F05D0021204B98473378012B26
:1010F00008D03378002B03D12368082213432360E0
:1011000000230BE023680C2213432360F1E79A1CB1
:101110009200AA18002151600133DBB2062BF6D9E8
:101120000022EA62AA620023AA862A863632AB54DB
:101130000132AB540132AB54353A6A722B712868D4
:10114000064B984704000A490A4B9847A4000A4BEB
:10115000E55031002800094B9847A5E72509000014
:1011600000040040191F0000911E000061070000EC
:10117000751700004119000000010020490F000010
:1011800010B54379012B01D0152010BD037A002B37
:101190006CD1002A58D04B78002B43D003681B7EBB
:1011A000DB0711D40A78D109530900290AD1DB01E0
:1011B00031498C4663441F21114001228A409A61C3
:1011C0000520E2E70023F6E70A78D4095309002C4A
:1011D00004D1DB01284CA446634400E000231F2413
:1011E00014400122A2405A618A780368197EC90717
:1011F00000D59A62C379002B3AD103681A7E520750
:10120000FBD51A7E520735D55A8B520701D50422D9
:101210005A838279012A02D09B6A0020B5E79B6A33
:101220000020B2E70A78D109530900290AD1DB016D
:1012300011498C4663441F21114001228A405A61A2
:101240000020A2E70023F6E70A78D1095309002914
:101250000AD1DB0108498C4663441F211140012259
:101260008A409A61002090E70023F6E700208CE78F
:1012700000208AE7002088E700440041F0B5D64608
:101280004F464646C0B582B004008A461700382350
:10129000C35C052B00D1D8E0002A01D11720D5E08E
:1012A0004379002B03D103681B7E9B0702D4BC4605
:1012B000002625E06A4B9847F9E70023694A9342E4
:1012C00005D82268127ED20701D40133F6E72368DD
:1012D0001A7E920704D41B7EDB0718D41220B5E0D7
:1012E00020005F4B98470420B0E00236B6B2524669
:1012F000D25D1202024317E0E3790F00002B1AD1EE
:10130000791E89B2002F6CD06379002BD5D0236869
:101310001A7ED207FBD5771CBFB25246905D82B2CF
:10132000A579012DE1D03E001F7EF807E4D5D20556
:10133000D20D9A62E0E76379002B40D023681A7ED1
:101340005207FBD51A7E520708D55A8B520701D592
:1013500004225A83A279012A41D09B6A604601384F
:1013600083B29C460F00CBE7023655462F5C3F0206
:1013700040460743B0B21BE0013989B2060022683B
:10138000127E52071DD40133364A934219D80029E0
:10139000F5D02268177EF807F1D5701C80B255464B
:1013A000AD5DA8466F46FD80FF88A579012DDBD095
:1013B000167EF507E0D5FF05FF0D9762DCE70023F9
:1013C000E2E723681A7E920704D41B7E5B07B5D43C
:1013D00012203BE02000224B9847042036E09B6A15
:1013E000BCE76279012A06D0002A35D1E379002BC7
:1013F0001AD100202AE023681B7E9B07FBD5F3E768
:1014000023681A7E520729D51A7E520708D55A8BAF
:10141000520701D504225A83A279012A11D09B6A6E
:101420006046013883B29C466346002B0BD00023F4
:101430000C4A9342E4D82268127E5207E0D401336A
:10144000F6E79B6AECE7002000E0052002B01CBC38
:1014500090469946A246F0BD0020F7E71220F5E736
:10146000410F000010270000F0B5DE4657464E46FB
:101470004546E0B585B004000091029298463823B5
:10148000C35C052B00D11FE14346002B01D117217E
:101490001BE1C379002B01D11C2116E14379002BFC
:1014A00003D103681B7E9B0704D4C4460023039327
:1014B00000217CE08A4B9847F7E70023894A934252
:1014C00005D82268127ED20701D40133F6E72368DB
:1014D0001A7E920704D41B7EDB0771D41221F4E03C
:1014E00020007F4B98470421EFE00231009A925D83
:1014F0001202504602438EB271E002360099095C36
:101500000902504601438846B0B21AE0013FBFB21B
:1015100006002268127E52071DD40133714A93429D
:1015200019D82268117EC907F3D5701C80B20099C2
:10153000895D8A466D46E980E9888846A179012956
:10154000DBD0167EF107E1D54146C905C90D916290
:10155000DCE70023E2E723681A7E920704D41B7EAF
:101560005B0745D41221B0E020005D4B9847042171
:10157000ABE000214DE09A6AD205D30D984602E017
:10158000002398461021002900D09EE00398030014
:1015900001339BB2424669468A718979029A115495
:1015A0001170A17901293BD003933100B84643461D
:1015B0005F1EBFB2002B3AD06379002B00D17CE7CD
:1015C00023681A7ED207FBD54E1CB6B2009A525C35
:1015D00092466846C280C288A079012885D0197ECB
:1015E000C90702D5D205D20D9A626379002BB0D01B
:1015F00023681A7E5207FBD56246013A92B294469E
:101600001A7E5207BCD55A8B5207B2D504225A8390
:101610001E21A279012AAED09A6AD3B29846B2E7C7
:1016200002304246120A0299CA5483B2BCE7627978
:10163000012A03D0002A3BD0002146E023681B7E0C
:101640009B07FBD5F6E70133264A934203D822686D
:10165000127E5207F7D523681A7E52073DD562469F
:10166000013A92B294461A7E520711D55A8B52070C
:1016700008D504225A831E21A279012A04D09A6A2D
:10168000D2B207E00021F7E79A6AD205D20D01E055
:1016900042461021002918D10398030001339BB260
:1016A000D1B2029D29542970A179012905D0039353
:1016B0006346002B06D00023C6E70230120AEA5424
:1016C00083B2F4E7002100E00521080005B03CBC2E
:1016D00090469946A246AB46F0BD1221F5E7C046BA
:1016E000410F00001027000070B50568C16A0A7834
:1016F000D2B293B24C1CC4628679012E07D0DB05AE
:10170000DB0DAB62838E013B9BB2838670BD4B7851
:101710001B0213438C1CC462F1E700000368044AF7
:1017200012889A62438E013B9BB243867047C04643
:10173000FC00002003689B6A438E013B9BB24386FA
:10174000704703689B6ADB05DB0DDAB2816A0A70B9
:10175000826A511C81628179012904D0038E013B88
:101760009BB2038670471B0A5370836A01338362FE
:10177000F4E70000F8B580006B4BC45826683723A7
:10178000E35C3622A75C1F40337EB57D1D40EB072E
:1017900016D56379012B4DD06379012B57D0002BDF
:1017A0000ED1637A002B0BD02000604B9847A38E9C
:1017B0009BB2002B04D101333375637A012B4AD0DD
:1017C0006B0711D5738B5B074FD5637A012B08D05C
:1017D0001E223823E254353B6372023333753B07D4
:1017E0003FD4B36A04237383AB0713D56379002B0B
:1017F0000DD107333375053B337601336372002314
:10180000A386238638330022E254FB0664D463792E
:10181000012B65D02B0708D56379002B05D1083340
:1018200033753376BB0600D570E06DB2002D00DA5B
:1018300070E0F8BD637A002BAED120003C4B984796
:10184000638E9BB2002BA7D101333375A4E7627A74
:10185000002AA9D1A3E7E379002BB1D10233B375F4
:10186000AEE72000A3699847BBE7637A012B17D046
:101870002000304B9847238E9BB2002BB4D100221E
:101880003833E254343B3375637A022B1DD0637ACC
:10189000002BA9D1BB07A7D5200023699847A3E750
:1018A0002000254B9847638E9BB2002B9CD10433BC
:1018B000337500223433E254353B6372FB0700D4A6
:1018C00092E72000E36898478EE77B0700D48BE718
:1018D00020006369984787E72000E369984796E707
:1018E000637A012B00D095E7E379002B00D091E7D4
:1018F000023333750133637200223533E254FB0740
:1019000000D487E72000E368984783E72000236A34
:1019100098478AE78023337533767B0600D488E7BF
:10192000636A2000984784E700010020E916000060
:101930001D17000043170000351700007047000016
:1019400030B50B4B1B78002B08D00CE09A00094DEA
:10195000094C15510025094C15510133052BF5D9BA
:101960000122034B1A708000034BC15030BDC046AA
:10197000820000203D1900008400002000010020AA
:1019800000B583B0054B1A6800929B886A46938025
:10199000034B98476B46185603B000BD2028000043
:1019A0002509000010B5024B1B680020984710BDA8
:1019B0008400002010B5024B5B680120984710BDE1
:1019C0008400002010B5024B9B680220984710BD90
:1019D0008400002010B5024BDB680320984710BD3F
:1019E0008400002010B5024B1B690420984710BDED
:1019F0008400002010B5024B5B690520984710BD9C
:101A000084000020704700000C4B1B68002B06D19F
:101A1000EFF31083002B07D00022094B1A70074AFE
:101A2000136801331360704772B6BFF35F8F0022F3
:101A3000044B1A700132024B1A70F0E79C00002030
:101A4000A000002008000020084B1A68013A1A6024
:101A50001B68002B09D1064B1B78002B05D00122F7
:101A6000044B1A70BFF35F8F62B670479C00002072
:101A7000A00000200800002010B582B0012201ABB8
:101A80001A70002404E0E0B201A9034B9847013426
:101A9000242CF8D902B010BD191F000010B5082879
:101AA00032D880001B4B1B589F468020000210BD7F
:101AB000194B1869FBE7194B1B6A9B059B0F1848CC
:101AC000D840F4E7144B5869F1E7134B1B689B07A8
:101AD0001CD5124BDB68DB06FBD50F4B1B685B0785
:101AE00001D41048E3E700200F4B98470A4B9B684E
:101AF0001B041B0C5843DAE75023084AD35C5B07EE
:101B000006D5054BD868D2E70020D0E70020CEE705
:101B10000020CCE728280000A40000200008004096
:101B200000127A00006CDC02351F000070B50C4D0D
:101B30002E6A027803210A4012020A4931401143F9
:101B4000827801242240D201802399430A434378BA
:101B500023409B0140218A4313432B6270BDC04642
:101B600000080040FFFCFFFF08284AD88000264BF1
:101B70001B589F4600207047244A136A02210B43DA
:101B800013620020F7E7214A936902210B43936116
:101B90000020F0E71D4A138A02210B439BB21382F7
:101BA0000020E8E7194A938A02210B439BB29382F3
:101BB0000020E0E716490B68022213430B60134B29
:101BC0009A84124BDB68DB06FBD5114A91680F4BF8
:101BD000D96252689A6200229A840C4BDB68DB0659
:101BE000FBD50B4B1B689BB2084A93840020C2E7CD
:101BF000064944228B5C02200343DBB28B54002055
:101C0000B9E71720B7E7C0464C280000000800409D
:101C1000A400002030B585B0C222D200154B9A60D6
:101C2000154B59681E2291435960144B984703A8DD
:101C300000244470012585700470114B98470620DC
:101C4000104B9847104B9847104B1C725C729C725B
:101C5000DC7201956B465C7006236A461370147241
:101C60005472694600200A4B98470020094B984758
:101C700005B030BD0008004000400041791A000066
:101C80002D1B0000691B0000991C0000000400408F
:101C9000BD1C00008D1D0000064A936908210B43FE
:101CA00093610122044B1A70034B1B78DB07FBD4B2
:101CB0007047C04600040040000C0040F8B5060024
:101CC00005000C78240204434B78002B02D08023BB
:101CD000DB021C434B7A002B02D080231B031C43E6
:101CE0004868012812D9431E03423DD005023543FE
:101CF00080239B021C4309E001325B008342FBD33B
:101D000012023243150080235B031C430B7A002B25
:101D100002D080239B031C43184B5B785BB2002BE3
:101D200025DB0027002FF7D1154B9847154B1E7068
:101D3000124B5B785BB2002B1BDB3A00002AF7D119
:101D40000E4B9D600D4B5B785BB2002B13DB1300D9
:101D5000002BF7D1094A5368802149020B401C43EC
:101D60005460094B9847F8BD02230022C6E70127BB
:101D7000D8E70122E2E70123EAE7C046000C004071
:101D8000091A0000080C0040491A000070B505004F
:101D9000104B5B785BB2002B17DB0024002CF7D1D3
:101DA0000D4B98470D4B1D700A4B5B785BB2002BB7
:101DB0000DDB2300002BF7D1064A516880235B021C
:101DC0000B435360064B984770BD0124E6E701239F
:101DD000F0E7C046000C0040091A0000040C004067
:101DE000491A0000F8B50700224B5B785BB2002B64
:101DF00034DB0025002DF7D11F4B98471F4B1F7078
:101E00001C4B5B785BB2002B2ADB2C00002CF7D13B
:101E1000184E7068C004C00E194B98470500174B48
:101E20001F707668F602F60F164B1F70114B5B7829
:101E30005BB2002B16DB2300002BF7D10D4B9C6807
:101E40002402240C104B9847002E0DD1012C0BD9E5
:101E5000210028000D4B9847050009E00125C9E73E
:101E60000124D3E70123E7E7002E01D00134E54048
:101E70002800F8BD000C0040091A0000040C0040C6
:101E80009D1A0000080C0040491A0000E9220000D9
:101E900010B50400064B9847064B1C70064A538841
:101EA0008021C9010B435380044B984710BDC046A5
:101EB000091A0000020C0040000C0040491A000002
:101EC00010B504000E4B98470E4B1C700E494B8802
:101ED0001B051A0F4B880D4803404B804B880C485C
:101EE00003404B80084B5B885B04FBD40648418869
:101EF0001302064A0A4013434380064B984710BD1D
:101F0000091A0000020C0040000C0040FFF0FFFF27
:101F1000FFBFFFFF491A000010B50C7824020443EC
:101F2000024B9847A4B2024B5C8010BDC11E00005A
:101F3000000C004010B50400064B9847064B1C707F
:101F4000064B5C882405240F054B98472000054B61
:101F5000984710BD091A0000020C0040000C004018
:101F6000491A0000E51D000070B5D378002B20D180
:101F70001578802D1BD02D0680235B021D435378DE
:101F8000002B01D0022B0AD180239B022B43947893
:101F9000002C02D0C023DB022B4341601D0053788C
:101FA000013BDBB2012B06D8134B1D4003E000259B
:101FB000E5E7416000250C04240C0B0C2C43A02603
:101FC000F605344384622B43D024240623438362E2
:101FD000D378002B0AD16B0303D59378012B06D05D
:101FE00041615378013BDBB2012B02D970BD8161A5
:101FF000F7E78160FAE7C046FFFFFBFF10B50A0074
:10200000C109430900290BD1DB0106498C46634411
:102010001F242040012181401800034B984710BD28
:102020000023F5E700440041691F000070470000ED
:1020300010B5054B9847054B9847054B9847054BFE
:102040009847054B984710BD151C0000051A000065
:102050002D2000002D2000002D200000FEE70000B4
:10206000F8B5234A234B9A4209D0224B204A03E079
:1020700011681960043304321F498B42F8D31F4B97
:1020800002E000221A6004331D4A9342F9D31D4A2C
:10209000FF211D4B8B439360FD3990235B001B4A4E
:1020A000D1501B4AD3780325AB4302242343D3707A
:1020B000D3780C27BB4308263343D370154B987B4A
:1020C00030229043202210439873997BB9433143C7
:1020D00099739A7BAA4322439A730F4A51688023CB
:1020E0000B4353600D4B98470D4B9847FEE7C04696
:1020F000D0280000000000200C0000200C00002070
:102100001801002000ED00E0000000000070004118
:102110000050004100480041004000419D27000060
:1021200085220000F0B5CE46474680B583B001ACAD
:1021300000239846237001266670A37021000B20AF
:10214000254DA847267021000A20A847234F802349
:10215000DB00BB6121000520A8472023BB612100D3
:102160000620A8474023BB6121000720A847802301
:102170009946BB6143462370667021000F20A84733
:10218000267021000E20A8478023DB01BB6126704A
:102190000223637021002F20A8473B004B4480227C
:1021A00012029A612670667021001120A8478023D0
:1021B0009B02BB614346237021003020A847267054
:1021C00021001720A84780231B04BB6103B00CBC6F
:1021D00090469946F0BDC046C90500000044004144
:1021E00000B583B001A80023037001228270437000
:1021F000014B984703B000BD2D1B000000B585B012
:102200000A4B984700230A4A137201A906220A7052
:102210004B724B70053A4A600B720020054B984791
:102220000020054B984705B000BDC046991C000032
:1022300000040040BD1C00008D1D000010B5034BC4
:102240009847034B9847034B984710BDE121000086
:10225000FD2100005D05000010B5054B9847054BBA
:102260009847054B9847054B9847054B984710BD35
:10227000312000003D22000025210000390200002D
:102280006103000010B584B002AC082200212000D8
:102290000F4B98470A2323800A3363800A33A380B5
:1022A0000822210068460B4B98470B4B9847642047
:1022B0000A4B98470A4B984700B26B461880094B67
:1022C00098476B46D8806420044B9847F2E7C04695
:1022D000F7270000E52700005922000099050000BB
:1022E0008501000019050000002243088B4274D3C9
:1022F00003098B425FD3030A8B4244D3030B8B4207
:1023000028D3030C8B420DD3FF22090212BA030C0F
:102310008B4202D31212090265D0030B8B4219D3F0
:1023200000E0090AC30B8B4201D3CB03C01A524110
:10233000830B8B4201D38B03C01A5241430B8B4258
:1023400001D34B03C01A5241030B8B4201D30B0341
:10235000C01A5241C30A8B4201D3CB02C01A524168
:10236000830A8B4201D38B02C01A5241430A8B422B
:1023700001D34B02C01A5241030A8B4201D30B0214
:10238000C01A5241CDD2C3098B4201D3CB01C01A2E
:10239000524183098B4201D38B01C01A5241430938
:1023A0008B4201D34B01C01A524103098B4201D326
:1023B0000B01C01A5241C3088B4201D3CB00C01A93
:1023C000524183088B4201D38B00C01A524143080B
:1023D0008B4201D34B00C01A5241411A00D2014630
:1023E000524110467047FFE701B5002000F006F8A3
:1023F00002BDC0460029F7D076E770477047C04657
:10240000F0B5CE46474615042D0C2E0080B50704C6
:10241000140C3F0C9946030C7E435D4367436343B2
:102420007F19340CE4199C46A54203D980235B0232
:102430009846C4444B46514343433604360C250C5E
:1024400024046544A4195918491920000CBC90466D
:102450009946F0BDF8B557464E464546DE46E0B5CE
:102460004702460088467F0A360EC40F002E47D02A
:10247000FF2E24D0FB008027FF041F430023994632
:102480009A467F3E43465D025800DB0F6D0A000E00
:10249000984643D0FF283BD0EB0080250022ED0476
:1024A0001D437F383618731C41469B464B4661409E
:1024B00013430F2B64D875489B00C3589F46002FC9
:1024C00042D108239946063BFF269A46DAE7414661
:1024D000022A28D0032A00D1CEE0012A00D0ACE0A5
:1024E000114000200022CCB24002D205400AE4078D
:1024F000104320433CBC90469946A246AB46F8BDEB
:10250000002F15D104239946033B00269A46B9E7CC
:10251000FF200222002DC5D00322C3E7002D19D1D0
:1025200000200122BEE70124FF220C400020DBE74F
:10253000380000F015F97626431F9F4000237642AD
:10254000361A99469A469DE70C239946093BFF2681
:102550009A4697E7280000F003F9431F9D40762331
:102560005B42181A00229DE780200024C003FF224E
:10257000BAE73D005246ABE73D0021005246A7E7CF
:102580003B0C9C462A04120C2B0C1400604665463A
:102590003F043F0C7C4342435D437B43270C9B1825
:1025A000FF18BA4203D980235B029C466544240489
:1025B0003A04240C121993015C1EA3413F0C920EA5
:1025C0007D191A43AD0115432B0104D501235E4645
:1025D0006A081D40154332007F32002A25DD6B0753
:1025E00004D00F232B40042B00D004352B0103D53E
:1025F0003200274B80321D40FE2A94DC0124A801C2
:10260000400AD2B20C406FE78020C003074207D0D7
:10261000054205D128434002400A4446FF2263E7B1
:1026200038434002400AFF225EE70124A31A1B2B15
:1026300005DD0C400022002056E75E46CBE72A006D
:102640002020DA40C31A9D402B005D1EAB4113438E
:102650005A0704D00F221A40042A00D004335A012A
:1026600004D5012401220C4000203DE701249B01F8
:10267000580A0C40002237E780200124C003284379
:102680004002400A0C40FF222EE7C046702800009E
:10269000FFFFFFF741024300C20F490A1B0E002053
:1026A0007E2B0DDD9D2B0CDC802000040143952B3F
:1026B0000ADC9620C31AD9404842002A00D10800FB
:1026C0007047034BD018FBE7963B9940F4E7C046B0
:1026D000FFFFFF7F10B5041E27D000F041F89E23B6
:1026E0001B1A962B0ADC9622D21A94406402640AC2
:1026F000DBB26402DB05600A184310BD992B17DCBE
:102700009922D21A002A27DD94402200134C14404B
:10271000510704D00F210A40042A00D0043462017A
:1027200012D4A401640ADBB2E3E700230024E0E74B
:10273000B9222100D21A91400A00511E8A41052176
:10274000091ACC401443DBE7044B1C409F23A4012F
:102750001B1A640ADBB2CCE72200D7E7FFFFFFFBBE
:102760001C2101231B04984201D3000C10391B0AC1
:10277000984201D3000A08391B09984201D3000985
:10278000043902A2105C40187047C04604030202DC
:1027900001010101000000000000000070B50026EA
:1027A0000C4D0D4C641BA410A64209D1002600F06C
:1027B0007FF80A4D0A4C641BA410A64205D170BDD7
:1027C000B300EB5898470136EEE7B300EB58984753
:1027D0000136F2E7BC280000BC280000BC2800003D
:1027E000C0280000002310B59A4200D110BDCC5C77
:1027F000C4540133F8E703008218934200D17047B4
:1028000019700133F9E7000000080042000C004293
:10281000001000420014004200180042001C004258
:10282000090A0B0C0D0E0000B01A0000081B000076
:10283000081B0000AA1A0000AA1A0000C41A00000F
:10284000B61A0000CA1A0000F81A0000941B000013
:10285000021C0000021C0000741B0000861B00000C
:10286000A41B0000781B0000B41B0000F01B00003C
:1028700080250000D0240000D0240000CE240000D9
:10288000722500007225000068250000CE2400009B
:10289000722500006825000072250000CE2400008B
:1028A0007825000078250000782500000826000023
:1028B000F8B5C046F8BC08BC9E467047DD00000075
:1028C000F8B5C046F8BC08BC9E467047B50000008D
:0C28D000401F0000080000000100000094
:040000030000206178
:00000001FF
