S01200007278626F6172645F65782E73726563E4
S1130000F82000201D1E0000191E0000191E00000B
S113001000000000000000000000000000000000DC
S1130020000000000000000000000000191E000095
S11300300000000000000000191E0000191E00004E
S1130040191E0000191E0000191E0000191E0000D0
S1130050191E0000191E0000191E0000191E0000C0
S1130060191E0000611700007117000081170000BD
S113007091170000A1170000B1170000191E00001D
S1130080191E0000191E0000191E0000191E000090
S1130090191E0000191E0000191E0000191E000080
S11300A0191E0000191E0000191E0000191E000070
S11300B00000000010B5064C2378002B07D1054B37
S11300C0002B02D0044800E000BF0123237010BDC0
S11300D00C00002000000000C4220000084B10B5F2
S11300E0002B03D00749084800E000BF0748036815
S11300F0002B00D110BD064B002BFBD09847F9E72D
S11301000000000010000020C4220000C4220000EF
S113011000000000F0B591B0314B1B78002B01D0EA
S113012011B0F0BD02AC0126267000256560A56003
S1130130C0239B03E36025746574A674E674257577
S11301402427E5550C22002108A8264B98478C2328
S11301509B03E360244BA362244BE36201235B42D1
S11301602363234B6363E555224BA361224D220095
S113017022492800224B98472C682000214B98479D
S11301801F2318408640204B1E601B4B1B68DB69F5
S1130190002BFAD1236802221343236000231B4C53
S11301A00F3222706370A370103A69464A708B70E4
S11301B00A701120164B98472178CA094B09002A66
S11301C00CD1DB01134A944663441F220A400121E7
S11301D0080090409861024B1970A1E70023F4E7EE
S11301E02800002027220000020010000200130053
S11301F00200120040420F009C000020000C00424C
S1130200550D00003D17000000E100E0D80000207B
S1130210E50800000044004110B582B0104B1843BB
S113022080B26B46D880002903D14004400C6B4651
S1130230D8806B469A1DDB8819021B0A0B43138076
S1130240012208490848094B98470528F8D0022399
S1130250074A694606310448064CA04702B010BD5F
S113026000F0FFFFD80000209C0000203D0F00009C
S11302702A0000202512000010B50022024903487C
S1130280034B984710BDC046D80000209C000020B6
S11302903D0F000010B50A00002301000148024C84
S11302A0A04710BD9C000020410E000010B582B094
S11302B06B46DC1D002323700021054B9847012168
S11302C02000044B9847044B9847207802B010BD97
S11302D019020000950200007902000010B50A001E
S11302E001000248024B984710BDC0469C00002004
S11302F03910000010B582B06B46DC1DD9710121A4
S1130300054B984701212000044B98470400044BF7
S11303109847200002B010BD19020000DD02000061
S11303207902000010B518213320044B984733207C
S1130330034B9847C306FAD410BDC046F50200002B
S1130340AD02000010B565210220FE4CA0476420D8
S1130350FD4B984708211020A04700211120A047F9
S113036006211220A04702212120A0470221222099
S1130370A04702212320A04702212520A0470221D3
S11303802620A04701216E20A0470621802040009E
S1130390A04766210220FF30A047052181204000AC
S11303A0A04705210420FF30A047352182204000CA
S11303B0A04755210620FF30A0470021832040009C
S11303C0A04700210820FF30A047002184204000DE
S11303D0A04780210A20FF30A04729218520400022
S11303E0A04789210C20FF30A0472221862040000D
S11303F0A047C0210E20FF30A047DD218720400008
S1130400A04740211020FF30A04700211620FF30D4
S1130410A047F4211820FF30A047E8219020400095
S1130420A0478F212220FF30A047002191204000C7
S1130430A047AD2192204000A047A7212620FF30ED
S1130440A047C32193204000A0470F212820FF305C
S1130450A0471F2194204000A0470A212A20FF30F2
S1130460A0470A2195204000A04701212C20FF30FD
S1130470A047002196204000A04700212E20FF30F5
S1130480A047162197204000A04700213020FF30CC
S1130490A047E82198204000A0478F213220FF3058
S11304A0A047002199204000A04700213420FF30BC
S11304B0A047AB219A204000A047A6213620FF3058
S11304C0A047C3219B204000A0470F213820FF30C4
S11304D0A0471F219C204000A0470A213A20FF305A
S11304E0A0470A219D204000A04701213C20FF3065
S11304F0A04700219E204000A0474B213E20FF3012
S1130500A04716219F204000A04700214020FF3033
S1130510A047FF21A8204000A0478F215220FF3090
S1130520A0470021A9204000A04700215420FF300B
S1130530A047AA21AA204000A047A5215620FF30A9
S1130540A047C321AB204000A0470F215820FF3013
S1130550A0471F21AC204000A0470D215A20FF30A6
S1130560A0470D21AD204000A04701215C20FF30B1
S1130570A0470021AE204000A0474B215E20FF3061
S1130580A0471621AF204000A04700216020FF3083
S1130590A0470021B0204000A04700216220FF3086
S11305A0A0470221B1204000A0470C216420FF3065
S11305B0A0470521B2204000A04700216620FF305B
S11305C0A0470421B3204000A047EA216820FF305F
S11305D0A0470221B5204000A04707216C20FF302E
S11305E0A0478A21C0204000A04703218420FF3077
S11305F0A0470F21C4204000A04777218A20FF3064
S1130600A047802180208000A04700214F48A047B8
S113061004214F48A047C8214E48A047AA2184205E
S11306208000A047CC214C48A047AA214B48A047B2
S1130630CC214B48A0479F2185208000A0471F2143
S11306404848A047552186208000A04755214648A8
S1130650A0478A2187208000A0470A214348A04759
S1130660322188208000A04714214148A04732212C
S11306704048A047142189208000A04700213E481B
S1130680A04773213D48A04703218A208000A0474A
S113069035213B48A04784213A48A04784213A4861
S11306A0A0470D218C208000A04720213748A04777
S11306B00021CC208000A04700213548A04700211C
S11306C03448A04703213448A0470321F120000106
S11306D0A04707213148A04707213148A047682196
S11306E03048A047FF213048A04784212F48A04725
S11306F098212F48A04708212E48A04710212E48B2
S1130700A04725212D48A0470A213020A0471021C9
S11307103120A04730213220A0471321C2204000BD
S1130720A0470F21F0200001A04706212448A0473C
S113073001213720A04700213620A04790213520F1
S1130740A0473FE0F5020000B508000001020000E8
S11307500202000003020000110200001202000065
S11307601302000016020000190200001E0200001D
S113077021020000230200002502000026020000DE
S11307802A0200002D0200002F02000033020000A4
S113079031030000320300000D0F0000110F0000B0
S11307A01C0F0000210F0000220F0000230F000087
S11307B0260F0000340F0000350F0000440F000026
S11307C0180F00000A213420A04700210F48A04739
S11307D000210F48A04704210E48A0471D200E4BBE
S11307E09847C307FAD50D4B984700210C480D4C88
S11307F0A04710210C48A04769210220A04764208B
S11308000A4B984703212820A04710BD2702000067
S11308102902000031020000AD020000250300009F
S113082033020000F502000032020000B5080000A7
S113083010B54020014B984710BDC046AD020000E2
S113084010B584B0019002AC042201A909206844C7
S1130850064B984724232370013363710622210039
S11308600348044B984704B010BDC046152200004D
S11308702C000020590B000010B50020084B9847AD
S1130880084CFA218900A047074B1860FA21890017
S1130890A047064B18600522054B1A6010BDC046E0
S11308A0A11B0000B520000000000020040000206F
S11308B010E000E000E01000421E00280CD0074BBE
S11308C01B68002BF7D006494B6000238B60044B58
S11308D01B68DB03FBD5EEE77047C0460000002031
S11308E010E000E000B583B001AB80221A700A78F2
S11308F05A704A789A708A78DA701900014B9847CE
S113090003B000BDB91D00004908814201D2402056
S11309107047002302E0091A01339BB28142FAD2E4
S1130920013B9BB2FF2B01D94020F1E7138000204B
S1130930EEE7000010B582B004000E4B1B78002BCC
S113094007D0002905D10B4B5B78834210D01D20C2
S11309500CE001A90C701320074B98471320074B98
S11309609847044B5C7001221A70002002B010BD3D
S11309700020FBE760000020D51C00004D1C000097
S1130980404B984231D00AD93F4B98424DD03F4B0F
S113099098425AD03E4B984237D0002070473D4B86
S11309A098420CD03C4B9842F7D101295FD00029E2
S11309B015D0022915D0032915D00020EEE701290E
S11309C053D0002905D0022905D0032905D00020E1
S11309D0E4E73248E2E73248E0E73248DEE7032062
S11309E0DCE73148DAE73148D8E7012941D000296A
S11309F005D0022905D0032905D00020CEE72C48D4
S1130A00CCE72C48CAE72C48C8E7012933D0002991
S1130A1005D0022905D0032905D00020BEE72748C8
S1130A20BCE72748BAE72748B8E7012925D00029B9
S1130A3005D0022905D0032905D00020AEE72248BD
S1130A40ACE72248AAE72248A8E7012917D00029E1
S1130A5005D0022905D0032905D000209EE71D48B2
S1130A609CE71D489AE71D4898E71D4896E71D48EE
S1130A7094E71D4892E71D4890E71D488EE71D48FE
S1130A808CE7C0460010004200180042001C0042DF
S1130A900014004200080042000C0042030004005D
S1130AA0030006000300070003001E0003001F00EC
S1130AB00300080003000A0003000B0003001000F9
S1130AC0030012000300130003000C0003000E00D7
S1130AD003000F00030016000300180003001900B0
S1130AE003000500030001000300090003001100D6
S1130AF003000D000300170030B587B00A4C6B46A5
S1130B00220032CA32C332CA32C30023052B08D8AA
S1130B109A0069465258824201D00133F6E7D8B2AE
S1130B2000E0002007B030BD382200000368C2791D
S1130B30002A01D11C207047C28D92B2002A01D034
S1130B400520F8E7DA69002AFCD119851A7E920794
S1130B50FCD50020EFE70000F0B5C64600B5040060
S1130B600D00002A03D1172004BC9046F0BDC379C0
S1130B70002B01D11C20F7E70668F369002BFCD198
S1130B8000200CE0431C9BB298462B5C99B262791E
S1130B90012A14D02000184B984740463A00571EAB
S1130BA0BFB2002A13D00023144A9342EAD8327EFB
S1130BB0D207E7D4114A934219D00133F4E7023043
S1130BC04246A95C0902194383B29846E2E700232E
S1130BD000E00133094A934207D8327E920708D4D1
S1130BE0064A9342F5D11220BEE70020BCE712204A
S1130BF0BAE70020B8E7C0462D0B0000FFFF000055
S1130C00036802221A767047F0B587B007000D001A
S1130C10066805AB80221A7000225A70012199706F
S1130C20DA702B78002B01D105AB9A70AB6A019373
S1130C30EB6A02932B6B03936B6B0493002406E023
S1130C40210030003D4B984708E00134E4B2032C06
S1130C500DD8A30001AA98580028F1D0431CF4D061
S1130C6005A90870000CC0B2354B9847EDE72B7806
S1130C707B712B7CBB71AB7CFB712B7D3B720022A7
S1130C806B465A802B78012B14D02B78002B27D15C
S1130C90AB69AA8B1100706AAC7FEF7F3F043C43C1
S1130CA0204370622020285C00281BD0402111437F
S1130CB089B217E03868234B98471430C0B2224BEE
S1130CC0984701006B469A1CA869204B9847002856
S1130CD001D0172030E06B4602331B783373D4E71E
S1130CE0002100236A681343AA681343EA68134384
S1130CF02A7C0A43697C002903D11549897889072C
S1130D0001D580210B43A97C002902D080218902CE
S1130D100A43E97C002902D0802189000A43297D05
S1130D20002902D0802189010A4331680B433360D2
S1130D3073681A437260002007B0F0BD8109000097
S1130D40B91D0000F90A0000F11C000009090000A7
S1130D5000200041F0B585B005000C0016002960A4
S1130D600B689B0702D51C2005B0F0BD0B68DB07A0
S1130D7001D50520F8E70800284B9847821C143059
S1130D8001239340264A116A0B4313622427F35D1F
S1130D9003A90B70C3B201931800224B9847019822
S1130DA0214B9847F05D0021204B98473378012B65
S1130DB008D03378002B03D123680822134323601F
S1130DC000230BE023680C2213432360F1E79A1CF1
S1130DD09200AA18002151600133DBB2062BF6D928
S1130DE00022EA62AA620023AA862A863632AB541B
S1130DF00132AB540132AB54353A6A722B71286814
S1130E00064B984704000A490A4B9847A4000A4B2A
S1130E10E55031002800094B9847A5E7F90A00007E
S1130E2000040040D51C00004D1C000035090000E2
S1130E3031150000FD160000E0000020090C000040
S1130E40F8B504000E0017001D003823C35C052B01
S1130E506DD0002A01D117226AE0C379002B01D199
S1130E601C2265E04379002B03D103681B7E9B079A
S1130E7001D4002037E02F4B9847FAE723681A7E05
S1130E80D207FBD51A7ED20734D5EA05D20D9A6271
S1130E9030E00023284A934205D82268127E520784
S1130EA001D40133F6E723681A7E920704D41B7E2B
S1130EB05B0722D412223BE020001E4B98470422F9
S1130EC036E0002226E09F6AFF05FF0D01E00027BF
S1130ED01022002A2CD1431C9BB23754A279012A38
S1130EE01ED018000F00791E89B2002F1DD063791F
S1130EF0012BC3D06379002BCBD023681A7E520711
S1130F00FBD51A7E5207E2D55A8B5207D9D5042253
S1130F105A831A32A779012FD5D09F6AFFB2D8E736
S1130F2002303F0AF75483B2DBE7002200E00522D7
S1130F301000F8BD010C00001027000010B5437923
S1130F40012B01D0152010BD037A002B6CD1002A8F
S1130F5058D04B78002B43D003681B7EDB0711D499
S1130F600A78D109530900290AD1DB0131498C4699
S1130F7063441F21114001228A409A610520E2E75F
S1130F800023F6E70A78D4095309002C04D1DB01C5
S1130F90284CA446634400E000231F24144001228B
S1130FA0A2405A618A780368197EC90700D59A62FB
S1130FB0C379002B3AD103681A7E5207FBD51A7EF7
S1130FC0520735D55A8B520701D504225A838279A8
S1130FD0012A02D09B6A0020B5E79B6A0020B2E791
S1130FE00A78D109530900290AD1DB0111498C4639
S1130FF063441F21114001228A405A610020A2E764
S11310000023F6E70A78D109530900290AD1DB0144
S113101008498C4663441F21114001228A409A6189
S1131020002090E70023F6E700208CE700208AE701
S1131030002088E700440041F0B5D6464F464646B6
S1131040C0B582B004008A4617003823C35C052B60
S113105000D1D8E0002A01D11720D5E04379002B34
S113106003D103681B7E9B0702D4BC46002625E0FF
S11310706A4B9847F9E70023694A934205D82268E6
S1131080127ED20701D40133F6E723681A7E920751
S113109004D41B7EDB0718D41220B5E020005F4B7C
S11310A098470420B0E00236B6B25246D25D12022E
S11310B0024317E0E3790F00002B1AD1791E89B29D
S11310C0002F6CD06379002BD5D023681A7ED20709
S11310D0FBD5771CBFB25246905D82B2A579012D33
S11310E0E1D03E001F7EF807E4D5D205D20D9A6206
S11310F0E0E76379002B40D023681A7E5207FBD5C2
S11311001A7E520708D55A8B520701D504225A83F6
S1131110A279012A41D09B6A6046013883B29C4679
S11311200F00CBE7023655462F5C3F02404607438B
S1131130B0B21BE0013989B206002268127E520760
S11311401DD40133364A934219D80029F5D02268B8
S1131150177EF807F1D5701C80B25546AD5DA846E0
S11311606F46FD80FF88A579012DDBD0167EF5073B
S1131170E0D5FF05FF0D9762DCE70023E2E7236873
S11311801A7E920704D41B7E5B07B5D412203BE081
S11311902000224B9847042036E09B6ABCE7627922
S11311A0012A06D0002A35D1E379002B1AD1002078
S11311B02AE023681B7E9B07FBD5F3E723681A7E8E
S11311C0520729D51A7E520708D55A8B520701D5E2
S11311D004225A83A279012A11D09B6A60460138FD
S11311E083B29C466346002B0BD000230C4A9342E7
S11311F0E4D82268127E5207E0D40133F6E79B6AF2
S1131200ECE7002000E0052002B01CBC90469946A3
S1131210A246F0BD0020F7E71220F5E7010C00001C
S113122010270000F0B5DE4657464E464546E0B569
S113123085B004000091029298463823C35C052BC4
S113124000D11FE14346002B01D117211BE1C379D3
S1131250002B01D11C2116E14379002B03D1036833
S11312601B7E9B0704D4C4460023039300217CE027
S11312708A4B9847F7E70023894A934205D82268A6
S1131280127ED20701D40133F6E723681A7E92074F
S113129004D41B7EDB0771D41221F4E020007F4BC1
S11312A098470421EFE00231009A925D1202504601
S11312B002438EB271E002360099095C090250467D
S11312C001438846B0B21AE0013FBFB2060022686B
S11312D0127E52071DD40133714A934219D82268F1
S11312E0117EC907F3D5701C80B20099895D8A46C6
S11312F06D46E980E9888846A1790129DBD0167E0C
S1131300F107E1D54146C905C90D9162DCE7002327
S1131310E2E723681A7E920704D41B7E5B0745D458
S11313201221B0E020005D4B98470421ABE000217E
S11313304DE09A6AD205D30D984602E00023984600
S11313401021002900D09EE00398030001339BB2D2
S1131350424669468A718979029A11541170A179B9
S113136001293BD003933100B84643465F1EBFB208
S1131370002B3AD06379002B00D17CE723681A7ED6
S1131380D207FBD54E1CB6B2009A525C9246684610
S1131390C280C288A079012885D0197EC90702D5E8
S11313A0D205D20D9A626379002BB0D023681A7EDD
S11313B05207FBD56246013A92B294461A7E52070E
S11313C0BCD55A8B5207B2D504225A831E21A27966
S11313D0012AAED09A6AD3B29846B2E702304246A6
S11313E0120A0299CA5483B2BCE76279012A03D073
S11313F0002A3BD0002146E023681B7E9B07FBD5D7
S1131400F6E70133264A934203D82268127E520734
S1131410F7D523681A7E52073DD56246013A92B247
S113142094461A7E520711D55A8B520708D50422C6
S11314305A831E21A279012A04D09A6AD2B207E003
S11314400021F7E79A6AD205D20D01E04246102145
S1131450002918D10398030001339BB2D1B2029D35
S113146029542970A179012905D003936346002BDF
S113147006D00023C6E70230120AEA5483B2F4E726
S1131480002100E00521080005B03CBC90469946C7
S1131490A246AB46F0BD1221F5E7C046010C0000A0
S11314A01027000070B50568C16A0A78D2B293B2F9
S11314B04C1CC4628679012E07D0DB05DB0DAB62C0
S11314C0838E013B9BB2838670BD4B781B02134312
S11314D08C1CC462F1E700000368044A12889A6213
S11314E0438E013B9BB243867047C046DC0000201C
S11314F003689B6A438E013B9BB243867047036833
S11315009B6ADB05DB0DDAB2816A0A70826A511CC0
S113151081628179012904D0038E013B9BB2038649
S113152070471B0A5370836A01338362F4E7000037
S1131530F8B580006B4BC45826683723E35C362229
S1131540A75C1F40337EB57D1D40EB0716D563793C
S1131550012B4DD06379012B57D0002B0ED1637A28
S1131560002B0BD02000604B9847A38E9BB2002B1E
S113157004D101333375637A012B4AD06B0711D53B
S1131580738B5B074FD5637A012B08D01E22382357
S1131590E254353B6372023333753B073FD4B36A7D
S11315A004237383AB0713D56379002B0DD1073361
S11315B03375053B3376013363720023A386238698
S11315C038330022E254FB0664D46379012B65D0DE
S11315D02B0708D56379002B05D10833337533768F
S11315E0BB0600D570E06DB2002D00DA70E0F8BDE6
S11315F0637A002BAED120003C4B9847638E9BB29C
S1131600002BA7D101333375A4E7627A002AA9D14C
S1131610A3E7E379002BB1D10233B375AEE7200021
S1131620A3699847BBE7637A012B17D02000304B9E
S11316309847238E9BB2002BB4D100223833E25456
S1131640343B3375637A022B1DD0637A002BA9D106
S1131650BB07A7D5200023699847A3E72000254BA3
S11316609847638E9BB2002B9CD1043333750022C0
S11316703433E254353B6372FB0700D492E7200015
S1131680E36898478EE77B0700D48BE72000636903
S1131690984787E72000E369984796E7637A012B28
S11316A000D095E7E379002B00D091E7023333753E
S11316B00133637200223533E254FB0700D487E719
S11316C02000E368984783E72000236A98478AE765
S11316D08023337533767B0600D488E7636A200061
S11316E0984784E7E0000020A5140000D914000006
S11316F0FF140000F11400007047000030B50B4BDC
S11317001B78002B08D00CE09A00094D094C1551A8
S11317100025094C15510133052BF5D90122034B42
S11317201A708000034BC15030BDC04662000020D7
S1131730F916000064000020E000002000B583B02A
S1131740054B1A6800929B886A469380034B98471E
S11317506B46185603B000BD50220000F90A000081
S113176010B5024B1B680020984710BD6400002090
S113177010B5024B5B680120984710BD640000203F
S113178010B5024B9B680220984710BD64000020EE
S113179010B5024BDB680320984710BD640000209D
S11317A010B5024B1B690420984710BD640000204B
S11317B010B5024B5B690520984710BD64000020FA
S11317C0704700000C4B1B68002B06D1EFF310830D
S11317D0002B07D00022094B1A70074A1368013303
S11317E01360704772B6BFF35F8F0022044B1A7008
S11317F00132024B1A70F0E77C00002080000020C8
S113180008000020084B1A68013A1A601B68002B74
S113181009D1064B1B78002B05D00122044B1A700A
S1131820BFF35F8F62B670477C0000208000002009
S11318300800002010B582B0012201AB1A70002408
S113184004E0E0B201A9034B98470134242CF8D9F1
S113185002B010BDD51C000010B5082832D8800095
S11318601B4B1B589F468020000210BD194B186962
S1131870FBE7194B1B6A9B059B0F1848D840F4E7FC
S1131880144B5869F1E7134B1B689B071CD5124B8B
S1131890DB68DB06FBD50F4B1B685B0701D41048E4
S11318A0E3E700200F4B98470A4B9B681B041B0C73
S11318B05843DAE75023084AD35C5B0706D5054B47
S11318C0D868D2E70020D0E70020CEE70020CCE79C
S11318D058220000840000200008004000127A0012
S11318E0006CDC02F11C000070B50C4D2E6A02780D
S11318F003210A4012020A4931401143827801242B
S11319002240D201802399430A43437823409B0118
S113191040218A4313432B6270BDC0460008004037
S1131920FFFCFFFF08284AD88000264B1B589F461F
S113193000207047244A136A02210B4313620020DB
S1131940F7E7214A936902210B4393610020F0E7F2
S11319501D4A138A02210B439BB213820020E8E73D
S1131960194A938A02210B439BB293820020E0E739
S113197016490B68022213430B60134B9A84124BD3
S1131980DB68DB06FBD5114A91680F4BD9625268BC
S11319909A6200229A840C4BDB68DB06FBD50B4B66
S11319A01B689BB2084A93840020C2E7064944227C
S11319B08B5C02200343DBB28B540020B9E7172071
S11319C0B7E7C0467C2200000008004084000020E5
S11319D030B585B0C222D200154B9A60154B5968B8
S11319E01E2291435960144B984703A80024447065
S11319F0012585700470114B98470620104B9847B9
S1131A00104B9847104B1C725C729C72DC720195EF
S1131A106B465C7006236A461370147254726946EE
S1131A2000200A4B98470020094B984705B030BD69
S1131A30000800400040004135180000E91800008B
S1131A4025190000551A000000040040791A00000E
S1131A50491B0000064A936908210B439361012244
S1131A60044B1A70034B1B78DB07FBD47047C0464A
S1131A7000040040000C0040F8B5060005000C7896
S1131A80240204434B78002B02D08023DB021C4346
S1131A904B7A002B02D080231B031C434868012887
S1131AA012D9431E03423DD00502354380239B02D5
S1131AB01C4309E001325B008342FBD31202324330
S1131AC0150080235B031C430B7A002B02D0802378
S1131AD09B031C43184B5B785BB2002B25DB002770
S1131AE0002FF7D1154B9847154B1E70124B5B789E
S1131AF05BB2002B1BDB3A00002AF7D10E4B9D6032
S1131B000D4B5B785BB2002B13DB1300002BF7D17A
S1131B10094A5368802149020B401C435460094B15
S1131B209847F8BD02230022C6E70127D8E701221F
S1131B30E2E70123EAE7C046000C0040C5170000B5
S1131B40080C00400518000070B50500104B5B78C8
S1131B505BB2002B17DB0024002CF7D10D4B984708
S1131B600D4B1D700A4B5B785BB2002B0DDB230021
S1131B70002BF7D1064A516880235B020B43536064
S1131B80064B984770BD0124E6E70123F0E7C04601
S1131B90000C0040C5170000040C004005180000AC
S1131BA0F8B50700224B5B785BB2002B34DB0025D1
S1131BB0002DF7D11F4B98471F4B1F701C4B5B78B0
S1131BC05BB2002B2ADB2C00002CF7D1184E706876
S1131BD0C004C00E194B98470500174B1F70766858
S1131BE0F602F60F164B1F70114B5B785BB2002B9D
S1131BF016DB2300002BF7D10D4B9C682402240C28
S1131C00104B9847002E0DD1012C0BD92100280030
S1131C100D4B9847050009E00125C9E70124D3E7E6
S1131C200123E7E7002E01D00134E5402800F8BD88
S1131C30000C0040C5170000040C004059180000B7
S1131C40080C004005180000B520000010B5040081
S1131C50064B9847064B1C70064A53888021C901DD
S1131C600B435380044B984710BDC046C517000072
S1131C70020C0040000C00400518000010B50400E0
S1131C800E4B98470E4B1C700E494B881B051A0FC0
S1131C904B880D4803404B804B880C4803404B80D5
S1131CA0084B5B885B04FBD4064841881302064A50
S1131CB00A4013434380064B984710BDC5170000E4
S1131CC0020C0040000C0040FFF0FFFFFFBFFFFFCD
S1131CD00518000010B50C7824020443024B984701
S1131CE0A4B2024B5C8010BD7D1C0000000C0040BF
S1131CF010B50400064B9847064B1C70064B5C88D5
S1131D002405240F054B98472000054B984710BD28
S1131D10C5170000020C0040000C0040051800002C
S1131D20A11B000070B5D378002B20D11578802D2D
S1131D301BD02D0680235B021D435378002B01D05A
S1131D40022B0AD180239B022B439478002C02D0CF
S1131D50C023DB022B4341601D005378013BDBB2FF
S1131D60012B06D8134B1D4003E00025E5E7416035
S1131D7000250C04240C0B0C2C43A026F60534433C
S1131D8084622B43D024240623438362D378002B1C
S1131D900AD16B0303D59378012B06D041615378A4
S1131DA0013BDBB2012B02D970BD8161F7E7816091
S1131DB0FAE7C046FFFFFBFF10B50A00C10943095B
S1131DC000290BD1DB0106498C4663441F242040C3
S1131DD0012181401800034B984710BD0023F5E70B
S1131DE000440041251D00007047000010B5054B5C
S1131DF09847054B9847054B9847054B9847054B23
S1131E00984710BDD1190000C1170000E91D00005A
S1131E10E91D0000E91D0000FEE70000F8B5234AB3
S1131E20234B9A4209D0224B204A03E011681960DF
S1131E30043304321F498B42F8D31F4B02E00022C3
S1131E401A6004331D4A9342F9D31D4AFF211D4BE6
S1131E508B439360FD3990235B001B4AD1501B4A8E
S1131E60D3780325AB4302242343D370D3780C27C0
S1131E70BB4308263343D370154B987B30229043E1
S1131E80202210439873997BB943314399739A7B09
S1131E90AA4322439A730F4A516880230B43536029
S1131EA00D4B98470D4B9847FEE7C046C4220000EF
S1131EB0000000200C0000200C000020F80000208E
S1131EC000ED00E0000000000070004100500041FF
S1131ED00048004100400041CD21000039200000AD
S1131EE0F0B5CE46474680B583B001AC0023984692
S1131EF0237001266670A37021000B20254DA8478E
S1131F00267021000A20A847234F8023DB00BB61F1
S1131F1021000520A8472023BB6121000620A847F3
S1131F204023BB6121000720A84780239946BB6159
S1131F3043462370667021000F20A84726702100B5
S1131F400E20A8478023DB01BB6126700223637047
S1131F5021002F20A8473B004B44802212029A61A3
S1131F602670667021001120A84780239B02BB6164
S1131F704346237021003020A847267021001720F3
S1131F80A84780231B04BB6103B00CBC9046994650
S1131F90F0BDC046E50800000044004100B583B030
S1131FA001A800230370012282704370014B9847FB
S1131FB003B000BDE918000000B585B00A4B98478E
S1131FC000230A4A137201A906220A704B724B704D
S1131FD0053A4A600B720020054B98470020054BD8
S1131FE0984705B000BDC046551A000000040040E3
S1131FF0791A0000491B000010B5034B9847034BA6
S11320009847034B984710BD9D1F0000B91F00005F
S11320107908000010B5044B9847044B9847044BCB
S11320209847044B984710BDED1D0000F91F0000B0
S1132030E11E00001501000010B586B004AC0822B2
S113204000212000124B98470A2323800A3363801F
S11320500A33A3800822210002A80E4B98470E4B96
S11320601B6801930D4B984764200D4B98470D4B0B
S1132070984729200C4B98470C4B984700B202AB69
S1132080588001980A4B98476420054B9847F0E71D
S11320902722000015220000A022000015200000C5
S11320A0B508000045030000AD020000310800003F
S11320B041080000002243088B4274D303098B4279
S11320C05FD3030A8B4244D3030B8B4228D3030C04
S11320D08B420DD3FF22090212BA030C8B4202D3A6
S11320E01212090265D0030B8B4219D300E0090ACE
S11320F0C30B8B4201D3CB03C01A5241830B8B42D7
S113210001D38B03C01A5241430B8B4201D34B03BF
S1132110C01A5241030B8B4201D30B03C01A524124
S1132120C30A8B4201D3CB02C01A5241830A8B42A9
S113213001D38B02C01A5241430A8B4201D34B0292
S1132140C01A5241030A8B4201D30B02C01A5241F6
S1132150CDD2C3098B4201D3CB01C01A52418309AA
S11321608B4201D38B01C01A524143098B4201D3E4
S11321704B01C01A524103098B4201D30B01C01A0F
S11321805241C3088B4201D3CB00C01A5241830889
S11321908B4201D38B00C01A524143088B4201D3B6
S11321A04B00C01A5241411A00D201465241104616
S11321B07047FFE701B5002000F006F802BDC046F5
S11321C00029F7D076E770477047C04670B50026FF
S11321D00C4D0D4C641BA410A64209D1002600F03E
S11321E061F80A4D0A4C641BA410A64205D170BDC7
S11321F0B300EB5898470136EEE7B300EB58984725
S11322000136F2E7B0220000B0220000B022000044
S1132210B4220000002310B59A4200D110BDCC5C5A
S1132220C4540133F8E703008218934200D1704785
S113223019700133F9E7000000080042000C004265
S1132240001000420014004200180042001C00422A
S1132250090A0B0C0D0E00006C180000C4180000D5
S1132260C4180000661800006618000080180000FA
S11322707218000086180000B418000050190000FD
S1132280BE190000BE1900003019000042190000F8
S1132290601900003419000070190000AC19000026
S11322A0280A1E28F8B5C046F8BC08BC9E467047EC
S11322B0DD000000F8B5C046F8BC08BC9E46704777
S10722C0B500000061
S10F22C4401F00000800000001000000A2
S9031E1DC1
