:10000000F0230020ED2B0000E92B0000E92B00007D
:1000100000000000000000000000000000000000E0
:10002000000000000000000000000000E92B0000BC
:100030000000000000000000E92B0000E92B000098
:10004000E92B0000E92B0000E92B0000E92B000060
:10005000E92B0000E92B0000E92B0000E92B000050
:10006000E92B0000512500006125000071250000EA
:10007000812500000000000000000000E92B0000C6
:10008000E92B0000E92B0000E92B0000E92B000020
:10009000E92B00000000000000000000E92B000038
:1000A000E92B0000E92B0000E92B0000E92B000000
:1000B0000000000010B5064C2378002B07D1054B3B
:1000C000002B02D0044800E000BF0123237010BDC4
:1000D000EC0100200000000010390000084B10B5B2
:1000E000002B03D00749084800E000BF0748036819
:1000F000002B00D110BD064B002BFBD09847F9E731
:1001000000000000F001002010390000103900004C
:1001100000000000002804D000234360836000201A
:100120007047FF20FCE7000070B504000D000028B8
:100130000ED0084B9847236862689D546368581C2A
:10014000E168054B98476160044B9847002070BDFB
:10015000FF20FCE795250000A52F0000D525000015
:1001600043688068181A43425841C0B27047000083
:1001700070B504000D00002817D0002917D00D4BD2
:100180009847002801D0FF2070BD0B4B984723688B
:10019000A2689B5C2B70A368581CE168074B9847CA
:1001A000A160074B98470020EEE7FF20ECE7FF2017
:1001B000EAE7C0466101000095250000A52F000078
:1001C000D5250000F0B5C64600B590B0324B1B787F
:1001D000002B03D010B004BC9046F0BD02AC012649
:1001E000267000256560A560C0239B039846E360E8
:1001F00025746574A674E67425752427E5550C22CC
:10020000002108A8254B98474346E360244BA3628E
:10021000244BE36201235B422363234B6363E55575
:10022000224BA361224D220022492800224B9847ED
:100230002C682000214B98471F2318408640204BF4
:100240001E601B4B1B68DB69002BFAD1236802225E
:100250001343236000231B4C163222706370A3707B
:10026000173A69464A708B700A701820164B9847E7
:100270002178CA094B09002A0CD1DB01134A9446A4
:1002800063441F220A400121080090409861024BFC
:1002900019709FE70023F4E716020020BD35000027
:1002A00002001600020017000200190040420F0071
:1002B0009C03002000140042651B00003125000053
:1002C00000E100E0D8030020850F00000044004159
:1002D00010B582B0104B184380B26B46D88000290D
:1002E00003D14004400C6B46D8806B469A1DDB88D6
:1002F00019021B0A0B431380012208490848094BC5
:1003000098470528F8D00223074A69460631044871
:10031000064CA04702B010BD00F0FFFFD80300203C
:100320009C0300204D1D0000180200203520000015
:1003300010B5002202490348034B984710BDC04640
:10034000D80300209C0300204D1D000010B50A00BA
:10035000002301000148024CA04710BD9C0300206F
:10036000511C000010B582B06B46DC1D00232370C9
:100370000021054B984701212000044B9847044B6E
:100380009847207802B010BDD10200004D03000054
:100390003103000010B50A0001000248024B9847E3
:1003A00010BDC0469C030020491E000010B582B05D
:1003B0006B46DC1DD9710121054B984701212000B6
:1003C000044B98470400044B9847200002B010BD2E
:1003D000D1020000950300003103000010B5182180
:1003E0003320044B98473320034B9847C306FAD475
:1003F00010BDC046AD0300006503000010B56521C7
:100400000220FE4CA0476420FD4B98470821102095
:10041000A04700211120A04706211220A047022159
:100420002120A04702212220A04702212320A0470B
:1004300002212520A04702212620A04701216E206D
:10044000A047062180204000A04766210220FF30FF
:10045000A047052181204000A04705210420FF304E
:10046000A047352182204000A04755210620FF30BB
:10047000A047002183204000A04700210820FF3032
:10048000A047002184204000A04780210A20FF309F
:10049000A047292185204000A04789210C20FF305A
:1004A000A047222186204000A047C0210E20FF3017
:1004B000A047DD2187204000A04740211020FF30C9
:1004C000A04700211620FF30A047F4211820FF305C
:1004D000A047E82190204000A0478F212220FF3034
:1004E000A047002191204000A047AD21922040006C
:1004F000A047A7212620FF30A047C321932040001A
:10050000A0470F212820FF30A0471F219420400042
:10051000A0470A212A20FF30A0470A219520400049
:10052000A04701212C20FF30A04700219620400049
:10053000A04700212E20FF30A04716219720400021
:10054000A04700213020FF30A047E821982040003C
:10055000A0478F213220FF30A04700219920400082
:10056000A04700213420FF30A047AB219A20400053
:10057000A047A6213620FF30A047C3219B20400082
:10058000A0470F213820FF30A0471F219C204000AA
:10059000A0470A213A20FF30A0470A219D204000B1
:1005A000A04701213C20FF30A04700219E204000B1
:1005B000A0474B213E20FF30A04716219F2040003E
:1005C000A04700214020FF30A047FF21A820400085
:1005D000A0478F215220FF30A0470021A9204000D2
:1005E000A04700215420FF30A047AA21AA204000A4
:1005F000A047A5215620FF30A047C321AB204000D3
:10060000A0470F215820FF30A0471F21AC204000F9
:10061000A0470D215A20FF30A0470D21AD204000FA
:10062000A04701215C20FF30A0470021AE20400000
:10063000A0474B215E20FF30A0471621AF2040008D
:10064000A04700216020FF30A0470021B0204000DB
:10065000A04700216220FF30A0470221B1204000C6
:10066000A0470C216420FF30A0470521B2204000A4
:10067000A04700216620FF30A0470421B32040009E
:10068000A047EA216820FF30A0470221B5204000A2
:10069000A04707216C20FF30A0478A21C0204000DE
:1006A000A04703218420FF30A0470F21C420400031
:1006B000A04777218A20FF30A0478021802080003A
:1006C000A04700214F48A04704214F48A047C82118
:1006D0004E48A047AA2184208000A047CC214C4846
:1006E000A047AA214B48A047CC214B48A0479F21B7
:1006F00085208000A0471F214848A047552186201B
:100700008000A04755214648A0478A2187208000C5
:10071000A0470A214348A047322188208000A047F3
:1007200014214148A04732214048A0471421892084
:100730008000A04700213E48A04773213D48A047C4
:1007400003218A208000A04735213B48A04784210F
:100750003A48A04784213A48A0470D218C208000C8
:10076000A04720213748A0470021CC208000A04787
:1007700000213548A04700213448A04703213448D0
:10078000A0470321F1200001A04707213148A047DD
:1007900007213148A04768213048A047FF21304851
:1007A000A04784212F48A04798212F48A04708211F
:1007B0002E48A04710212E48A04725212D48A047AC
:1007C0000A213020A04710213120A04730213220BB
:1007D000A0471321C2204000A0470F21F0200001B4
:1007E000A04706212448A04701213720A047002127
:1007F0003620A04790213520A0473FE0AD03000000
:10080000550F000001020000020200000302000078
:100810001102000012020000130200001602000084
:10082000190200001E020000210200002302000045
:1008300025020000260200002A0200002D0200000E
:100840002F020000330200003103000032030000D9
:100850000D0F0000110F00001C0F0000210F000001
:10086000220F0000230F0000260F0000340F0000AD
:10087000350F0000440F0000180F00000A2134203B
:10088000A04700210F48A04700210F48A04704219E
:100890000E48A0471D200E4B9847C307FAD50D4BB5
:1008A000984700210C480D4CA04710210C48A04748
:1008B00069210220A04764200A4B98470321282081
:1008C000A04710BD270200002902000031020000ED
:1008D00065030000DD03000033020000AD030000EB
:1008E00032020000550F000010B50C4C23780C4A62
:1008F000D054581C0A210B4B98472170002000232C
:1009000004E0074AD25C80180133DBB2092BF8D926
:100910000A21054B9847C0B210BDC046080200200E
:100920000C02002079310000992E000010B5402003
:10093000024B9847024B984740B210BD6503000038
:10094000E908000010B590B08023DB050093002378
:100950000193FF2269460A8100228B72CB7201212A
:1009600024206C4621540130215425316354013137
:1009700063540A9305316354013163540593238210
:10098000E3762276227762761323A3766277962324
:10099000DB01089390235B030393124B0C93124BE0
:1009A0000D9301235B420E930F936A460F49104843
:1009B000104B98470028F8D10D4B1C6820000E4BB7
:1009C00098471F2318401E3B83400C4A1360084B76
:1009D0001B68DB69002BFAD12368022213432360D2
:1009E00010B010BD03000400030005000008004221
:1009F0001C020020711400003125000000E100E01D
:100A000010B50AE00D4B1B783E2B14D001200C4B87
:100A100098470A4B1B783E2B0BD00849FF230B70DD
:100A200001220848084B98470028EBD01228E9D04B
:100A300002E0042000E0002010BDC046500200206B
:100A4000550F00001C020020FD16000070B5074C79
:100A500004256561064B9847A561002804D1054B24
:100A60001B783E2B00D0043070BDC04600440041CE
:100A7000010A00005002002010B582B000226B462F
:100A8000DA7153210D480E4B98470528F9D06B4673
:100A9000DC1D0122210009480A4B98470A4B984760
:100AA00020780A4B9847FC218905094B98478023F9
:100AB0001B069C46604402B010BDC0461C020020CC
:100AC000B5150000FD160000010A000059340000B1
:100AD000D93100001F4B1B78DBB2012B16D0002B45
:100AE00008D0022B1ED0032B28D00022194B1A70DD
:100AF000002070474F2804D10122164B1A700020A5
:100B0000F7E70022134B1A700020F2E74B2804D1BC
:100B10000222104B1A700020EBE700220D4B1A70D6
:100B20000020E6E70D2804D103220A4B1A700020AA
:100B3000DFE70022074B1A700020DAE70A2804D109
:100B40000022044B1A700938D3E70022014B1A70B7
:100B50000020CEE77102002070B50500074C217817
:100B60000748084B98472078074B9847074B187061
:100B7000012221002800064B984770BD2803002061
:100B80000000002029010000D50A000070020020AA
:100B90005118000010B5084C012208492000084BEC
:100BA00098473122A35C02210B43A354303A0549F4
:100BB0002000054B984710BD74020020590B00001F
:100BC00019180000280300205118000010B590B03B
:100BD0008023DB05009300230193FF2269460A81ED
:100BE00000228B72CB72012124206C4621540130EB
:100BF000215425316354013163540A930531635400
:100C00000131635405932382E3762276227762765C
:100C10001323A3766277E1235B02089390235B039F
:100C20000393134B0C93134B0D9301235B420E93D1
:100C30000F936A4610491148114B98470028F8D184
:100C40000E4B1C6820000F4B98471F2318401E3B7B
:100C500083400D4A1360094B1B68DB69002BFAD1F6
:100C60002368022213432360084B984710B010BD3D
:100C70000300080003000900001000427402002075
:100C8000711400003125000000E100E0950B000028
:100C900010B5040000230A4A13700A4A13700A4868
:100CA0000A4B984720000A4B984782B22100094816
:100CB000094B9847024B1B78002BFBD010BDC04658
:100CC00070020020710200200000002015010000C9
:100CD000CD350000740200205516000030B589B0F3
:100CE0002022002168461A4B98471A481A4CA04700
:100CF0001A48A047002507E06C1CE4B229006944AB
:100D00001748184B984725001548174B9847002857
:100D1000F2D000236A46D37700240134E4B26B4654
:100D20001B5D2C2BF9D1002369460B550F4B9847BF
:100D3000013CE4B222006B461B5DC01843785B07A0
:100D4000F4D46A4410000A4B984700B209B030BD91
:100D5000BD35000028370000910C0000343700003A
:100D60000000002071010000610100007D350000DD
:100D70002135000000B583B04D2813D052281FD074
:100D8000412801D003B000BD144B1B681B881BB267
:100D900001AA1380022201A91148124B9847052885
:100DA000F8D1EFE70D4B1B685B881BB201AA1380DB
:100DB000022201A90A480B4B98470528F8D1E1E720
:100DC000064B1B689B881BB201AA1380022201A953
:100DD0000348044B98470528F8D1D3E76003002067
:100DE0002C0300203118000010B5054C2078054B6D
:100DF0009847012221000448044B984710BDC04683
:100E000064030020750D00002C0300205118000021
:100E100010B5084C012208492000084B98473122A0
:100E2000A35C02210B43A354303A05492000054B33
:100E3000984710BD2C030020E90D00001918000090
:100E4000640300205118000010B590B08023DB052A
:100E5000009300230193FF2269460A8100228B72CE
:100E6000CB72962189010891012124206C462154DE
:100E70000130215425316354013163540A93053103
:100E800063540131635405932382E37622762277FB
:100E900062761323A376627790235B030393134B4D
:100EA0000C93134B0D9301235B420E930F936A46F1
:100EB00010491148114B98470028F8D10E4B1C6877
:100EC00020000F4B98471F2318401E3B83400D4ABC
:100ED0001360094B1B68DB69002BFAD123680222DF
:100EE00013432360084B984710B010BD0200100058
:100EF00002001100000C00422C03002071140000BD
:100F00003125000000E100E0110E0000014B1860E7
:100F10007047C0466003002010B50020084B98477A
:100F2000084CFA218900A047074B1860FA21890074
:100F3000A047064B18600522054B1A6010BDC0463D
:100F400071290000992E00001000002014000020DC
:100F500010E000E000E01000421E00280CD0074B1B
:100F60001B68002BF7D006494B6000238B60044BB5
:100F70001B68DB03FBD5EEE77047C046100000207E
:100F800010E000E000B583B001AB80221A700A784F
:100F90005A704A789A708A78DA701900014B98472B
:100FA00003B000BD892B0000F0B5DE4657464E4623
:100FB0004546E0B585B0894616001F000022002393
:100FC00000218B468A463F250096019702904946AC
:100FD000039111E02021491B00240134CC4013E08F
:100FE00000980199121A8B415946604601438B467D
:100FF000514621438A46013D002D23DB20214942F1
:101000006918E7D401248C400121A9408C4692182C
:101010005B4110001900029E67463E40B146039EA8
:101020002640B0464E4647463E4303D0012606437F
:1010300032000B00009801999942DCD8D0D190423F
:10104000D9D8CDE75846514605B03CBC90469946A4
:10105000A246AB46F0BD4908814201D2402070470C
:10106000002302E0091A01339BB28142FAD2013B0C
:101070009BB2FF2B01D94020F1E713800020EEE75F
:1010800070B582B00C00150006AA117802004A4320
:10109000A24202D9402002B070BD002B14D1020040
:1010A000080000211B4EB047010022000023002051
:1010B000194CA04700220123121A8B41100C1B046B
:1010C000184328800020E6E7012B01D00020F8E734
:1010D0000A00002300210F4EB04702000B000092CF
:1010E0000193200000210C4EB047060080239B0195
:1010F000984201D94020CEE7610FE000009A019BA1
:10110000054CA047C0B2F300DBB2C01AC0B2400326
:101110003043D6E785310000A90F000010B582B03A
:1011200004000E4B1B78002B07D0002905D10B4B78
:101130005B78834210D01D200CE001A90C701320B5
:10114000074B98471320074B9847044B5C700122CC
:101150001A70002002B010BD0020FBE768030020D9
:10116000A52A00001D2A00002B4B984223D00FD93E
:101170002A4B98422FD02A4B984242D1012948D07D
:10118000002938D0022938D0032938D0002039E08E
:10119000244B984235D1012935D0002905D00229A8
:1011A00005D0032905D000202CE01F482AE01F4865
:1011B00028E01F4826E0012927D0002905D0022970
:1011C00005D0032905D000201CE003201AE01948AF
:1011D00018E0194816E0012919D0002905D0022984
:1011E00005D0032905D000200CE014480AE014487B
:1011F00008E0144806E0144804E0144802E01448EB
:1012000000E0002070471348FCE71348FAE7134852
:10121000F8E71348F6E7C046000C00420010004211
:10122000001400420008004203000400030006000E
:101230000300070003001E0003001F000300080056
:1012400003000A0003000B0003001000030012005B
:101250000300130003000500030001000300090060
:101260000300110030B585B06B460A4A32CA32C35A
:10127000190013680B600023032B08D89A006946F5
:101280005258824201D00133F6E7D8B200E0002084
:1012900005B030BD40370000F0B5DE4657464E463B
:1012A0004546E0B587B004000D00066830006B4B82
:1012B0009847143000220E2302A98C4663441A80FA
:1012C0002A8A8023DB019A423BD00CD9C023DB0160
:1012D0009A4231D080231B029A420DD103239A46B1
:1012E000002399460CE080239B019A4204D11023ED
:1012F0009A460F3B994603E010239A4600239946ED
:101300002B68E9680B4369690B4313432A7E120279
:1013100013432622AF5C7F071F4303976B689846F1
:10132000002B21D080235B0598453ED12723EB5C21
:10133000002B0BD0002039E008239A46073B994642
:10134000DEE708239A4600239946D9E72B6A994697
:10135000C0B2434B984701000E2202AB9C46624448
:101360004846404B984721E02723EB5C002B0BD0ED
:10137000534600934B460E2202A98C466244A96A4A
:10138000286A394FB84711E02B6A9B46C0B2344BEC
:1013900098470100534600934B460E2202A884460C
:1013A00062445846304FB84700E00020002846D13C
:1013B0006B7E002B01D0AB7EB3732368DB69002BFF
:1013C000FBD10E3302AA944663441B88B381434683
:1013D000039F1F432723EB5C002B01D104331F43E2
:1013E0006A7E92022B7F5B021A436B7F1B021A43B9
:1013F0002423EB5C5B041A432523EB5C1B041A4398
:10140000AB7A1A43EB7A1A432B89FF2B1ED080212B
:1014100049040F431A432C23EB5C002B03D1134BDD
:101420009B789B0701D580231F432368DB69002B32
:10143000FBD172602368DB69002BFBD1376007B0FA
:101440003CBC90469946A246AB46F0BDEB7E002BD5
:10145000E1D08023DB041F43DDE7C04665120000B6
:10146000C12A000057100000811000000020004138
:10147000F0B589B006000C00170031600800424B3F
:101480009847821C14302368DB0703D50525280004
:1014900009B0F0BD23689B0701D51C25F7E70123A0
:1014A00093403A4A116A0B4313622D257B5D07A9CD
:1014B0000B70C3B201931800354B98470198354B18
:1014C0009847785D0021344B9847FB7A7371242349
:1014D000FB5CB3712523FB5CF371FB7E33723B7FB6
:1014E0007372390030002D4B9847051ECFD106ABE3
:1014F00080221A7000225A70DA709A703B6B029345
:101500007B6B0393BB6B0493FB6B019305930027E9
:1015100006E039002000224B984708E00137FFB26F
:10152000032F0DD8BB0002AA98580028F1D0431C05
:10153000F4D006A90870000CC0B21A4B9847EDE72A
:101540000022052A06D8931C9B00F318002159603D
:101550000132F6E70022B26272620023F285B285A0
:101560003032B3540132B3540132B3540132B35464
:101570003068054B984704000B490C4B9847A40072
:101580000B4BE65083E7C0466512000000040040A4
:10159000A52A00001D2A00001D110000991200005C
:1015A00069110000892B000071180000F12400006F
:1015B000E00300200368C279002A01D11C20704793
:1015C000C28D92B2002A01D00520F8E7DA69002A1C
:1015D000FCD119851A7E9207FCD50020EFE702683E
:1015E0008379002B01D11C207047838D9BB2002B87
:1015F00001D00520F8E7137E5B0701D40520F3E74F
:10160000D369002BFCD1538BDBB298061DD0980711
:1016100003D5022353831A20E6E7580703D5042392
:1016200053831E20E0E7D80703D5012353831320FB
:10163000DAE7D80603D5102353834220D4E79B066C
:1016400003D5202353834120CEE7138D0B80002048
:10165000CAE70000F0B5C64600B504000D00002A38
:1016600003D1172004BC9046F0BDC379002B01D1F3
:101670001C20F7E70668F369002BFCD100200CE082
:10168000431C9BB298462B5C99B26279012A14D014
:101690002000184B984740463A00571EBFB2002A18
:1016A00013D00023144A9342EAD8327ED207E7D4FB
:1016B000114A934219D00133F4E702304246A95C43
:1016C0000902194383B29846E2E7002300E00133A0
:1016D000094A934207D8327E920708D4064A9342B9
:1016E000F5D11220BEE70020BCE71220BAE70020A7
:1016F000B8E7C046B5150000FFFF0000F0B585B0A3
:1017000004000191002A02D1172005B0F0BD8379B1
:10171000002B01D11C20F8E70668002514E002AB7D
:10172000991D00230B802000154B98470028ECD111
:101730006B1C9BB202AA0632128801994A55627943
:10174000012A11D01D003A00571EBFB2002A15D041
:1017500000230C4A9342E2D8327E5207DFD4094A72
:10176000934209D00133F4E7023502AA0632128807
:10177000120ACA54ABB2E5E71220C6E70020C4E75C
:10178000DF150000FFFF0000F8B506000C00150093
:1017900007680A4B9847F38D9BB2002B03D0084B88
:1017A00098470520F8BDF585054B9847B46205229A
:1017B0003323F254323BBB750020F3E7952500003C
:1017C000D5250000F8B504000D0016000768104B81
:1017D0009847A38D9BB2002B03D00E4B9847052052
:1017E000F8BDA6850B4B9847656205223223E2546B
:1017F0002E3BBB75237A002B01D02023BB75637A67
:10180000002B03D00823BB750020E9E70020E7E7A1
:1018100095250000D5250000931C9B00C318596036
:10182000012393401A003021435C13434354704713
:1018300010B5002A01D1172010BDC379002B01D1AA
:101840001C20F9E7014B9847F6E7C04689170000CE
:1018500010B5002A01D1172010BD8379002B01D1CA
:101860001C20F9E7014B9847F6E7C046C517000072
:10187000F0B5C64600B58000644BC5582C68E369D6
:10188000002BFCD1237EA67D1E403023EB5C312251
:10189000AF5C1F40F30725D5EB8D9BB2002B1FD00B
:1018A000A96A0A78D2B293B29846481CA8626B79AA
:1018B000012B0ED04346DB05DB0D2385EB8D013B71
:1018C0009BB2EB85002B0DD1013323750133A3753A
:1018D00008E04B781B0213439846881CA862E9E78E
:1018E00001232375B30706D5022323750022313364
:1018F000EA54FB071CD4730764D5AB8D9BB2002B55
:101900005ED0628BD2B23F231340110701D537233B
:101910001340002B31D09A070ED51A223223EA54F5
:10192000303B63837B074DD528006B69984749E0BE
:101930002800EB689847DEE75A0705D51E223223B8
:10194000EA542E3B6383EDE7DA0705D513223223F1
:10195000EA54313B6383E5E7DA0605D542223223B8
:10196000EA54223B6383DDE720221A42DAD0213297
:101970003223EA54123B6383D4E7238DDB05DB0D6E
:10198000DAB2696A0A706A6A511C69626979012966
:1019900010D0AB8D013B9BB2AB85002B12D1043331
:1019A000237500222E33EA54BB070BD528002B6980
:1019B000984707E01B0A53706B6A01336B62E8E7D4
:1019C00004232375F30604D5102323752376FB0621
:1019D00010D4B30604D52023237523763B070DD4FA
:1019E000330704D5082323752376BB060AD404BC29
:1019F0009046F0BD2800EB699847EAE72800AB69FC
:101A00009847EDE72B6A28009847F0E7E0030020AD
:101A1000036802221A767047F0B587B007000D0000
:101A2000066805AB80221A7000225A700121997055
:101A3000DA702B78002B01D105AB9A70AB6A019359
:101A4000EB6A02932B6B03936B6B0493002406E009
:101A5000210030003D4B984708E00134E4B2032CEC
:101A60000DD8A30001AA98580028F1D0431CF4D047
:101A700005A90870000CC0B2354B9847EDE72B78EC
:101A80007B712B7CBB71AB7CFB712B7D3B7200228D
:101A90006B465A802B78012B14D02B78002B27D142
:101AA000AB69AA8B1100706AAC7FEF7F3F043C43A7
:101AB000204370622020285C00281BD04021114365
:101AC00089B217E03868234B98471430C0B2224BD4
:101AD000984701006B469A1CA869204B984700283C
:101AE00001D0172030E06B4602331B783373D4E704
:101AF000002100236A681343AA681343EA6813436A
:101B00002A7C0A43697C002903D115498978890711
:101B100001D580210B43A97C002902D080218902B4
:101B20000A43E97C002902D0802189000A43297DEB
:101B3000002902D0802189010A4331680B433360B8
:101B400073681A437260002007B0F0BD691100008D
:101B5000892B000065120000C12A00005710000008
:101B600000200041F0B585B005000C00160029608A
:101B70000B689B0702D51C2005B0F0BD0B68DB0786
:101B800001D50520F8E70800284B9847821C14303F
:101B900001239340264A116A0B4313622427F35D05
:101BA00003A90B70C3B201931800224B9847019808
:101BB000214B9847F05D0021204B98473378012B4B
:101BC00008D03378002B03D1236808221343236005
:101BD00000230BE023680C2213432360F1E79A1CD7
:101BE0009200AA18002151600133DBB2062BF6D90E
:101BF0000022EA62AA620023AA862A863632AB5401
:101C00000132AB540132AB54353A6A722B712868F9
:101C1000064B984704000A490A4B9847A4000A4B10
:101C2000E55031002800094B9847A5E765120000F0
:101C300000040040A52A00001D2A00001D1100001C
:101C400025230000F1240000E0030020191A000001
:101C5000F8B504000E0017001D003823C35C052BE7
:101C60006DD0002A01D117226AE0C379002B01D17F
:101C70001C2265E04379002B03D103681B7E9B0780
:101C800001D4002037E02F4B9847FAE723681A7EEB
:101C9000D207FBD51A7ED20734D5EA05D20D9A6257
:101CA00030E00023284A934205D82268127E52076A
:101CB00001D40133F6E723681A7E920704D41B7E11
:101CC0005B0722D412223BE020001E4B98470422DF
:101CD00036E0002226E09F6AFF05FF0D01E00027A5
:101CE0001022002A2CD1431C9BB23754A279012A1E
:101CF0001ED018000F00791E89B2002F1DD0637905
:101D0000012BC3D06379002BCBD023681A7E5207F6
:101D1000FBD51A7E5207E2D55A8B5207D9D5042239
:101D20005A831A32A779012FD5D09F6AFFB2D8E71C
:101D300002303F0AF75483B2DBE7002200E00522BD
:101D40001000F8BD111A00001027000010B54379EB
:101D5000012B01D0152010BD037A002B6CD1002A75
:101D600058D04B78002B43D003681B7EDB0711D47F
:101D70000A78D109530900290AD1DB0131498C467F
:101D800063441F21114001228A409A610520E2E745
:101D90000023F6E70A78D4095309002C04D1DB01AB
:101DA000284CA446634400E000231F241440012271
:101DB000A2405A618A780368197EC90700D59A62E1
:101DC000C379002B3AD103681A7E5207FBD51A7EDD
:101DD000520735D55A8B520701D504225A8382798E
:101DE000012A02D09B6A0020B5E79B6A0020B2E777
:101DF0000A78D109530900290AD1DB0111498C461F
:101E000063441F21114001228A405A610020A2E749
:101E10000023F6E70A78D109530900290AD1DB012A
:101E200008498C4663441F21114001228A409A616F
:101E3000002090E70023F6E700208CE700208AE7E7
:101E4000002088E700440041F0B5D6464F4646469C
:101E5000C0B582B004008A4617003823C35C052B46
:101E600000D1D8E0002A01D11720D5E04379002B1A
:101E700003D103681B7E9B0702D4BC46002625E0E5
:101E80006A4B9847F9E70023694A934205D82268CC
:101E9000127ED20701D40133F6E723681A7E920737
:101EA00004D41B7EDB0718D41220B5E020005F4B62
:101EB00098470420B0E00236B6B25246D25D120214
:101EC000024317E0E3790F00002B1AD1791E89B283
:101ED000002F6CD06379002BD5D023681A7ED207EF
:101EE000FBD5771CBFB25246905D82B2A579012D19
:101EF000E1D03E001F7EF807E4D5D205D20D9A62EC
:101F0000E0E76379002B40D023681A7E5207FBD5A7
:101F10001A7E520708D55A8B520701D504225A83DC
:101F2000A279012A41D09B6A6046013883B29C465F
:101F30000F00CBE7023655462F5C3F024046074371
:101F4000B0B21BE0013989B206002268127E520746
:101F50001DD40133364A934219D80029F5D022689E
:101F6000177EF807F1D5701C80B25546AD5DA846C6
:101F70006F46FD80FF88A579012DDBD0167EF50721
:101F8000E0D5FF05FF0D9762DCE70023E2E7236859
:101F90001A7E920704D41B7E5B07B5D412203BE067
:101FA0002000224B9847042036E09B6ABCE7627908
:101FB000012A06D0002A35D1E379002B1AD100205E
:101FC0002AE023681B7E9B07FBD5F3E723681A7E74
:101FD000520729D51A7E520708D55A8B520701D5C8
:101FE00004225A83A279012A11D09B6A60460138E3
:101FF00083B29C466346002B0BD000230C4A9342CD
:10200000E4D82268127E5207E0D40133F6E79B6AD7
:10201000ECE7002000E0052002B01CBC9046994689
:10202000A246F0BD0020F7E71220F5E7111A0000E4
:1020300010270000F0B5DE4657464E464546E0B54F
:1020400085B00400019103921E003823C35C052B68
:1020500000D112E1002E01D117220FE1C379002B2C
:1020600001D11C220AE14379002B03D103681B7EB6
:102070009B0704D4B44600239846002175E0844BA6
:102080009847F7E70023834A934205D82268127ED7
:10209000D20701D40133F6E723681A7E920704D4ED
:1020A0001B7EDB0768D41222E8E02000784B9847BB
:1020B0000422E3E00231019A925D1202504602438B
:1020C0008EB268E002360199095C0902504601436C
:1020D0008946B0B21AE0013FBFB206002268127E04
:1020E00052071DD401336B4A934219D82268117EDE
:1020F000C907F3D5701C80B20199895D8A4602AD8B
:10210000698069888946A1790129DBD0167EF107AB
:10211000E1D54946C905C90D9162DCE70023E2E734
:1021200023681A7E920704D41B7E5B073CD41222DC
:10213000A4E02000564B984704229FE0002244E090
:10214000996AC905C90D01E000211022002A00D0BA
:1021500094E0434601339BB2039A40461154A2795E
:10216000012A38D0984631003E00771EBFB2002EBB
:1021700037D06379002B85D023681A7ED207FBD530
:102180004E1CB6B2019A525C924602A84280428826
:10219000A07901288ED0197EC90702D5D205D20DAB
:1021A0009A626379002BB9D023681A7E5207FBD557
:1021B0006246013A92B294461A7E5207C4D55A8BAF
:1021C0005207BBD504225A831A32A1790129B7D00C
:1021D000996AC9B2BAE70230090A039AD15483B2A4
:1021E000C0E76279012A03D0002A39D0002245E0F5
:1021F00023681B7E9B07FBD5F6E70133254A9342F4
:1022000003D82268127E5207F7D523681A7E520738
:102210003CD56246013A92B294461A7E520711D5D5
:102220005A8B520708D504225A831A32A179012900
:1022300004D0996AC9B207E00022F7E7996AC90594
:10224000C90D01E031001022002A17D143460133A5
:102250009BB2039A40461154A279012A05D09846B0
:102260006346002B07D00023C8E70230090A039A0F
:10227000D15483B2F3E7002200E00522100005B03C
:102280003CBC90469946A246AB46F0BD1222F5E70B
:10229000111A00001027000070B50568C16A0A789D
:1022A000D2B293B24C1CC4628679012E07D0DB05F2
:1022B000DB0DAB62838E013B9BB2838670BD4B7896
:1022C0001B0213438C1CC462F1E700000368044A3C
:1022D00012889A62438E013B9BB243867047C04688
:1022E000DC03002003689B6A438E013B9BB243865C
:1022F000704703689B6ADB05DB0DDAB2816A0A70FE
:10230000826A511C81628179012904D0038E013BCC
:102310009BB2038670471B0A5370836A0133836242
:10232000F4E70000F8B580006B4BC45826683723EB
:10233000E35C3622A75C1F40337EB57D1D40EB0772
:1023400016D56379012B4DD06379012B57D0002B23
:102350000ED1637A002B0BD02000604B9847A38EE0
:102360009BB2002B04D101333375637A012B4AD021
:102370006B0711D5738B5B074FD5637A012B08D0A0
:102380001E223823E254353B6372023333753B0718
:102390003FD4B36A04237383AB0713D56379002B4F
:1023A0000DD107333375053B337601336372002358
:1023B000A386238638330022E254FB0664D4637973
:1023C000012B65D02B0708D56379002B05D1083385
:1023D00033753376BB0600D570E06DB2002D00DAA0
:1023E00070E0F8BD637A002BAED120003C4B9847DB
:1023F000638E9BB2002BA7D101333375A4E7627AB9
:10240000002AA9D1A3E7E379002BB1D10233B37538
:10241000AEE72000A3699847BBE7637A012B17D08A
:102420002000304B9847238E9BB2002BB4D1002262
:102430003833E254343B3375637A022B1DD0637A10
:10244000002BA9D1BB07A7D5200023699847A3E794
:102450002000254B9847638E9BB2002B9CD1043300
:10246000337500223433E254353B6372FB0700D4EA
:1024700092E72000E36898478EE77B0700D48BE75C
:1024800020006369984787E72000E369984796E74B
:10249000637A012B00D095E7E379002B00D091E718
:1024A000023333750133637200223533E254FB0784
:1024B00000D487E72000E368984783E72000236A79
:1024C00098478AE78023337533767B0600D488E704
:1024D000636A2000984784E7E00300209922000007
:1024E000CD220000F3220000E5220000704700002A
:1024F00030B50B4B1B78002B08D00CE09A00094D2F
:10250000094C15510025094C15510133032BF5D900
:102510000122034B1A708000034BC15030BDC046EE
:102520006A030020ED2400006C030020E00300207B
:1025300000B583B0044B1B680193044B984701AB73
:10254000185603B000BDC0465037000065120000A9
:1025500010B5024B1B680020984710BD6C0300208B
:1025600010B5024B5B680120984710BD6C0300203A
:1025700010B5024B9B680220984710BD6C030020E9
:1025800010B5024BDB680320984710BD6C03002098
:10259000704700000C4B1B68002B06D1EFF3108333
:1025A000002B07D00022094B1A70074A1368013329
:1025B0001360704772B6BFF35F8F0022044B1A702E
:1025C0000132024B1A70F0E77C03002080030020E8
:1025D00018000020084B1A68013A1A601B68002B8B
:1025E00009D1064B1B78002B05D00122044B1A7031
:1025F000BFF35F8F62B670477C030020800300202A
:102600001800002010B582B0012201AB1A7000241E
:1026100004E0E0B201A9034B98470134242CF8D917
:1026200002B010BDA52A000010B5082832D88000DD
:102630001B4B1B589F468020000210BD194B186988
:10264000FBE7194B1B6A9B059B0F1848D840F4E722
:10265000144B5869F1E7134B1B689B071CD5124BB1
:10266000DB68DB06FBD50F4B1B685B0701D410480A
:10267000E3E700200F4B98470A4B9B681B041B0C99
:102680005843DAE75023084AD35C5B0706D5054B6D
:10269000D868D2E70020D0E70020CEE70020CCE7C2
:1026A00054370000840300200008004000127A0024
:1026B000006CDC02C12A000070B50C4D2E6A027855
:1026C00003210A4012020A49314011438278012451
:1026D0002240D201802399430A43437823409B013F
:1026E00040218A4313432B6270BDC046000800405E
:1026F000FFFCFFFF08284AD88000264B1B589F4646
:1027000000207047244A136A02210B431362002001
:10271000F7E7214A936902210B4393610020F0E718
:102720001D4A138A02210B439BB213820020E8E763
:10273000194A938A02210B439BB293820020E0E75F
:1027400016490B68022213430B60134B9A84124BF9
:10275000DB68DB06FBD5114A91680F4BD9625268E2
:102760009A6200229A840C4BDB68DB06FBD50B4B8C
:102770001B689BB2084A93840020C2E706494422A2
:102780008B5C02200343DBB28B540020B9E7172097
:10279000B7E7C046783700000008004084030020F7
:1027A00030B585B0C222D200154B9A60154B5968DE
:1027B0001E2291435960144B984703A8002444708B
:1027C000012585700470114B98470620104B9847DF
:1027D000104B9847104B1C725C729C72DC72019516
:1027E0006B465C7006236A46137014725472694615
:1027F00000200A4B98470020094B984705B030BD90
:10280000000800400040004105260000B9260000F5
:10281000F52600002528000000040040492800009B
:1028200019290000064A936908210B43936101228C
:10283000044B1A70034B1B78DB07FBD47047C04670
:1028400000040040000C0040F8B5060005000C78BC
:10285000240204434B78002B02D08023DB021C436C
:102860004B7A002B02D080231B031C4348680128AD
:1028700012D9431E03423DD00502354380239B02FB
:102880001C4309E001325B008342FBD31202324356
:10289000150080235B031C430B7A002B02D080239E
:1028A0009B031C43184B5B785BB2002B25DB002796
:1028B000002FF7D1154B9847154B1E70124B5B78C4
:1028C0005BB2002B1BDB3A00002AF7D10E4B9D6058
:1028D0000D4B5B785BB2002B13DB1300002BF7D1A1
:1028E000094A5368802149020B401C435460094B3C
:1028F0009847F8BD02230022C6E70127D8E7012246
:10290000E2E70123EAE7C046000C004095250000FD
:10291000080C0040D525000070B50500104B5B7811
:102920005BB2002B17DB0024002CF7D10D4B98472E
:102930000D4B1D700A4B5B785BB2002B0DDB230047
:10294000002BF7D1064A516880235B020B4353608A
:10295000064B984770BD0124E6E70123F0E7C04627
:10296000000C004095250000040C0040D525000017
:10297000F8B50700224B5B785BB2002B34DB0025F7
:10298000002DF7D11F4B98471F4B1F701C4B5B78D6
:102990005BB2002B2ADB2C00002CF7D1184E70689C
:1029A000C004C00E194B98470500174B1F7076687E
:1029B000F602F60F164B1F70114B5B785BB2002BC3
:1029C00016DB2300002BF7D10D4B9C682402240C4E
:1029D000104B9847002E0DD1012C0BD92100280057
:1029E0000D4B9847050009E00125C9E70124D3E70D
:1029F0000123E7E7002E01D00134E5402800F8BDAF
:102A0000000C004095250000040C00402926000021
:102A1000080C0040D5250000992E000010B50400D8
:102A2000064B9847064B1C70064A53888021C90103
:102A30000B435380044B984710BDC04695250000BA
:102A4000020C0040000C0040D525000010B5040029
:102A50000E4B98470E4B1C700E494B881B051A0FE6
:102A60004B880D4803404B804B880C4803404B80FB
:102A7000084B5B885B04FBD4064841881302064A76
:102A80000A4013434380064B984710BD952500002C
:102A9000020C0040000C0040FFF0FFFFFFBFFFFFF3
:102AA000D525000010B50C7824020443024B98474A
:102AB000A4B2024B5C8010BD4D2A0000000C004007
:102AC00010B50400064B9847064B1C70064B5C88FB
:102AD0002405240F054B98472000054B984710BD4F
:102AE00095250000020C0040000C0040D525000098
:102AF0007129000070B5D378002B20D11578802D76
:102B00001BD02D0680235B021D435378002B01D080
:102B1000022B0AD180239B022B439478002C02D0F5
:102B2000C023DB022B4341601D005378013BDBB225
:102B3000012B06D8134B1D4003E00025E5E741605B
:102B400000250C04240C0B0C2C43A026F605344362
:102B500084622B43D024240623438362D378002B42
:102B60000AD16B0303D59378012B06D041615378CA
:102B7000013BDBB2012B02D970BD8161F7E78160B7
:102B8000FAE7C046FFFFFBFF10B50A00C109430981
:102B900000290BD1DB0106498C4663441F242040E9
:102BA000012181401800034B984710BD0023F5E731
:102BB00000440041F52A00007047000010B5054BA5
:102BC0009847054B9847054B9847054B9847054B49
:102BD000984710BDA127000091250000B92B0000E7
:102BE000B92B0000B92B0000FEE70000F8B5234A1E
:102BF000234B9A4209D0224B204A03E01168196006
:102C0000043304321F498B42F8D31F4B02E00022E9
:102C10001A6004331D4A9342F9D31D4AFF211D4B0C
:102C20008B439360FD3990235B001B4AD1501B4AB4
:102C3000D3780325AB4302242343D370D3780C27E6
:102C4000BB4308263343D370154B987B3022904307
:102C5000202210439873997BB943314399739A7B2F
:102C6000AA4322439A730F4A516880230B4353604F
:102C70000D4B98470D4B9847FEE7C04610390000B2
:102C800000000020EC010020EC010020F0030020F7
:102C900000ED00E000000000007000410050004125
:102CA00000480041004000412D3500001D2E00006D
:102CB000F0B5CE46474680B583B001AC00239846B8
:102CC000237001266670A37021000720244DA847B9
:102CD000267021000620A847224F4023BB61210017
:102CE0000120A84702239946BB6121000220A84782
:102CF0000423BB6121000320A8470823BB6143468E
:102D00002370667021000B20A847267021000A203E
:102D1000A8478023DB00BB6126704B46637021000F
:102D20000E20A8478023DB01BB61434623706670F9
:102D300021000820A84721000920A84726706670B6
:102D400021001820A84780235B04BB614346237001
:102D500021001B20A84703B00CBC90469946F0BD4B
:102D6000850F00000044004100B583B001A8002396
:102D70000370012282704370014B984703B000BD7D
:102D8000B926000000B585B00A4B984700230A4ACF
:102D9000137201A906220A704B724B70053A4A6001
:102DA0000B720020054B98470020054B984705B053
:102DB00000BDC0462528000000040040492800004E
:102DC0001929000010B5034B9847034B9847034B54
:102DD000984710BD692D0000852D0000190F0000D7
:102DE00010B5074B9847074B9847074B9847074B39
:102DF0009847074B9847074B9847074B984710BD94
:102E0000BD2B0000C52D0000B12C0000C501000045
:102E100045090000CD0B0000490E000010B582B03E
:102E2000134B1A6800929B886A469380114B98470F
:102E30006420114B9847114B9847114B98476846AF
:102E4000104B9847104B98476B4618800F4B98478C
:102E50006B465880FA208000074CA0470C4B9847DF
:102E60000C4B984700B26B4698806420A047E9E776
:102E70009C370000E12D0000550F0000FD0300000D
:102E80004D0A00000D0F00002D090000DD0C0000B0
:102E9000790A000019340000002243088B4274D3E1
:102EA00003098B425FD3030A8B4244D3030B8B424B
:102EB00028D3030C8B420DD3FF22090212BA030C54
:102EC0008B4202D31212090265D0030B8B4219D335
:102ED00000E0090AC30B8B4201D3CB03C01A524155
:102EE000830B8B4201D38B03C01A5241430B8B429D
:102EF00001D34B03C01A5241030B8B4201D30B0386
:102F0000C01A5241C30A8B4201D3CB02C01A5241AC
:102F1000830A8B4201D38B02C01A5241430A8B426F
:102F200001D34B02C01A5241030A8B4201D30B0258
:102F3000C01A5241CDD2C3098B4201D3CB01C01A72
:102F4000524183098B4201D38B01C01A524143097C
:102F50008B4201D34B01C01A524103098B4201D36A
:102F60000B01C01A5241C3088B4201D3CB00C01AD7
:102F7000524183088B4201D38B00C01A524143084F
:102F80008B4201D34B00C01A5241411A00D2014674
:102F9000524110467047FFE701B5002000F0F0F8FD
:102FA00002BDC0460029F7D076E7704703460B43C1
:102FB0007FD4002243088B4274D303098B425FD332
:102FC000030A8B4244D3030B8B4228D3030C8B425E
:102FD0000DD3FF22090212BA030C8B4202D3121244
:102FE000090265D0030B8B4219D300E0090AC30B19
:102FF0008B4201D3CB03C01A5241830B8B4201D3C6
:103000008B03C01A5241430B8B4201D34B03C01AAE
:103010005241030B8B4201D30B03C01A5241C30A26
:103020008B4201D3CB02C01A5241830A8B4201D397
:103030008B02C01A5241430A8B4201D34B02C01A81
:103040005241030A8B4201D30B02C01A5241CDD226
:10305000C3098B4201D3CB01C01A524183098B4271
:1030600001D38B01C01A524143098B4201D34B015A
:10307000C01A524103098B4201D30B01C01A5241BD
:10308000C3088B4201D3CB00C01A524183088B4244
:1030900001D38B00C01A524143088B4201D34B002D
:1030A000C01A5241411A00D201465241104670479F
:1030B0005DE0CA0F00D04942031000D340425340A4
:1030C00000229C4603098B422DD3030A8B4212D364
:1030D000FC22890112BA030A8B420CD38901921196
:1030E0008B4208D3890192118B4204D389013AD0D3
:1030F000921100E08909C3098B4201D3CB01C01AA8
:10310000524183098B4201D38B01C01A52414309BA
:103110008B4201D34B01C01A524103098B4201D3A8
:103120000B01C01A5241C3088B4201D3CB00C01A15
:10313000524183088B4201D38B00C01A5241D9D22D
:1031400043088B4201D34B00C01A5241411A00D2AE
:103150000146634652415B10104601D34042002BAA
:1031600000D54942704763465B1000D3404201B529
:10317000002000F005F802BD0029F8D016E77047DE
:103180007047C046F0B5CE46474615042D0C2E00BC
:1031900080B50704140C3F0C9946030C7E435D4335
:1031A000674363437F19340CE4199C46A54203D955
:1031B00080235B029846C4444B4651434343360444
:1031C000360C250C24046544A4195918491920000B
:1031D0000CBC90469946F0BDF8B557464E4645465C
:1031E000DE46E0B54702460088467F0A360EC40F29
:1031F000002E47D0FF2E24D0FB008027FF041F4362
:10320000002399469A467F3E43465D025800DB0FF5
:103210006D0A000E984643D0FF283BD0EB00802576
:103220000022ED041D437F383618731C41469B462F
:103230004B46614013430F2B64D875489B00C3581D
:103240009F46002F42D108239946063BFF269A4607
:10325000DAE74146022A28D0032A00D1CEE0012A2B
:1032600000D0ACE0114000200022CCB24002D205D8
:10327000400AE407104320433CBC90469946A246CE
:10328000AB46F8BD002F15D104239946033B002619
:103290009A46B9E7FF200222002DC5D00322C3E7DA
:1032A000002D19D100200122BEE70124FF220C408D
:1032B0000020DBE7380000F015F97626431F9F4019
:1032C00000237642361A99469A469DE70C23994682
:1032D000093BFF269A4697E7280000F003F9431FB1
:1032E0009D4076235B42181A00229DE7802000242F
:1032F000C003FF22BAE73D005246ABE73D00210084
:103300005246A7E73B0C9C462A04120C2B0C1400D7
:10331000604665463F043F0C7C4342435D437B432C
:10332000270C9B18FF18BA4203D980235B029C46E6
:10333000654424043A04240C121993015C1EA34131
:103340003F0C920E7D191A43AD0115432B0104D594
:1033500001235E466A081D40154332007F32002A71
:1033600025DD6B0704D00F232B40042B00D0043540
:103370002B0103D53200274B80321D40FE2A94DCFE
:103380000124A801400AD2B20C406FE78020C0039C
:10339000074207D0054205D128434002400A44466F
:1033A000FF2263E738434002400AFF225EE7012420
:1033B000A31A1B2B05DD0C400022002056E75E46B9
:1033C000CBE72A002020DA40C31A9D402B005D1E67
:1033D000AB4113435A0704D00F221A40042A00D0ED
:1033E00004335A0104D5012401220C4000203DE79A
:1033F00001249B01580A0C40002237E78020012459
:10340000C00328434002400A0C40FF222EE7C0467A
:10341000A4370000FFFFFFF741024300C20F490A33
:103420001B0E00207E2B0DDD9D2B0CDC802000046C
:103430000143952B0ADC9620C31AD9404842002A42
:1034400000D108007047034BD018FBE7963B99402A
:10345000F4E7C046FFFFFF7F10B5041E27D000F041
:1034600041F89E231B1A962B0ADC9622D21A94400E
:103470006402640ADBB26402DB05600A184310BD13
:10348000992B17DC9922D21A002A27DD94402200BA
:10349000134C1440510704D00F210A40042A00D0D5
:1034A0000434620112D4A401640ADBB2E3E700230E
:1034B0000024E0E7B9222100D21A91400A00511EEF
:1034C0008A410521091ACC401443DBE7044B1C4018
:1034D0009F23A4011B1A640ADBB2CCE72200D7E7C2
:1034E000FFFFFFFB1C2101231B04984201D3000CAA
:1034F00010391B0A984201D3000A08391B09984267
:1035000001D30009043902A2105C40187047C0467C
:10351000040302020101010100000000000000009C
:1035200010B50A22002100F0DFF810BD70B50026AA
:103530000C4D0D4C641BA410A64209D1002600F0CE
:10354000D7F90A4D0A4C641BA410A64205D170BDE0
:10355000B300EB5898470136EEE7B300EB589847B5
:103560000136F2E7FC380000FC380000FC380000AF
:1035700000390000EC30006870470000044B1B6805
:103580001B6A002B00D1034BEC3318687047C04610
:103590001C0000208000002082B0002900D101A979
:1035A000101E06D0002B06D013780B601078431E37
:1035B000984102B0704702204042FAE703008218A7
:1035C000934200D1704719700133F9E70023C25CC0
:1035D0000133002AFBD1581E70470000F0B51F00D0
:1035E0000E0087B00590039102920C983478FFF793
:1035F000C1FF082200194378751C13400CD12D2CF3
:103600000CD101332C780193B51C002F0CD0102F56
:1036100014D1302C0AD011E02E00E6E701932B2CB8
:10362000F3D12C78B51CF0E7302C2FD120222B7849
:103630009343582B51D110276C780235019B294AAE
:1036400039009E183000FFF7ADFC300004913900BE
:10365000FFF722FC01210023494202008C4618009A
:1036600021003039092913D80C00A7421CDD591C50
:1036700009D06346824206D302D10499A14202DBFB
:103680000123784320182C780135E9E70A27D5E78C
:1036900021004139192901D8373CE6E72100613979
:1036A000192901D8573CE0E75A1C08D1059A233361
:1036B0001360029B3000002B0BD107B0F0BD019AC4
:1036C000002A00D04042029A002AF6D0039A002B2A
:1036D00000D06A1E029B1A60EFE73024002FADD1A4
:1036E0000837ABE7FFFFFF7F37B51300064A050039
:1036F0001068046A002C00D1044C0A0000942900D0
:10370000FFF76CFF3EBDC0461C000020800000207B
:103710000B1E04D0FF2A04D98A2303608B3B1800B8
:1037200070470A700123FAE741542B53454E440D6C
:103730000000000041542B525353490D000000007B
:1037400000080042000C0042001000420014004239
:10375000090A0B0C3C260000942600009426000069
:1037600036260000362600005026000042260000C3
:103770005626000084260000202700008E27000027
:103780008E270000002700001227000030270000CD
:1037900004270000402700007C2700000A001400D6
:1037A0001E000000043300005432000054320000B8
:1037B00052320000F6320000F6320000EC32000017
:1037C00052320000F6320000EC320000F632000007
:1037D00052320000FC320000FC320000FC320000DB
:1037E0008C3300004300504F534958002E000020F6
:1037F00020202020202020202828282828202020A1
:103800002020202020202020202020202020208850
:1038100010101010101010101010101010101004B4
:103820000404040404040404041010101010101004
:1038300041414141414101010101010101010101F8
:10384000010101010101010101011010101010100E
:1038500042424242424202020202020202020202C8
:1038600002020202020202020202101010102000E4
:103870000000000000000000000000000000000048
:103880000000000000000000000000000000000038
:103890000000000000000000000000000000000028
:1038A0000000000000000000000000000000000018
:1038B0000000000000000000000000000000000008
:1038C00000000000000000000000000000000000F8
:1038D00000000000000000000000000000000000E8
:1038E00000000000000000000000000000000000D8
:1038F000F8B5C046F8BC08BC9E467047DD00000025
:10390000F8B5C046F8BC08BC9E467047B50000003C
:10391000A80200200000000000000000800000005D
:10392000401F0000080000000100000020000020EF
:103930000000000000000000000000000000000087
:103940000000000000000000000000000000000077
:103950000000000000000000000000000000000067
:103960000000000000000000000000000000000057
:103970000000000000000000000000000000000047
:103980000000000000000000000000000000000037
:1039900043000000000000000000000000000000E4
:1039A0000000000000000000000000000000000017
:1039B00043000000000000000000000000000000C4
:1039C00000000000000000000000000000000000F7
:1039D00043000000000000000000000000000000A4
:1039E00000000000000000000000000000000000D7
:1039F0004300000000000000000000000000000084
:103A000000000000000000000000000000000000B6
:103A10004300000000000000000000000000000063
:103A20000000000000000000000000000000000096
:103A30004300000000000000000000000000000043
:103A40000000000000000000000000000000000076
:103A50004300000000000000000000000000000023
:103A60000000000000000000000000000000000056
:103A7000113700009935000000000000EE3700000B
:103A8000EC370000ED370000ED370000ED370000A7
:103A9000ED370000ED370000ED370000ED37000096
:103AA000ED370000ED370000FFFFFFFFFFFFFFFFD6
:103AB000FFFFFFFFFFFF00000100415343494900A2
:103AC00000000000000000000000000000000000F6
:103AD000000000000000000000004153434949007D
:103AE00000000000000000000000000000000000D6
:0C3AF000000000000000000000000000CA
:0400000300002BEDE1
:00000001FF
