S01A00004241436E65745F4D5354505F53414D4432312E7372656373
S1130000482A00200D490000094900000949000060
S113001000000000000000000000000000000000DC
S1130020000000000000000000000000094900007A
S1130030000000000000000009490000B137000082
S11300400949000009490000913A000009490000EB
S1130050A102000009490000094900000949000003
S113006009490000194100002941000039410000FC
S1130070494100005941000069410000094900005C
S11300800949000009490000113B0000213B000020
S1130090313B0000413B0000513B00006502000081
S11300A00949000009490000094900000949000004
S11300B00000000010B5064C2378002B07D1054B37
S11300C0002B02D0044800E000BF0123237010BDC0
S11300D07400002000000000C85A0000084B10B54E
S11300E0002B03D00749084800E000BF0748036815
S11300F0002B00D110BD064B002BFBD09847F9E72D
S11301000000000078000020C85A0000C85A00000F
S11301100000000010B50020084B9847084CFA2155
S11301208900A047074B1860FA218900A047064BB5
S113013018600522054B1A6010BDC0463D460000FC
S1130140E94D0000000000200400002010E000E061
S113015000E01000421E00280CD0074B1B68002B47
S1130160F7D006494B6000238B60044B1B68DB030C
S1130170FBD5EEE77047C0460000002010E000E029
S113018070B58000364BC5582B681A7EDC7D144050
S1130190E20716D4630708D504232A681376EB7E96
S11301A09B0702D5AB7E9B0752D4A30708D5022335
S11301B02A681376EB7E5B0702D5AB7E5B074BD4D4
S11301C070BD01221A762A68537E5BB2002B27DBAE
S11301D000210029F7D16869831C6B61538B9BB2A2
S11301E003802B8B013B9BB22B83002B1ED06B7F98
S11301F0002BCFD02E68727E52B2002A12DB080088
S11302000028F8D1327B02210A43D2B232732A6821
S1130210527E52B2002A07DB0200002AF7D1B9E766
S11302200121D6E71800EBE71A00F6E701232A6854
S113023093752B7F052BADD100232B77EB7EDB074A
S1130240A8D5AB7EDB07A5D52800AB689847A1E706
S11302502800EB689847A8E72B6928009847AFE780
S11302600804002010B50020014B984710BDC0467B
S113027081010000002A01D0172070478B00074A33
S11302809B58002B03D0834205D01D20F5E789003D
S113029088500020F1E70020EFE7C046100400205A
S11302A010B500220F4B1A7005E00F480AE00D4A02
S11302B01378013313700B4B1B780F2B11D81F2BA2
S11302C0F3D900201F21194001228A4001691142FB
S11302D0EDD002619B00054A9B58002BE7D098475C
S11302E0E5E710BD0C0400200018004010040020B5
S11302F00022002A06D00023002B0BD00023002B61
S1130300F9D1704708490B7802200343DBB20B7024
S11303100132EEE7044A527852B2002A01DB01337B
S1130320EAE70123EBE7C0460018004000B583B0BC
S11303301B4A936940210B43936101A900230B706D
S11303400520184B98470520174B98470022002A90
S113035006D00023002B0BD00023002BF9D116E08C
S113036012490B7801200343DBB20B700132EEE734
S11303700E4A527852B2002A01DB0133EAE7012324
S1130380EBE7990000200A4A88500133DBB20F2BB7
S1130390F7D91022074B1A60074B984703B000BDEA
S11303A00004004071470000E946000000180040C6
S11303B01004002000E100E0F1020000F0B583B079
S11303C005000C0001A900234B70CB7023790B703E
S11303D0237A8B702078164B98471F2D20D9002044
S11303E007222A409200E37A1E00A17A002902D053
S11303F008261E43F6B2EB0806339B0019580F2754
S11304009740B943964032000A431A50637A002B4E
S113041008D143690122AA409343436103B0F0BD6C
S11304200448DDE743690122AA4013434361F5E729
S1130430A9480000001800400268937A5BB2002BC0
S113044008DB0023002BF8D1138802210B439BB255
S1130450138070470123F5E70268937A5BB2002B9F
S11304600ADB0023002BF8D1C13393711372138874
S113047002218B43138070470123F3E770B5040016
S11304800568094B984723689B7A5BB2002B08DB0D
S11304900023002BF7D12B88012213439BB22B801E
S11304A070BD0123F5E7C04659040000CB88C2881B
S11304B09B1A9B064A79920513430A795204134303
S11304C08A78120313430279002A05D1CA78002AD4
S11304D002D08022520213434878800103430878F3
S11304E01843704710B58C0EC3881B19D3808C0D2C
S11304F00F23234053714C0C1F23234013710379A2
S1130500002B10D1080B0F230340937080235B0250
S11305100B40581E8341D37088093F231840507004
S11305201940117010BD080B1F2303409370F3E7AB
S113053010B50468064B9847A37A5BB2002B04DB22
S11305400023002BF8D1206110BD0123F9E7C04638
S1130550AD04000070B50A0003684479002C06D08D
S11305605988490410D519690F4B984770BD0F4934
S113057059800168897A49B2002903DB21000029E6
S1130580F7D1F0E70121FAE75988094D294389B2E7
S113059059800168897A49B2002903DB00210029C6
S11305A0F7D1E0E72100FAE7E50400000080FFFF4F
S11305B000C0FFFF70B50D0014000668012A01D9C0
S11305C0172070BD094B9847B37A5BB2002B0ADB46
S11305D00023002BF8D10334E400A0512B7A341902
S11305E023710020EDE70123F3E7C046AD040000CA
S11305F070B505000E0001683288082313439BB2CE
S11306003079002802D1482313439BB2B278002AE0
S113061002D0802213439BB20B80F378002B04D0CA
S11306204B888022D20113434B8000240AE0A300AC
S11306301B1959000831711822002800034B9847F0
S11306400134E4B2002CF2D070BDC046B505000000
S113065030B583B00400150001600F4A936920216E
S11306600B43936101A902230B7004200B4B9847A1
S113067004200B4B984720000A4B98472B79237191
S1130680EB786371EB88E380074B1C602900200042
S1130690064B984703B030BD00040040714700008A
S11306A0E94600007D04000050040020F10500002C
S11306B00268C8170B1843407F2B01DD17207047D1
S11306C0180000290ADB937A5BB2002B09DB0023B4
S11306D0002BF8D1C0B210730020F0E7802018433B
S11306E0F1E70123F4E7F0B5DE4657464E464546AA
S11306F0E0B585B0894616001F00002200230021C2
S11307008B468A463F2500960197029049460391FD
S113071011E02021491B00240134CC4013E000984F
S11307200199121A8B415946604601438B46514642
S113073021438A46013D002D23DB202149426918CB
S1130740E7D401248C400121A9408C4692185B41D6
S113075010001900029E67463E40B146039E2640A3
S1130760B0464E4647463E4303D001260643320078
S11307700B00009801999942DCD8D0D19042D9D885
S1130780CDE75846514605B03CBC90469946A24632
S1130790AB46F0BD4908814201D240207047002396
S11307A002E0091A01339BB28142FAD2013B9BB2A7
S11307B0FF2B01D94020F1E713800020EEE7000071
S11307C070B582B00C00150006AA117802004A43E5
S11307D0A24202D9402002B070BD002B14D1020005
S11307E0080000211B4EB047010022000023002016
S11307F0194CA04700220123121A8B41100C1B0430
S1130800184328800020E6E7012B01D00020F8E7F8
S11308100A00002300210F4EB04702000B00009293
S11308200193200000210C4EB047060080239B0159
S1130830984201D94020CEE7610FE000009A019B65
S1130840054CA047C0B2F300DBB2C01AC0B24003EB
S11308503043D6E7014F0000E706000010B582B030
S113086004000E4B1B78002B07D0002905D10B4B3D
S11308705B78834210D01D200CE001A90C7013207A
S1130880074B98471320074B9847044B5C70012291
S11308901A70002002B010BD0020FBE79000002079
S11308A071470000E9460000404B984231D00AD914
S11308B03F4B98424DD03F4B98425AD03E4B9842C2
S11308C037D0002070473D4B98420CD03C4B9842A7
S11308D0F7D101295FD0002915D0022915D00329A9
S11308E015D00020EEE7012953D0002905D00229B4
S11308F005D0032905D00020E4E73248E2E7324876
S1130900E0E73248DEE70320DCE73148DAE7314844
S1130910D8E7012941D0002905D0022905D00329AF
S113092005D00020CEE72C48CCE72C48CAE72C4859
S1130930C8E7012933D0002905D0022905D00329AD
S113094005D00020BEE72748BCE72748BAE7274878
S1130950B8E7012925D0002905D0022905D00329AB
S113096005D00020AEE72248ACE72248AAE7224897
S1130970A8E7012917D0002905D0022905D00329A9
S113098005D000209EE71D489CE71D489AE71D48B6
S113099098E71D4896E71D4894E71D4892E71D48CF
S11309A090E71D488EE71D488CE7C04600100042C2
S11309B000180042001C00420014004200080042DB
S11309C0000C0042030004000300060003000700BB
S11309D003001E0003001F000300080003000A00B8
S11309E003000B00030010000300120003001300B7
S11309F003000C0003000E0003000F0003001600A8
S1130A00030018000300190003000500030001009F
S1130A10030009000300110003000D000300170088
S1130A2030B587B00A4C6B46220032CA32C332CA90
S1130A3032C30023052B08D89A00694652588242D3
S1130A4001D00133F6E7D8B200E0002007B030BD92
S1130A5020580000036802221A767047F0B587B068
S1130A6007000D00066805AB80221A7000225A7038
S1130A7001219970DA702B78002B01D105AB9A70A3
S1130A80AB6A0193EB6A02932B6B03936B6B049336
S1130A90002406E0210030003D4B984708E0013473
S1130AA0E4B2032C0DD8A30001AA98580028F1D071
S1130AB0431CF4D005A90870000CC0B2354B98470C
S1130AC0EDE72B787B712B7CBB71AB7CFB712B7DB1
S1130AD03B7200226B465A802B78012B14D02B7862
S1130AE0002B27D1AB69AA8B1100706AAC7FEF7F12
S1130AF03F043C43204370622020285C00281BD024
S1130B004021114389B217E03868234B98471430C9
S1130B10C0B2224B984701006B469A1CA869204B2F
S1130B209847002801D0172030E06B4602331B7829
S1130B303373D4E7002100236A681343AA6813437C
S1130B40EA6813432A7C0A43697C002903D11549C6
S1130B508978890701D580210B43A97C002902D01B
S1130B60802189020A43E97C002902D0802189007E
S1130B700A43297D002902D0802189010A43316872
S1130B800B43336073681A437260002007B0F0BDF2
S1130B90A9080000A9480000210A00008D470000B0
S1130BA09507000000200041F0B585B005000C0059
S1130BB0160029600B689B0702D51C2005B0F0BD08
S1130BC00B68DB0701D50520F8E70800284B984798
S1130BD0821C143001239340264A116A0B4313628A
S1130BE02427F35D03A90B70C3B201931800224BB1
S1130BF098470198214B9847F05D0021204B984776
S1130C003378012B08D03378002B03D123680822D2
S1130C101343236000230BE023680C221343236057
S1130C20F1E79A1C9200AA18002151600133DBB24B
S1130C30062BF6D90022EA62AA620023AA862A8633
S1130C403632AB540132AB540132AB54353A6A728A
S1130C502B712868064B984704000A490A4B9847A9
S1130C60A4000A4BE55031002800094B9847A5E73A
S1130C70210A00000004004071470000E94600001A
S1130C805D08000005110000B5400000140A0020B2
S1130C905D0A0000F8B504000E0017001D0038239B
S1130CA0C35C052B6DD0002A01D117226AE0C379F9
S1130CB0002B01D11C2265E04379002B03D103688A
S1130CC01B7E9B0701D4002037E02F4B9847FAE79F
S1130CD023681A7ED207FBD51A7ED20734D5EA05DB
S1130CE0D20D9A6230E00023284A934205D8226844
S1130CF0127E520701D40133F6E723681A7E920765
S1130D0004D41B7E5B0722D412223BE020001E4B3E
S1130D109847042236E0002226E09F6AFF05FF0D73
S1130D2001E000271022002A2CD1431C9BB2375427
S1130D30A279012A1ED018000F00791E89B2002F53
S1130D401DD06379012BC3D06379002BCBD02368EA
S1130D501A7E5207FBD51A7E5207E2D55A8B5207E8
S1130D60D9D504225A831A32A779012FD5D09F6A84
S1130D70FFB2D8E702303F0AF75483B2DBE7002220
S1130D8000E005221000F8BD550A000010270000FD
S1130D9010B54379012B01D0152010BD037A002B27
S1130DA06CD1002A58D04B78002B43D003681B7EAB
S1130DB0DB0711D40A78D109530900290AD1DB01D0
S1130DC031498C4663441F21114001228A409A61B3
S1130DD00520E2E70023F6E70A78D4095309002C3A
S1130DE004D1DB01284CA446634400E000231F2403
S1130DF014400122A2405A618A780368197EC90707
S1130E0000D59A62C379002B3AD103681A7E52073F
S1130E10FBD51A7E520735D55A8B520701D50422C9
S1130E205A838279012A02D09B6A0020B5E79B6A23
S1130E300020B2E70A78D109530900290AD1DB015D
S1130E4011498C4663441F21114001228A405A6192
S1130E500020A2E70023F6E70A78D1095309002904
S1130E600AD1DB0108498C4663441F211140012249
S1130E708A409A61002090E70023F6E700208CE77F
S1130E8000208AE7002088E700440041F0B5D646F8
S1130E904F464646C0B582B004008A461700382340
S1130EA0C35C052B00D1D8E0002A01D11720D5E07E
S1130EB04379002B03D103681B7E9B0702D4BC46F5
S1130EC0002625E06A4B9847F9E70023694A9342D4
S1130ED005D82268127ED20701D40133F6E72368CD
S1130EE01A7E920704D41B7EDB0718D41220B5E0C7
S1130EF020005F4B98470420B0E00236B6B2524659
S1130F00D25D1202024317E0E3790F00002B1AD1DD
S1130F10791E89B2002F6CD06379002BD5D0236859
S1130F201A7ED207FBD5771CBFB25246905D82B2BF
S1130F30A579012DE1D03E001F7EF807E4D5D20546
S1130F40D20D9A62E0E76379002B40D023681A7EC1
S1130F505207FBD51A7E520708D55A8B520701D582
S1130F6004225A83A279012A41D09B6A604601383F
S1130F7083B29C460F00CBE7023655462F5C3F02F6
S1130F8040460743B0B21BE0013989B2060022682B
S1130F90127E52071DD40133364A934219D80029D0
S1130FA0F5D02268177EF807F1D5701C80B255463B
S1130FB0AD5DA8466F46FD80FF88A579012DDBD085
S1130FC0167EF507E0D5FF05FF0D9762DCE70023E9
S1130FD0E2E723681A7E920704D41B7E5B07B5D42C
S1130FE012203BE02000224B9847042036E09B6A05
S1130FF0BCE76279012A06D0002A35D1E379002BB7
S11310001AD100202AE023681B7E9B07FBD5F3E757
S113101023681A7E520729D51A7E520708D55A8B9F
S1131020520701D504225A83A279012A11D09B6A5E
S11310306046013883B29C466346002B0BD00023E4
S11310400C4A9342E4D82268127E5207E0D401335A
S1131050F6E79B6AECE7002000E0052002B01CBC28
S113106090469946A246F0BD0020F7E71220F5E726
S1131070550A00001027000070B50568C16A0A7897
S1131080D2B293B24C1CC4628679012E07D0DB0520
S1131090DB0DAB62838E013B9BB2838670BD4B78C4
S11310A01B0213438C1CC462F1E700000368044A6A
S11310B012889A62438E013B9BB243867047C046B6
S11310C05404002003689B6A438E013B9BB2438611
S11310D0704703689B6ADB05DB0DDAB2816A0A702C
S11310E0826A511C81628179012904D0038E013BFB
S11310F09BB2038670471B0A5370836A0133836271
S1131100F4E70000F8B580006B4BC4582668372319
S1131110E35C3622A75C1F40337EB57D1D40EB07A0
S113112016D56379012B4DD06379012B57D0002B51
S11311300ED1637A002B0BD02000604B9847A38E0E
S11311409BB2002B04D101333375637A012B4AD04F
S11311506B0711D5738B5B074FD5637A012B08D0CE
S11311601E223823E254353B6372023333753B0746
S11311703FD4B36A04237383AB0713D56379002B7D
S11311800DD107333375053B337601336372002386
S1131190A386238638330022E254FB0664D46379A1
S11311A0012B65D02B0708D56379002B05D10833B3
S11311B033753376BB0600D570E06DB2002D00DACE
S11311C070E0F8BD637A002BAED120003C4B984709
S11311D0638E9BB2002BA7D101333375A4E7627AE7
S11311E0002AA9D1A3E7E379002BB1D10233B37567
S11311F0AEE72000A3699847BBE7637A012B17D0B9
S11312002000304B9847238E9BB2002BB4D1002290
S11312103833E254343B3375637A022B1DD0637A3E
S1131220002BA9D1BB07A7D5200023699847A3E7C2
S11312302000254B9847638E9BB2002B9CD104332E
S1131240337500223433E254353B6372FB0700D418
S113125092E72000E36898478EE77B0700D48BE78A
S113126020006369984787E72000E369984796E779
S1131270637A012B00D095E7E379002B00D091E746
S1131280023333750133637200223533E254FB07B2
S113129000D487E72000E368984783E72000236AA7
S11312A098478AE78023337533767B0600D488E732
S11312B0636A2000984784E7140A0020791000002C
S11312C0AD100000D3100000C5100000002803D0AA
S11312D003684068181A70470020FCE710B5041E24
S11312E006D0054B9847E368984203D0002010BD10
S11312F00120FCE70120FAE7CD12000070B50400DC
S11313000D00002810D00A4B984700280ED1206801
S1131310E168084B9847A3689C4661440D702368B4
S113132001332360012070BD0020FCE70020FAE7B0
S1131330DD120000F54E0000002808D0002906D078
S1131340002A04D00023036043608160C2607047B8
S113135010B504004160024B9847206010BDC046A0
S1131360C137000010B5144B1B78DBB2134A127856
S1131370012A0BD0242B0FD0252B14D0104802782F
S1131380D2B2511CC9B201700E498B5401220A49D0
S11313900D480E4B984710BD0022094B1A700232BB
S11313A0064B1A70F2E7054A1278022AE6D1013A8E
S11313B0024B1A70EAE7C04660040020580400207B
S11313C0610400205C04002094000020F13E000031
S11313D010B5144B1B78DBB2134A1278012A0BD0D8
S11313E0242B0FD0252B14D010480278D2B2511CD4
S11313F0C9B201700E498B5401220A490D480E4BA3
S1131400984710BD0022094B1A700232064B1A701D
S1131410F2E7054A1278022AE6D1013A024B1A7021
S1131420EAE7C0465B040020590400205A04002067
S113143064040020C8000020F13E000070B590B0A4
S11314408023DB05009300230193FF2269460A8170
S113145000228B72CB72012124206C46215401306E
S1131460215425316354013163540A930531635483
S11314700131635405932382E376227622776276E0
S11314801323A3766277E1239B010893C0239B0374
S1131490039301235B420C930D930E93424B0F93E2
S11314A06A4642494248434B98470028F8D1404B8A
S11314B01C682000404B98471F2318401E3B834064
S11314C03E4A13603A4B1B68DB69002BFAD1236850
S11314D00222134323608023DB050093002301933E
S11314E0FD3269460A8100228B72CB7201212420CD
S11314F06C46215401302154253163540131635425
S11315000A93053163540131635405932382E376CE
S11315102276227762761323A3766277E1239B01F6
S1131520089380235B020393254B0C9301235B42B6
S11315300D930E930F936A46224923481D4B9847F7
S11315400028F8D1204B1C6820001B4B98471F2310
S113155018401E3B8340194A13601B4B1B68DB6910
S1131560002BFAD12368022213432360104D013A61
S113157016492800164EB047134C01221549200085
S1131580B04731230220E95C0143E954E25C0243A1
S1131590E254012210492800104DA84701221049A5
S11315A02000A84710B070BD02001300000C0042D8
S11315B094000020313D0000F540000000E100E00F
S11315C002003000001C0042C80000206513000027
S11315D0C93E0000D113000060040020F13E000069
S11315E05B04002010B582B001AC0422084920003D
S11315F0084B9847227863781B02FF201040A2789A
S113160012041843E3781B061043184302B010BDBC
S11316105C0400209D4F000010B582B001AC042290
S113162008492000084B9847227863781B02FF2062
S11316301040A27812041843E3781B0610431843A1
S113164002B010BD640400209D4F0000014B1878C7
S1131650C0B2704758040020014B1878C0B27047DC
S1131660590400200022014B1A70704758040020CE
S11316700022014B1A7070475904002010B5014B29
S1131680984710BD5D1B000010B5014B984710BD75
S1131690ED1A000070B504000D00044B98472A00B1
S11316A001212000024B984770BDC046CD1C0000AC
S11316B0951A000070B504000D00034B98472900EB
S11316C02000024B984770BD911B0000811C000054
S11316D0F0B5D6464F4680B583B005008A4691469C
S11316E01F000AAB1E880B98154B984780B20D302B
S11316F084B221002800134B9847F42149420195F4
S11317002800114DA8474B46190453461B041B0CD3
S113171019430198A84736043904090C3143019E42
S11317203000A8470B993000084B9847210030003F
S1131730074B984703B00CBC91469A46F0BDC0468F
S113174025500000951600007D1600008916000043
S1131750B5160000F0B5C64600B582B007000C000F
S113176090461E0008AB1D881021104B9847D221CB
S11317704942019738000E4FB847434619042304E1
S11317801B0C1943019C2000B8472D043104090C9B
S113179029432000B84709992000B84710212000A8
S11317A0044B984702B004BC9046F0BD9516000067
S11317B07D160000B516000010B504000421064B88
S11317C09847FF2149422000044B984704212000F8
S11317D0034B984710BDC046951600007D160000C7
S11317E0B5160000F0B5DE4657464E464546E0B510
S11317F083B005008A4691469B460CAB00229B5E53
S113180098460DAB0027DF5F0EAB1E880F981A4B6E
S1131810984780B2113084B221002800174B9847B2
S1131820F321494201952800154DA8474B46190458
S113183053461B041B0C19430198A847434619043B
S11318405B461B041B0C19430198A8473604390452
S1131850090C3143019E3000A8470F993000094B11
S1131860984721003000084B984703B03CBC904691
S11318709946A246AB46F0BD2550000095160000DF
S11318807D16000089160000B516000070B504002E
S11318900E000821084B9847EB2149422000074DD0
S11318A0A84731002000A84708212000044B98478E
S11318B02000044B984770BD951600007D1600006B
S11318C0B5160000E51C0000F8B504000F00160072
S11318D00C21094B9847E22149422000074DA847B3
S11318E039002000A84731002000A8470C2120001F
S11318F0034B9847F8BDC046951600007D160000BE
S1131900B5160000F0B5D6464F4680B583B0040046
S11319108A46914601930AAB00229F5E0BAB0022DC
S11319209E5E1421114B9847F52149422000104D29
S1131930A8474A461104524613041B0C19432000BD
S1131940A84701992000A84736043904090C3143FB
S11319502000A8470C992000A84714212000054B1B
S1131960984703B00CBC91469A46F0BD951600000A
S11319707D160000B5160000F0B5DE4657464E460B
S11319804546E0B583B005008A4691469B460CABBC
S113199000229B5E98460DAB0027DF5F0EAB1E88CE
S11319A00F981A4B984780B2113084B22100280056
S11319B0174B9847F221494201952800154DA84735
S11319C04B46190453461B041B0C19430198A847A2
S11319D0434619045B461B041B0C19430198A84792
S11319E036043904090C3143019E3000A8470F998D
S11319F03000094B984721003000084B984703B04A
S1131A003CBC90469946A246AB46F0BD255000002A
S1131A10951600007D16000089160000B51600001A
S1131A2010B504000421054B984705492000054BD7
S1131A30984704212000044B984710BD95160000D8
S1131A4000FFFFFF7D160000B516000010B5002250
S1131A500023428102810132427503750373024BF4
S1131A609847012010BDC0466937000010B5040036
S1131A70002906D001211000054B98470223237347
S1131A8010BD1000024B984701232373F8E7C046AA
S1131A90E533000010B50289C2239B039C466244CF
S1131AA0014B984710BDC0466D1A000000B585B0C3
S1131AB06B46D97100220F236B441A70037B022BEF
S1131AC009D001210F206844064B98470F236B442B
S1131AD0187805B000BD01216B46D81D024B98470C
S1131AE0F4E7C046893400000135000070B50500F4
S1131AF00E000800094B984780B205E031782800B1
S1131B00074B984701362000441EA4B20028F5D1A3
S1131B1000212800024B984770BDC04625500000A4
S1131B20AD1A000070B504000D00037B022B0AD02F
S1131B300021094DA847060000212000A847000203
S1131B40304380B270BDC9B2034EB047290A2000A9
S1131B50B0470020F6E7C046AD1A000070B5040097
S1131B600D00037B022B09D00021084EB04705006D
S1131B7000212000B0470004284370BD89B2034E01
S1131B80B047290C2000B0470020F6E7251B0000D1
S1131B9010B50400024B98470023237310BDC046C0
S1131BA06D34000070B504000A000021054B98470D
S1131BB000212000044B984705002000034B984760
S1131BC0280070BD6D1A0000AD1A0000911B0000C2
S1131BD070B504000A000021054B9847002120003D
S1131BE0044B984705002000034B9847280070BD1C
S1131BF06D1A0000251B0000911B000070B5040045
S1131C0015000A000121054B984729002000044BC8
S1131C1098472000034B984770BDC0466D1A0000DA
S1131C20AD1A0000911B000070B5040015000A00F5
S1131C300121054B984729002000044B98472000B8
S1131C40034B984770BDC0466D1A0000251B000069
S1131C50911B000070B5040015000A000121054B1A
S1131C60984729002000044B98472000034B9847CD
S1131C7070BDC0466D1A00005D1B0000911B000082
S1131C8010B5028952181205120D033203490A4095
S1131C9002810349034B984710BDC046FC0F000066
S1131CA0FC203000291C000010B504890449054BB0
S1131CB09847241A2405240D0348001B80B210BD44
S1131CC0F8203000D11B0000FC0F000070B50500A7
S1131CD00C002800024B9847A042FAD370BDC046BE
S1131CE0A91C000070B5050007492800074CA0474F
S1131CF0060007492800A0478642F5D10449280078
S1131D00024B9847288170BDF8203000D11B000099
S1131D10FC20300070B504000D000421074B9847E7
S1131D202189C2239B039C4661442A002000044B62
S1131D30984704212000034B984770BDCD1C000038
S1131D40551C0000811C000001280FD003280FD06F
S1131D5005280FD007280FD008280FD00A280FD045
S1131D600C2801D0002070470B38FCE70120FAE76B
S1131D700120F8E70120F6E70120F4E70120F2E76B
S1131D800120F0E7F0B5D6464F464646C0B58AB0C6
S1131D901B4C21001B481C4B9847A3786278217880
S1131DA002AD01910092194A20212800184EB24632
S1131DB0B047184B99461B78174A9046106801950E
S1131DC000270097D22252000A21144EB0476379AB
S1131DD02279E18801910092114A20212800D047FC
S1131DE04B461B784246106801950097E122520049
S1131DF00A21B0470AB01CBC90469946A246F0BDE1
S1131E0080070020680400205505000020590000C8
S1131E10C14F00000900002088070020D1160000EF
S1131E203059000010B50D4C55220D4920680D4B5A
S1131E30984720680C4A0D490D4B9847002409E047
S1131E40064B186801220B49064B984764200A4B3D
S1131E5098470134022CF3DD10BDC04688070020EA
S1131E6084203000FD1B0000104900008820300051
S1131E70291C00008C20300051010000F0B5CE4632
S1131E80474680B585B08146134C14492068144DEB
S1131E90A84714492068A8478526B6002068124B35
S1131EA00293322301930096104B00223100104F0D
S1131EB0B84720684B460193C023DB0000931E23E0
S1131EC01E2231000B4EB04720680B49A84705B0CD
S1131ED00CBC90469946F0BD880700200050081BB2
S1131EE0151D000032004B1CFF332900FF908B00AE
S1131EF005190000D11600000300002610B584B0B7
S1131F000E4C0F4920680F4B984720680E4B1B78E6
S1131F100E4A1278062A0DD000210D4A039202912E
S1131F200193352300932F3300220021094CA0474D
S1131F3004B010BD80214900EFE7C04688070020A7
S1131F4006000003151D0000090000201D010020EB
S1131F5080580000E5170000F0B5C64600B584B00F
S1131F60303005004A4C20684A4B039302951D23E8
S1131F70984601933C270097D333C022F021464E64
S1131F80B0472068454B039302954346019300975D
S1131F90D3330422FF32F021B0472068404B03932F
S1131FA00295434601930097D333A3225200F021B4
S1131FB0B0473C4920683C4B984720683B4B1B7812
S1131FC0302B5BD000233A4A039202931D230193E2
S1131FD01F33009338338A22FF32F021354CA04757
S1131FE02B4C35492068304B984720682F4B1B7881
S1131FF0092B45D00023314A039202931D230193F8
S11320001F33009338338A22FF32B6214900294C0A
S1132010A0471F4C2A492068234B98472068234B2C
S11320201B780A2B2ED00023264A039202931D23E9
S11320300193623300932F3BC022F22149001D4CCF
S1132040A047134C20492068174B98472068174B2A
S11320501B780B2B18D000221C4B039302921D23D8
S11320600193623300932F3BA3225200F2214900D3
S1132070104CA04704B004BC9046F0BDD033A2E796
S1132080F733B8E7F633CFE780225200E4E7C046DF
S1132090880700208C58000079190000905800002F
S11320A09458000030000003151D00001D0100209D
S11320B098580000E5170000090000039C58000030
S11320C00A000003A05800000B000003A4580000FD
S11320D0F0B5D6464F464646C0B580460D001400BE
S11320E01F4F20493868204EB04720493868B04710
S11320F038681F49B047002C2BD0194B18681D496C
S1132100194B98474346D9041B4B9A4619402B0157
S11321101A4A9146134019438026F6053143104C60
S11321202068114FB84741461931C9045346194034
S113213014352D014B461D40294331432068B847CF
S1132140206884218905B8471CBC90469946A2465C
S1132150F0BD034B18680A49034B9847D2E7C046C1
S1132160880700200900001F151D00007000000EE4
S1132170FF0000100033CC040000F83FF07F0000A3
S113218055FF000470B5064C2068064B9847802123
S113219089042068044DA84720680449A84770BDF5
S11321A088070020211A0000151D000007000026E2
S11321B010B5064C00212068054B98472068054B54
S11321C098472068044B984710BDC04688070020F4
S11321D0151D0000B9170000E51C0000F0B5DE462F
S11321E057464E464546E0B585B08146B24B1B780E
S11321F09A4600239846013303935EE0002388E067
S113220000239BE00023AEE00023C2E0AB4FFB8839
S11322101BB24F25DA0F00269D427241D2B27D21B6
S11322202820A74CA0473B881BB2DA0F9D4272417D
S1132230D2B2C8212820A0477B881BB2DA0F9D4266
S11322407241D2B21421FF312820A047BB881BB2AF
S1132250DA0F9D427241D2B2AF2149002820A04733
S1132260EAE0954B1B7852469B1A0A2B00D1FBE0FF
S1132270323300D1F8E04346012B00D1FBE08E4B12
S11322805C781E2120008F4B9847C9B2002903D1E6
S1132290039BA34200D003948B4B18688B498C4B4F
S11322A098478C4B98478C488C4B98478C4B984755
S11322B08C4B1B78062B00D1F6E08A4E002333703A
S11322C07D498948894B98474B461B7A7B4CE38070
S11322D04B465B7A23804B469B7A63804B46DB7A82
S11322E0A380834B9847784D82492868824B98474E
S11322F03070824B1A68824B19682868814B984762
S11323002868E3881BB2002B00DA77E76B4BDB8885
S11323101BB201930423FF330093E43B7D22FA2193
S11323204900794CA047684B1868644B1B881BB262
S1132330002B00DA64E7614B1B881BB20193042372
S1132340FF330093E43BC822FA2149006E4CA047B6
S11323505D4B1868594B5B881BB2002B00DA51E7C0
S1132360564B5B881BB201930423FF330093E43B79
S11323701422FF32FA214900634CA047524B1868DB
S11323804E4B9B881BB2002B00DA3DE74B4B9B88DE
S11323901BB201930424FF3400941F23AF22520084
S11323A0FA214900584DA847474F3868574B0193C5
S11323B000941F237D22FA21554EB0473868554BAF
S11323C0019300941F23C822FA21B0473868524B66
S11323D0019300941F231422FF32FA21B047386876
S11323E04E4B019300941F23AF225200FA21B047B1
S11323F038684B4D019500941F237D224949B0470D
S11324003868019500941F23C8224649B0473868AC
S1132410019500941F231422FF324249B0473868C3
S1132420019500941F23AF2252003E49B0473E4B12
S11324301B78012B00D1E9E6204B1B881BB2502BE3
S113244000DC0EE71D4B5B881BB2502B00DC08E759
S11324501A4B9B881BB2502B00DC02E7164B1B78EF
S11324609A460023984606E74346002B00D002E72D
S113247001339846FFE6104B1C7805212000114BD0
S11324809847C9B2002900D0F9E65B46A34200D1BF
S1132490F5E6264B1B78012B00D0F0E6244B984739
S11324A0054B1B789B46EAE605B03CBC9046994632
S11324B0A246AB46F0BDC04680070020FC000020C9
S11324C0D1200000F54E000088070020FFFFFF0424
S11324D0151D0000FD1E00005C5800007D1E00005C
S11324E0B12100001D0100206804002055050000F2
S11324F0852100002C213000A51B000004010020D0
S113250008010020C91800005517000038580000C1
S1132510D1160000405800004858000050580000F0
S1132520585800008A020000080000201C01002006
S1132530251E0000F0B5DE4657464E464546E0B53A
S1132540AFB05AE05A1C0B923A4E9A00D018810050
S11325508D5F810071180227C85F0C900427C85F43
S11325600627CC5F0D9408240F5FBC460A240F5F36
S1132570B8460C240F5FB9460E240F5F1024095F80
S11325808B46D3189A00B6181221735E0EAE0993C7
S11325905B46089307974B46069343460593634669
S11325A004930D9B039302900C98019000950B9D4E
S11325B02B00214A80213000204FB8470A9C22B2C8
S11325C01F4B18680196002300931C3332211D4EC3
S11325D0B04723001E330A932B00092BB2DD1A4B9C
S11325E098471A481A4B98471A4B984732201A4B67
S11325F098471A4B1B78062B15D0184D00232B70C7
S1132600174B98470E4C17492068174B984728706A
S1132610164B1A68164B19682068164B98477D2488
S113262000230A94D9E72FB03CBC90469946A246B1
S1132630AB46F0BDB8060020A8580000C14F00000A
S113264088070020D1160000FD1E00001859000064
S11326507D1E0000B1210000510100001D01002079
S1132660852100002C213000A51B00000C01002056
S113267010010020C9180000F0B5DE4600B582B094
S1132680484E00233370484B9847484C48492068CB
S1132690484B98473070484B1A68484B1968206873
S11326A0474B984720680B230193464D00951433FC
S11326B07D224549454FB84720680A230193009578
S11326C01533C8224049B847206817230193009561
S11326D008331422FF323C49B84720680E23019383
S11326E000951133AF2252003749B8472068384B60
S11326F001930425FF3500951F237D22C82149003D
S1132700344FB8472068344B019300951F23C822E7
S1132710C8214900B8472068304B019300951F2316
S11327201422FF32C8214900B84720682C4B01937A
S113273000951F23AF225200C8214900B8472068E2
S1132740284B9B46019300951F237D222649B847B9
S113275020685B46019300951F23C8222249B8478D
S113276020685B46019300951F231422FF321E4903
S1132770B84720685B46019300951F23AF2252009F
S11327801949B847194B984719481A4B98471A4B97
S113279098473378062B00D072E702B004BC934606
S11327A0F0BDC0461D0100208521000088070020DF
S11327B02C213000A51B000014010020180100206A
S11327C0C9180000030700008A0200005517000022
S11327D038580000D1160000405800004858000046
S11327E05058000058580000EE020000FD1E000082
S11327F0405900007D1E0000B121000030B583B0B7
S11328000C4B98470C4C20680C4B0193C023DB0005
S113281000931E23F022C8214900094DA8472068CF
S11328200021084B9847084B98476420074B98476A
S113283003B030BD852100008807002068580000DF
S1132840D11600008D180000B121000051010000D4
S1132850F0B5DE4657464E464546E0B589B03023CE
S113286005930622002106A8884B9847002303936A
S113287000269B4622E05F2205AB9A5529E003928D
S113288081E0012E00D190E0032E00D196E0062EC7
S113289000D193E005AA93550136F6B20B2B00D173
S11328A0B0E0092E00D1ADE09B46022E00D1E6E057
S11328B0052E00D1E3E0062B00D1D6E0744C2100B4
S11328C07448754B98472378DB07D4D5202205AB91
S11328D09A55724B9946002398464A461370704B9A
S11328E09847704C70492068704DA847704920681B
S11328F0A84770492068A8476F492068A8476F49CE
S11329002068A847842189052068A8476949206868
S1132910A84720686A4B0193434600931C33302236
S1132920F021684FB8472068674B019343460093F2
S11329301C334822F021B8478021C9042068A847E5
S1132940206805AB0193434600931E337822F5219A
S1132950B84758492068A84720685C495C4B9847A9
S11329604B46187003985B4B98475B4B98475B4BFF
S113297098474B461B781A00303AD2B2092A00D83D
S11329807DE700210391002B00D19B469B458CD011
S1132990002B8AD0062B88D0092A13D8002E00D009
S11329A06FE7322B00D979E76BE705AA1278322A50
S11329B000D069E7332B00D970E765E7352B00D9E0
S11329C06CE767E70A2B0FD0092B00D066E7002ECF
S11329D000D163E7032E0FD0062E0DD0002105AAE7
S11329E09155013EF6B259E7002105AA9155013EE1
S11329F0F6B2002EF8D151E7002105AA9155013E07
S1132A00F6B2EBE705AC0023A3552248344B9847B4
S1132A102078344F3021B8478B00C9184B00DDB201
S1132A2060783021B8476918194EB170E0783021C8
S1132A30B8478B00C9184B00DDB220793021B84764
S1132A4069187170A0793021B8478B00C9184B0000
S1132A50DDB2E0793021B8476918317031000D4892
S1132A60214B98470B48214B984700220B4B1A7077
S1132A7009B03CBC90469946A246AB46F0BD3A210B
S1132A8005AA91550136F6B215E7C046AF4F0000CE
S1132A908007002068040020550500001D01002067
S1132AA085210000880700200900001F151D000073
S1132AB03C00000EFFFFFF04E0068047000A80513F
S1132AC068590000D1160000745900002C21300010
S1132AD0A51B0000591F0000FD1E0000B1210000CD
S1132AE059040000F54E00003105000039040000CF
S1132AF0F0B5DE4657464E464546E0B589B030232C
S1132B0005930822002106A8C64B984700260023F7
S1132B1003939B4628E05F2205AB9A552FE003936D
S1132B2087E0012E00D196E0032E00D19CE0032E15
S1132B3000D1AFE0042E00D1C2E0042E00D1DCE0CD
S1132B4005AB9C550136F6B20B2C00D112E10B2ECD
S1132B5000D10FE1A346022E00D15DE1052E00D184
S1132B605AE1062C00D14DE1AF4C2100AF48B04BE7
S1132B7098472378DB07CED5202205AB9A55AD4B79
S1132B809946002398464A461370AB4B9847AB4C82
S1132B90AB492068AB4DA847AB492068A847AB496F
S1132BA02068A847AA492068A847AA492068A847D6
S1132BB0842189052068A847A4492068A84720687B
S1132BC0A54B0193434600931C333022F021A34FBD
S1132BD0B8472068A24B0193434600931C33482214
S1132BE0F021B8478021C9042068A847206805ABB4
S1132BF00193434600931E337822F521B847934945
S1132C002068A84720689749974B98474B46187007
S1132C100398964B9847964B9847964B98474B4644
S1132C201C782300303BDBB2092B00D877E7002265
S1132C300392002C00D1A346A3458CD0002C8AD04B
S1132C40062C88D0092B75D8002E00D069E7312CCA
S1132C5000D979E765E705AB1B78312B00D063E732
S1132C60322C00D970E75FE705AD2878824B98468F
S1132C7030219847CBB29900C9184F0068783021A9
S1132C80C047C9B27F18022F00D050E7322C00D9B8
S1132C905AE74CE705AD2878774B9846302198479A
S1132CA0CBB29900C9184F0068783021C047C9B227
S1132CB07F18022F00D13DE7332C00D944E739E7D0
S1132CC005AD28786C4B9846302198478B00C9187D
S1132CD04B00DFB268783021C0477918C8B2674B1F
S1132CE09847002800D028E705ABDB78332B00D0C9
S1132CF023E7302C00D927E71FE705AD28785E4B82
S1132D009846302198478B00C9184B00DFB2687889
S1132D103021C0477918C8B2584B9847002800D1D1
S1132D200EE705ABDB78332B00D009E7312C00D953
S1132D300AE705E70A2C0FD0092C00D004E7002E7F
S1132D4000D101E7032E0FD0062E0DD0002205ABD3
S1132D509A55013EF6B2F7E6002205AB9A55013EBC
S1132D60F6B2002EF8D1EFE6002205AB9A55013EEB
S1132D70F6B2EBE705AD0023AB552C48404B984722
S1132D8028783D4E3021B0478B00C9184B00DCB287
S1132D9068783021B0476118234F7971E878302181
S1132DA0B0478B00C9184B00DCB228793021B047FA
S1132DB061183971A8793021B047C9B2FA24A40046
S1132DC04C43A4B2E8793021B047C9B264235943D3
S1132DD089B26418A4B2287A3021B047C9B28B00F2
S1132DE0C9184B009BB2E418A4B2687A3021B047EA
S1132DF0C9B26418FC8039000C48224B98470B4830
S1132E00214B984700220B4B1A7009B03CBC9046EA
S1132E109946A246AB46F0BD2F2205AB9A55013622
S1132E20F6B29EE6AF4F0000800700206804002041
S1132E30550500001D0100208521000088070020A1
S1132E400900001F151D00003C00000EFFFFFF04D9
S1132E50E0068047000A805150590000D116000056
S1132E605C5900002C213000A51B0000591F0000F4
S1132E70FD1E0000B1210000F54E0000491D0000B8
S1132E8059040000310500003904000030B585B054
S1132E908AE0FF32ABE00022C4E0FF32E7E0002228
S1132EA09149039102920193352300932B33B1226C
S1132EB0C82149008D4CA0478D4C8E4920688E4B0B
S1132EC0984720688D4B1B788D4A1278072A00D1C9
S1132ED0E9E000228B490391029201933523009388
S1132EE09333F02296214900804CA047804C8649B8
S1132EF02068814B98472068804B1B78804A127861
S1132F00082A00D1D1E00022804903910292019362
S1132F103523009393339722520096214900734C32
S1132F20A047734C7A492068734B98472068734BC9
S1132F301B78734A1278052A00D1B8E0002275493B
S1132F40039102920193352300939333B6225200E6
S1132F5096214900654CA0476F4B98476F48704BCA
S1132F609847704B9847664B1B78072B00D1A0E01D
S1132F70052B00D1A0E0082B00D1A0E0604B1B780A
S1132F800C2B00D19EE00D2B00D19FE00F2B00D124
S1132F90A0E00E2B00D1A1E03220634B9847584BA0
S1132FA01B78062B00D19DE0554D00232B705F4B01
S1132FB098474F4C5E4920685E4B984728702068BC
S1132FC05D4B0193C023DB0000931E238C22C82198
S1132FD05A4DA8475A492068474B98472068474BA1
S1132FE01B78584A1278012A00D152E70022564928
S1132FF0039102920193352300932B33732296217C
S113300049003A4CA0473A4C504920683A4B9847FB
S113301020683A4B1B784B4A1278002A00D03AE7D2
S11330200132FF3230490391029201933523009318
S11330302B337322C82149002C4CA0472C4C206808
S1133040434B0193C023DB0000931E23BE22C821FF
S11330503A4DA8473F492068274B98472068274B9B
S11330601B783D4A1278012A00D116E7002236491E
S1133070039102920193352300932B33B1229621BD
S113308049001A4CA0471A4C344920681A4B9847F7
S113309020681A4B1B78304A1278002A00D0FEE6CA
S11330A00132FF32FCE6F93214E7F8322CE7FB3246
S11330B045E72B4B984761E72A4B98475EE72A4B35
S11330C098475BE701211F4A11705CE700211D4A04
S11330D011705BE70021204A11705AE701221E4B50
S11330E01A7059E705B030BD9C590000E51700007F
S11330F08807002007000003151D000009000020B8
S11331001D010020A859000008000003C059000058
S113311005000003D0590000FD1E0000E059000026
S11331207D1E0000B1210000510100008521000036
S11331302C213000A51B000090590000D11600007E
S11331400C00000308000020985900000D00000343
S1133150A05900000E0000031C0100200F00000312
S1133160FD27000051280000F12A000000B585B0B9
S113317001A9092301934B6000230B7201224A72B7
S11331808B720533CB720920014B984705B000BD03
S1133190BD03000010B5052209210248024B9847DF
S11331A010BDC046753700007502000030B589B007
S11331B0264B274ADA800C225A7113321A71083AC4
S11331C09A7024325A70043A1A7001AA00231370B8
S11331D053709370D370012111715171FA21C90098
S11331E0D18003AAA020000110809370D3701371C2
S11331F0D1800024002C14D003AA01231371154C90
S113320015492000154B984710492000144B984746
S11332102000144B98477F212000134B984709B096
S113322030BDA5002B19580003AB9C466044083000
S1133230082201A90D4B98472D196B0003AA944647
S1133240634406221A740134E4B2D3E780070020F1
S1133250E10700006804002000140040510600004B
S11332603105000039040000B10600009D4F000044
S113327000B583B001236A465370937000226946F7
S1133280CA700B7106330B704A716846014B98473C
S113329003B000BD0543000000B585B0094B984755
S11332A001A904230B7000234B724B7020224A6047
S11332B00B720220044B98470220044B984705B038
S11332C000BDC046F144000015450000E54500007E
S11332D0F0B5C64600B590B0344B1B78002B03D034
S11332E010B004BC9046F0BD01AA537093702D2118
S11332F011702F4C21706370A370012269464A70CB
S11333008B700A702D202B4B98472378D9095A09C2
S1133310002949D1D20128498C4662441F273B40E9
S1133320012529009940916102AC25700026666050
S1133330A660C0239B03E36026746674A574E574D9
S1133340267524239846E6540C22002108A81B4B1A
S1133350984780235B02E360194BA36201235B421D
S1133360E362184B2363184B63634346E654174BDD
S1133370A361174E220017493000174B9847346851
S11333802000164B984738408540154B1D60104B64
S11333901B68DB69002BFAD12368022213432360E4
S11333A0013A024B1A709BE70022B7E71F01002085
S11333B0B40900207941000000440041AF4F0000EF
S11333C002002C0002002E0002002F0040420F00D9
S11333D0B809002000180042A90B0000F5400000C5
S11333E000E100E010B582B00C1E1FD100021A4BA0
S11333F01840019001ABD9781A784A405140D970ED
S11334004A401A7099785A784A40514099704A4013
S11334105A70012211491248124B98470528F8D0D6
S1133420002C0DD0012C11D002B010BD0129E1D126
S11334300002094B184080231B0618430190D9E76A
S1133440042201A90648084B9847EDE7032201A985
S11334500348054B9847E7E700FFFF3FB409002006
S1133460B8090020910D00008D0E000010B5002257
S113347002490348034B984710BDC046B4090020D5
S1133480B8090020910D000010B50A0000230100C6
S11334900148024CA04710BDB8090020950C00005B
S11334A010B582B06B46DC1D002323700021054B50
S11334B0984701212000044B9847044B98472078F3
S11334C002B010BDE5330000893400006D34000003
S11334D010B582B06B469C1D002323800021054B50
S11334E0984702212000044B9847044B98472088B2
S11334F002B010BDE5330000893400006D340000D3
S113350010B50A0001000248024B984710BDC0469E
S1133510B80900208D0E000010B582B06B46DC1D8A
S1133520D9710121054B984701212000044B98478C
S11335300400044B9847200002B010BDE53300009E
S1133540013500006D34000010B582B06B469C1D3F
S1133550D9800121054B984702212000044B98474C
S11335600400044B9847200002B010BDE53300006E
S1133570013500006D34000010B582B001910121C5
S1133580054B9847042101A8044B98470400044BB9
S11335909847200002B010BDE5330000013500005B
S11335A06D34000010B582B001AB18705970002260
S11335B09A7001220A490B480B4B98470528F8D00A
S11335C0032201A90748094B9847041E05D1084B5B
S11335D098470400200002B010BD054B9847F9E756
S11335E0B4090020B8090020910D00008D0E0000E0
S11335F06D34000080225200014B5A617047C0466E
S11336000044004180225200014B9A617047C04639
S11336100044004170B5314B98471420304CA0470A
S1133620304B98471420A047002144202E4DA84732
S11336303220A04700210020A8472C482C4B984753
S1133640C0B27C28F9D1C82189002A482A4CA04755
S1133650E82189002948A04758212948A04700218A
S11336602848A04730212848A047F021490027488E
S1133670A04727492748A04720212748A0470021E1
S11336802648A04703212648A04700212548264D67
S1133690A84700212548A84701212548A84701211A
S11336A02448A8472449C0208003244EB047244915
S11336B02448B04724492548B04700212448B0474E
S11336C002212448A847244E31002448A047310051
S11336D02348A04702212348A84770BDF5350000C0
S11336E05101000005360000A5350000002030001F
S11336F0D134000034203000493500002C20300043
S113370030203000382030003C2030004820300089
S11337100D02000040203000442030004C203000D6
S11337205020300064203000193500006C20300037
S1133730682030006020300001010102793500006A
S1133740FFFFFF04040030000700002608003000DB
S11337500C00300054203000FFFF0000982030009F
S11337609C20300070203000014B18607047C04628
S11337702001002010B50348034B9847034B1870F1
S113378010BDC046A8203000A13400000A0000206B
S113379080221205014B5A617047C0460044004123
S11337A080221205014B9A617047C04600440041D3
S11337B0024A1368013313607047C0462401002095
S11337C0014B18687047C0462401002010B50F4B08
S11337D01868FA2189000E4B984701380D4B98421E
S11337E011D80D4A50600D48036A1B021B0AC02100
S11337F009060B430362002393600733136000231D
S1133800002B02D0FEE70123FAE710BD0C000020D4
S1133810E94D0000FFFFFF0010E000E000ED00E0D4
S113382000B583B0074A136A20210B43136201A930
S113383000230B701720044B98471720034B98471D
S113384003B000BD0004004071470000E9460000D9
S113385070B50B4C0023A3700126267002336370ED
S113386021001820074DA847667021001920A84799
S1133870054B802292045A61802252045A6170BD21
S11338802C010020794100000044004110B50A4B8E
S11338901B78002B04D0094909480A4B984710BDEE
S11338A0064B1988C9B20848084B9847084A136858
S11338B001331360EFE7C046B8030020F409002089
S11338C074010020E13E0000A8010020FD12000068
S11338D03001002070B535490B68022293430B6018
S11338E0334A8023DB05136000235360FF201081DB
S11338F000209372D3720124242554550135545564
S1133900253413550134135593620534135501348A
S1133910135553611382D3761076107750761323A0
S113392093765077234B1B68136290235B03D36019
S1133930214B1363214B536301235B429363D36392
S11339401F48204B98470028FDD11D4B1C682000C0
S11339501D4B98471F2318401E3B83401B4A13608E
S1133960174B1B68DB69002BFAD12368022213432F
S11339702360134C013A16492000164EB0473125F6
S1133980635D022213436355002213492000B047AC
S1133990635D01221343635500210C200F4B9847AC
S11339A00F4920000F4B984770BDC04600140042D9
S11339B03401002028010020020016000200170034
S11339C074010020313D0000F540000000E100E0FA
S11339D08D380000C93E0000353A0000C1470000A0
S11339E0F4090020E13E000010B500280CD10D4B75
S11339F0802292045A61802252045A610A4B9847E9
S1133A0000220A4B1A7010BD0122084B1A70054B94
S1133A10802292049A61802252049A61044B98474E
S1133A20F1E7C04600440041A1370000B80300207C
S1133A309137000010B50020014B984710BDC046D7
S1133A40E939000096231B02984203D1024B186007
S1133A50012070470020FCE72801002010B58022D7
S1133A60920005490548064B9847064B9847064B74
S1133A709847064B984710BDB8010020A8010020C4
S1133A80391300002138000051380000D5380000F7
S1133A9010B50122034B9A71034B1B68002B00D015
S1133AA0984710BD00100040FC09002070B580004C
S1133AB0164BC5582B689C7B2A7E6B7E14401C4099
S1133AC0E30706D4A3070BD4E30610D4A30615D446
S1133AD070BD2800AB68984701232A689373F1E707
S1133AE02800EB68984702232A689373ECE72800C0
S1133AF02B69984710232A689373E7E728006B69BA
S1133B0098472B6820229A73E2E7C046000A0020F7
S1133B1010B50020014B984710BDC046AD3A0000D7
S1133B2010B50120014B984710BDC046AD3A0000C6
S1133B3010B50220014B984710BDC046AD3A0000B5
S1133B4010B50320014B984710BDC046AD3A0000A4
S1133B5010B50420014B984710BDC046AD3A000093
S1133B60F0B5DE4657464E464546E0B587B00500FB
S1133B700C0006683000694B9847143000220E236D
S1133B8002A98C4663441A80228A8023DB019A426C
S1133B903BD00CD9C023DB019A4231D080231B02D5
S1133BA09A420DD10323984600239A460CE08023C1
S1133BB09B019A4204D1102398460F3B9A4603E096
S1133BC01023984600239A462368E1680B436169F1
S1133BD00B431343227E120213432622A25C520794
S1133BE01343994662680392002A21D080235B051F
S1133BF09A423ED12723E35C002B0BD0002039E00E
S1133C0008239846073B9A46DEE708239846002394
S1133C109A46D9E7236A9846C0B2414B98470100B7
S1133C200E2202AB9C46624440463E4B984721E03C
S1133C302723E35C002B0BD04346009353460E220C
S1133C4002A98C466244A16A206A374FB84711E042
S1133C50236A9B46C0B2324B984701004346009307
S1133C6053460E2202A88446624458462E4FB84753
S1133C7000E00020002842D1637E002B01D0A37E07
S1133C80B3730E2302AA944663441B88B3814B4644
S1133C90039A13432722A25C002A01D1043213435E
S1133CA0617E8902227F52021143627F1202114314
S1133CB02422A25C520411432522A25C1204114363
S1133CC0A27A1143E27A11432289FF2A1ED0802767
S1133CD07F043B4311432C22A25C002A03D1134AE4
S1133CE09278920701D5802213432A68D269002A68
S1133CF0FBD171602A68D269002AFBD1336007B016
S1133D003CBC90469946A246AB46F0BDE27E002AF2
S1133D10E1D08022D2041343DDE7C046210A00002B
S1133D208D47000095070000C107000000200041F6
S1133D30F0B589B006000C00170031600800424B52
S1133D409847821C14302368DB0703D50525280017
S1133D5009B0F0BD23689B0701D51C25F7E70123B3
S1133D6093403A4A116A0B4313622D257B5D07A9E0
S1133D700B70C3B201931800354B98470198354B2B
S1133D809847785D0021344B9847FB7A737124235C
S1133D90FB5CB3712523FB5CF371FB7E33723B7FC9
S1133DA07372390030002D4B9847051ECFD106ABF6
S1133DB080221A7000225A70DA709A703B6B029358
S1133DC07B6B0393BB6B0493FB6B019305930027FD
S1133DD006E039002000224B984708E00137FFB283
S1133DE0032F0DD8BB0002AA98580028F1D0431C19
S1133DF0F4D006A90870000CC0B21A4B9847EDE73E
S1133E000022052A06D8931C9B00F3180021596050
S1133E100132F6E70022B26272620023F285B285B3
S1133E203032B3540132B3540132B3540132B35477
S1133E303068054B984704000B490C4B9847A40085
S1133E400B4BE65083E7C046210A00000004004003
S1133E5071470000E94600005D080000613B000076
S1133E60A9080000A9480000113F0000B540000067
S1133E70140A0020F8B504000D0016000768104B62
S1133E809847A38D9BB2002B03D00E4B9847052077
S1133E90F8BDA6850B4B9847656205223223E25490
S1133EA02E3BBB75237A002B01D02023BB75637A8C
S1133EB0002B03D00823BB750020E9E70020E7E7C7
S1133EC0A1410000E1410000931C9B00C31859600C
S1133ED0012393401A003021435C13434354704739
S1133EE010B50122014B984710BDC046753E000035
S1133EF010B5002A01D1172010BD8379002B01D100
S1133F001C20F9E7014B9847F6E7C046753E0000D0
S1133F10F0B5C64600B58000644BC5582C68E3690B
S1133F20002BFCD1237EA67D1E403023EB5C312286
S1133F30AF5C1F40F30725D5EB8D9BB2002B1FD040
S1133F40A96A0A78D2B293B29846481CA8626B79DF
S1133F50012B0ED04346DB05DB0D2385EB8D013BA6
S1133F609BB2EB85002B0DD1013323750133A3756F
S1133F7008E04B781B0213439846881CA862E9E7C3
S1133F8001232375B30706D5022323750022313399
S1133F90EA54FB071CD4730764D5AB8D9BB2002B8A
S1133FA05ED0628BD2B23F231340110701D5372371
S1133FB01340002B31D09A070ED51A223223EA542B
S1133FC0303B63837B074DD528006B69984749E0F4
S1133FD02800EB689847DEE75A0705D51E223223EE
S1133FE0EA542E3B6383EDE7DA0705D51322322327
S1133FF0EA54313B6383E5E7DA0605D542223223EE
S1134000EA54223B6383DDE720221A42DAD02132CC
S11340103223EA54123B6383D4E7238DDB05DB0DA3
S1134020DAB2696A0A706A6A511C6962697901299B
S113403010D0AB8D013B9BB2AB85002B12D1043366
S1134040237500222E33EA54BB070BD528002B69B5
S1134050984707E01B0A53706B6A01336B62E8E709
S113406004232375F30604D5102323752376FB0656
S113407010D4B30604D52023237523763B070DD42F
S1134080330704D5082323752376BB060AD404BC5E
S11340909046F0BD2800EB699847EAE72800AB6931
S11340A09847EDE72B6A28009847F0E7140A0020A8
S11340B07047000030B50B4B1B78002B08D00CE088
S11340C09A00094D094C15510025094C155101332D
S11340D0052BF5D90122034B1A708000034BC15004
S11340E030BDC046B9030020B1400000BC0300202D
S11340F0140A002000B583B0054B1A6800929B880F
S11341006A469380034B98476B46185603B000BD2C
S1134110EC590000210A000010B5024B1B68002076
S1134120984710BDBC03002010B5024B5B6801200A
S1134130984710BDBC03002010B5024B9B680220B9
S1134140984710BDBC03002010B5024BDB68032068
S1134150984710BDBC03002010B5024B1B69042016
S1134160984710BDBC03002010B5024B5B690520C5
S1134170984710BDBC03002000B583B001AB80227A
S11341801A700A785A704A789A708A78DA70190024
S1134190014B984703B000BDA948000070470000D8
S11341A00C4B1B68002B06D1EFF31083002B07D0B8
S11341B00022094B1A70074A1368013313607047D1
S11341C072B6BFF35F8F0022044B1A700132024BA8
S11341D01A70F0E7D4030020D80300200B0000205D
S11341E0084B1A68013A1A601B68002B09D1064B68
S11341F01B78002B05D00122044B1A70BFF35F8F8C
S113420062B67047D4030020D80300200B000020BE
S113421010B582B0012201AB1A70002404E0E0B2B0
S113422001A9034B98470134242CF8D902B010BDDE
S11342307147000010B5082834D880001C4B1B5867
S11342409F468020000210BD1A4B1869FBE71A4BE9
S11342501B6A9B059B0F1948D840F4E7154B586916
S1134260F1E7144B1B689B071ED5134BDB68DB0679
S1134270FBD5104B1A6824231340042B01D010489B
S1134280E1E700200F4B98470A4B9B681B041B0C6B
S11342905843D8E75023084AD35C5B0706D5054B3F
S11342A0D868D0E70020CEE70020CCE70020CAE79A
S11342B0F4590000DC0300200008004000127A00DA
S11342C0006CDC028D47000070B50C4D2E6A02783C
S11342D003210A4012020A49314011438278012421
S11342E02240D201802399430A43437823409B010F
S11342F040218A4313432B6270BDC046000800402E
S1134300FFFCFFFFF0B5154FBE69427801231A4048
S1134310D20008218E43324385781D40AD00043914
S11343208A431543017807240C4024020C490D40AC
S11343302C4301791940C901802294432143C27856
S11343401A4092014024A1430A4341790B401B03C4
S113435004490A401343BB61F0BDC0460008004055
S1134360FFF8FFFFFFEFFFFF08284AD88000264B25
S11343701B589F4600207047244A136A02210B43AE
S113438013620020F7E7214A936902210B439361EA
S11343900020F0E71D4A138A02210B439BB21382CB
S11343A00020E8E7194A938A02210B439BB29382C7
S11343B00020E0E716490B68022213430B60134BFD
S11343C09A84124BDB68DB06FBD5114A91680F4BCC
S11343D0D96252689A6200229A840C4BDB68DB062D
S11343E0FBD50B4B1B689BB2084A93840020C2E7A1
S11343F0064944228B5C02200343DBB28B54002029
S1134400B9E71720B7E7C046185A00000008004073
S1134410DC030020F0B587B0294CC223DB00A36085
S1134420284B59681E2291435960274B9847274BC4
S113443019688909A2697F230B401B0424490A4097
S11344401343A36104A80125457085700024C4703A
S113445005710723037044711E4B984704201E4EB8
S1134460B04703A84470857004701C4B984706201D
S1134470B0471B4B98476B465C701C725C720423FC
S11344806A4613701C33019369460220154FB847DE
S11344900220154EB047154B1C725C729C72DC7284
S11344A001956B465C7006236A461370147254724D
S11344B069460020B8470020B04707B0F0BDC046A9
S11344C000080040004000411142000024608000C8
S11344D0FFFF80FF0543000069430000C94200005C
S11344E0F144000015450000E545000000040040CB
S11344F0064A936908210B4393610122044B1A7005
S1134500034B1B78DB07FBD47047C0460004004014
S1134510000C0040F8B5060005000C7824020443A2
S11345204B78002B02D08023DB021C434B7A002BF8
S113453002D080231B031C434868012812D9431E60
S113454003423DD00502354380239B021C4309E00E
S113455001325B008342FBD31202324315008023F5
S11345605B031C430B7A002B02D080239B031C4368
S1134570184B5B785BB2002B25DB0027002FF7D1AB
S1134580154B9847154B1E70124B5B785BB2002B92
S11345901BDB3A00002AF7D10E4B9D600D4B5B7874
S11345A05BB2002B13DB1300002BF7D1094A5368CD
S11345B0802149020B401C435460094B9847F8BDC5
S11345C002230022C6E70127D8E70122E2E70123FC
S11345D0EAE7C046000C0040A1410000080C00407E
S11345E0E141000070B50500104B5B785BB2002B15
S11345F017DB0024002CF7D10D4B98470D4B1D7091
S11346000A4B5B785BB2002B0DDB2300002BF7D148
S1134610064A516880235B020B435360064B98475C
S113462070BD0124E6E70123F0E7C046000C00401A
S1134630A1410000040C0040E1410000F8B507006E
S1134640224B5B785BB2002B34DB0025002DF7D1C5
S11346501F4B98471F4B1F701C4B5B785BB2002BA2
S11346602ADB2C00002CF7D1184E7068C004C00E51
S1134670194B98470500174B1F707668F602F60F22
S1134680164B1F70114B5B785BB2002B16DB2300BB
S1134690002BF7D10D4B9C682402240C104B984737
S11346A0002E0DD1012C0BD9210028000D4B984769
S11346B0050009E00125C9E70124D3E70123E7E761
S11346C0002E01D00134E5402800F8BD000C004064
S11346D0A1410000040C004035420000080C0040D9
S11346E0E1410000E94D000010B50400064B984775
S11346F0064B1C70064A53888021C9010B43538022
S1134700044B984710BDC046A1410000020C004074
S1134710000C0040E141000010B504000E4B984726
S11347200E4B1C700E494B881B051A0F4B880D4805
S113473003404B804B880C4803404B80084B5B88FC
S11347405B04FBD4064841881302064A0A4013431B
S11347504380064B984710BDA1410000020C004065
S1134760000C0040FFF0FFFFFFBFFFFFE14100002E
S113477010B50C7824020443024B9847A4B2024BB0
S11347805C8010BD19470000000C004010B5040007
S1134790064B9847064B1C70064B5C882405240F77
S11347A0054B98472000054B984710BDA1410000D8
S11347B0020C0040000C0040E14100003D460000B6
S11347C030B5002819DBC317032422001A4012183D
S11347D09210D2B29B0FC0182040C31ADB00DBB288
S11347E00633DBB2094DC032920050599C40A043BD
S11347F0994001435151002030BD431C01D0172082
S1134800FAE78907024B19620020F5E700E100E0AE
S113481000ED00E070B5D378002B20D11578802D01
S11348201BD02D0680235B021D435378002B01D03F
S1134830022B0AD180239B022B439478002C02D0B4
S1134840C023DB022B4341601D005378013BDBB2E4
S1134850012B06D8134B1D4003E00025E5E741601A
S113486000250C04240C0B0C2C43A026F605344321
S113487084622B43D024240623438362D378002B01
S11348800AD16B0303D59378012B06D04161537889
S1134890013BDBB2012B02D970BD8161F7E7816076
S11348A0FAE7C046FFFFFBFF10B50A00C109430940
S11348B000290BD1DB0106498C4663441F242040A8
S11348C0012181401800034B984710BD0023F5E7F0
S11348D000440041154800007047000010B5054B26
S11348E09847054B9847054B9847054B9847054B08
S11348F0984710BD154400009D410000D9480000B0
S11349002D030000D9480000FEE70000F8B5234A53
S1134910234B9A4209D0224B204A03E011681960C4
S1134920043304321F498B42F8D31F4B02E00022A8
S11349301A6004331D4A9342F9D31D4AFF211D4BCB
S11349408B439360FD3990235B001B4AD1501B4A73
S1134950D3780325AB4302242343D370D3780C27A5
S1134960BB4308263343D370154B987B30229043C6
S1134970202210439873997BB943314399739A7BEE
S1134980AA4322439A730F4A516880230B4353600E
S11349900D4B98470D4B9847FEE7C046C85A000098
S11349A0000000207400002074000020480A002049
S11349B000ED00E0000000000070004100500041E4
S11349C00048004100400041554F0000114B0000D9
S11349D00300064A1268002A04D0044A1068C31867
S11349E0136070470249014A1160F6E7F40300209E
S11349F0482A002000B583B001A8002303700122D7
S1134A0082704370014B984703B000BDC942000057
S1134A1000B585B00A4B984700230A4A137201A9CE
S1134A2006220A704B724B70053A4A600B720020E2
S1134A30054B98470020054B984705B000BDC0467C
S1134A40F14400000004004015450000E545000065
S1134A5010B5054B9847054B9847054B9847054BB0
S1134A609847054B984710BDF5490000114A0000CE
S1134A7071320000993200001501000070B582B057
S1134A8001AC0023A3700126267063702100082066
S1134A90054DA84780225200044B9A6126702100DC
S1134AA00D20A84702B070BD7941000000440041C8
S1134AB010B50C4B98470C4B98470C4B98470C4B34
S1134AC098470C4B98470C4B98470C4B984704213C
S1134AD00B480C4CA04701210B48A0470B4B9847AF
S1134AE010BDC046DD480000514A00007D4A000068
S1134AF0D13200006D310000953100001536000000
S1134B00B020300019350000AC2030003D14000006
S1134B10F0B585B0844B9847844D01262E70BFF3C1
S1134B205F8F62B6824B9847824C83482060834BE8
S1134B309847012282492068824FB847206806229C
S1134B408149B847FA20C000804B98472E70BFF3C4
S1134B505F8F62B67E4B9847962000027D4B984744
S1134B607D4B98477D217D487D4B98472EE07D4CB9
S1134B707D4B9847207203041B0E637203021B0EC5
S1134B80A372000EE072794B984723E0784C794B7E
S1134B909847207203041B0E637203021B0EA37258
S1134BA0000EE072744B984718E0FF3341E0FE3387
S1134BB056E0FD336CE0FC3382E06A486F4B984763
S1134BC000226F4B1A703220604B98476D4B984708
S1134BD00128CCD06C4B98470128D7D06B4D0023CB
S1134BE02B706B4B9847534C20686A4B0293F0230D
S1134BF05B0001934133FF3300930023664A002195
S1134C00664EB0478021C9042068654EB047654BA5
S1134C10984765492068B04764492068644B9847C1
S1134C20287064492068B04720682B78012BBCD0D9
S1134C300023614A039202931E2301935A33009383
S1134C4050336E22B8215D4CA0473A4C5C49206831
S1134C50534B984720684D4B1B78022BA7D0002359
S1134C60584A039202931E2301935A3300935033FC
S1134C706E22D0214900514CA0472E4C5249206845
S1134C80474B98472068414B1B78032B91D0002356
S1134C904E4A039202931E2301935A3300935033D6
S1134CA0F922B821454CA047224C494920683C4B85
S1134CB098472068354B1B78042B00D17BE70023F1
S1134CC0444A039202931E2301935A3300935033B0
S1134CD0F922D0214900394CA0473F4B98472B4B30
S1134CE01B78002B01D0264A1370254A1278934270
S1134CF000D16BE7002B00D068E7062B00D165E7F5
S1134D00012A00D159E7022A07D0042A08D0032A2D
S1134D1000D055E7314B984752E7314B98474FE75E
S1134D20304B98474CE7C046B14A00000B000020C6
S1134D30AD31000088070020700400204D1A0000E7
S1134D40AC203000FD1B0000B020300051010000F9
S1134D50CD370000453A00005D3A0000F80300201A
S1134D6051130000380A0020E51500006516000004
S1134D702C0A00201916000071160000DD21000025
S1134D801E0100204D160000591600001D010020D0
S1134D90852100007A4F0A00390A00000519000035
S1134DA0151D0000851D0000FFFFFF042C213000AD
S1134DB0A51B0000010000033C5A0000E517000099
S1134DC0020000034C5A000003000003585A00007C
S1134DD004000003645A0000B12100007926000099
S1134DE0352500008D2E0000002243088B4274D329
S1134DF003098B425FD3030A8B4244D3030B8B42D8
S1134E0028D3030C8B420DD3FF22090212BA030CE0
S1134E108B4202D31212090265D0030B8B4219D3C1
S1134E2000E0090AC30B8B4201D3CB03C01A5241E1
S1134E30830B8B4201D38B03C01A5241430B8B4229
S1134E4001D34B03C01A5241030B8B4201D30B0312
S1134E50C01A5241C30A8B4201D3CB02C01A524139
S1134E60830A8B4201D38B02C01A5241430A8B42FC
S1134E7001D34B02C01A5241030A8B4201D30B02E5
S1134E80C01A5241CDD2C3098B4201D3CB01C01AFF
S1134E90524183098B4201D38B01C01A5241430909
S1134EA08B4201D34B01C01A524103098B4201D3F7
S1134EB00B01C01A5241C3088B4201D3CB00C01A64
S1134EC0524183088B4201D38B00C01A52414308DC
S1134ED08B4201D34B00C01A5241411A00D2014601
S1134EE0524110467047FFE701B5002000F006F874
S1134EF002BDC0460029F7D076E770477047C04628
S1134F00F0B5CE46474615042D0C2E0080B5070497
S1134F10140C3F0C9946030C7E435D436743634383
S1134F207F19340CE4199C46A54203D980235B0203
S1134F309846C4444B46514343433604360C250C2F
S1134F4024046544A4195918491920000CBC90463E
S1134F509946F0BD70B500260C4D0D4C641BA41091
S1134F60A64209D1002600F09FFD0A4D0A4C641B9D
S1134F70A410A64205D170BDB300EB589847013682
S1134F80EEE7B300EB5898470136F2E7B45A000055
S1134F90B45A0000B45A0000B85A0000002310B5F7
S1134FA09A4200D110BDCC5CC4540133F8E703002D
S1134FB08218934200D1704719700133F9E7000059
S1134FC00CB430B5164B9DB00C1E1D6808DA8B234B
S1134FD001202B6040421DB030BC08BC02B0184711
S1134FE0822302A99B008B810023029008619C42CA
S1134FF000D0631E8B604B6101235B42CB81209AFE
S113500021AB2800019300F01FF9431C01DA8B2324
S11350102B60002CDFD00023029A1370DBE7C0461C
S1135020100000200023C25C0133002AFBD1581E6B
S11350307047000070B50500002910D00C1F2368CC
S1135040002B00DAE418280000F0B9FB1D4A1368AD
S1135050002B05D163601460280000F0B1FB70BD23
S1135060A34209D9216860188342F3D118685B68A8
S113507041182160EEE713005A68002A01D0A242C9
S1135080F9D919685818A0420BD120680918581882
S113509019608242E0D110685268411819605A6060
S11350A0DAE7A04202D90C232B60D5E72168601807
S11350B0824203D1106852684118216062605C60CA
S11350C0CAE7C04600040020032370B5CD1C9D43ED
S11350D0083506000C2D1ED20C25A9421DD830001F
S11350E000F06DFB254A14682100002919D1244CD5
S11350F02368002B03D1300000F032FB206029002C
S1135100300000F02DFB431C2CD10C233000336005
S113511000F056FB03E0002DDFDA0C23336000209F
S113512070BD0B685B1B1AD40B2B03D90B60CC1816
S1135130256003E08C420ED163681360300000F0F8
S11351403FFB200007220B30231D9043C31AE7D0F6
S11351505A42E250E4E74B6863600C00EEE70C004F
S11351604968C2E70323C41C9C43A042E0D0211A2F
S1135170300000F0F5FA431CDAD1C6E70004002041
S113518004040020F0B58E6885B007000C0003927B
S113519001939E4239D890238A89DB001A4234D085
S11351A00325096923685B1A0293636902985D43C6
S11351B0EB0F5D19019B6D1001331B18AB4200D935
S11351C01D00530532D529003800FFF77DFF061E68
S11351D009D10C233B6040230120A28940421343A0
S11351E0A38105B0F0BD029A2169FFF7D7FEA38918
S11351F0144A1A4080231343A381029B2661F618A4
S113520026606561019EED1AA560019BB34200D240
S11352101E0032000399206800F0BFFAA368002042
S11352209B1BA36023689E192660DAE72A003800D6
S113523000F0C7FA061EE0D121693800FFF7FAFE34
S1135240C7E7C0467FFBFFFFF0B59FB00290059310
S11352508B890F0016001B0611D50B69002B0ED18C
S11352604021FFF731FF38603861002805D10C2355
S1135270029A013813601FB0F0BD40237B61002304
S113528006AD6B6120336B761033AB763400237834
S1135290002B47D1A31B04930DD0A31B320039006C
S11352A00298FFF76FFF431C00D1B5E06A69049BC5
S11352B0944663446B612378002B00D1ACE0012257
S11352C0002352426A6002A95432521801342B60FE
S11352D0EB60AB601370AB65584E0522217830004B
S11352E000F050FA621C002820D12968CB0604D5AE
S11352F0532302AE20309B1918700B0704D5532397
S11353002B2002AE9B19187023782A2B16D000206C
S11353100A21099B2278303A092A55D9002815D048
S1135320099313E0252BB5D00134B0E70123801B8A
S11353308340296814000B432B60CDE7059B181D9F
S11353401B680590002B39DB0993140023782E2B5E
S11353500BD16378621C2A2B3ED1059B02341A1DA3
S11353601B680592002B34DB0793354E217803220A
S1135370300000F007FA002806D04023801B834049
S11353802A68013413432B60217806222D48661CB9
S1135390297600F0F7F9002846D02B4B002B2FD1AB
S11353A02968059B0722C90528D59B189343083310
S11353B005936B69039A9B186B6167E75B42EB602B
S11353C002230B432B60C0E74B4301349B1801209D
S11353D0A0E701235B42C7E7002314000A201A0058
S11353E06B6021783039092903D9002BBDD007928D
S11353F0BBE74243013452180123F2E70733D5E7F0
S113540005AB00933A00114B2900029800E000BF5D
S11354100390039B0133CCD1BB890B985B0600D46A
S113542029E70120404226E705AB00933A00074BE9
S11354302900029800F07AF8EAE7C046745A00009E
S11354407A5A00007E5A00000000000085510000D6
S1135450F7B5150001938A680B6900900C0093421C
S113546000DA130022002B6043321278002A01D0A4
S113547001332B6023689B0602D52B6802332B6013
S1135480062723681F4027D0230043331B785A1E66
S113549093412268920630D4220001994332009845
S11354A0089EB047431C25D0062320682A68E1687B
S11354B003400025042B03D18D1AEB43DB171D4059
S11354C0A3682269934201DD9B1AED180027BD42AF
S11354D020D1002010E00137E3682A689B1A9F421C
S11354E0D2DA22000123193201990098089EB047AC
S11354F0431CF0D101204042FEBD3020E11843316D
S1135500087021005A1C45310978A218433202332D
S11355101170C1E7220001231A3201990098089EF4
S1135520B047431CE6D00137D1E70000F0B58BB09B
S113553006920A0043320793059004920A7E0C00F7
S1135540109B6E2A00D18FE017D8632A2CD008D87C
S1135550002A00D199E0582A54D0260042363270ED
S113556029E0642A01D0692AF7D121681A6808065B
S113557023D5111D1960156825E0732A00D188E030
S113558008D86F2A29D0702AE7D1202209680A4353
S1135590226003E0752A20D0782ADED12200782107
S11355A0453211706C4A30E00E001A684236111D03
S11355B0196013683370012379E04906D9D5111DA8
S11355C019600023D55E002D03DA2D23049A6D4261
S11355D01370624B0A2703932FE0206819680506AD
S11355E003D5081D18600D6805E04006F9D50D685F
S11355F0081D1860ADB2594B082703936F2A18D0C1
S11356000A2716E045310A70544A03921A68216841
S1135610101D18601568080622D5CB0702D5202373
S1135620194321601027002D03D1202322689A43B7
S113563022602300002243331A706368A360002BA6
S11356405CDB0422216891432160002D58D1049E23
S1135650002B64D02600039B42361B7833705EE037
S11356604806DAD5ADB2D8E709681A68080605D540
S1135670111D1960136862691A6006E04906F7D5BE
S1135680111D19601368A28A1A800023049E2361E5
S113569054E01A68111D1960166800216268300010
S11356A000F070F8002801D0801B606063682361FB
S11356B00023049A137041E0236932000699059887
S11356C0079DA847431C43D0236800259B070FD49C
S11356D0099BE06898423DDA18003BE02200012370
S11356E0193206990598079EB047431C30D00135FE
S11356F0E368099A9B1A9D42F0DBE9E7002DA9D0E3
S1135700049E28003900FFF7F5FB039B013E5B5C18
S1135710280033703900FFF767FB051EF1D1082F0D
S113572009D12368DB0706D563682269934202DC4A
S11357303023013E3370049B9B1B2361079B09AA02
S113574000932100069B0598FFF782FE431CB3D10A
S1135750012040420BB0F0BD965A0000855A00006B
S1135760002370B5064C050008002360FFF730F9EC
S1135770431C03D12368002B00D02B6070BDC046AE
S1135780440A0020C9B28218904201D10020704717
S113579003788B42FBD00130F6E710B5884202D97A
S11357A08B18984208D300239A4207D0CC5CC45487
S11357B00133F9E78B5C8354013AFBD210BD704787
S11357C07047F8B507000D001600002905D1110037
S11357D0FFF77AFC04002000F8BD002A03D1FFF78C
S11357E029FC3400F7E700F012F82C008642F2D9C5
S11357F031003800FFF768FC041EECD029003200A9
S1135800FFF7CCFB29003800FFF714FCE3E70B1F7C
S11358101B68181F002B01DA0B58C01870470000D2
S113582000080042000C0042001000420014004234
S113583000180042001C004232374D487A00000034
S11358403136394D487A00003931354D487A0000F7
S1135850322E3447487A0000644200004174746573
S11358606E756174696F6E00506C65617365207448
S11358706170206F6E2074686520646F740000008E
S113588020204261636B202000000000313233008D
S11358903435360037383900300000003C2D000024
S11358A0434C52004F4B0000253032642E202530EB
S11358B032643A253032643A25303264202020257F
S11358C03032642F253032642F2530346420202078
S11358D020202020202020202020202020202530AF
S11358E0336420202020202020202020202020205D
S11358F02020202020202020202530336420202038
S11359002020202020202020202020202020202093
S11359102020202530336400486973746F72790045
S1135920253032643A253032643A2530326400003E
S1135930253032642F253032642F25303464000042
S113594052535349205B696E746572696F725D00CE
S1135950456E746572204461746500006D6D2F643A
S1135960642F797979790000456E746572205469E1
S11359706D65000068683A6D6D3A737320202020CD
S11359802832346820666F726D617429000000004B
S113599056697375616C3A00596573004E6F000067
S11359A0536F756E643A2000202043616C69627203
S11359B06174652053637265656E202000000000E9
S11359C02020536574204461746520200000000089
S11359D020205365742054696D6520200000000068
S11359E053657474696E677300000000090A0B0C38
S11359F00D0E000048420000A4420000A442000032
S1135A0042420000424200005C4200004E4200005C
S1135A1062420000944200009443000002440000EB
S1135A20024400007443000086430000A4430000C5
S1135A3078430000B4430000F04300002020417488
S1135A4074656E756174696F6E202000202048694A
S1135A5073746F7279202000202052535349202000
S1135A6000000000202053657474696E6773202061
S1135A7000000000232D302B2000686C4C0065666C
S1135A80674546470030313233343536373839418B
S1135A9042434445460030313233343536373839A1
S1135AA06162636465660000F8B5C046F8BC08BC72
S1135AB09E467047DD000000F8B5C046F8BC08BC3F
S10B5AC09E467047B50000008A
S1135AC8401F000008000000011CFF0140420F00B5
S1135AD81400002000000000000000000000000086
S1135AE800000000000000000000000000000000AA
S1135AF8000000000000000000000000000000009A
S1135B080000000000000000000000000000000089
S1135B180000000000000000000000000000000079
S1135B280000000000000000000000000000000069
S1075B380000000065
S903490DA6
