:10000000F0290020792F0000752F0000752F0000C7
:1000100000000000000000000000000000000000E0
:10002000000000000000000000000000752F00002C
:100030000000000000000000752F00001D1E0000E1
:10004000752F0000752F0000FD200000752F0000A7
:10005000A1020000752F0000752F0000752F000011
:10006000752F00008527000095270000A5270000B8
:10007000B5270000C5270000D5270000752F000018
:10008000752F0000752F00007D2100008D210000DC
:100090009D210000AD210000BD210000650200008F
:1000A000752F0000752F0000752F0000752F0000C0
:1000B0000000000010B5064C2378002B07D1054B3B
:1000C000002B02D0044800E000BF0123237010BDC4
:1000D000100000200000000018350000084B10B58B
:1000E000002B03D00749084800E000BF0748036819
:1000F000002B00D110BD064B002BFBD09847F9E731
:100100000000000014000020183500001835000021
:100110000000000010B50020084B9847084CFA2159
:100120008900A047074B1860FA218900A047064BB9
:1001300018600522054B1A6010BDC046A92C0000AE
:10014000B9320000000000200400002010E000E0B0
:1001500000E01000421E00280CD0074B1B68002B4B
:10016000F7D006494B6000238B60044B1B68DB0310
:10017000FBD5EEE77047C0460000002010E000E02D
:1001800070B58000364BC5582B681A7EDC7D144054
:10019000E20716D4630708D504232A681376EB7E9A
:1001A0009B0702D5AB7E9B0752D4A30708D5022339
:1001B0002A681376EB7E5B0702D5AB7E5B074BD4D8
:1001C00070BD01221A762A68537E5BB2002B27DBB2
:1001D00000210029F7D16869831C6B61538B9BB2A6
:1001E00003802B8B013B9BB22B83002B1ED06B7F9C
:1001F000002BCFD02E68727E52B2002A12DB08008C
:100200000028F8D1327B02210A43D2B232732A6825
:10021000527E52B2002A07DB0200002AF7D1B9E76A
:100220000121D6E71800EBE71A00F6E701232A6858
:1002300093752B7F052BADD100232B77EB7EDB074E
:10024000A8D5AB7EDB07A5D52800AB689847A1E70A
:100250002800EB689847A8E72B6928009847AFE784
:10026000B403002010B50020014B984710BDC046D4
:1002700081010000002A01D0172070478B00074A37
:100280009B58002B03D0834205D01D20F5E7890041
:1002900088500020F1E70020EFE7C046BC030020B3
:1002A00010B500220F4B1A7005E00F480AE00D4A06
:1002B0001378013313700B4B1B780F2B11D81F2BA6
:1002C000F3D900201F21194001228A4001691142FF
:1002D000EDD002619B00054A9B58002BE7D0984760
:1002E000E5E710BDB803002000180040BC03002063
:1002F0000022002A06D00023002B0BD00023002B65
:10030000F9D1704708490B7802200343DBB20B7028
:100310000132EEE7044A527852B2002A01DB01337F
:10032000EAE70123EBE7C0460018004000B583B0C0
:100330001B4A936940210B43936101A900230B7071
:100340000520184B98470520174B98470022002A94
:1003500006D00023002B0BD00023002BF9D116E090
:1003600012490B7801200343DBB20B700132EEE738
:100370000E4A527852B2002A01DB0133EAE7012328
:10038000EBE7990000200A4A88500133DBB20F2BBB
:10039000F7D91022074B1A60074B984703B000BDEE
:1003A00000040040DD2D0000552D00000018004025
:1003B000BC03002000E100E0F1020000F0B583B0D2
:1003C00005000C0001A900234B70CB7023790B7042
:1003D000237A8B702078164B98471F2D20D9002048
:1003E00007222A409200E37A1E00A17A002902D057
:1003F00008261E43F6B2EB0806339B0019580F2758
:100400009740B943964032000A431A50637A002B52
:1004100008D143690122AA409343436103B0F0BD70
:100420000448DDE743690122AA4013434361F5E72D
:10043000152F0000001800400268937A5BB2002B71
:1004400008DB0023002BF8D1138802210B439BB259
:10045000138070470123F5E70268937A5BB2002BA3
:100460000ADB0023002BF8D1C13393711372138878
:1004700002218B43138070470123F3E770B504001A
:100480000568094B984723689B7A5BB2002B08DB11
:100490000023002BF7D12B88012213439BB22B8022
:1004A00070BD0123F5E7C04659040000CB88C2881F
:1004B0009B1A9B064A79920513430A795204134307
:1004C0008A78120313430279002A05D1CA78002AD8
:1004D00002D08022520213434878800103430878F7
:1004E0001843704710B50468064B9847A37A5BB26F
:1004F000002B04DB0023002BF8D1206110BD012369
:10050000F9E7C046AD04000070B50D0014000668A0
:10051000012A01D9172070BD094B9847B37A5BB205
:10052000002B0ADB0023002BF8D10334E400A05198
:100530002B7A341923710020EDE70123F3E7C0463D
:10054000AD04000070B505000E0001683288082374
:1005500013439BB23079002802D1482313439BB246
:10056000B278002A02D0802213439BB20B80F3782A
:10057000002B04D04B888022D20113434B800024EF
:100580000AE0A3001B195900083171182200280045
:10059000034B98470134E4B2002CF2D070BDC04642
:1005A0000905000030B583B00400150001600F4A52
:1005B000936920210B43936101A902230B7004204E
:1005C0000B4B984704200B4B984720000A4B984749
:1005D0002B792371EB786371EB88E380074B1C6008
:1005E00029002000064B984703B030BD00040040AE
:1005F000DD2D0000552D00007D040000FC030020CF
:10060000450500000268C8170B1843407F2B01DD29
:1006100017207047180000290ADB937A5BB2002B81
:1006200009DB0023002BF8D1C0B210730020F0E7E3
:1006300080201843F1E70123F4E7F0B5DE46574682
:100640004E464546E0B585B0894616001F0000229B
:10065000002300218B468A463F2500960197029091
:100660004946039111E02021491B00240134CC406C
:1006700013E000980199121A8B41594660460143D4
:100680008B46514621438A46013D002D23DB202124
:1006900049426918E7D401248C400121A9408C46C5
:1006A00092185B4110001900029E67463E40B14619
:1006B000039E2640B0464E4647463E4303D00126A1
:1006C000064332000B00009801999942DCD8D0D142
:1006D0009042D9D8CDE75846514605B03CBC90462B
:1006E0009946A246AB46F0BD4908814201D240205E
:1006F0007047002302E0091A01339BB28142FAD20B
:10070000013B9BB2FF2B01D94020F1E71380002071
:10071000EEE7000070B582B00C00150006AA117853
:1007200002004A43A24202D9402002B070BD002B11
:1007300014D10200080000211B4EB0470100220026
:1007400000230020194CA04700220123121A8B41DC
:10075000100C1B04184328800020E6E7012B01D071
:100760000020F8E70A00002300210F4EB0470200E6
:100770000B0000920193200000210C4EB0470600B0
:1007800080239B01984201D94020CEE7610FE00011
:10079000009A019B054CA047C0B2F300DBB2C01A1F
:1007A000C0B240033043D6E7D13300003B0600001F
:1007B00010B582B004000E4B1B78002B07D0002927
:1007C00005D10B4B5B78834210D01D200CE001A9B2
:1007D0000C701320074B98471320074B9847044B86
:1007E0005C7001221A70002002B010BD0020FBE7EF
:1007F0002C000020DD2D0000552D0000404B9842BC
:1008000031D00AD93F4B98424DD03F4B98425AD0F5
:100810003E4B984237D0002070473D4B98420CD059
:100820003C4B9842F7D101295FD0002915D002290D
:1008300015D0032915D00020EEE7012953D0002957
:1008400005D0022905D0032905D00020E4E732486D
:10085000E2E73248E0E73248DEE70320DCE73148F0
:10086000DAE73148D8E7012941D0002905D002292B
:1008700005D0032905D00020CEE72C48CCE72C4832
:10088000CAE72C48C8E7012933D0002905D002293E
:1008900005D0032905D00020BEE72748BCE727483C
:1008A000BAE72748B8E7012925D0002905D0022951
:1008B00005D0032905D00020AEE72248ACE7224846
:1008C000AAE72248A8E7012917D0002905D0022964
:1008D00005D0032905D000209EE71D489CE71D4850
:1008E0009AE71D4898E71D4896E71D4894E71D487C
:1008F00092E71D4890E71D488EE71D488CE7C046EB
:100900000010004200180042001C00420014004287
:1009100000080042000C004203000400030006002F
:100920000300070003001E0003001F00030008006F
:1009300003000A0003000B00030010000300120074
:100940000300130003000C0003000E0003000F005F
:10095000030016000300180003001900030005003F
:1009600003000100030009000300110003000D0053
:100970000300170030B587B00A4C6B46220032CA1C
:1009800032C332CA32C30023052B08D89A00694605
:100990005258824201D00133F6E7D8B200E000207D
:1009A00007B030BD90340000036802221A76704709
:1009B000F0B587B007000D00066805AB80221A70FD
:1009C00000225A7001219970DA702B78002B01D126
:1009D00005AB9A70AB6A0193EB6A02932B6B03939E
:1009E0006B6B0493002406E0210030003D4B9847D8
:1009F00008E00134E4B2032C0DD8A30001AA9858F2
:100A00000028F1D0431CF4D005A90870000CC0B236
:100A1000354B9847EDE72B787B712B7CBB71AB7C1A
:100A2000FB712B7D3B7200226B465A802B78012B89
:100A300014D02B78002B27D1AB69AA8B1100706AD8
:100A4000AC7FEF7F3F043C43204370622020285C52
:100A500000281BD04021114389B217E03868234B8E
:100A600098471430C0B2224B984701006B469A1C3D
:100A7000A869204B9847002801D0172030E06B462A
:100A800002331B783373D4E7002100236A681343D1
:100A9000AA681343EA6813432A7C0A43697C002945
:100AA00003D115498978890701D580210B43A97C99
:100AB000002902D0802189020A43E97C002902D062
:100AC000802189000A43297D002902D080218901E3
:100AD0000A4331680B43336073681A437260002025
:100AE00007B0F0BDFD070000152F000075090000DC
:100AF000F92D0000E906000000200041F0B585B0A6
:100B000005000C00160029600B689B0702D51C200D
:100B100005B0F0BD0B68DB0701D50520F8E708003C
:100B2000284B9847821C143001239340264A116AAF
:100B30000B4313622427F35D03A90B70C3B2019327
:100B40001800224B98470198214B9847F05D0021EF
:100B5000204B98473378012B08D03378002B03D1F2
:100B6000236808221343236000230BE023680C2230
:100B700013432360F1E79A1C9200AA1800215160E8
:100B80000133DBB2062BF6D90022EA62AA62002307
:100B9000AA862A863632AB540132AB540132AB54AA
:100BA000353A6A722B712868064B984704000A4947
:100BB0000A4B9847A4000A4BE55031002800094B26
:100BC0009847A5E77509000000040040DD2D0000EE
:100BD000552D0000B1070000BD12000021270000C4
:100BE000C0090020B1090000F8B504000E0017008C
:100BF0001D003823C35C052B6DD0002A01D11722BC
:100C00006AE0C379002B01D11C2265E04379002BF7
:100C100003D103681B7E9B0701D4002037E02F4BD4
:100C20009847FAE723681A7ED207FBD51A7ED207C7
:100C300034D5EA05D20D9A6230E00023284A934267
:100C400005D82268127E520701D40133F6E72368E3
:100C50001A7E920704D41B7E5B0722D412223BE04B
:100C600020001E4B9847042236E0002226E09F6AAF
:100C7000FF05FF0D01E000271022002A2CD1431CA4
:100C80009BB23754A279012A1ED018000F00791E9A
:100C900089B2002F1DD06379012BC3D06379002B5B
:100CA000CBD023681A7E5207FBD51A7E5207E2D5B5
:100CB0005A8B5207D9D504225A831A32A779012FA9
:100CC000D5D09F6AFFB2D8E702303F0AF75483B20B
:100CD000DBE7002200E005221000F8BDA9090000B2
:100CE0001027000010B54379012B01D0152010BD4D
:100CF000037A002B6CD1002A58D04B78002B43D0BC
:100D000003681B7EDB0711D40A78D1095309002937
:100D10000AD1DB0131498C4663441F211140012275
:100D20008A409A610520E2E70023F6E70A78D409B1
:100D30005309002C04D1DB01284CA446634400E095
:100D400000231F2414400122A2405A618A780368BC
:100D5000197EC90700D59A62C379002B3AD103687E
:100D60001A7E5207FBD51A7E520735D55A8B520789
:100D700001D504225A838279012A02D09B6A00207D
:100D8000B5E79B6A0020B2E70A78D1095309002928
:100D90000AD1DB0111498C4663441F211140012215
:100DA0008A405A610020A2E70023F6E70A78D109B9
:100DB000530900290AD1DB0108498C4663441F21ED
:100DC000114001228A409A61002090E70023F6E753
:100DD00000208CE700208AE7002088E700440041DB
:100DE000F0B5D6464F464646C0B582B004008A46A6
:100DF00017003823C35C052B00D1D8E0002A01D1AD
:100E00001720D5E04379002B03D103681B7E9B0795
:100E100002D4BC46002625E06A4B9847F9E7002338
:100E2000694A934205D82268127ED20701D4013361
:100E3000F6E723681A7E920704D41B7EDB0718D4DA
:100E40001220B5E020005F4B98470420B0E0023646
:100E5000B6B25246D25D1202024317E0E3790F00A8
:100E6000002B1AD1791E89B2002F6CD06379002B28
:100E7000D5D023681A7ED207FBD5771CBFB2524665
:100E8000905D82B2A579012DE1D03E001F7EF8076A
:100E9000E4D5D205D20D9A62E0E76379002B40D009
:100EA00023681A7E5207FBD51A7E520708D55A8B43
:100EB000520701D504225A83A279012A41D09B6AA4
:100EC0006046013883B29C460F00CBE70236554698
:100ED0002F5C3F0240460743B0B21BE0013989B2A4
:100EE00006002268127E52071DD40133364A93420F
:100EF00019D80029F5D02268177EF807F1D5701CA3
:100F000080B25546AD5DA8466F46FD80FF88A57945
:100F1000012DDBD0167EF507E0D5FF05FF0D9762AA
:100F2000DCE70023E2E723681A7E920704D41B7EE5
:100F30005B07B5D412203BE02000224B98470420E9
:100F400036E09B6ABCE76279012A06D0002A35D1D7
:100F5000E379002B1AD100202AE023681B7E9B072F
:100F6000FBD5F3E723681A7E520729D51A7E52076C
:100F700008D55A8B520701D504225A83A279012A37
:100F800011D09B6A6046013883B29C466346002BB1
:100F90000BD000230C4A9342E4D82268127E5207F9
:100FA000E0D40133F6E79B6AECE7002000E005207F
:100FB00002B01CBC90469946A246F0BD0020F7E75F
:100FC0001220F5E7A909000010270000F0B5DE4661
:100FD00057464E464546E0B585B004000191039260
:100FE0001E003823C35C052B00D112E1002E01D175
:100FF00017220FE1C379002B01D11C220AE14379AA
:10100000002B03D103681B7E9B0704D4B446002346
:101010009846002175E0844B9847F7E70023834A00
:10102000934205D82268127ED20701D40133F6E735
:1010300023681A7E920704D41B7EDB0768D4122231
:10104000E8E02000784B98470422E3E00231019A5F
:10105000925D1202504602438EB268E00236019958
:10106000095C0902504601438946B0B21AE0013FCB
:10107000BFB206002268127E52071DD401336B4AAC
:10108000934219D82268117EC907F3D5701C80B22B
:101090000199895D8A4602AD698069888946A1798E
:1010A0000129DBD0167EF107E1D54946C905C90DF6
:1010B0009162DCE70023E2E723681A7E920704D4FA
:1010C0001B7E5B073CD41222A4E02000564B9847BD
:1010D00004229FE0002244E0996AC905C90D01E09D
:1010E00000211022002A00D094E0434601339BB235
:1010F000039A40461154A279012A38D0984631000B
:101100003E00771EBFB2002E37D06379002B85D00A
:1011100023681A7ED207FBD54E1CB6B2019A525CE8
:10112000924602A842804288A07901288ED0197E7A
:10113000C90702D5D205D20D9A626379002BB9D0C6
:1011400023681A7E5207FBD56246013A92B2944652
:101150001A7E5207C4D55A8B5207BBD504225A8334
:101160001A32A1790129B7D0996AC9B2BAE7023017
:10117000090A039AD15483B2C0E76279012A03D0E5
:10118000002A39D0002245E023681B7E9B07FBD54F
:10119000F6E70133254A934203D82268127E5207AC
:1011A000F7D523681A7E52073CD56246013A92B2BF
:1011B00094461A7E520711D55A8B520708D504223D
:1011C0005A831A32A179012904D0996AC9B207E079
:1011D0000022F7E7996AC905C90D01E03100102224
:1011E000002A17D1434601339BB2039A404611545B
:1011F000A279012A05D098466346002B07D0002328
:10120000C8E70230090A039AD15483B2F3E70022F7
:1012100000E00522100005B03CBC90469946A2466D
:10122000AB46F0BD1222F5E7A90900001027000027
:1012300070B50568C16A0A78D2B293B24C1CC46218
:101240008679012E07D0DB05DB0DAB62838E013B77
:101250009BB2838670BD4B781B0213438C1CC46207
:10126000F1E700000368044A12889A62438E013B4A
:101270009BB243867047C0460004002003689B6A07
:10128000438E013B9BB24386704703689B6ADB0534
:10129000DB0DDAB2816A0A70826A511C816281793F
:1012A000012904D0038E013B9BB2038670471B0AC1
:1012B0005370836A01338362F4E70000F8B580005D
:1012C0006B4BC45826683723E35C3622A75C1F406B
:1012D000337EB57D1D40EB0716D56379012B4DD0CC
:1012E0006379012B57D0002B0ED1637A002B0BD0E2
:1012F0002000604B9847A38E9BB2002B04D1013392
:101300003375637A012B4AD06B0711D5738B5B075A
:101310004FD5637A012B08D01E223823E254353B87
:101320006372023333753B073FD4B36A042373837C
:10133000AB0713D56379002B0DD107333375053B0C
:101340003376013363720023A38623863833002269
:10135000E254FB0664D46379012B65D02B0708D5D2
:101360006379002B05D1083333753376BB0600D57E
:1013700070E06DB2002D00DA70E0F8BD637A002BEA
:10138000AED120003C4B9847638E9BB2002BA7D177
:1013900001333375A4E7627A002AA9D1A3E7E37980
:1013A000002BB1D10233B375AEE72000A369984793
:1013B000BBE7637A012B17D02000304B9847238E70
:1013C0009BB2002BB4D100223833E254343B337546
:1013D000637A022B1DD0637A002BA9D1BB07A7D556
:1013E000200023699847A3E72000254B9847638E88
:1013F0009BB2002B9CD10433337500223433E2546A
:10140000353B6372FB0700D492E72000E3689847FE
:101410008EE77B0700D48BE720006369984787E756
:101420002000E369984796E7637A012B00D095E79F
:10143000E379002B00D091E70233337501336372F7
:1014400000223533E254FB0700D487E72000E3682D
:10145000984783E72000236A98478AE780233375FB
:1014600033767B0600D488E7636A2000984784E7D8
:10147000C009002031120000651200008B1200002C
:101480007D120000002803D003684068181A7047D6
:101490000020FCE710B5041E06D0054B9847E36812
:1014A000984203D0002010BD0120FCE70120FAE79C
:1014B0008514000070B504000D00002810D00A4B00
:1014C000984700280ED12068E168084B9847A36828
:1014D0009C4661440D70236801332360012070BD78
:1014E0000020FCE70020FAE795140000C533000057
:1014F000002808D0002906D0002A04D00023036069
:1015000043608160C260704710B504004160024BC7
:101510009847206010BDC0462D1E0000F0B5D6468D
:101520004F464646C0B590B002AC01252570002656
:101530006660A660C0239B03E36026746674A5748E
:10154000E574267524239946E6540C22002108A848
:101550002B4B98472B4BA36180235B029A46E36099
:10156000294BA36201235B42E362284B2363284B90
:10157000636301AF7D70BE703D7039000D20254B57
:101580009846984739001020C04739001120C047BD
:10159000214B802292019A6152469A6180229202E6
:1015A0009A614B46E6541D4BA3611D4E22001D4916
:1015B00030001D4B9847346820001C4B98471F2370
:1015C000184085401A4B1D60154B1B68DB69002BCA
:1015D000FAD123680222134323606B46D91C0623E9
:1015E0000B700D4C8025AD016561013A0C48114B23
:1015F0009847A56110B01CBC90469946A246F0BD24
:101600007F340000A086010002000C0002000E00E2
:1016100002000F00E52700000044004140420F0097
:101620003000002000100042FD0A00006127000089
:1016300000E100E0E10D0000F0B585B003236A464B
:101640001370002353709370D070FF231371074DF4
:101650008026B6016E6102ACFA3B2200694604485E
:10166000044FB847AE61207905B0F0BD0044004199
:1016700030000020CD0F000010B5144B1B78DBB2FA
:10168000134A1278012A0BD0242B0FD0252B14D00B
:1016900010480278D2B2511CC9B201700E498B5465
:1016A00001220A490D480E4B984710BD0022094BF4
:1016B0001A700232064B1A70F2E7054A1278022AB3
:1016C000E6D1013A024B1A70EAE7C0460C0400204A
:1016D000040400200D040020080400206C000020F9
:1016E0005D25000010B5144B1B78DBB2134A12784D
:1016F000012A0BD0242B0FD0252B14D010480278B0
:10170000D2B2511CC9B201700E498B5401220A4950
:101710000D480E4B984710BD0022094B1A7002323B
:10172000064B1A70F2E7054A1278022AE6D1013A0E
:10173000024B1A70EAE7C0460704002005040020A7
:101740000604002010040020A00000205D250000F9
:1017500070B590B08023DB05009300230193FF2236
:1017600069460A8100228B72CB72012124206C46CB
:1017700021540130215425316354013163540A93BB
:10178000053163540131635405932382E376227655
:10179000227762761323A3766277E1239B01089375
:1017A000C0239B03039301235B420C930D930E9381
:1017B000424B0F936A4642494248434B98470028A0
:1017C000F8D1404B1C682000404B98471F2318401D
:1017D0001E3B83403E4A13603A4B1B68DB69002B7B
:1017E000FAD123680222134323608023DB05009390
:1017F00000230193FD3269460A8100228B72CB726D
:10180000012124206C462154013021542531635498
:10181000013163540A9305316354013163540593D4
:101820002382E3762276227762761323A376627789
:10183000E1239B01089380235B020393254B0C93C8
:1018400001235B420D930E930F936A46224923486E
:101850001D4B98470028F8D1204B1C6820001B4BDB
:1018600098471F2318401E3B8340194A13601B4BA7
:101870001B68DB69002BFAD1236802221343236023
:10188000104D013A16492800164EB047134C01225C
:1018900015492000B04731230220E95C0143E95497
:1018A000E25C0243E254012210492800104DA8478F
:1018B000012210492000A84710B070BD020013009B
:1018C000000C00426C0000209D23000061270000F6
:1018D00000E100E002003000001C0042A0000020F7
:1018E0007916000035250000E51600000C040020E4
:1018F0005D2500000704002010B582B001AC042271
:1019000008492000084B9847227863781B02FF2083
:101910001040A27812041843E3781B0610431843C2
:1019200002B010BD080400206D34000010B582B074
:1019300001AC042208492000084B984722786378BC
:101940001B02FF201040A27812041843E3781B0604
:101950001043184302B010BD100400206D34000085
:10196000014B1878C0B2704704040020014B18786E
:10197000C0B27047050400200022014B1A70704766
:10198000040400200022014B1A7070470504002057
:1019900010B5002200234281028101324275037595
:1019A0000373024B9847012010BDC046D51D0000AF
:1019B00010B50400002906D001211000054B9847FE
:1019C0000223237310BD1000024B98470123237399
:1019D000F8E7C046D11C000000B585B06B46D97150
:1019E00000220F236B441A70037B022B09D00121C4
:1019F0000F206844064B98470F236B44187805B0B6
:101A000000BD01216B46D81D024B9847F4E7C04644
:101A1000751D0000BD1D000010B50400024B984765
:101A20000023237310BDC046591D000070B504008B
:101A300015000A000121054B984729002000044B9E
:101A400098472000034B984770BDC046B11900006D
:101A5000D9190000191A000000B585B001A90923A1
:101A600001934B6000230B7201224A728B72053383
:101A7000CB720920014B984705B000BDBD030000A3
:101A800010B5052209210248024B984710BDC046F7
:101A9000E11D00007502000030B589B0264B274AD1
:101AA000DA800C225A7113321A71083A9A70243271
:101AB0005A70043A1A7001AA00231370537093707D
:101AC000D370012111715171FA21C900D18003AA8B
:101AD000A020000110809370D3701371D180002476
:101AE000002C14D003AA01231371154C15492000B2
:101AF000154B984710492000144B98472000144B71
:101B000098477F212000134B984709B030BDA500AE
:101B10002B19580003AB9C4660440830082201A9E9
:101B20000D4B98472D196B0003AA94466344062277
:101B30001A740134E4B2D3E72C070020E107000057
:101B40001404002000140040A5050000E504000076
:101B500039040000050600006D34000000B583B0B4
:101B600001236A465370937000226946CA700B7154
:101B700006330B704A716846014B984703B000BDAD
:101B80007129000000B585B0094B984701A90423CD
:101B90000B7000234B724B7020224A600B720220A4
:101BA000044B98470220044B984705B000BDC0463F
:101BB0005D2B0000812B0000512C0000F0B5C646C3
:101BC00000B590B0344B1B78002B03D010B004BC90
:101BD0009046F0BD01AA537093702D2111702F4CC7
:101BE00021706370A370012269464A708B700A707D
:101BF0002D202B4B98472378D9095A09002949D120
:101C0000D20128498C4662441F273B400125290008
:101C10009940916102AC257000266660A660C023E1
:101C20009B03E36026746674A574E574267524230B
:101C30009846E6540C22002108A81B4B98478023A5
:101C40005B02E360194BA36201235B42E362184B22
:101C50002363184B63634346E654174BA361174E47
:101C6000220017493000174B984734682000164B64
:101C7000984738408540154B1D60104B1B68DB6949
:101C8000002BFAD12368022213432360013A024B4E
:101C90001A709BE70022B7E7D400002060090020FB
:101CA000E5270000004400417F34000002002C00C2
:101CB00002002E0002002F0040420F0064090020A5
:101CC00000180042FD0A00006127000000E100E06A
:101CD00010B582B00C1E1FD100021A4B18400190A3
:101CE00001ABD9781A784A405140D9704A401A70ED
:101CF00099785A784A40514099704A405A70012266
:101D000011491248124B98470528F8D0002C0DD0E5
:101D1000012C11D002B010BD0129E1D10002094B04
:101D2000184080231B0618430190D9E7042201A91B
:101D30000648084B9847EDE7032201A90348054BE5
:101D40009847E7E700FFFF3F600900206409002093
:101D5000E50C0000E10D000010B500220249034827
:101D6000034B984710BDC04660090020640900205D
:101D7000E50C000010B50A00002301000148024CE8
:101D8000A04710BD64090020E90B000010B582B027
:101D90006B46DC1D002323700021054B9847012171
:101DA0002000044B9847044B9847207802B010BDA0
:101DB000D11C0000751D0000591D000010B50A005F
:101DC00001000248024B984710BDC046640900203C
:101DD000E10D0000014B18607047C046D80000209C
:101DE00010B50348034B9847034B187010BDC0460D
:101DF000A82030008D1D0000080000208022120560
:101E0000014B5A617047C0460044004180221205D0
:101E1000014B9A617047C04600440041024A136872
:101E2000013313607047C046DC000020014B186886
:101E30007047C046DC00002010B50F4B1868FA212F
:101E400089000E4B984701380D4B984211D80D4A26
:101E500050600D48036A1B021B0AC02109060B4390
:101E6000036200239360073313600023002B02D02A
:101E7000FEE70123FAE710BD0C000020B932000094
:101E8000FFFFFF0010E000E000ED00E000B583B0D0
:101E9000074A136A20210B43136201A900230B7028
:101EA0001720044B98471720034B984703B000BDF9
:101EB00000040040DD2D0000552D000070B50B4CD6
:101EC0000023A370012626700233637021001820BE
:101ED000074DA847667021001920A847054B8022AE
:101EE00092045A61802252045A6170BDE4000020BD
:101EF000E52700000044004110B50A4B1B78002B79
:101F000004D0094909480A4B984710BD064B198867
:101F1000C9B20848084B9847084A13680133136050
:101F2000EFE7C04670030020A00900202C0100202C
:101F30004D25000060010020B5140000E8000020DD
:101F400070B535490B68022293430B60334A8023F6
:101F5000DB05136000235360FF2010810020937283
:101F6000D372012424255455013554552534135575
:101F700001341355936205341355013413555361DD
:101F80001382D3761076107750761323937650779A
:101F9000234B1B68136290235B03D360214B1363B5
:101FA000214B536301235B429363D3631F48204B50
:101FB00098470028FDD11D4B1C6820001D4B9847F9
:101FC0001F2318401E3B83401B4A1360174B1B689E
:101FD000DB69002BFAD12368022213432360134CE0
:101FE000013A16492000164EB0473125635D0222A2
:101FF00013436355002213492000B047635D01225B
:102000001343635500210C200F4B98470F492000C4
:102010000F4B984770BDC04600140042EC000020F2
:10202000E000002002001600020017002C01002032
:102030009D2300006127000000E100E0F91E000080
:1020400035250000A12000002D2E0000A009002051
:102050004D25000010B500280CD10D4B80229204B4
:102060005A61802252045A610A4B984700220A4B57
:102070001A7010BD0122084B1A70054B8022920481
:102080009A61802252049A61044B9847F1E7C04656
:10209000004400410D1E000070030020FD1D0000E3
:1020A00010B50020014B984710BDC04655200000D8
:1020B00096231B02984203D1024B186001207047FF
:1020C0000020FCE7E000002010B5802292000549C6
:1020D0000548064B9847064B9847064B9847064BD2
:1020E000984710BD7001002060010020F11400002D
:1020F0008D1E0000BD1E0000411F000010B5012212
:10210000034B9A71034B1B68002B00D0984710BDFE
:1021100000100040A809002070B58000164BC5587B
:102120002B689C7B2A7E6B7E14401C40E30706D400
:10213000A3070BD4E30610D4A30615D470BD280062
:10214000AB68984701232A689373F1E72800EB688E
:10215000984702232A689373ECE728002B69984775
:1021600010232A689373E7E728006B6998472B6868
:1021700020229A73E2E7C046AC09002010B5002087
:10218000014B984710BDC0461921000010B5012031
:10219000014B984710BDC0461921000010B5022020
:1021A000014B984710BDC0461921000010B503200F
:1021B000014B984710BDC0461921000010B50420FE
:1021C000014B984710BDC04619210000F0B5DE460E
:1021D00057464E464546E0B587B005000C000668F8
:1021E0003000694B9847143000220E2302A98C4618
:1021F00063441A80228A8023DB019A423BD00CD9A7
:10220000C023DB019A4231D080231B029A420DD1B8
:102210000323984600239A460CE080239B019A42B0
:1022200004D1102398460F3B9A4603E010239846AA
:1022300000239A462368E1680B4361690B4313430B
:10224000227E120213432622A25C520713439946B0
:1022500062680392002A21D080235B059A423ED116
:102260002723E35C002B0BD0002039E0082398469D
:10227000073B9A46DEE70823984600239A46D9E7AB
:10228000236A9846C0B2414B984701000E2202AB28
:102290009C46624440463E4B984721E02723E35C3E
:1022A000002B0BD04346009353460E2202A98C46C6
:1022B0006244A16A206A374FB84711E0236A9B46FF
:1022C000C0B2324B984701004346009353460E225A
:1022D00002A88446624458462E4FB84700E00020CA
:1022E000002842D1637E002B01D0A37EB3730E235E
:1022F00002AA944663441B88B3814B46039A134356
:102300002722A25C002A01D104321343617E890294
:10231000227F52021143627F120211432422A25CE7
:10232000520411432522A25C12041143A27A1143E4
:10233000E27A11432289FF2A1ED080277F043B4383
:1023400011432C22A25C002A03D1134A92789207EF
:1023500001D5802213432A68D269002AFBD171601B
:102360002A68D269002AFBD1336007B03CBC904692
:102370009946A246AB46F0BDE27E002AE1D080221B
:10238000D2041343DDE7C04675090000F92D0000B3
:10239000E90600001507000000200041F0B589B0F3
:1023A00006000C00170031600800424B9847821C61
:1023B00014302368DB0703D50525280009B0F0BDDC
:1023C00023689B0701D51C25F7E7012393403A4A70
:1023D000116A0B4313622D257B5D07A90B70C3B2F5
:1023E00001931800354B98470198354B9847785D15
:1023F0000021344B9847FB7A73712423FB5CB37143
:102400002523FB5CF371FB7E33723B7F73723900D3
:1024100030002D4B9847051ECFD106AB80221A7095
:1024200000225A70DA709A703B6B02937B6B0393B5
:10243000BB6B0493FB6B01930593002706E0390007
:102440002000224B984708E00137FFB2032F0DD838
:10245000BB0002AA98580028F1D0431CF4D006A96A
:102460000870000CC0B21A4B9847EDE70022052A0D
:1024700006D8931C9B00F318002159600132F6E73F
:102480000022B26272620023F285B2853032B35408
:102490000132B3540132B3540132B3543068054BA6
:1024A000984704000B490C4B9847A4000B4BE6508F
:1024B00083E7C0467509000000040040DD2D0000E0
:1024C000552D0000B1070000CD210000FD070000E0
:1024D000152F00007D25000021270000C0090020E5
:1024E000F8B504000D0016000768104B9847A38D3F
:1024F0009BB2002B03D00E4B98470520F8BDA68554
:102500000B4B9847656205223223E2542E3BBB7584
:10251000237A002B01D02023BB75637A002B03D0D4
:102520000823BB750020E9E70020E7E70D2800003D
:102530004D280000931C9B00C31859600123934051
:102540001A003021435C13434354704710B50122F5
:10255000014B984710BDC046E124000010B5002A89
:1025600001D1172010BD8379002B01D11C20F9E780
:10257000014B9847F6E7C046E1240000F0B5C64697
:1025800000B58000644BC5582C68E369002BFCD172
:10259000237EA67D1E403023EB5C3122AF5C1F40C2
:1025A000F30725D5EB8D9BB2002B1FD0A96A0A78C3
:1025B000D2B293B29846481CA8626B79012B0ED018
:1025C0004346DB05DB0D2385EB8D013B9BB2EB85A1
:1025D000002B0DD1013323750133A37508E04B782F
:1025E0001B0213439846881CA862E9E70123237560
:1025F000B30706D50223237500223133EA54FB07C3
:102600001CD4730764D5AB8D9BB2002B5ED0628B5C
:10261000D2B23F231340110701D537231340002BBB
:1026200031D09A070ED51A223223EA54303B638305
:102630007B074DD528006B69984749E02800EB6877
:102640009847DEE75A0705D51E223223EA542E3B6F
:102650006383EDE7DA0705D513223223EA54313BD1
:102660006383E5E7DA0605D542223223EA54223BAA
:102670006383DDE720221A42DAD021323223EA5482
:10268000123B6383D4E7238DDB05DB0DDAB2696A85
:102690000A706A6A511C69626979012910D0AB8D90
:1026A000013B9BB2AB85002B12D104332375002272
:1026B0002E33EA54BB070BD528002B69984707E057
:1026C0001B0A53706B6A01336B62E8E704232375BE
:1026D000F30604D5102323752376FB0610D4B30626
:1026E00004D52023237523763B070DD4330704D567
:1026F000082323752376BB060AD404BC9046F0BD9C
:102700002800EB699847EAE72800AB699847EDE7AE
:102710002B6A28009847F0E7C009002070470000A6
:1027200030B50B4B1B78002B08D00CE09A00094DFC
:10273000094C15510025094C15510133052BF5D9CC
:102740000122034B1A708000034BC15030BDC046BC
:10275000710300201D27000074030020C009002021
:1027600000B583B0054B1A6800929B886A46938037
:10277000034B98476B46185603B000BDA8340000C1
:102780007509000010B5024B1B680020984710BD6A
:102790007403002010B5024B5B680120984710BD00
:1027A0007403002010B5024B9B680220984710BDAF
:1027B0007403002010B5024BDB680320984710BD5E
:1027C0007403002010B5024B1B690420984710BD0C
:1027D0007403002010B5024B5B690520984710BDBB
:1027E0007403002000B583B001AB80221A700A7810
:1027F0005A704A789A708A78DA701900014B9847B3
:1028000003B000BD152F0000704700000C4B1B6883
:10281000002B06D1EFF31083002B07D00022094BC9
:102820001A70074A136801331360704772B6BFF31A
:102830005F8F0022044B1A700132024B1A70F0E7CE
:102840008C0300209003002009000020084B1A6828
:10285000013A1A601B68002B09D1064B1B78002B2C
:1028600005D00122044B1A70BFF35F8F62B6704728
:102870008C030020900300200900002010B582B0D6
:10288000012201AB1A70002404E0E0B201A9034B5D
:1028900098470134242CF8D902B010BDDD2D00007A
:1028A00010B5082834D880001C4B1B589F46802048
:1028B000000210BD1A4B1869FBE71A4B1B6A9B05F7
:1028C0009B0F1948D840F4E7154B5869F1E7144BB2
:1028D0001B689B071ED5134BDB68DB06FBD5104B33
:1028E0001A6824231340042B01D01048E1E700208C
:1028F0000F4B98470A4B9B681B041B0C5843D8E7A7
:102900005023084AD35C5B0706D5054BD868D0E74F
:102910000020CEE70020CCE70020CAE7B03400005A
:10292000940300200008004000127A00006CDC02D2
:10293000F92D000070B50C4D2E6A027803210A4073
:1029400012020A4931401143827801242240D20107
:10295000802399430A43437823409B0140218A43C3
:1029600013432B6270BDC04600080040FFFCFFFF10
:10297000F0B5154FBE69427801231A40D2000821F4
:102980008E43324385781D40AD0004398A43154398
:10299000017807240C4024020C490D402C43017996
:1029A0001940C901802294432143C2781A40920100
:1029B0004024A1430A4341790B401B0304490A40C8
:1029C0001343BB61F0BDC04600080040FFF8FFFFA5
:1029D000FFEFFFFF08284AD88000264B1B589F4670
:1029E00000207047244A136A02210B43136200201F
:1029F000F7E7214A936902210B4393610020F0E736
:102A00001D4A138A02210B439BB213820020E8E780
:102A1000194A938A02210B439BB293820020E0E77C
:102A200016490B68022213430B60134B9A84124B16
:102A3000DB68DB06FBD5114A91680F4BD9625268FF
:102A40009A6200229A840C4BDB68DB06FBD50B4BA9
:102A50001B689BB2084A93840020C2E706494422BF
:102A60008B5C02200343DBB28B540020B9E71720B4
:102A7000B7E7C046D43400000008004094030020AB
:102A8000F0B587B0294CC223DB00A360284B5968FE
:102A90001E2291435960274B9847274B1968890993
:102AA000A2697F230B401B0424490A401343A361FE
:102AB00004A80125457085700024C47005710723A2
:102AC000037044711E4B984704201E4EB04703A864
:102AD0004470857004701C4B98470620B0471B4B10
:102AE00098476B465C701C725C7204236A461370D4
:102AF0001C33019369460220154FB8470220154E3A
:102B0000B047154B1C725C729C72DC7201956B466F
:102B10005C7006236A461370147254726946002072
:102B2000B8470020B04707B0F0BDC04600080040DD
:102B3000004000417D28000024608000FFFF80FFEE
:102B400071290000D5290000352900005D2B000007
:102B5000812B0000512C000000040040064A9369BC
:102B600008210B4393610122044B1A70034B1B781D
:102B7000DB07FBD47047C04600040040000C004057
:102B8000F8B5060005000C78240204434B78002BAE
:102B900002D08023DB021C434B7A002B02D080231F
:102BA0001B031C434868012812D9431E03423DD031
:102BB0000502354380239B021C4309E001325B0080
:102BC0008342FBD312023243150080235B031C4374
:102BD0000B7A002B02D080239B031C43184B5B789D
:102BE0005BB2002B25DB0027002FF7D1154B984750
:102BF000154B1E70124B5B785BB2002B1BDB3A004F
:102C0000002AF7D10E4B9D600D4B5B785BB2002B19
:102C100013DB1300002BF7D1094A536880214902C6
:102C20000B401C435460094B9847F8BD0223002217
:102C3000C6E70127D8E70122E2E70123EAE7C04619
:102C4000000C00400D280000080C00404D2800003A
:102C500070B50500104B5B785BB2002B17DB0024CE
:102C6000002CF7D10D4B98470D4B1D700A4B5B782C
:102C70005BB2002B0DDB2300002BF7D1064A516815
:102C800080235B020B435360064B984770BD0124C1
:102C9000E6E70123F0E7C046000C00400D280000E5
:102CA000040C00404D280000F8B50700224B5B786B
:102CB0005BB2002B34DB0025002DF7D11F4B98476A
:102CC0001F4B1F701C4B5B785BB2002B2ADB2C0068
:102CD000002CF7D1184E7068C004C00E194B9847ED
:102CE0000500174B1F707668F602F60F164B1F7023
:102CF000114B5B785BB2002B16DB2300002BF7D166
:102D00000D4B9C682402240C104B9847002E0DD1CB
:102D1000012C0BD9210028000D4B9847050009E034
:102D20000125C9E70124D3E70123E7E7002E01D0FD
:102D30000134E5402800F8BD000C00400D280000DB
:102D4000040C0040A1280000080C00404D280000A1
:102D5000B932000010B50400064B9847064B1C70B2
:102D6000064A53888021C9010B435380044B98477E
:102D700010BDC0460D280000020C0040000C0040B1
:102D80004D28000010B504000E4B98470E4B1C70E8
:102D90000E494B881B051A0F4B880D4803404B808A
:102DA0004B880C4803404B80084B5B885B04FBD48A
:102DB000064841881302064A0A4013434380064BE3
:102DC000984710BD0D280000020C0040000C004088
:102DD000FFF0FFFFFFBFFFFF4D28000010B50C788C
:102DE00024020443024B9847A4B2024B5C8010BDFE
:102DF000852D0000000C004010B50400064B9847DC
:102E0000064B1C70064B5C882405240F054B984725
:102E10002000054B984710BD0D280000020C004013
:102E2000000C00404D280000A92C000030B50028FF
:102E300019DBC317032422001A4012189210D2B2D1
:102E40009B0FC0182040C31ADB00DBB20633DBB295
:102E5000094DC032920050599C40A0439940014313
:102E60005151002030BD431C01D01720FAE78907DB
:102E7000024B19620020F5E700E100E000ED00E000
:102E800070B5D378002B20D11578802D1BD02D065E
:102E900080235B021D435378002B01D0022B0AD103
:102EA00080239B022B439478002C02D0C023DB02AA
:102EB0002B4341601D005378013BDBB2012B06D848
:102EC000134B1D4003E00025E5E7416000250C049D
:102ED000240C0B0C2C43A026F605344384622B43B0
:102EE000D024240623438362D378002B0AD16B03BA
:102EF00003D59378012B06D041615378013BDBB2B7
:102F0000012B02D970BD8161F7E78160FAE7C04605
:102F1000FFFFFBFF10B50A00C109430900290BD1CF
:102F2000DB0106498C4663441F2420400121814077
:102F30001800034B984710BD0023F5E700440041FB
:102F4000812E00007047000010B5054B9847054BD7
:102F50009847054B9847054B9847054B984710BD38
:102F6000812A000009280000452F00002D030000E1
:102F7000452F0000FEE70000F8B5234A234B9A4294
:102F800009D0224B204A03E011681960043304324F
:102F90001F498B42F8D31F4B02E000221A60043312
:102FA0001D4A9342F9D31D4AFF211D4B8B43936069
:102FB000FD3990235B001B4AD1501B4AD37803256F
:102FC000AB4302242343D370D3780C27BB4308269A
:102FD0003343D370154B987B30229043202210430B
:102FE0009873997BB943314399739A7BAA432243DF
:102FF0009A730F4A516880230B4353600D4B9847D7
:103000000D4B9847FEE7C046183500000000002031
:103010001000002010000020F009002000ED00E06A
:1030200000000000007000410050004100480041D5
:1030300000400041253400006D31000000B583B030
:1030400001A800230370012282704370014B98474E
:1030500003B000BD3529000000B585B00A4B984784
:1030600000230A4A137201A906220A704B724B70A0
:10307000053A4A600B720020054B98470020054B2B
:10308000984705B000BDC0465D2B0000000400401D
:10309000812B0000512C000010B5054B9847054BC3
:1030A0009847054B9847054B9847054B984710BDE7
:1030B0003D300000593000005D1B0000851B000002
:1030C00015010000F0B5C64600B582B001AC01257F
:1030D000657000239846A3702570210030200F4EA4
:1030E000B0470F4F802252020E4B9A61257021008B
:1030F0001320B04780231B03BB61257043466370D8
:1031000021000820B04780235B00BB6125702100AF
:103110000D20B04702B004BC9046F0BDE52700008A
:10312000004400418044004110B5084B9847084BCB
:103130009847084B9847084B9847084B9847084BC7
:103140009847084B9847084B984710BD492F0000F7
:1031500099300000C5300000BD1B0000591A000066
:10316000811A00001D15000051170000F0B5C64679
:1031700000B5374B9847374D01262E70BFF35F8F50
:1031800062B6354B9847354C35482060354B9847EB
:10319000012235492068354FB84720680622344956
:1031A000B847FA20C000334B98472E70BFF35F8FAB
:1031B00062B6314B984796200002304B9847304B0F
:1031C00098477D212F48304B9847304B984701282E
:1031D0001FD02F4B984701282AD005202D4B984708
:1031E00080462D4D2D4E80277F02B7610120214C56
:1031F000A04777610120A04780263603AE610120F9
:10320000A0476E614346002BDFD00120194B984741
:10321000DBE7234C234B9847207203041B0E637299
:1032200003021B0EA372000EE0721F4B9847D0E7FB
:103230001E4C1F4B9847207203041B0E637203023F
:103240001B0EA372000EE0721A4B9847C5E7C046EA
:103250002931000009000020991A000034070020DD
:103260001C04002091190000AC2030002D1A000031
:10327000B020300051010000391E0000B1200000D4
:10328000C9200000AC0300200915000061190000EE
:103290006D190000391600000044004180440041CF
:1032A000E4090020F918000079190000D80900206D
:1032B0002D19000085190000002243088B4274D3A9
:1032C00003098B425FD3030A8B4244D3030B8B4227
:1032D00028D3030C8B420DD3FF22090212BA030C30
:1032E0008B4202D31212090265D0030B8B4219D311
:1032F00000E0090AC30B8B4201D3CB03C01A524131
:10330000830B8B4201D38B03C01A5241430B8B4278
:1033100001D34B03C01A5241030B8B4201D30B0361
:10332000C01A5241C30A8B4201D3CB02C01A524188
:10333000830A8B4201D38B02C01A5241430A8B424B
:1033400001D34B02C01A5241030A8B4201D30B0234
:10335000C01A5241CDD2C3098B4201D3CB01C01A4E
:10336000524183098B4201D38B01C01A5241430958
:103370008B4201D34B01C01A524103098B4201D346
:103380000B01C01A5241C3088B4201D3CB00C01AB3
:10339000524183088B4201D38B00C01A524143082B
:1033A0008B4201D34B00C01A5241411A00D2014650
:1033B000524110467047FFE701B5002000F006F8C3
:1033C00002BDC0460029F7D076E770477047C04677
:1033D000F0B5CE46474615042D0C2E0080B50704E7
:1033E000140C3F0C9946030C7E435D4367436343D3
:1033F0007F19340CE4199C46A54203D980235B0253
:103400009846C4444B46514343433604360C250C7E
:1034100024046544A4195918491920000CBC90468D
:103420009946F0BD70B500260C4D0D4C641BA410E0
:10343000A64209D1002600F05FF80A4D0A4C641B31
:10344000A410A64205D170BDB300EB5898470136D1
:10345000EEE7B300EB5898470136F2E70435000079
:10346000043500000435000008350000002310B5C5
:103470009A4200D110BDCC5CC4540133F8E703007C
:103480008218934200D1704719700133F9E70000A8
:1034900000080042000C00420010004200140042EC
:1034A00000180042001C0042090A0B0C0D0E00001F
:1034B000B42800001029000010290000AE280000E8
:1034C000AE280000C8280000BA280000CE2800005E
:1034D00000290000002A00006E2A00006E2A000069
:1034E000E0290000F2290000102A0000E429000071
:1034F000202A00005C2A0000F8B5C046F8BC08BCD1
:103500009E467047DD000000F8B5C046F8BC08BC18
:083510009E467047B500000063
:10351800401F000008000000FF01000040420F00AB
:0400000300002F7951
:00000001FF
