S00F00007478626F6172642E7372656321
S1130000C02000207914000075140000751400004D
S113001000000000000000000000000000000000DC
S11300200000000000000000000000007514000043
S113003000000000000000007514000075140000AA
S11300407514000075140000751400007514000088
S11300507514000075140000751400007514000078
S113006075140000650E0000750E0000850E00007A
S1130070950E0000A50E0000B50E000075140000DA
S11300807514000075140000751400007514000048
S11300907514000075140000751400007514000038
S11300A07514000075140000751400007514000028
S11300B00000000010B5064C2378002B07D1054B37
S11300C0002B02D0044800E000BF0123237010BDC0
S11300D00C0000200000000028180000084B10B598
S11300E0002B03D00749084800E000BF0748036815
S11300F0002B00D110BD064B002BFBD09847F9E72D
S1130100000000001000002028180000281800003B
S113011000000000F0B585B06B460F24D91D002304
S113012080266C442370074D40331843360408700E
S11301303E3BAE612200044F0448B8476E6120780C
S113014005B0F0BD00440041010A00006400002035
S113015037B56B46D91D40238025064C5B422D04E0
S1130160184308700122A561034B04489847656150
S113017037BDC0460044004141080000640000202F
S113018073B56B469E1D03023F208025064C084034
S11301902D04184330803100A5610222034B04482A
S11301A09847656173BDC0460044004141080000A2
S11301B064000020F8B500201D4EB04700211D4CFE
S11301C00800A04704211020A0470C218120A0474B
S11301D001210020A04706210220A0470821002079
S11301E0A04709210020A0470A210220A047124D60
S11301F00420A8470620A8471520B047FA200F4B33
S11302008000984740272A20A8473842FBD038214D
S1130210FF20A04737210120A0470520B047012631
S11302202B20A8473042FBD00021BA20A047F8BDBC
S11302305101000081010000150100007903000054
S1130240F0B52E4E91B03178002953D10D230125FC
S11302506B4402ACD9770C22294B08A82570217471
S11302606174A574E57421750391984780235B023A
S1130270E360244B244FA362244B2200E362012356
S11302805B422363224B2349636380235B05A360A2
S1130290214B3800A361214B98473C68204B200038
S11302A098471F23184085401E4B1D603B68DD693D
S11302B0002DFCD10223226817201343236001245C
S11302C0194F01A9194B4C708D700C7038707D70EA
S11302D0BD7098473A785309D1090DD11F310A40AE
S11302E0210091400A001249DB015B189A61114B0D
S11302F03470984711B0F0BDAD61FFDE28000020D6
S1130300E117000002001800640000200200190038
S1130310020016000014004240420F00390600009B
S1130320390E000000E100E0A0000020A503000059
S113033000440041B501000070B5094B0020984706
S1130340FA21084C89000500A047074B07491860AB
S11303502800A0470522064B1860064B1A6070BDA2
S113036035120000811600000000002040420F00FA
S11303700400002010E000E030B580240021074B89
S113038064021A68064B013800D230BD002AFAD044
S11303905A6099601D682542FCD0F4E700000020F3
S11303A010E000E007B5802201AB1A700A785A7099
S11303B04A789A708A781900DA70014B984707BD19
S11303C01914000010B54908040000234020A1427C
S11303D001D210BD0300581C091B80B28C42F9D90C
S11303E04020FF2BF5D813800020F2E737B50D4CE1
S11303F005002378002B01D000290CD001A913207B
S1130400094B0D7098471320084B9847012300208F
S1130410657023703EBD63780800AB42FAD01D209E
S1130420F8E7C0462900002045130000BD12000073
S1130430394A030000B50800934233D007D8374A3D
S1130440934214D0364A93421FD0002317E0354A12
S113045093423AD0344A934244D0344A9342F4D13A
S1130460002303290BD801F001F9502A2C2E002374
S1130470032904D801F0FAF8430205072C4B1800AD
S113048000BD2C4BFBE72C4BF9E700230329F6D8DE
S113049001F0ECF837020406284BF0E7284BEEE7AE
S11304A0284BECE700230329E9D801F0DFF82C02FC
S11304B00406254BE3E7254BE1E7254BDFE7254B16
S11304C0DDE7254BDBE7254BD9E700230329D6D805
S11304D001F0CCF81D020406214BD0E7214BCEE7F6
S11304E0214BCCE700230329C9D801F0BFF812023D
S11304F004061E4BC3E71E4BC1E71E4BBFE71E4B52
S1130500BDE70323BBE71D4BB9E71D4BB7E71D4B05
S1130510B5E71D4BB3E7C046001000420008004297
S1130520000C004200180042001C0042001400426B
S11305300300050003000600030007000300010098
S113054003001E0003001F000300090003000A004B
S113055003000B000300110003001200030013004A
S113056003000D0003000E0003000F00030017003A
S1130570030018000300190003000400030008002E
S11305800300100003000C000300160070B586B0D1
S11305906946094B6A4670CB70C170CB70C10023A9
S11305A099005158814202D1D8B206B070BD0133CE
S11305B0062BF5D10020F8E7F01700000368187E39
S11305C08007C00F70470368187E012318407047E6
S11305D00368187E4007C00F7047000070B5064BD3
S11305E00C00056898470523002803D00023E40580
S11305F0E40DAC62180070BDC705000070B50D4B6A
S113060006000C0005689847102200280DD004232A
S1130610698B0022194201D06B831E32B379012BFE
S113062005D1AB6ADB05DB0D2380100070BDAB6A1E
S1130630DBB2F9E7D1050000F0B50500296014002C
S11306400A6889B00E001C23920700D5D4E0012764
S11306500B683B400193019A0523002A00D0CBE0AC
S113066008006A4B9847811C8F40694B14301A6A02
S113067017431F62631DDB7F02AAC7B21370110008
S11306803800644B98473800634B9847631DD87F04
S11306900199624B98472378012B03D132680B33BD
S11306A0134333602378002B03D132680833134398
S11306B033602B002A0000260C33283240C39A42B0
S11306C0FCD12B003633AE86EE622E86AE621E70EF
S11306D05E709E70032328686B724C4B2E71984792
S11306E007004F4B4F4998474F4BBF00FD508023A5
S11306F002AA13710123937123782F685671D6715E
S1130700002B00D196710026A36A0493E36A059333
S1130710236B0693636B0793B30004AA9858F1B252
S1130720002802D13800414B9847431C06D002AB45
S11307301871000CC0B203A93D4B98470136042E32
S1130740EAD123786B71237CAB71A37CEB71237D9D
S11307502B7202AB9E1C002333802378012B10D113
S11307602A4B286898471430324BC0B29847324B12
S113077001003200A0699847172300283CD1337840
S11307803B732378002B3DD1E17FA57F7B6A09046D
S113079029431943A069A28B631C7962DB7F002B78
S11307A02DD11300A16862680A43E1680A43217CE1
S11307B002430B43617C002903D1204989788907CE
S11307C001D580210A43A17C002902D0802189021D
S11307D00B43E17C002902D0802189000B43217D59
S11307E0002902D0802189010B4339680A433A6009
S11307F07A6813437B600023180009B0F0BD4023DE
S11308001343CFE700231800CCE7C0468D05000052
S11308100004004045130000BD120000ED03000079
S1130820010E0000010C0000A800002031040000AB
S11308301914000061130000C503000000200041EA
S11308400300F0B50400052087B0029138331B780B
S11308501500834232D01230002A2FD06379002B46
S113086007D120005F4B9847002802D0022322685A
S1130870137600260195013DADB25B4A637995423A
S113088008D1012B00D187E06379002B00D189E0E6
S1130890002013E0002B1AD1544F2000544B9847EA
S11308A0002802D1013F002FF7D120004D4B98477B
S11308B0002805D00222042023681A7607B0F0BD70
S11308C020004B4B9847002801D11230F6E7200056
S11308D0474B98470028FAD0029A731C915DA2797D
S11308E09BB2012A40D01E0089B2424B2000984797
S11308F0E2796B1E9BB2002A4CD06379002B24D181
S11309003A4B0393002D12D02000394B984700280E
S11309100DD0029B771C995DA379BFB2012B2AD01D
S113092089B22000334B98473E00013DADB2200010
S1130930314FB847002825D020002A4B984700287B
S1130940B8D12000B847002822D020002A4B98476D
S11309500028FAD004AB991D2000284B9847019B2E
S1130960013B9BB2019386E7029A0236D35CB6B28E
S11309701B021943B9E7029B0236DB5DB7B21B02C7
S11309801943CEE7039B013B0393002BBAD1D3E772
S1130990122093E71D0070E72000124B98470028AF
S11309A0FAD071E7E379002B00D171E7019B002BAA
S11309B000D16DE70D4D20000F4EB047002802D145
S11309C0013D002DF7D12000B047002800D17CE77D
S11309D004AB991D2000094B9847019B013B9BB236
S11309E00193E3E7BD050000FFFF000011270000AD
S11309F0C7050000DD050000D1050000FD0500006D
S1130A00F0B51E0003000400052089B00291039292
S1130A1038331B78834237D01230002E34D0E37938
S1130A200530002B30D06379002B07D120006E4BAA
S1130A309847002802D002232268137600252F004D
S1130A400196731E9BB204936379002E08D1012B87
S1130A5000D192E06379002B00D1BEE0002013E0C6
S1130A60002B19D1614E2000614B9847002802D118
S1130A70013E002EF7D120005B4B9847002805D09B
S1130A800222042023681A7609B0F0BD2000584BD6
S1130A909847002800D1A4E02000554B984700282F
S1130AA0FAD0029B7E1CD95DA379B6B2012B50D03B
S1130AB089B2504B200098476379002B25D14B4BCA
S1130AC0059320004A4B984700280FD0029B771CBF
S1130AD0995DA379BFB2012B42D089B23E00454B48
S1130AE020009847049B013B9BB204932000424B97
S1130AF0984700283BD020003B4B98470028BFD1A3
S1130B0020003D4B984700286BD020003A4B984773
S1130B100028FAD006AB9F1D00233B80019B3900BF
S1130B20013B9BB201932000344B98470028ABD182
S1130B3003993A886B1C4A55A1799BB2012904D1C7
S1130B4003990235120ACA54ABB237001D00049E41
S1130B5077E7029B02379B5DBEB21B021943A8E7ED
S1130B60029B0236DB5DB7B21B021943B6E7059B55
S1130B70013B0593002BA4D1BDE720001A4B9847F5
S1130B800028FAD066E7194E20001B4FB84700280A
S1130B9002D1013E002EF7D12000B847002820D012
S1130BA006AB9E1D00233380019B3100013B9BB2A9
S1130BB001932000114B9847002800D064E7039963
S1130BC032886B1C4A55A1799BB2012904D103993F
S1130BD00235120ACA54ABB21D00019B002BD2D1BC
S1130BE03CE7122050E7C046BD0500001127000075
S1130BF0C7050000DD050000D1050000FD0500006B
S1130C00F8B57C4B8000C4582300220037333632B9
S1130C1025681B7816781E402B7EAF7D1F40FB078E
S1130C2039D562791300012A33D1637A002B0DD1AF
S1130C30714B1B88AB62638E013B9BB26386638EF0
S1130C40002B00D12A756379012B22D1637A002B02
S1130C5021D0E16A2268481C0B78E062A079DBB2FB
S1130C60012800D174E09BB2DB05DB0D9362A38EF7
S1130C70013B9BB2A386A38E002B0CD101332B75B1
S1130C80637A012B07D1E379002B04D10233AB75CE
S1130C9001E0002BDAD004210F4215D06B8B0B42FC
S1130CA05CD0637A012B0CD023001E2238331A70D7
S1130CB00323637202332B75330702D52000A36923
S1130CC09847AB6A04236B830222174227D06379C7
S1130CD0002B0ED1072129752A7601326272220077
S1130CE03832A38623861370F30602D52000E36905
S1130CF098476379012B12D1637ADBB2012B0ED1B1
S1130D00E279002A0BD10221297501316172210097
S1130D1038310A701E4202D02000E3689847082345
S1130D201F4209D06279002A06D12B752B76B306AF
S1130D3002D52000236A98477FB2002F07DA802368
S1130D402B752B76730602D5636A20009847F8BD8D
S1130D504878023100020343E16285E7627A23683E
S1130D60D2B29B6A012A13D1638E013B9BB2638684
S1130D70638E9BB2002BA7D12975210038310B70EB
S1130D800333637216429FD02000E36898479BE7C1
S1130D90DB05A16ADB0DDAB20A70A26A511CA162FA
S1130DA0A179012904D11B0A5370A36A0133A362F8
S1130DB0238E013B9BB22386238E9BB2002B00D053
S1130DC082E722003832137004332B75627A022AC8
S1130DD005D11E4200D177E720006369D6E7637A24
S1130DE0002B00D070E7B30700D46DE7200023691F
S1130DF0CCE7C046A8000020A400002070470000F3
S1130E00F0B5094C094A2378002B09D11E00084F7C
S1130E10084DD750EE500433182BFAD1173B2370EA
S1130E2080001150F0BDC0462B0000202C00002093
S1130E30FD0D0000A800002007B509236A461370C1
S1130E4001335370013393700133D3700133137141
S1130E5001335371024B98476B4618560EBDC0467A
S1130E608D05000010B5024B00201B68984710BD8B
S1130E702C00002010B5024B01205B68984710BD80
S1130E802C00002010B5024B02209B68984710BD2F
S1130E902C00002010B5024B0320DB68984710BDDE
S1130EA02C00002010B5024B04201B69984710BD8C
S1130EB02C00002010B5024B05205B69984710BD3B
S1130EC02C00002070470000094B196800290BD141
S1130ED0EFF31080074A002805D172B6BFF35F8F85
S1130EE005490870012111701A6801321A607047AF
S1130EF0440000204800002008000020084B1A6825
S1130F00013A1A601B68002B09D1064B1B78002B91
S1130F1005D00122044B1A70BFF35F8F62B670478D
S1130F20440000204800002008000020102302494B
S1130F30CA681A42FCD070470008004070B50828FF
S1130F4006D800F093FB0805052E2E120B1526007B
S1130F500024200070BD154B1C69FAE7144B154C96
S1130F601B6A9B059B0FDC40F3E7104B5C69F0E7C1
S1130F700E4D00242B689B07EBD50F4B98472B682D
S1130F805B0711D520000D4B9847AC68A4B24443CD
S1130F90DFE70B4B00241B785B07DAD5034BDC68D7
S1130FA0D7E780242402D4E7064CD2E74C00002083
S1130FB00008004000127A002D0F000061130000A9
S1130FC050080040006CDC0270B5847802784578E3
S1130FD0012040260540204080240849AD010B6AC9
S1130FE0C001B3432B43A3430343032002400448FB
S1130FF01202034013430B6270BDC0460008004058
S1131000FFFCFFFFF8B5082806D800F02FFB1405F5
S1131010050C0E1A072034001720F8BD0223194AC4
S1131020116A0B4313620020F7E70223154A916902
S11310300B439361F7E70223124A118A0B4313828D
S1131040F1E702230F4A918A0B439382EBE70222D2
S113105000240D4E0B4D33680C4F13433360AA84A8
S1131060B847B368EB627368AB62AC84B847336863
S11310709BB2AB84D7E70223054A11780B43137064
S1131080D1E7C046000800404C0000202D0F0000AE
S1131090440800407FB5C2221E21194BD2009A6039
S11310A0184A0024536801AD8B43536001232B700D
S11310B0E0B22900144B01349847252CF8D10024C0
S11310C06B4601265C709E701C7068460F4B9847F7
S11310D00F4B062098470F4B98470F4B29001C7263
S11310E05C729C72DC72062320002B700B4B6E60CA
S11310F06C702C726C7298472000094B98477FBD26
S1131100000800400040004145130000C90F0000E2
S113111005100000311100000004004051110000CE
S1131120F5110000014B5878C0097047000C0040CD
S11311300823054A91690B4393610123034A137001
S113114011781942FCD1704700040040000C0040A3
S1131150F8B50C784B782402060005000443002BF4
S113116002D08023DB021C434B7A002B02D0802365
S11311701B031C434B68012B12D95D1E1D40022228
S1131180002D06D01D02802335439B0207E0013564
S113119052009A42FBD380232D0235435B031C4348
S11311A00B7A002B02D080239B031C430C4FB847BF
S11311B00028FBD10B4B98470B4B1E70B8470028F7
S11311C0FCD10A4B9D601D00B8470028FCD1802249
S11311D06B68520213401C436C60054B9847F8BD82
S11311E025110000C90E0000080C0040000C00404E
S11311F0FD0E000070B50500094CA0470028FBD186
S1131200084B9847084B1D70A0470028FCD1802349
S1131210064A5B0251680B435360054B984770BD07
S113122025110000C90E0000040C0040000C004011
S1131230FD0E0000F7B50700184EB0470028FBD19B
S1131240174B9847174B1F700193B0470028FCD1E8
S1131250154D164B6868C004C00E98470400019BE6
S11312601F706B68DB02DB0F0193114B1F70B047DB
S11312700028FCD1AD680F4B9847019B2D022D0C23
S1131280002B08D1012D04D9200029000A4B9847CE
S113129004002000FEBD0135EC40FAE725110000F2
S11312A0C90E0000040C0040000C00403D0F00007B
S11312B0080C0040FD0E00008116000010B504006B
S11312C0064B9847064B074A1C7080235188DB0164
S11312D00B435380044B984710BDC046C90E000011
S11312E0020C0040000C0040FD0E000010B504008C
S11312F00E4B98470E4B0F4A1C700F4B0F4C5888DF
S113130059880005114059805988000F214059809F
S113131011008022D2015C881442FCD15A88000258
S11313200A4002435A80064B984710BDC90E00007C
S1131330020C0040FFF0FFFF000C0040FFBFFFFF66
S1131340FD0E000010B50C78034B240204439847AB
S1131350024BA4B25C8010BDED120000000C0040F2
S113136010B50400064B9847064B1C70064B5C886E
S1131370064B2405240F98472000054B984710BDC1
S1131380C90E0000020C0040000C0040FD0E0000DD
S113139035120000D37830B5002B35D11478802C69
S11313A003D0802324065B02234302255478AC43F4
S11313B006D19478002C24D18024A40223434160D4
S11313C05478013C012C01D8124C2340A0248DB246
S11313D0E4052C431C438462D0240D0C24062C43C6
S11313E01C438462D478002C0AD15B0303D5937820
S11313F0012B0CD181615378013B012B00D8816012
S113140030BDC024E402D9E741600023DEE7416136
S1131410F1E7C046FFFFFBFF10B503000A004409D3
S1131420C1090020814202D10449E00140181F2172
S11314300B401E399940024B984710BD00440041AF
S1131440951300007047000010B5054B9847054BF5
S11314509847054B9847054B9847054B984710BD4F
S113146095100000C50E000045140000451400004E
S113147045140000FEE700002148224970B5884267
S113148004D00023204CCA18A24232D300211F4B9F
S11314901F4A934231D3FF211E4B1F4A8B43936053
S11314A002220C25082430261C4B1D485A62C3789E
S11314B0FC398B431343C370C378AB432343C370DA
S11314C0184B987BB0430600202030439873987BD8
S11314D0A84304439C73987B884302439A738023F4
S11314E0114A51680B435360104B9847104B98476F
S11314F0FEE7C55804331560C5E702C3C9E7C04613
S113150028180000000000200C0000200C0000201F
S1131510C00000200000000000ED00E0FC7000416D
S1131520005000410048004100400041991700006C
S1131530611600000023F7B501AC012723700023D6
S1131540204D21000B20A3706770A84721000A20BA
S11315502770A84780231C4EDB00B36121000520BF
S1131560A84720232100B3610620A8474023210077
S1131570B3610720A8478023B36100232100022020
S113158023706770A847210002202770A84704230E
S11315902100B3612F20023B27706370A8473300FA
S11315A08022983312021A6021001120277067707C
S11315B0A84780239B02B3610023210030202370BD
S11315C0A847F7BDA503000000440041002307B568
S11315D0012201A803704370014B8270984707BD34
S11315E0C90F00001FB50024094B9847094B01A9F6
S11315F01C7206230B70053B4B602000064B4C729B
S11316004C700C7298472000044B98471FBDC0468D
S1131610311100000004004051110000F5110000D8
S113162010B5034B9847034B9847034B984710BD9D
S1131630CD150000E51500003903000010B5044B7A
S11316409847044B9847044B9847044B984710BD60
S11316504914000021160000351500004102000065
S113166010B5014B9847FEE73D16000002B47146E1
S113167049084900095C49008E4402BC7047C046D1
S1131680002243088B4274D303098B425FD3030ABD
S11316908B4244D3030B8B4228D3030C8B420DD3D0
S11316A0FF22090212BA030C8B4202D3121209025E
S11316B065D0030B8B4219D300E0090AC30B8B429C
S11316C001D3CB03C01A5241830B8B4201D38B034A
S11316D0C01A5241430B8B4201D34B03C01A5241EF
S11316E0030B8B4201D30B03C01A5241C30A8B4232
S11316F001D3CB02C01A5241830A8B4201D38B021D
S1131700C01A5241430A8B4201D34B02C01A5241C0
S1131710030A8B4201D30B02C01A5241CDD2C30932
S11317208B4201D3CB01C01A524183098B4201D3AE
S11317308B01C01A524143098B4201D34B01C01A99
S1131740524103098B4201D30B01C01A5241C30811
S11317508B4201D3CB00C01A524183088B4201D380
S11317608B00C01A524143088B4201D34B00C01A6C
S11317705241411A00D20146524110467047FFE7D8
S113178001B5002000F006F802BDC0460029F7D0DC
S113179076E770477047C04670B500260C4D0D4C77
S11317A0641BA410A64209D1002600F02DF80A4DAE
S11317B00A4C641BA410A64205D170BDB300EB58BB
S11317C098470136EEE7B300EB5898470136F2E745
S11317D01418000014180000141800001818000051
S11317E003008218934200D1704719700133F9E75E
S11317F000080042000C00420010004200140042A5
S113180000180042001C0042F8B5C046F8BC08BCF1
S11318109E467047DD000000F8B5C046F8BC08BC21
S10B18209E467047B50000006C
S10F1828401F0000080000000100000048
S90314796F
