:10000000D0200020E5110000E1110000E111000006
:1000100000000000000000000000000000000000E0
:10002000000000000000000000000000E1110000DE
:100030000000000000000000E1110000E1110000DC
:10004000E1110000E1110000E1110000E1110000E8
:10005000E1110000E1110000E1110000E1110000D8
:10006000E1110000D10B0000E10B0000F10B0000DA
:10007000010C0000110C0000210C0000E111000037
:10008000E1110000E1110000E1110000E1110000A8
:10009000E1110000E1110000E1110000E111000098
:1000A000E1110000E1110000E1110000E111000088
:1000B0000000000010B5064C2378002B07D1054B3B
:1000C000002B02D0044800E000BF0123237010BDC4
:1000D0000C0000200000000008160000084B10B5BE
:1000E000002B03D00749084800E000BF0748036819
:1000F000002B00D110BD064B002BFBD09847F9E731
:100100000000000010000020081600000816000083
:100110000000000030B5802391B06946FF22DB0566
:10012000009300230A8101228B72CB720531CA77BA
:1001300069460631CA776A460732D37702AAD3776F
:100140000BAA13702D226A44137069466A46019304
:100150001382D3761376137753760A9305934B77EE
:100160009623DB01089390235B030393124B132226
:100170000C93124B8A760D9301235B420E930F93DF
:100180000F4D6A460F4928000F4B98470028F7D1BA
:100190002C680E4B200098471F2318401E3B8340BD
:1001A0000B4A13602A68D369002BFCD12268023302
:1001B0001343236011B030BD0200080002000900A3
:1001C000280000200008004221060000A50B0000C6
:1001D00000E100E070B5FF250B4C012221000B4827
:1001E0000B4B25709847002801D0122809D123789D
:1001F0003E2B07D0074B0120984723783E2BEBD1AD
:10020000042070BD0020FCE75C00002028000020D6
:1002100089090000CD02000070B54025064C074B4F
:1002200065619847A561002804D1054B1B783E2BDA
:1002300000D0043070BDC04600440041D50100002C
:100240005C00002010B558210548064B9847040073
:100250000528F8D00120044B9847200010BDC04667
:1002600028000020E5080000CD02000010B5312173
:100270000348044B98470528F9D0034B984710BD15
:1002800028000020E5080000D501000070B5094BEA
:1002900000209847FA21084C89000500A047074B29
:1002A000074918602800A0470522064B1860064B36
:1002B0001A6070BDA10F00000514000000000020AE
:1002C00040420F000400002010E000E030B5802420
:1002D0000021074B64021A68064B013800D230BD7A
:1002E000002AFAD05A6099601D682542FCD0F4E7D4
:1002F0000000002010E000E007B5802201AB1A707A
:100300000A785A704A789A708A781900DA70014B24
:10031000984707BD85110000F0B5002489B0009210
:1003200001933F23002600272500069007910393A1
:10033000039A134B012000219847B6197F41069B71
:10034000079A03400A4004960597134303D00123FC
:1003500033431E00059F019BBB4209D802D1009B7D
:10036000B34205D8009A019BB61A9F4104430D433E
:10037000039B5A1E0392DBD22000290009B0F0BD76
:100380001D15000010B54908040000234020A142BB
:1003900001D210BD0300581C091B80B28C42F9D950
:1003A0004020FF2BF5D813800020F2E7F0B585B090
:1003B0001E000AAB0D00197803004B43039240273F
:1003C000AB4217D8002E18D10200330008001B4C96
:1003D0003100A0472A0001003300194C3000A0472B
:1003E00000220123121A8B41140C18040443002725
:1003F000039B1C80380005B0F0BD0024012EF6D10F
:100400000A00230021000D4EB047009001910B001F
:100410000200210028000A4CA047802306009B010F
:100420009842E7D8009A019B690FE800A047F400C2
:10043000041BE4B264033443D9E7C0463515000019
:100440001903000037B50D4C05002378002B01D0AF
:1004500000290CD001A91320094B0D7098471320D7
:10046000084B984701230020657023703EBD6378D8
:100470000800AB42FAD01D20F8E7C0467C000020FF
:10048000B110000029100000394A030000B508002F
:10049000934233D007D8374A934214D0364A934216
:1004A0001FD0002317E0354A93423AD0344A934292
:1004B00044D0344A9342F4D1002303290BD800F0EE
:1004C00097FF502A2C2E0023032904D800F090FF18
:1004D000430205072C4B180000BD2C4BFBE72C4BAF
:1004E000F9E700230329F6D800F082FF370204065B
:1004F000284BF0E7284BEEE7284BECE700230329D5
:10050000E9D800F075FF2C020406254BE3E7254BE4
:10051000E1E7254BDFE7254BDDE7254BDBE7254B07
:10052000D9E700230329D6D800F062FF1D02040694
:10053000214BD0E7214BCEE7214BCCE70023032909
:10054000C9D800F055FF120204061E4BC3E71E4B2C
:10055000C1E71E4BBFE71E4BBDE70323BBE71D4BA7
:10056000B9E71D4BB7E71D4BB5E71D4BB3E7C046D9
:100570000010004200080042000C00420018004237
:10058000001C0042001400420300050003000600A6
:10059000030007000300010003001E0003001F000A
:1005A0000300090003000A0003000B000300110010
:1005B000030012000300130003000D0003000E00EF
:1005C00003000F00030017000300180003001900C8
:1005D00003000400030008000300100003000C00E7
:1005E0000300160070B586B06946094B6A4670CBA9
:1005F00070C170CB70C1002399005158814202D163
:10060000D8B206B070BD0133062BF5D10020F8E753
:10061000D01500000268D369002BFCD170470000A0
:10062000F0B5070093B0A04B3960080016000491A4
:1006300098470122049B05001B680520134200D047
:100640000FE1049B17301C6802231C4000D008E116
:10065000EB181B3898400300944A1435116AEDB228
:100660000B43136233002D3302931B780CA90B70DC
:1006700028008F4B984728008E4B9847029B2100FB
:1006800018788D4B9847F37A08257B71731DDB7FB3
:10069000BB71B31DDB7FFB71F37E3B72337F7B72DB
:1006A0003B6803931800804B98470EAB1C80338A3D
:1006B000143002938023029ADB019A4214D008D8A6
:1006C000802310259B019A4200D1CDE01025002403
:1006D0000AE0C023029ADB019A4200D1C3E08023E2
:1006E00003251B029A42F1D133680693F3680793FE
:1006F00073690893337E0993F31DDB7F0A93736854
:1007000005933300059A0833002A00D1AEE0802219
:100710000599520591420ED1DB7F002B0BD1674B1F
:10072000C0B2346A98470EAA0100654B2000984772
:10073000002800D095E0737E002B02D0B37E039A90
:100740009373604B380098470AAB1B8A039A069C48
:100750009381079B1C43089B1C43059B1C43029BE6
:100760001C43099B1B021C430A9B5B071C43330071
:100770000833DB7F002B01D104331C43757E337FAC
:10078000AD025B021D43737FF27A1B021D43731D92
:10079000DB7F5B041D43B31DDB7F1B042B43B57A5A
:1007A00015431D433389FF2B00D175E0802252048D
:1007B00014431D4333002C331B78002B03D1424BD1
:1007C0009B789B0701D580231C4338003D4B9847FD
:1007D000039B38005D603B4B9847039B00251C60E2
:1007E00080230DAC2370336B65700E93736BE570D3
:1007F0000F93B36BA5701093F36B029311931020BA
:100800000AAAAB001218D058E9B2002802D1049805
:100810002E4B9847431C05D02070000CC0B221001D
:100820002B4B98470135042DE9D13B000024303390
:10083000FC85FC603C617C61BC61FC613C62BC622B
:100840007C62BC859C701C705C70DC703868164BD8
:10085000984705001F4B2049984720001F4BAD00CB
:10086000EF5013B0F0BD082501243DE7DB7F002BDE
:1008700007D02300B16A306A00950EAA184CA04731
:1008800056E7336AC0B20B930C4B984700950100B2
:1008900023000EAA0B98F1E7F37E002B00D189E725
:1008A0008023DB041C4385E7E505000000040040CD
:1008B000B11000002910000045040000CD10000018
:1008C0008503000015060000002000418904000097
:1008D000851100006D0B0000010A0000B800002027
:1008E000AD03000070B5C2790D001C23002A0CD0A6
:1008F000C28D173B002A08D1054B04689847022394
:100900002585227E1A42FCD00023180070BDC04607
:100910001506000070B582790E001C23002A13D042
:10092000828D173B002A0FD104250468227E2A42BB
:100930000AD0144B9847638BDBB29A061DD0022273
:10094000134203D01A236283180070BD2B4202D0D9
:1009500065831E23F8E70122134202D0628313232A
:10096000F2E71022134202D062834223ECE72022F6
:10097000134202D062834123E6E7238D33800023B4
:10098000E2E7C04615060000F0B585B0060000910C
:1009900015001720002A28D0B3790530002B24D069
:1009A00000243368019380235B020421019A127EA4
:1009B0000A421CD002AB9F1D002339003B8030004F
:1009C0000E4B9847002810D100993A88631C0A55AD
:1009D00071799BB201290FD100990234120AA4B295
:1009E000CA54013DADB2002DDDD105B0F0BD013BD3
:1009F000002BDAD11220F8E71C00F2E715090000FD
:100A0000F8B5584B8000C4582568EB69002BFCD121
:100A10002B7EAF7D1F40230030331A785E78012390
:100A200016401F4219D0E28D002A00D172E0A26A5E
:100A3000511C1378A1626179DBB2012964D09BB2A9
:100A4000DB05DB0D2B85E38D013B9BB2E385002BA2
:100A500003D101332B750133AB7502231F4209D03B
:100A60002B752300002233331A70F30702D52000C0
:100A7000E368984704231F4227D0A28D002A00D1A3
:100A80006DE06B8BDBB21A0746D43F22134045D092
:100A900002221A2113420FD104221E2113420BD12C
:100AA00001221321134207D110224221134203D104
:100AB0002022134204D041212300323319706A836B
:100AC000730702D520006369984710231F4206D0A0
:100AD0002B752B761E4202D02000E3699847202315
:100AE0001F4206D02B752B76330702D52000A36951
:100AF000984708231F4206D02B752B76B30602D5E4
:100B0000236A20009847F8BD5178023209020B434E
:100B1000A26295E72B75A0E73722B7E72B8D616AB4
:100B2000DB05DB0DDAB20A70626A511C6162617921
:100B3000012904D11B0A5370636A01336362A38DD8
:100B4000013B9BB2A385002BBFD104222A75220052
:100B500032321370B307B8D520002369B4E72B7580
:100B6000B3E7C046B800002070470000F0B5094C5C
:100B7000094A2378002B09D11E00084F084DD75091
:100B8000EE500433182BFAD1173B2370800011501C
:100B9000F0BDC0467E00002080000020690B0000F0
:100BA000B800002007B509236A461370013353705B
:100BB000013393700133D3700133137101335371D7
:100BC000024B98476B4618560EBDC046E50500001F
:100BD00010B5024B00201B68984710BD8000002014
:100BE00010B5024B01205B68984710BD80000020C3
:100BF00010B5024B02209B68984710BD8000002072
:100C000010B5024B0320DB68984710BD8000002020
:100C100010B5024B04201B69984710BD80000020CE
:100C200010B5024B05205B69984710BD800000207D
:100C300070470000094B196800290BD1EFF31080B1
:100C4000074A002805D172B6BFF35F8F05490870C7
:100C5000012111701A6801321A6070479800002053
:100C60009C00002008000020084B1A68013A1A6016
:100C70001B68002B09D1064B1B78002B05D00122E5
:100C8000044B1A70BFF35F8F62B670479800002064
:100C90009C0000200800002010230249CA681A4264
:100CA000FCD070470008004070B5082806D800F056
:100CB0009FFB0805052E2E120B1526000024200090
:100CC00070BD154B1C69FAE7144B154C1B6A9B054C
:100CD0009B0FDC40F3E7104B5C69F0E70E4D0024FE
:100CE0002B689B07EBD50F4B98472B685B0711D5FB
:100CF00020000D4B9847AC68A4B24443DFE70B4B90
:100D000000241B785B07DAD5034BDC68D7E7802427
:100D10002402D4E7064CD2E7A000002000080040DF
:100D200000127A00990C0000CD100000500800401D
:100D3000006CDC0270B5847802784578012040268A
:100D40000540204080240849AD010B6AC001B3432F
:100D50002B43A343034303200240044812020340F1
:100D600013430B6270BDC04600080040FFFCFFFF4C
:100D7000F8B5082806D800F03BFB1405050C0E1A40
:100D8000072034001720F8BD0223194A116A0B43CB
:100D900013620020F7E70223154A91690B43936120
:100DA000F7E70223124A118A0B431382F1E7022369
:100DB0000F4A918A0B439382EBE7022200240D4EE7
:100DC0000B4D33680C4F13433360AA84B847B368A4
:100DD000EB627368AB62AC84B84733689BB2AB8498
:100DE000D7E70223054A11780B431370D1E7C046B9
:100DF00000080040A0000020990C000044080040BA
:100E00007FB5C2221E21194BD2009A60184A0024D5
:100E1000536801AD8B43536001232B70E0B229006E
:100E2000144B01349847252CF8D100246B46012639
:100E30005C709E701C7068460F4B98470F4B0620E5
:100E400098470F4B98470F4B29001C725C729C729D
:100E5000DC72062320002B700B4B6E606C702C72C2
:100E60006C7298472000094B98477FBD00080040EE
:100E700000400041B1100000350D0000710D000070
:100E80009D0E000000040040BD0E0000610F000038
:100E9000014B5878C0097047000C00400823054AF0
:100EA00091690B4393610123034A1370117819422E
:100EB000FCD1704700040040000C0040F8B50C78ED
:100EC0004B782402060005000443002B02D0802347
:100ED000DB021C434B7A002B02D080231B031C43F4
:100EE0004B68012B12D95D1E1D400222002D06D039
:100EF0001D02802335439B0207E0013552009A42D0
:100F0000FBD380232D0235435B031C430B7A002B5C
:100F100002D080239B031C430C4FB8470028FBD111
:100F20000B4B98470B4B1E70B8470028FCD10A4B5F
:100F30009D601D00B8470028FCD180226B685202DA
:100F400013401C436C60054B9847F8BD910E0000A0
:100F5000350C0000080C0040000C0040690C00003B
:100F600070B50500094CA0470028FBD1084B9847F5
:100F7000084B1D70A0470028FCD18023064A5B0265
:100F800051680B435360054B984770BD910E0000AC
:100F9000350C0000040C0040000C0040690C0000FF
:100FA000F7B50700184EB0470028FBD1174B9847FC
:100FB000174B1F700193B0470028FCD1154D164BFD
:100FC0006868C004C00E98470400019B1F706B68DE
:100FD000DB02DB0F0193114B1F70B0470028FCD1DF
:100FE000AD680F4B9847019B2D022D0C002B08D1AB
:100FF000012D04D9200029000A4B98470400200045
:10100000FEBD0135EC40FAE7910E0000350C000002
:10101000040C0040000C0040A90C0000080C00402B
:10102000690C00000514000010B50400064B984739
:10103000064B074A1C7080235188DB010B43538009
:10104000044B984710BDC046350C0000020C004010
:10105000000C0040690C000010B504000E4B9847CE
:101060000E4B0F4A1C700F4B0F4C588859880005C7
:10107000114059805988000F214059801100802269
:10108000D2015C881442FCD15A8800020A40024313
:101090005A80064B984710BD350C0000020C0040EA
:1010A000FFF0FFFF000C0040FFBFFFFF690C0000D6
:1010B00010B50C78034B240204439847024BA4B2AA
:1010C0005C8010BD59100000000C004010B50400F9
:1010D000064B9847064B1C70064B5C88064B240554
:1010E000240F98472000054B984710BD350C000091
:1010F000020C0040000C0040690C0000A10F000031
:10110000D37830B5002B35D11478802C03D08023D0
:1011100024065B02234302255478AC4306D194781D
:10112000002C24D18024A402234341605478013C44
:10113000012C01D8124C2340A0248DB2E4052C438D
:101140001C438462D0240D0C24062C431C4384626F
:10115000D478002C0AD15B0303D59378012B0CD1F2
:1011600081615378013B012B00D8816030BDC024E0
:10117000E402D9E741600023DEE74161F1E7C046C0
:10118000FFFFFBFF10B503000A004409C10900205E
:10119000814202D10449E00140181F210B401E3951
:1011A0009940024B984710BD0044004101110000D6
:1011B0007047000010B5054B9847054B9847054B05
:1011C0009847054B9847054B984710BD010E000006
:1011D000310C0000B1110000B1110000B11100008C
:1011E000FEE700002148224970B5884204D0002360
:1011F000204CCA18A24232D300211F4B1F4A9342EF
:1012000031D3FF211E4B1F4A8B43936002220C25D2
:10121000082430261C4B1D485A62C378FC398B4386
:101220001343C370C378AB432343C370184B987BFD
:10123000B0430600202030439873987BA8430443B2
:101240009C73987B884302439A738023114A5168A8
:101250000B435360104B9847104B9847FEE7C55817
:1012600004331560C5E702C3C9E7C046081600008D
:10127000000000200C0000200C000020D000002006
:101280000000000000ED00E0FC7000410050004153
:10129000004800410040004189150000CD130000C6
:1012A0000023F7B501AC012723700023204D210056
:1012B0000B20A3706770A84721000A202770A84759
:1012C00080231C4EDB00B36121000520A8472023AA
:1012D0002100B3610620A84740232100B361072005
:1012E000A8478023B3610023210002202370677088
:1012F000A847210002202770A84704232100B361DA
:101300002F20023B27706370A84733008022983358
:1013100012021A602100112027706770A8478023ED
:101320009B02B3610023210030202370A847F7BD42
:10133000F902000000440041002307B5012201A882
:1013400003704370014B8270984707BD350D000054
:101350001FB50024094B9847094B01A91C720623AD
:101360000B70053B4B602000064B4C724C700C72AE
:1013700098472000044B98471FBDC0469D0E0000B3
:1013800000040040BD0E0000610F000010B5034BCB
:101390009847034B9847034B984710BD39130000FB
:1013A000511300008D02000010B5044B9847044B08
:1013B0009847044B9847044B984710BDB51100005F
:1013C0008D130000A11200001501000010B5044BA0
:1013D0009847044B9847044B9847044B9847F8E7C5
:1013E000A9130000190200006D0200004502000070
:1013F00002B4714649084900095C49008E4402BCA8
:101400007047C046002243088B4274D303098B42C5
:101410005FD3030A8B4244D3030B8B4228D3030CC4
:101420008B420DD3FF22090212BA030C8B4202D366
:101430001212090265D0030B8B4219D300E0090A8E
:10144000C30B8B4201D3CB03C01A5241830B8B4297
:1014500001D38B03C01A5241430B8B4201D34B0380
:10146000C01A5241030B8B4201D30B03C01A5241E5
:10147000C30A8B4201D3CB02C01A5241830A8B426A
:1014800001D38B02C01A5241430A8B4201D34B0253
:10149000C01A5241030A8B4201D30B02C01A5241B7
:1014A000CDD2C3098B4201D3CB01C01A524183096B
:1014B0008B4201D38B01C01A524143098B4201D3A5
:1014C0004B01C01A524103098B4201D30B01C01AD0
:1014D0005241C3088B4201D3CB00C01A524183084A
:1014E0008B4201D38B00C01A524143088B4201D377
:1014F0004B00C01A5241411A00D2014652411046D7
:101500007047FFE701B5002000F006F802BDC046B5
:101510000029F7D076E770477047C0469140031C1A
:1015200090409C46203A9340194352426346D34030
:1015300019437047F0B5CE46474615042D0C2E00D2
:1015400080B50704140C3F0C9946030C7E435D43A1
:10155000674363437F19340CE4199C46A54203D9C1
:1015600080235B029846C4444B46514343433604B0
:10157000360C250C24046544A41959184919200077
:101580000CBC90469946F0BD70B500260C4D0D4C34
:10159000641BA410A64209D1002600F025F80A4DCC
:1015A0000A4C641BA410A64205D170BDB300EB58D1
:1015B00098470136EEE7B300EB5898470136F2E75B
:1015C000F4150000F4150000F4150000F8150000F3
:1015D00000080042000C00420010004200140042CB
:1015E00000180042001C0042F8B5C046F8BC08BC18
:1015F0009E467047DD000000F8B5C046F8BC08BC48
:081600009E467047B500000092
:0C160800401F000008000000010000006E
:04000003000011E503
:00000001FF
