:1000000088210020C9170000C5170000C51700008F
:1000100000000000000000000000000000000000E0
:10002000000000000000000000000000C5170000F4
:100030000000000000000000C5170000C517000008
:10004000C5170000C5170000C5170000C517000040
:10005000C5170000C5170000C5170000C517000030
:10006000C5170000B5110000C5110000D511000032
:10007000E5110000F511000005120000C517000091
:10008000C5170000C5170000C5170000C517000000
:10009000C5170000C5170000C5170000C5170000F0
:1000A000C5170000C5170000C5170000C5170000E0
:1000B0000000000010B5064C2378002B07D1054B3B
:1000C000002B02D0044800E000BF0123237010BDC4
:1000D0001C00002000000000201C0000084B10B590
:1000E000002B03D00749084800E000BF0748036819
:1000F000002B00D110BD064B002BFBD09847F9E731
:100100000000000020000020201C0000201C000037
:1001100000000000FF23002802D00023436083601A
:1001200058B2704770B504000D00FF20002C0DD0B0
:10013000074B9847626823689D546368E168581CC0
:10014000044B9847044B61609847002040B270BD53
:1001500019120000F51A00004D120000F0B52C4EE7
:1001600091B0317800294FD10D2301256B4402ACA9
:10017000D9770C22274B08A8257021746174A574C7
:10018000E574217503910491984798235B03E3601C
:10019000214B224FA362224B2200E36201235B42E8
:1001A0002363204B20496363204B3800A361204B1D
:1001B00098473C681F4B200098471F2318408540F4
:1001C0001D4B1D603B68DD69002DFCD102232268B8
:1001D0001120134323600124184F01A9184B4C70C0
:1001E0008D700C7038707D70BD7098473A785309E7
:1001F000D1090BD11F310A40210091400A00114959
:10020000DB015B189A61347011B0F0BDAD61FFDEA7
:1002100038000020B51B0000020010002C01002057
:100220000200130002001200000C004240420F00C6
:10023000490D00008911000000E100E06801002084
:10024000B50400000044004170B5164C164B2178EF
:10025000050016489847164A217810780023C0B246
:1002600003281DD801F0B6FB02080C104F2900D15D
:100270000123137000230BE04B29FAD10223F8E786
:100280000D29F6D10323F4E7137001230A29F1D1D4
:10029000084A2800137021000122074B984770BDBF
:1002A0001370F5E7F0000020250100000000002099
:1002B0003A00002039000020C10B000010B5094CA5
:1002C000012220000849094B9847220002233132BD
:1002D000117820000B43137005490122054B984704
:1002E00010BDC0463C00002049020000A90B0000E0
:1002F000F0000020C10B0000F8B5002304000F4AF5
:100300000F4813700F4A13700F4B984720000F4D82
:10031000A8470F4E82B2210030000E4FB847074B5E
:100320001B78002B00D0F8BD2000A847210082B226
:100330003000B8470A20084B9847F0E73900002002
:10034000000000203A00002015010000C51B00003D
:100350003C000020D10A00008904000010B50A24E6
:100360000348044B013C9847002CF9D110BDC0460E
:10037000D21B0000F902000030B5802391B069461D
:10038000FF22DB05009300230A8101228B72CB72CE
:100390000531CA7769460631CA776A460732D3778C
:1003A00002AAD3770BAA13702D226A4413706946F0
:1003B0006A4601931382D3761376137753760A93A2
:1003C00005934B77E1235B02089390235B03039330
:1003D000144B13220C93144B8A760D9301235B422A
:1003E0000E930F93114D6A4611492800114B9847FF
:1003F0000028F7D12C68104B200098471F23184085
:100400001E3B83400D4A13602A68D369002BFCD140
:100410002268023313432360094B9847094B9847DE
:1004200011B030BD02000C0002000D003C000020A5
:1004300000100042DD0700008911000000E100E02B
:10044000BD0200005D03000070B5094B0020984715
:10045000FA21084C89000500A047074B074918609E
:100460002800A0470522064B1860064B1A6070BD95
:1004700085150000E91900001000002040420F001F
:100480001400002010E000E030B580240021074B6C
:1004900064021A68064B013800D230BD002AFAD037
:1004A0005A6099601D682542FCD0F4E710000020D6
:1004B00010E000E007B5802201AB1A700A785A708C
:1004C0004A789A708A781900DA70014B984707BD0C
:1004D00069170000F0B5002489B0009201933F2312
:1004E000002600272500069007910393039A134BDB
:1004F000012000219847B6197F41069B079A0340C7
:100500000A4004960597134303D0012333431E008A
:10051000059F019BBB4209D802D1009BB34205D87D
:10052000009A019BB61A9F4104430D43039B5A1E38
:100530000392DBD22000290009B0F0BD011B0000AE
:1005400010B54908040000234020A14201D210BD8B
:100550000300581C091B80B28C42F9D94020FF2BA4
:10056000F5D813800020F2E7F0B585B01E000AAB85
:100570000D00197803004B4303924027AB4217D874
:10058000002E18D10200330008001B4C3100A04798
:100590002A0001003300194C3000A047002201233B
:1005A000121A8B41140C180404430027039B1C806F
:1005B000380005B0F0BD0024012EF6D10A0023005A
:1005C00021000D4EB047009001910B000200210068
:1005D00028000A4CA047802306009B019842E7D8D8
:1005E000009A019B690FE800A047F400041BE4B2E5
:1005F00064033443D9E7C046191B0000D50400004A
:1006000037B50D4C05002378002B01D000290CD004
:1006100001A91320094B0D7098471320084B9847E8
:1006200001230020657023703EBD63780800AB4253
:10063000FAD01D20F8E7C046F10000209516000012
:100640000D160000394A030000B50800934233D06C
:1006500007D8374A934214D0364A93421FD000231A
:1006600017E0354A93423AD0344A934244D0344A50
:100670009342F4D1002303290BD801F0ABF9502A9F
:100680002C2E0023032904D801F0A4F94302050706
:100690002C4B180000BD2C4BFBE72C4BF9E700233B
:1006A0000329F6D801F096F937020406284BF0E743
:1006B000284BEEE7284BECE700230329E9D801F0AB
:1006C00089F92C020406254BE3E7254BE1E7254B8E
:1006D000DFE7254BDDE7254BDBE7254BD9E700239B
:1006E0000329D6D801F076F91D020406214BD0E784
:1006F000214BCEE7214BCCE700230329C9D801F0D9
:1007000069F9120204061E4BC3E71E4BC1E71E4BDC
:10071000BFE71E4BBDE70323BBE71D4BB9E71D4BEE
:10072000B7E71D4BB5E71D4BB3E7C04600100042CD
:1007300000080042000C004200180042001C004269
:100740000014004203000500030006000300070038
:100750000300010003001E0003001F000300090046
:1007600003000A0003000B00030011000300120045
:100770000300130003000D0003000E0003000F0030
:100780000300170003001800030019000300040011
:10079000030008000300100003000C000300160013
:1007A00070B586B06946094B6A4670CB70C170CB94
:1007B00070C1002399005158814202D1D8B206B0CD
:1007C00070BD0133062BF5D10020F8E7D81B0000DF
:1007D0000268D369002BFCD170470000F0B5070018
:1007E00093B0A04B3960080016000491984701228D
:1007F000049B05001B680520134200D00FE1049BF9
:1008000017301C6802231C4000D008E1EB181B388D
:1008100098400300944A1435116AEDB20B431362F9
:1008200033002D3302931B780CA90B7028008F4BDB
:10083000984728008E4B9847029B210018788D4BD3
:100840009847F37A08257B71731DDB7FBB71B31D5D
:10085000DB7FFB71F37E3B72337F7B723B680393DC
:100860001800804B98470EAB1C80338A14300293DB
:100870008023029ADB019A4214D008D880231025E5
:100880009B019A4200D1CDE0102500240AE0C0234C
:10089000029ADB019A4200D1C3E0802303251B02A8
:1008A0009A42F1D133680693F3680793736908930A
:1008B000337E0993F31DDB7F0A937368059333003E
:1008C000059A0833002A00D1AEE08022059952052E
:1008D00091420ED1DB7F002B0BD1674BC0B2346A43
:1008E00098470EAA0100654B20009847002800D0C9
:1008F00095E0737E002B02D0B37E039A9373604B16
:10090000380098470AAB1B8A039A069C9381079B81
:100910001C43089B1C43059B1C43029B1C43099BD7
:100920001B021C430A9B5B071C4333000833DB7F1D
:10093000002B01D104331C43757E337FAD025B0273
:100940001D43737FF27A1B021D43731DDB7F5B0423
:100950001D43B31DDB7F1B042B43B57A15431D4399
:100960003389FF2B00D175E08022520414431D43CC
:1009700033002C331B78002B03D1424B9B789B0711
:1009800001D580231C4338003D4B9847039B38001A
:100990005D603B4B9847039B00251C6080230DAC9A
:1009A0002370336B65700E93736BE5700F93B36BAD
:1009B000A5701093F36B0293119310200AAAAB0059
:1009C0001218D058E9B2002802D104982E4B98474B
:1009D000431C05D02070000CC0B221002B4B98475F
:1009E0000135042DE9D13B0000243033FC85FC6047
:1009F0003C617C61BC61FC613C62BC627C62BC8528
:100A00009C701C705C70DC703868164B9847050051
:100A10001F4B2049984720001F4BAD00EF5013B0EB
:100A2000F0BD082501243DE7DB7F002B07D0230024
:100A3000B16A306A00950EAA184CA04756E7336A8F
:100A4000C0B20B930C4B98470095010023000EAAEF
:100A50000B98F1E7F37E002B00D189E78023DB04BC
:100A60001C4385E7A1070000000400409516000024
:100A70000D16000001060000B1160000410500003F
:100A8000D107000000200041450600006917000062
:100A900051110000E10B0000700100206905000009
:100AA00070B5C2790D001C23002A0CD0C28D173BF3
:100AB000002A08D1054B0468984702232585227E29
:100AC0001A42FCD00023180070BDC046D1070000B8
:100AD000F7B506000F0015001720002A27D0F3797C
:100AE0000530002B23D0336830000193184B984712
:100AF000002480235B020121019A127E0A4217D052
:100B0000727963189BB2395D012A16D01C0089B234
:100B1000013D30000F4BADB29847002DE9D1802345
:100B200002225B020199097E11420CD00020FEBD19
:100B3000013B002BDFD11220F9E7FB5C02341B02E2
:100B4000A4B21943E4E7013B002BEBD1F3E7C04625
:100B5000D1070000A10A0000F8B50400104B1700EF
:100B60000E0005689847A28D0E4B002A02D09847C8
:100B70000520F8BDA7859847230005223233666219
:100B80001A700423AB75237A002B01D02023AB7598
:100B90000020637A8342ECD00823AB75E9E7C046B6
:100BA000191200004D120000931C9B00C3185960DD
:100BB000012393401A0030300378134303707047C9
:100BC00010B51723002A06D084790533002C02D0F3
:100BD000024B98470300180010BDC046590B000097
:100BE000F8B5584B8000C4582568EB69002BFCD140
:100BF0002B7EAF7D1F40230030331A785E780123AF
:100C000016401F4219D0E28D002A00D172E0A26A7C
:100C1000511C1378A1626179DBB2012964D09BB2C7
:100C2000DB05DB0D2B85E38D013B9BB2E385002BC0
:100C300003D101332B750133AB7502231F4209D059
:100C40002B752300002233331A70F30702D52000DE
:100C5000E368984704231F4227D0A28D002A00D1C1
:100C60006DE06B8BDBB21A0746D43F22134045D0B0
:100C700002221A2113420FD104221E2113420BD14A
:100C800001221321134207D110224221134203D122
:100C90002022134204D041212300323319706A8389
:100CA000730702D520006369984710231F4206D0BE
:100CB0002B752B761E4202D02000E3699847202333
:100CC0001F4206D02B752B76330702D52000A3696F
:100CD000984708231F4206D02B752B76B30602D502
:100CE000236A20009847F8BD5178023209020B436D
:100CF000A26295E72B75A0E73722B7E72B8D616AD3
:100D0000DB05DB0DDAB20A70626A511C616261793F
:100D1000012904D11B0A5370636A01336362A38DF6
:100D2000013B9BB2A385002BBFD104222A75220070
:100D300032321370B307B8D520002369B4E72B759E
:100D4000B3E7C04670010020F0B50500296014002B
:100D50000A6889B00E001C23920700D5D4E0012751
:100D60000B683B400193019A0523002A00D0CBE099
:100D700008006A4B9847811C8F40694B14301A6AEF
:100D800017431F62631DDB7F02AAC7B213701100F5
:100D90003800644B98473800634B9847631DD87FF1
:100DA0000199624B98472378012B03D132680B33AA
:100DB000134333602378002B03D132680833134385
:100DC00033602B002A0000260C33283240C39A429D
:100DD000FCD12B003633AE86EE622E86AE621E70DC
:100DE0005E709E70032328686B724C4B2E7198477F
:100DF00007004F4B4F4998474F4BBF00FD50802392
:100E000002AA13710123937123782F685671D6714A
:100E1000002B00D196710026A36A0493E36A059320
:100E2000236B0693636B0793B30004AA9858F1B23F
:100E3000002802D13800414B9847431C06D002AB32
:100E40001871000CC0B203A93D4B98470136042E1F
:100E5000EAD123786B71237CAB71A37CEB71237D8A
:100E60002B7202AB9E1C002333802378012B10D100
:100E70002A4B286898471430324BC0B29847324BFF
:100E800001003200A0699847172300283CD133782D
:100E90003B732378002B3DD1E17FA57F7B6A09045A
:100EA00029431943A069A28B631C7962DB7F002B65
:100EB0002DD11300A16862680A43E1680A43217CCE
:100EC00002430B43617C002903D1204989788907BB
:100ED00001D580210A43A17C002902D0802189020A
:100EE0000B43E17C002902D0802189000B43217D46
:100EF000002902D0802189010B4339680A433A60F6
:100F00007A6813437B600023180009B0F0BD4023CA
:100F10001343CFE700231800CCE7C046A107000029
:100F200000040040951600000D16000001060000A8
:100F300051110000510F0000700100204506000013
:100F400069170000B11600004105000000200041B3
:100F5000F8B57C4B8000C45823002200373336326A
:100F600025681B7816781E402B7EAF7D1F40FB073F
:100F700039D562791300012A33D1637A002B0DD160
:100F8000714B1B88AB62638E013B9BB26386638EA1
:100F9000002B00D12A756379012B22D1637A002BB3
:100FA00021D0E16A2268481C0B78E062A079DBB2AC
:100FB000012800D174E09BB2DB05DB0D9362A38EA8
:100FC000013B9BB2A386A38E002B0CD101332B7562
:100FD000637A012B07D1E379002B04D10233AB757F
:100FE00001E0002BDAD004210F4215D06B8B0B42AD
:100FF0005CD0637A012B0CD023001E2238331A7088
:101000000323637202332B75330702D52000A369D3
:101010009847AB6A04236B830222174227D0637977
:10102000002B0ED1072129752A7601326272220027
:101030003832A38623861370F30602D52000E369B5
:1010400098476379012B12D1637ADBB2012B0ED161
:10105000E279002A0BD10221297501316172210048
:1010600038310A701E4202D02000E36898470823F6
:101070001F4209D06279002A06D12B752B76B30660
:1010800002D52000236A98477FB2002F07DA802319
:101090002B752B76730602D5636A20009847F8BD3E
:1010A0004878023100020343E16285E7627A2368EF
:1010B000D2B29B6A012A13D1638E013B9BB2638635
:1010C000638E9BB2002BA7D12975210038310B709C
:1010D0000333637216429FD02000E36898479BE772
:1010E000DB05A16ADB0DDAB20A70A26A511CA162AB
:1010F000A179012904D11B0A5370A36A0133A362A9
:10110000238E013B9BB22386238E9BB2002B00D003
:1011100082E722003832137004332B75627A022A78
:1011200005D11E4200D177E720006369D6E7637AD4
:10113000002B00D070E7B30700D46DE720002369CF
:10114000CCE7C046700100206C0100207047000011
:10115000F0B5094C094A2378002B09D11E00084F2D
:10116000084DD750EE500433182BFAD1173B23709B
:1011700080001150F0BDC046F3000020F4000020B4
:101180004D1100007001002007B509236A46137055
:1011900001335370013393700133D37001331371F2
:1011A00001335371024B98476B4618560EBDC0462B
:1011B000A107000010B5024B00201B68984710BD26
:1011C000F400002010B5024B01205B68984710BD69
:1011D000F400002010B5024B02209B68984710BD18
:1011E000F400002010B5024B0320DB68984710BDC7
:1011F000F400002010B5024B04201B69984710BD75
:10120000F400002010B5024B05205B69984710BD23
:10121000F400002070470000094B196800290BD129
:10122000EFF31080074A002805D172B6BFF35F8F35
:1012300005490870012111701A6801321A6070475F
:101240000C0100201001002018000020084B1A6833
:10125000013A1A601B68002B09D1064B1B78002B42
:1012600005D00122044B1A70BFF35F8F62B670473E
:101270000C0100201001002018000020102302495A
:10128000CA681A42FCD070470008004070B50828B0
:1012900006D800F09FFB0805052E2E120B15260020
:1012A0000024200070BD154B1C69FAE7144B154C47
:1012B0001B6A9B059B0FDC40F3E7104B5C69F0E772
:1012C0000E4D00242B689B07EBD50F4B98472B68DE
:1012D0005B0711D520000D4B9847AC68A4B244437E
:1012E000DFE70B4B00241B785B07DAD5034BDC6888
:1012F000D7E780242402D4E7064CD2E7140100206B
:101300000008004000127A007D120000B1160000B3
:1013100050080040006CDC0270B584780278457893
:10132000012040260540204080240849AD010B6A79
:10133000C001B3432B43A3430343032002400448AB
:101340001202034013430B6270BDC0460008004008
:10135000FFFCFFFFF8B5082806D800F03BFB14059A
:10136000050C0E1A072034001720F8BD0223194A75
:10137000116A0B4313620020F7E70223154A9169B3
:101380000B439361F7E70223124A118A0B4313823E
:10139000F1E702230F4A918A0B439382EBE7022283
:1013A00000240D4E0B4D33680C4F13433360AA8459
:1013B000B847B368EB627368AB62AC84B847336814
:1013C0009BB2AB84D7E70223054A11780B43137015
:1013D000D1E7C04600080040140100207D12000043
:1013E000440800407FB5C2221E21194BD2009A60EA
:1013F000184A0024536801AD8B43536001232B70BE
:10140000E0B22900144B01349847252CF8D1002470
:101410006B4601265C709E701C7068460F4B9847A7
:101420000F4B062098470F4B98470F4B29001C7213
:101430005C729C72DC72062320002B700B4B6E607A
:101440006C702C726C7298472000094B98477FBDD6
:1014500000080040004000419516000019130000EC
:10146000551300008114000000040040A114000086
:1014700045150000014B5878C0097047000C00402A
:101480000823054A91690B4393610123034A1370B2
:1014900011781942FCD1704700040040000C004054
:1014A000F8B50C784B782402060005000443002BA5
:1014B00002D08023DB021C434B7A002B02D0802316
:1014C0001B031C434B68012B12D95D1E1D400222D9
:1014D000002D06D01D02802335439B0207E0013515
:1014E00052009A42FBD380232D0235435B031C43F9
:1014F0000B7A002B02D080239B031C430C4FB84770
:101500000028FBD10B4B98470B4B1E70B8470028A7
:10151000FCD10A4B9D601D00B8470028FCD18022F9
:101520006B68520213401C436C60054B9847F8BD32
:101530007514000019120000080C0040000C004057
:101540004D12000070B50500094CA0470028FBD1E2
:10155000084B9847084B1D70A0470028FCD18023FA
:10156000064A5B0251680B435360054B984770BDB8
:101570007514000019120000040C0040000C00401B
:101580004D120000F7B50700184EB0470028FBD1F8
:10159000174B9847174B1F700193B0470028FCD199
:1015A000154D164B6868C004C00E98470400019B97
:1015B0001F706B68DB02DB0F0193114B1F70B0478C
:1015C0000028FCD1AD680F4B9847019B2D022D0CD4
:1015D000002B08D1012D04D9200029000A4B98477F
:1015E00004002000FEBD0135EC40FAE77514000050
:1015F00019120000040C0040000C00408D12000085
:10160000080C00404D120000E919000010B504005C
:10161000064B9847064B074A1C7080235188DB0114
:101620000B435380044B984710BDC046191200006D
:10163000020C0040000C00404D12000010B50400E8
:101640000E4B98470E4B0F4A1C700F4B0F4C58888F
:1016500059880005114059805988000F2140598050
:1016600011008022D2015C881442FCD15A88000209
:101670000A4002435A80064B984710BD19120000D9
:10168000020C0040FFF0FFFF000C0040FFBFFFFF17
:101690004D12000010B50C78034B24020443984708
:1016A000024BA4B25C8010BD3D160000000C00404F
:1016B00010B50400064B9847064B1C70064B5C881F
:1016C000064B2405240F98472000054B984710BD72
:1016D00019120000020C0040000C00404D120000E6
:1016E00085150000D37830B5002B35D11478802CC7
:1016F00003D0802324065B02234302255478AC43A5
:1017000006D19478002C24D18024A4022343416084
:101710005478013C012C01D8124C2340A0248DB2F6
:10172000E4052C431C438462D0240D0C24062C4376
:101730001C438462D478002C0AD15B0303D59378D0
:10174000012B0CD181615378013B012B00D88160C2
:1017500030BDC024E402D9E741600023DEE74161E7
:10176000F1E7C046FFFFFBFF10B503000A00440984
:10177000C1090020814202D10449E00140181F2123
:101780000B401E399940024B984710BD0044004160
:10179000E51600007047000010B5054B9847054B53
:1017A0009847054B9847054B9847054B984710BD00
:1017B000E5130000151200009517000095170000B2
:1017C00095170000FEE700002148224970B58842C5
:1017D00004D00023204CCA18A24232D300211F4B50
:1017E0001F4A934231D3FF211E4B1F4A8B43936004
:1017F00002220C25082430261C4B1D485A62C3784F
:10180000FC398B431343C370C378AB432343C3708A
:10181000184B987BB0430600202030439873987B88
:10182000A84304439C73987B884302439A738023A4
:10183000114A51680B435360104B9847104B98471F
:10184000FEE7C55804331560C5E702C3C9E7C046C3
:10185000201C0000000000201C0000201C000020B4
:10186000880100200000000000ED00E0FC70004155
:101870000050004100480041004000416D1B000045
:10188000B91900000023F7B501AC0126237000232D
:10189000204D21000720A3706670A8472100062074
:1018A0002670A84740231C4F3000BB612100A84789
:1018B00002232100BB611800A84704232100BB615B
:1018C0000320A8470823BB61002321000F202370B9
:1018D0006670A84721000E202670A8478023DB01F0
:1018E000BB61022321002F2026706370A8473B00B4
:1018F0008022983312021A6021001120267066702F
:10190000A84780239B02BB61002321003020237065
:10191000A847F7BDB504000000440041002307B507
:10192000012201A803704370014B8270984707BDE4
:10193000191300001FB50024094B9847094B01A952
:101940001C7206230B70053B4B602000064B4C724B
:101950004C700C7298472000044B98471FBDC0463E
:101960008114000000040040A1140000451500008F
:1019700010B5034B9847034B9847034B984710BD4E
:101980001D190000351900004904000010B5054B71
:101990009847054B9847054B9847054B9847054B8B
:1019A000984710BD991700007119000085180000B4
:1019B0005D0100007903000010B5034B9847034810
:1019C000034B9847FBE7C0468D190000F01B000051
:1019D000F902000002B4714649084900095C490057
:1019E0008E4402BC7047C046002243088B4274D329
:1019F00003098B425FD3030A8B4244D3030B8B4210
:101A000028D3030C8B420DD3FF22090212BA030C18
:101A10008B4202D31212090265D0030B8B4219D3F9
:101A200000E0090AC30B8B4201D3CB03C01A524119
:101A3000830B8B4201D38B03C01A5241430B8B4261
:101A400001D34B03C01A5241030B8B4201D30B034A
:101A5000C01A5241C30A8B4201D3CB02C01A524171
:101A6000830A8B4201D38B02C01A5241430A8B4234
:101A700001D34B02C01A5241030A8B4201D30B021D
:101A8000C01A5241CDD2C3098B4201D3CB01C01A37
:101A9000524183098B4201D38B01C01A5241430941
:101AA0008B4201D34B01C01A524103098B4201D32F
:101AB0000B01C01A5241C3088B4201D3CB00C01A9C
:101AC000524183088B4201D38B00C01A5241430814
:101AD0008B4201D34B00C01A5241411A00D2014639
:101AE000524110467047FFE701B5002000F006F8AC
:101AF00002BDC0460029F7D076E770477047C04660
:101B00009140031C90409C46203A93401943524216
:101B10006346D34019437047F0B5CE464746150497
:101B20002D0C2E0080B50704140C3F0C9946030CB5
:101B30007E435D43674363437F19340CE4199C463D
:101B4000A54203D980235B029846C4444B465143C7
:101B500043433604360C250C24046544A419591853
:101B6000491920000CBC90469946F0BD70B500267E
:101B70000C4D0D4C641BA410A64209D1002600F0A8
:101B80003FF80A4D0A4C641BA410A64205D170BD53
:101B9000B300EB5898470136EEE7B300EB5898478F
:101BA0000136F2E70C1C00000C1C00000C1C0000AD
:101BB000101C000003008218934200D17047197076
:101BC0000133F9E70023C25C0133002AFBD1581E20
:101BD000704741540D0A000000080042000C00420A
:101BE000001000420014004200180042001C004295
:101BF00041542B53454E443D746573740D0A0000E7
:101C0000F8B5C046F8BC08BC9E467047DD00000031
:101C1000F8B5C046F8BC08BC9E467047B500000049
:101C200070000020000000000000000080000000A4
:0C1C3000401F0000080000000100000040
:04000003000017C919
:00000001FF
