:1000000090210020213F000019400000194000000D
:1000100000000000000000000000000000000000E0
:100020000000000000000000000000001940000077
:10003000000000000000000019400000194000000E
:10004000194000001940000019400000194000004C
:10005000194000001940000019400000194000003C
:10006000194000000D330000253300003D3300002F
:10007000553300006D330000853300001940000047
:10008000194000001940000019400000194000000C
:1000900019400000194000001940000019400000FC
:1000A00019400000194000001940000019400000EC
:1000B0000000000010B5064C2378002B07D1054B3B
:1000C000002B02D0044800E000BF0123237010BDC4
:1000D0001C0000200000000090460000084B10B5F6
:1000E000002B03D00749084800E000BF0748036819
:1000F000002B00D110BD064B002BFBD09847F9E731
:100100000000000020000020904600009046000003
:100110000000000080B500AF024B9847C046BD46C6
:1001200080BDC046A933000080B500AF024B9847A0
:10013000C046BD4680BDC046FD33000080B584B0DA
:1001400000AF78600F23FB18FF221A707B68002B2A
:1001500009D07B6800225A607B6800229A600F23D6
:10016000FB1800221A700F23FB181B785BB21800D3
:10017000BD4604B080BD000080B584B000AF78609B
:100180000A00FB1C1A700F23FB18FF221A707B68F1
:10019000002B1BD0114B98477B681A687B685B6803
:1001A000D318FA1C12781A707B685B685A1C7B683B
:1001B000D9680B4B100098470B001A007B685A60F7
:1001C000084B98470F23FB1800221A700F23FB18C7
:1001D0001B785BB21800BD4604B080BD150100005D
:1001E000654400002901000080B584B000AF020022
:1001F000FB1D1A700F23FB18FA1D1278D2091A7012
:100200000E23FB18FA1D127852091A700D4BBB60B1
:100210000F23FB181B78002B0FD10F23FB181B7823
:100220009B0010229446BC446344083B1A680E238A
:10023000FB181B78DB01D31800E000231800BD4633
:1002400004B080BD0044004180B582B000AF020020
:10025000FB1D1A70FB1D1B781800034B9847030009
:100260001800BD4602B080BDE901000080B582B033
:1002700000AF78607B6800221A707B6801225A7098
:100280007B6800229A70C046BD4602B080BD000067
:1002900080B584B000AF0200FB1D1A70BB1D0A1CA4
:1002A0001A70FB1D1B7818000D4B98470300FB606C
:1002B000FB1D1B781F22134001229A401300BB60D4
:1002C000BB1D1B78002B03D0FB68BA689A6102E063
:1002D000FB68BA685A61C046BD4604B080BDC046DE
:1002E0004902000080B582B000AF0200FB1D1A7009
:1002F000064BFA1D127811001F220A40012191407D
:100300000A001A60C046BD4602B080BD00E100E0B0
:1003100080B584B000AF78607B681B68FB60FB68C9
:10032000DB695A1E9341DBB21800BD4604B080BDA4
:1003300080B582B000AF78607B6801221A707B685C
:1003400000225A607B6800229A607B68C022920378
:10035000DA607B6800221A747B6800225A747B681A
:1003600001229A747B680122DA747B6800221A7574
:100370007B682422002199547B6818330C220021C9
:1003800018000A4B98477B68094A9A617B680022EB
:100390009A627B680022DA627B6800221A637B68BB
:1003A00000225A63C046BD4602B080BD0D45000024
:1003B000A086010080B582B000AF78607B680A2219
:1003C0001A707B6800225A707B6800229A70C046BF
:1003D000BD4602B080BD000080B584B000AF78603B
:1003E00039603B681A787B681A703B685A787B687A
:1003F0005A703B689A787B689A700C23FB18180037
:100400000B4B98470C23FB1801221A707B681B7852
:100410000C22BA1811001800064B98477B681B780D
:1004200001211800044B9847C046BD4604B080BD6A
:100430006D020000310C00009102000080B584B014
:1004400000AF78607B681B68FB607B681B681800E6
:100450000B4B9847030018000A4B9847C0467B682F
:100460001800094B9847031EF9D1FB681B6802224C
:100470001A43FB681A60C046BD4604B080BDC04642
:10048000C9320000E50200001103000080B590B001
:1004900000AF244B1B78002B3FD13B1D1800224B93
:1004A00098473B1D11221A703A1D204B110018006D
:1004B0001F4B98470823FB1818001E4B984708232A
:1004C000FB188C229203DA600823FB181A4A9A62FE
:1004D0000823FB1801225242DA620823FB18174A4C
:1004E0001A630823FB18164A5A630823FB182422B0
:1004F000002199540823FB18124A9A610823FA181C
:100500001149124B1800124B9847104B1800114B11
:100510009847044B01221A7000E0C046BD4610B057
:1005200080BDC04638000020B503000070010020E7
:10053000D903000031030000020010000200120085
:100540000200130040420F00000C00423401002062
:10055000392400003D040000B0B584B000AF0200B3
:10056000BB1D1A807B1D0A1C1A70BB1D1B881F4AED
:1005700013439AB2BB1D1A807B1D1B78002B06D13A
:10058000BB1D1B885B045B0C9AB2BB1D1A80BB1D94
:100590001B881B0A9BB21AB2BB1D1B881B021BB215
:1005A00013431BB29AB2BB1D1A800F23FC181049CB
:1005B000104B01221800104B9847030023700F23A3
:1005C000FB181B78052BF0D00F23FC180B4AB91D24
:1005D000084802230A4DA847030023700F23FB1885
:1005E0001B781800BD4604B0B0BDC04600F0FFFF48
:1005F0007001002034010020DD2500003A000020B9
:10060000F129000080B500AF0449054B0022180015
:10061000044B984703001800BD4680BD70010020C0
:1006200034010020DD25000090B585B000AF786072
:100630000A00BB1C1A800F23FC18BB1C1A8879689F
:10064000064B1800064B9847030023700F23FB1836
:100650001B781800BD4605B090BDC046340100208F
:10066000CD26000080B582B000AF0200FB1D1A70DD
:10067000064BFA1D127811001F220A4001219140F9
:100680000A001A60C046BD4602B080BD00E100E02D
:1006900080B584B000AF78607B681B68FB60FB6846
:1006A000DB695A1E9341DBB21800BD4604B080BD21
:1006B00080B582B000AF7860C0467B681800044BFC
:1006C0009847031EF9D1C046BD4602B080BDC04662
:1006D0009106000080B582B000AF78607B68802210
:1006E000D2051A607B6800225A607B68FF221A815B
:1006F0007B6800229A727B680022DA727B689622FD
:1007000092011A627B682422012199547B68252278
:10071000012199547B682622002199547B68272265
:10072000002199547B6800229A627B6888225203D8
:10073000DA607B682C22002199547B682D220021ED
:1007400099547B6800221A637B6800225A637B6895
:1007500000229A637B680022DA637B6800225A6178
:100760007B6800221A827B680022DA767B6800228E
:100770001A767B6800221A777B6800225A767B689B
:1007800013229A767B6800225A77C046BD4602B093
:1007900080BD000080B584B000AF78607B681B68C6
:1007A000FB607B681B681800094B98470300180022
:1007B000084B98477B681800074B9847FB681B68F5
:1007C00002221A43FB681A60C046BD4604B080BDD1
:1007D000C932000065060000B106000080B582B095
:1007E00000AF78600A00FB1C1A707B6831229B5CAA
:1007F0005AB2FB1C1B78012199400B005BB21343DA
:100800005BB2D9B27B6831229954C046BD4602B072
:1008100080BD000080B590B000AF3B0018001B4BBE
:1008200098473B00E12252021A623B009022520399
:10083000DA603B00164A1A633B00164A5A633B00D3
:10084000012252429A633B0001225242DA633B008A
:100850002D22002199543B0000225A60C0463A00E4
:100860000D490E4B18000E4B9847031EF7D10B4B4A
:1008700018000C4B98470C4B98470C4B98470C4B67
:100880009847C046BD4610B080BDC046D5060000A2
:1008900002000C0002000D00001000423C0000208D
:1008A0003916000095070000B5080000190B00007C
:1008B000890A000080B500AF09490A4B01221800DF
:1008C000094B9847074B01211800084B98470849E6
:1008D000044B01221800074B9847C046BD4680BD17
:1008E000F90800003C000020211B0000DD0700008B
:1008F00070000020691B000080B582B000AF7860F6
:100900000F497B68012218000E4B98470C4B1A7850
:100910000D4B110018000D4B9847094B1B78180020
:100920000B4B984703001A000A4B1A7004497B6866
:1009300001221800034B9847C046BD4602B080BD57
:1009400070000020691B00000000002079010000F9
:1009500059090000F500002080B582B000AF020008
:10096000FB1D1A70254B1B78DBB2012B15D002DC66
:10097000002B05D039E0022B1CD0032B27D034E00C
:10098000FB1D1B784F2B03D11C4B01221A7003E077
:100990001A4B00221A70C0462BE0FB1D1B784B2B14
:1009A00003D1164B02221A7003E0144B00221A7076
:1009B000C0461EE0FB1D1B780D2B03D10F4B0322FD
:1009C0001A7003E00D4B00221A70C04611E0FB1DA7
:1009D0001B780A2B04D1094B00221A70012309E06D
:1009E000064B00221A70C04603E0044B00221A7026
:1009F000C04600231800BD4602B080BDF4000020B0
:100A000080B582B000AF7860174B00221A70174B88
:100A100000221A70164B1800164B98477B68180076
:100A2000154B984703009AB27968144B1800144B81
:100A300098470DE07B6818000F4B984703009AB267
:100A400079680E4B18000E4B98470A200D4B9847BB
:100A5000054B1B78DBB201225340DBB2002BE9D1FE
:100A6000C046BD4602B080BDF5000020F400002065
:100A7000000000203D0100001D4500003C0000205A
:100A800011190000D90B000080B500AF174B1800FA
:100A9000174B9847174B1800154B9847164B1800E3
:100AA000134B9847154B1800114B9847144B1800DF
:100AB0000F4B9847134B18000D4B9847124B1800DB
:100AC0000B4B9847114B1800094B9847104B1800D7
:100AD000074B9847074B1800054B98470D4B1800DC
:100AE000034B9847C046BD4680BDC0462C4500001C
:100AF000010A000034450000404500005445000054
:100B000080450000AC450000BC450000D045000019
:100B1000D8450000E045000080B582B000AF00235A
:100B20007B6006E0074B1800074B98477B68013352
:100B30007B607B68092BF5DDC0461800BD4602B01E
:100B400080BDC0462C450000010A000080B582B07F
:100B500000AF78607B68002B0CD0084B7A685A6035
:100B6000064B00229A60C046044B1A6880235B0241
:100B70001340F9D0C046BD4602B080BD10E000E091
:100B800080B500AF00200F4B984702000E4B1A6053
:100B90000D4B18680D4BFA229100984703001A007C
:100BA000094B1A60084B1868084BFA2291009847C5
:100BB00003001A00064B1A60064B05221A60C04655
:100BC000BD4680BDD53A000010000020594300000A
:100BD0001400002010E000E080B582B000AF786023
:100BE00004E0074B1B681800064B98477B685A1EA9
:100BF0007A60002BF5D1C046BD4602B080BDC0462C
:100C0000100000204D0B000080B582B000AF78606E
:100C10007B6880221A707B6800225A707B680122F0
:100C20009A707B680022DA70C046BD4602B080BD73
:100C300080B584B000AF02003960FB1D1A700C2330
:100C4000FB181800104B98470C23FB1880221A70D1
:100C50003B681A780C23FB185A703B685A780C23AF
:100C6000FB189A703B689A780C23FB18DA700C23F7
:100C7000FA18FB1D1B7811001800044B9847C0465A
:100C8000BD4604B080BDC046090C0000993E00007E
:100C900080B582B000AF78607B6800221A70C046D1
:100CA000BD4602B080BDF0B58DB000AFB860F96050
:100CB0003A607B60002300243B627C6200230024B6
:100CC000BB61FC613F23FB6253E0FB6A203B002BCE
:100CD00004DB01229A4013007B610BE0FB6A2022B7
:100CE000D31A0122DA4013000021FA6A91400A0067
:100CF00013437B610122FB6A9A4013003B61BB698D
:100D0000FC69DB186441BB61FC61BB683A691A404D
:100D10001500FB687A691A4016002B00334307D090
:100D2000BB6901221343BB61FB6900221343FB61D2
:100D30007A68FB699A4219D87A68FB699A4203D1AA
:100D40003A68BB699A4211D8B969FA693B687C680C
:100D5000C91AA2410B001400BB61FC613A6A3B69ED
:100D600013433B627A6A7B6913437B62FB6A013BF4
:100D7000FB62FB6A002BA8DA3B6A7C6A1800210040
:100D8000BD460DB0F0BD80B586B000AFF860B9606B
:100D90007A601623FB1800221A80BB683B61BB688F
:100DA0005A08FB689A4201D2402326E0BB685B08E0
:100DB0003B610AE03A69FB68D31A3B611623FB18D2
:100DC0001A881623FB1801321A803A69FB689A4286
:100DD000F0D21623FB181622BA181288013A1A808C
:100DE0001623FB181B88FF2B01D9402305E07B68E5
:100DF0001622BA1812881A8000231800BD4606B0C1
:100E000080BD0000F0B5A1B000AFF864B9647A64A9
:100E10004322BA181370002300243B677C67002329
:100E20000024BB66FC6600230024BB67FC6700232C
:100E30007B66582340229446BC4463441A78FB6C7A
:100E40005A43BB6C9A4201D94023B3E04323FB18B9
:100E50001B78002B3DD1582340229446BC44634468
:100E60001B78DBB23B6100237B61FB6CBB60002322
:100E7000FB60524CBA68FB6838697969A047030087
:100E80000C001B00FB650023BB65BB6C3B600023B3
:100E90007B60B86DF96D3A687B68494CA0470300E8
:100EA0000C003B677C67002101223B6F7C6FC91AF5
:100EB000A2410B001400BB66FC66BB6E1B0CFA6EF5
:100EC00016041E43BB6E1D043300BB670023FB6783
:100ED0006AE04323FB181B78012B65D1FB6C3B6355
:100EE00000237B63582340229446BC4463441B7810
:100EF000DBB2BB620023FB62304CBA6AFB6A386B20
:100F0000796BA04703000C00BB65FC65BB6C3B62C2
:100F100000237B62BB6DFC6D1A002300386A796A7E
:100F2000274CA04703000C007B667A6E80239B0150
:100F30009A4201D940233DE0BB6CBB610023FB61B9
:100F4000B969FA690B005B0F1000C000F863F86B19
:100F50001843F8630B00DB00BB63BB6DFC6D1A002C
:100F60002300B86BF96B164CA04703000C00BB655F
:100F7000FC65BB6DFC6DD9B27B6EDBB2DB00DAB217
:100F8000172340208446BC4463448A1A1A701723EE
:100F900040229446BC4463441B785B031A007B6E7A
:100FA0001343BB670023FB67BB6FFC6F9AB27B6C7C
:100FB0001A8000231800BD4621B0F0BD7144000026
:100FC000A70C000080B584B000AF0200FB1D1A70B2
:100FD000BB1D0A1C1A701A4B1B7801225340DBB24E
:100FE000002B03D1BB1D1B78002B1BD00C23FB183F
:100FF0001800144B98470C23FB18FA1D12781A702E
:101000000C23FB18190013200F4B984713200F4B8C
:1010100098470B4BFA1D12785A70094B01221A702F
:10102000002308E0064B5B78FA1D12789A4201D142
:10103000002300E01D231800BD4604B080BDC0465B
:10104000F8000020910C0000AD3B0000F13B0000D7
:1010500080B582B000AF78600A00FB1C1A707B6814
:101060004D4A93423FD04C4A934206D84B4A934252
:101070000FD04B4A934221D089E04A4A934200D193
:101080005BE0494A934200D16CE0484A93423FD02A
:101090007DE0FB1C1B78012B0AD002DC002B05D065
:1010A00075E0022B06D0032B06D070E0404B6FE0BA
:1010B000404B6DE0404B6BE0404B69E0FB1C1B7804
:1010C000012B0AD002DC002B05D060E0022B06D0F9
:1010D000032B06D05BE003235AE0394B58E0394B31
:1010E00056E0394B54E0FB1C1B78012B0AD002DC84
:1010F000002B05D04BE0022B06D0032B06D046E098
:10110000324B45E0324B43E0324B41E0324B3FE063
:10111000FB1C1B78012B0AD002DC002B05D036E02B
:10112000022B06D0032B06D031E02C4B30E02C4BA9
:101130002EE02C4B2CE02C4B2AE0FB1C1B78012BC7
:101140000AD002DC002B05D021E0022B06D0032BB5
:1011500006D01CE0254B1BE0254B19E0254B17E082
:10116000254B15E0FB1C1B78012B0AD002DC002B61
:1011700005D00CE0022B06D0032B06D007E01F4B56
:1011800006E01F4B04E01F4B02E01F4B00E0002372
:101190001800BD4602B080BD0010004200080042A9
:1011A000000C004200180042001C004200140042E3
:1011B000030004000300050003000600030007000D
:1011C0000300010003001E0003001F0003000800CD
:1011D0000300090003000A0003000B0003001000D5
:1011E00003001100030012000300130003000C00B1
:1011F00003000D0003000E0003000F0003001600A3
:1012000003001700030018000300190090B58BB00D
:1012100000AF78600C23FB180F4A13CA13C313CA1C
:1012200013C300237B620EE00C23FB187A6A920042
:10123000D3581A007B689A4202D17B6ADBB206E07F
:101240007B6A01337B627B6A052BEDD90023180092
:10125000BD460BB090BDC046F445000080B582B0DD
:1012600000AF78607B6800221A70C046BD4602B0AD
:1012700080BD000080B582B000AF02003960FB1D68
:101280001A70FB1D1B78012B0AD0022B0FD0002BEC
:1012900014D10E4B0D4A91693A680A439A610FE0E6
:1012A0000A4B0A4AD1693A680A43DA6108E0074BF7
:1012B000064A116A3A680A431A6201E0172300E0FD
:1012C00000231800BD4602B080BDC04600040040A7
:1012D00080B582B000AF78607B6880221A707B682E
:1012E00000225A707B6801229A707B680022DA70B3
:1012F000C046BD4602B080BD80B500AF054B9B78AF
:10130000DBB21A00022313405A1E9341DBB21800CD
:10131000BD4680BD0020004180B584B000AF78603C
:101320007B681B68FB60FB68DB695A1E9341DBB27C
:101330001800BD4604B080BD80B582B000AF7860B3
:10134000C0467B681800044B9847031EF9D1C0467D
:10135000BD4602B080BDC04619130000B0B58CB0C8
:1013600002AF786039607B681B68BB617B681B6873
:101370001800AB4B984703007B617B6914333B61DA
:1013800000237B6200233B620A23FB1800221A80A1
:101390001F23FB1800221A701E23FB1810221A703C
:1013A0003B681B8A8022D20193421CD08022D2014A
:1013B000934206DC002B0DD080229201934224D070
:1013C00035E0C022D201934228D0802212029342FB
:1013D00012D02CE01F23FB1800221A701E23FB18CA
:1013E00010221A7023E01F23FB1800221A701E23FC
:1013F000FB1808221A701AE01F23FB1800221A702B
:101400001E23FB1803221A7011E01F23FB18012270
:101410001A701E23FB1810221A7008E01F23FB18F5
:1014200001221A701E23FB1808221A70C0463B685E
:101430001A683B68DB681A433B685B6913433A6888
:10144000128A13433A68127E120213433A68262125
:10145000525C520713437B621D23FB1800221A7053
:101460003B685B68FB60FB68002B1ED08022520546
:1014700093424FD13B6827229B5C01225340DBB251
:10148000002B46D03B681D6A3B69DBB21800654BF8
:10149000984701001D23FC180A23FB181A00280096
:1014A000614B98470300237033E03B6827229B5C25
:1014B000002B14D03B68186A3B68996A1D23FC18FE
:1014C0001F23FB181D780A23FA181E23FB181B780C
:1014D00000932B00554DA847030023701AE03B688A
:1014E0001D6A3B69DBB218004E4B98471D23FC1860
:1014F0001F23FB1819780A23FA181E23FB181B78E0
:1015000000930B0001002800484DA84703002370FA
:1015100000E0C0461D23FB181B78002B03D01D23C1
:10152000FB181B7877E03B685B7E002B03D03B68A1
:101530009A7EBB699A737B6818003D4B98470A23D3
:10154000FB181A88BB699A817A6AFB6813437B622D
:101550003B6827229B5C01225340DBB2002B03D067
:101560007B6A042213437B623B685B7E9A023B6882
:101570001B7F5B021A433B685B7F1B021A433B687D
:1015800024215B5C5B041A433B6825215B5C1B04E4
:1015900013433B623B689B7A1A003B6A13433B62EE
:1015A0003B68DB7A1A003B6A13433B623B681B894A
:1015B000FF2B0BD07B6A8022520413437B623B6873
:1015C0001B891A003B6A13433B6208E03B68DB7EE1
:1015D000002B04D07B6A8022D20413437B623B68D9
:1015E0002C229B5C002B03D1124B9847031E03D087
:1015F0007B6A802213437B627B6818000C4B984700
:10160000BB693A6A5A607B681800094B9847BB6906
:101610007A6A1A6000231800BD460AB0B0BDC04601
:101620000D120000D13C0000870D0000050E0000E7
:1016300039130000F912000090B593B000AFF860C4
:10164000B9607A603B23FB1800221A70FB68BA6805
:101650001A60FB681B687B63FB681B681800864B7D
:10166000984703003B633B6B0233FB623B6B1433D5
:10167000BB627B6B1B680122134001D00523F6E09F
:101680007B6B1B680222134001D01C23EFE0012278
:10169000FB6A9A40130019000220784B98472423D4
:1016A000FB181800764B98477B682D229A5C242300
:1016B000FB181A70BB6ADBB22422BA18110018009A
:1016C000704B9847BB6ADBB218006F4B98477B683A
:1016D0002D229B5C002118006C4B98477B68DA7ABE
:1016E000FB685A717B6824229A5CFB689A717B685C
:1016F00025229A5CFB68DA717B68DA7EFB681A72D5
:101700007B681A7FFB685A723B23FC187A68FB6877
:10171000110018005E4B9847030023703B23FB1811
:101720001B78002B03D03B23FB181B789FE0202362
:10173000FB181800574B98472023FB1800225A70BB
:101740002023FB1800229A707B681A6B1023FB1869
:101750001A607B685A6B1023FB185A607B689A6B7F
:101760001023FB189A607B68DA6B1023FB18DA6091
:101770004723FB1800221A702CE04723FB181A7825
:101780001023FB189200D3583B643B6C002B09D10B
:101790004723FB181A78BB68110018003E4B984786
:1017A00003003B643B6C01330DD03B6CDAB2202369
:1017B000FB181A703B6C1B0CDBB22022BA1811000C
:1017C0001800364B98474723FB181A784723FB1815
:1017D00001321A704723FB181B78032BCDD9002345
:1017E000FB630AE0FA68FB6B02339B00D3180433F7
:1017F00000221A60FB6B0133FB63FB6B052BF1D9F5
:10180000FB6800229A62FB6800225A62FB68002291
:10181000DA85FB6800229A85FB6830220021995402
:10182000FB68312200219954FB683222002199542F
:10183000FB68332200219954FB681B682722BC18DF
:1018400018000D4B984703002370154A2723FB18F7
:101850001B7811001800134B98472723FB181A78A0
:10186000114B9200F968D1503B23FB181B781800EC
:10187000BD4613B090BDC0460D12000075120000A9
:101880005D120000AD3B0000F13B0000C50F000001
:101890005D130000D112000051100000993E0000BD
:1018A000B11B00005D3200007801002080B584B0DB
:1018B00000AF78600A00BB1C1A807B681B68FB6065
:1018C0007B68DB7901225340DBB2002B01D01C2363
:1018D00017E07B68DB8D9BB2002B01D0052310E065
:1018E0007B681800094B9847FB68BA1C12881A8558
:1018F000C046FB681B7EDBB21A0002231340F8D0FF
:1019000000231800BD4604B080BDC0463913000056
:1019100080B58AB000AFF860B960BB1D1A80BB1DEE
:101920001B88002B01D117237EE0FB68DB790122A5
:101930005340DBB2002B01D01C2375E0FB681B6811
:101940007B61FB6818003A4B98472623FB1800225E
:101950001A8048E000233B620FE07B691B7EDBB20C
:101960001A00012313400DD13B6A324A934201D140
:10197000122359E03B6A01333B623B6A2D4A934292
:10198000EBD900E0C0462623FB181B882622BA1894
:10199000591C11801A00BB689B181A781E23FB186B
:1019A0001A80FB685B79012B15D12623FB181B8855
:1019B0002622BA18591C11801A00BB689B181B7884
:1019C0001B021AB21E23FB1800215B5E13431AB2DE
:1019D0001E23FB181A801E23FB181A88FB681100AF
:1019E0001800154B9847BB1D1B88BA1D591E118046
:1019F000002BAFD10023BB610FE07B691B7EDBB204
:101A00001A00022313400DD1BB690A4A934201D147
:101A1000122309E0BB690133BB61BB69054A9342EC
:101A2000EBD900E0C04600231800BD460AB080BDD7
:101A300039130000FFFF0000AD18000080B500AFB3
:101A4000024B9847C046BD4680BDC046A933000042
:101A500080B500AF024B9847C046BD4680BDC0462A
:101A6000FD33000080B584B000AF78607B681B68F0
:101A7000FB60FB68DB695A1E9341DBB21800BD4670
:101A800004B080BD80B582B000AF7860C0467B688E
:101A90001800044B9847031EF9D1C046BD4602B05A
:101AA00080BDC046651A000080B586B000AFF86002
:101AB000B960BB1D1A80FB681B687B61164B984799
:101AC000FB689B8D9BB2002B03D0144B98470523DA
:101AD0001EE0FB68BA1D12889A85104B9847FB6878
:101AE000BA685A62FB683222052199547B69042244
:101AF0009A75FB681B7A002B02D07B6920229A75AD
:101B0000FB685B7A002B02D07B6908229A75002360
:101B10001800BD4606B080BD3D1A0000511A0000F5
:101B200080B584B000AFF860B960FB1D1A70FB1D72
:101B30001B78FA6802339B00D3180433BA681A6022
:101B4000FB6830229B5C5AB2FB1D1B780121994037
:101B50000B005BB213435BB2D9B2FB6830229954DD
:101B6000C046BD4604B080BD80B584B000AFF8600B
:101B7000B960BB1D1A80BB1D1B88002B01D1172328
:101B800010E0FB689B7901225340DBB2002B01D0AF
:101B90001C2307E0BB1D1A88B968FB681800034BBB
:101BA000984703001800BD4604B080BDA91A000084
:101BB00080B588B000AF0200FB1D1A70FB1D1A78BB
:101BC000A34B9200D358BB61BB691B687B61BB69A7
:101BD0001800A04B98477B691B7EDAB21223FB18D2
:101BE0001A807B699B7DDBB29AB21223FB1812210B
:101BF000791809880A401A80BB6930229B5CBA694F
:101C00003121525C1340DAB21023FB181A801223E0
:101C1000FB181B880122134044D0BB69DB8D9BB2AB
:101C2000002B3CD0BB699B6A1B78DAB21C23FB18E3
:101C30001A80BB699B6A5A1CBB699A62BB695B7953
:101C4000012B13D1BB699B6A1B78DBB21B021AB252
:101C50001C23FB1800215B5E13431AB21C23FB18E4
:101C60001A80BB699B6A5A1CBB699A621C23FB18C9
:101C70001B88DB05DB0D9AB27B691A85BB69DB8D9E
:101C80009BB2013B9BB2BA69191CD185002B09D1CB
:101C90007B6901221A757B6902229A7502E07B69D1
:101CA00001221A751223FB181B880222134011D03F
:101CB0007B6902221A75BB693322002199541023D3
:101CC000FB181B880122134004D0BB69DB68BA698A
:101CD000100098471223FB181B880422134000D1E0
:101CE000BDE0BB699B8D9BB2002B00D1B4E07B694A
:101CF0005B8B9BB2DAB21F23FB183F210A401A709C
:101D00001F23FB181B780822134007D01F23FB1842
:101D10001F22BA18127808218A431A701F23FB1851
:101D20001B78002B50D01F23FB181B780222134076
:101D300007D0BB6932221A2199547B6902225A8347
:101D400036E01F23FB181B780422134007D0BB6921
:101D500032221E2199547B6904225A8328E01F23D2
:101D6000FB181B780122134007D0BB6932221321D4
:101D700099547B6901225A831AE01F23FB181B78B0
:101D80001022134007D0BB693222422199547B694B
:101D900010225A830CE01F23FB181B7820221340CB
:101DA00006D0BB693222412199547B6920225A8393
:101DB0001023FB181B880422134050D0BB695B69B9
:101DC000BA69100098474AE07B691B8D9AB20E23CE
:101DD000FB18D205D20D1A80BB695B6A0E22BA18B5
:101DE0001288D2B21A70BB695B6A5A1CBB695A620C
:101DF000BB695B79012B0DD1BB695B6A0E22BA18F6
:101E00001288120A92B2D2B21A70BB695B6A5A1C6B
:101E1000BB695A62BB699B8D9BB2013B9BB2BA699D
:101E2000191C9185002B1AD17B6904221A75BB6994
:101E30003222002199541023FB181B8802221340E0
:101E40000DD0BB691B69BA691000984707E0C0460E
:101E500078010020851A00007B6904221A7512237C
:101E6000FB181B881022134010D07B6910221A75B2
:101E70007B6910221A761023FB181B88102213404E
:101E800004D0BB69DB69BA69100098471223FB18BC
:101E90001B882022134010D07B6920221A757B6991
:101EA00020221A761023FB181B880822134004D026
:101EB000BB699B69BA69100098471223FB181B88FD
:101EC0000822134010D07B6908221A757B6908220A
:101ED0001A761023FB181B882022134004D0BB69FC
:101EE0001B6ABA6910009847C046BD4608B080BD5D
:101EF00080B582B000AF78607B6880221A707B6802
:101F000000225A707B6801229A707B680022DA7086
:101F1000C046BD4602B080BD80B584B000AF0200AF
:101F2000FB1D1A700F23FB18FA1D1278D2091A70C4
:101F30000E23FB18FA1D127852091A700D4BBB6064
:101F40000F23FB181B78002B0FD10F23FB181B78D6
:101F50009B0010229446BC446344083B1A680E233D
:101F6000FB181B78DB01D31800E000231800BD46E6
:101F700004B080BD0044004180B582B000AF0200D3
:101F8000FB1D1A70FB1D1B781800034B98470300BC
:101F90001800BD4602B080BD191F000080B584B096
:101FA00000AF0200FB1D1A70BB1D0A1C1A70FB1D3E
:101FB0001B7818000D4B98470300FB60FB1D1B7836
:101FC0001F22134001229A401300BB60BB1D1B78E7
:101FD000002B03D0FB68BA689A6102E0FB68BA681C
:101FE0005A61C046BD4604B080BDC046791F00009E
:101FF00080B582B000AF78607B6800221A70C0465E
:10200000BD4602B080BD000080B582B000AF0200C6
:102010003960FB1D1A70FB1D1B78012B0AD0022BA7
:102020000FD0002B14D10E4B0D4A91693A680A4328
:102030009A610FE00A4B0A4AD1693A680A43DA61A9
:1020400008E0074B064A116A3A680A431A6201E03F
:10205000172300E000231800BD4602B080BDC04633
:102060000004004080B500AF054B9B78DBB21A003E
:10207000022313405A1E9341DBB21800BD4680BDB7
:102080000020004180B584B000AF78607B681B6899
:10209000FB60FB681B7EDBB21A00022313405A1E52
:1020A0009341DBB21800BD4604B080BD80B584B05A
:1020B00000AF78607B681B68FB60FB681B7EDBB24F
:1020C0001A00012313405A1E9341DBB21800BD468B
:1020D00004B080BD80B584B000AF78607B681B68B9
:1020E000FB60FB681B7EDBB21A00042313405A1E00
:1020F0009341DBB21800BD4604B080BD80B584B00A
:1021000000AF78600A00BB1C1A807B681B68FB600C
:102110007B6818000A4B984703001A0001235340BC
:10212000DBB2002B01D0052306E0BB1C1B88DB05BE
:10213000DA0DFB689A6200231800BD4604B080BD2A
:10214000AD20000080B584B000AF786039607B6856
:102150001B68BB607B6818001B4B984703001A0084
:1021600001235340DBB2002B01D0102327E00F23C3
:10217000FB1800221A70BB685B8B9BB21A00042309
:10218000134006D00F23FB181E221A70BB680422CE
:102190005A837B689B79012B08D1BB689B6A9BB2F1
:1021A000DB05DB0D9AB23B681A8005E0BB689B6AD1
:1021B000DBB29AB23B681A800F23FB181B78180019
:1021C000BD4604B080BDC046D520000080B584B0B7
:1021D00000AF78607B681B68FB60FB6802221A76A0
:1021E000C046BD4604B080BD90B593B000AF7860E6
:1021F00039607B681B687B637B681B683B631C23BF
:10220000FB181800854B98471C23FB1800225A70B6
:102210003B681B78002B03D11C23FB1800229A700B
:102220003B689A6A0C23FB181A603B68DA6A0C2335
:10223000FB185A603B681A6B0C23FB189A603B68CA
:102240005A6B0C23FB18DA604723FB1800221A7024
:102250002CE04723FB181A780C23FB189200D35864
:102260003B643B6C002B09D14723FB181A783B6B6E
:10227000110018006A4B984703003B643B6C013324
:102280000DD03B6CDAB21C23FB181A703B6C1B0C94
:10229000DBB21C22BA1811001800624B9847472382
:1022A000FB181A784723FB1801321A704723FB18D2
:1022B0001B78032BCDD93B681A787B685A713B6831
:1022C0001A7C7B689A713B689A7C7B68DA713B6800
:1022D0001A7D7B681A720A23FB1800221A800023D9
:1022E000FB630023BB633B681B78012B29D17B6810
:1022F0001B6818004C4B98470300FB62FB6A1433C1
:10230000BB62BB6ADBB21800484B984703007B6294
:102310003B689B692322BC180A22BA18796A180004
:10232000434B9847030023702323FB181B78002B93
:1023300001D017236DE00A23FB181B88DAB27B6BF0
:102340001A733B681B78002B1AD13B689B69FB63AF
:102350003B689B8BBB637B6B5B6A3A68927F110027
:102360003A68D27F12040A431A437B6B5A623B6875
:1023700020229B5C002B03D0BB6B40221343BB632A
:102380003B685B68FA6B1343FB633B689B68FA6BC3
:102390001343FB633B68DB68FA6B1343FB633B68E7
:1023A0001B7C1A00BB6B1343BB633B685B7C002B3D
:1023B00003D1204B9847031E03D0FB6B80221343AD
:1023C000FB633B689B7C002B04D0BB6B802292029A
:1023D0001343BB633B68DB7C002B04D0BB6B8022C8
:1023E00092001343BB633B681B7D002B04D0BB6B87
:1023F000802292011343BB637B6B1A68FB6B1A4309
:102400007B6B1A607B6B5A68BB6B1A437B6B5A60A1
:1024100000231800BD4613B090BDC046F11E000059
:1024200051100000993E00000D120000D13C000048
:10243000870D00006520000090B58BB000AFF860FC
:10244000B9607A60FB68BA681A60FB681B683B6217
:102450003B6A1B680222134001D01C23A6E03B6AA2
:102460001B680122134001D005239FE0FB681B6815
:102470001800504B98470300FB61FB690233BB61B6
:10248000FB6914337B610122BB699A401300190078
:102490000220494B98471023FB181800474B9847D8
:1024A0007B6824229A5C1023FB181A707B69DBB2CC
:1024B0001022BA1811001800414B98477B69DBB213
:1024C0001800404B98477B6824229B5C0021180031
:1024D0003D4B98477B681B78012B05D13B6A1B68F5
:1024E0000C221A433B6A1A607B681B78002B05D1CB
:1024F0003B6A1B6808221A433B6A1A602723FB18B1
:1025000000221A7010E02723FB181B78FA680233A8
:102510009B00D318043300221A602723FB181A7873
:102520002723FB1801321A702723FB181B78062B70
:10253000E9D9FB680022DA62FB6800229A62FB6834
:1025400000229A86FB6800221A86FB683622002148
:102550009954FB68372200219954FB6838220021E6
:102560009954FB6803225A72FB6800221A71FB68B7
:102570001B681322BC1818000E4B984703002370E9
:10258000124A1323FB181B7811001800104B9847B0
:102590001323FB181A780F4B9200F968D1507A6810
:1025A000FB68110018000C4B984703001800BD464B
:1025B0000BB090BD0D12000009200000F11F0000BB
:1025C000AD3B0000F13B0000C50F00003D2F0000B7
:1025D0005D32000078010020E921000080B586B05E
:1025E00000AFF860B960FB1D1A70FB685B79012BC6
:1025F00001D015235CE0FB681B7A01225340DBB25B
:10260000002B54D0FB1D1B78002B4AD0BB685B7895
:10261000002B3FD0FB681800274B984703001A0097
:1026200001235340DBB2002B07D0BB681B7801218C
:102630001800224B984705233AE0BB681B7800211D
:1026400018001E4B9847BB689B789AB2FB68110034
:1026500018001B4B9847FB68DB7901225340DBB223
:10266000002B24D0C046FB681800164B9847030087
:102670001A0001235340DBB2002BF4D11623FB18C0
:1026800000221A801623FA18FB68110018000E4B5E
:1026900098470CE0BB681B7800211800074B98474F
:1026A00005E0BB681B7801211800044B9847002304
:1026B0001800BD4606B080BDAD2000009D1F000083
:1026C000FD200000D52000004521000080B58AB023
:1026D00000AFF860B960BB1D1A80FB6838229B5CB4
:1026E000DBB2052B01D1052370E1BB1D1B88002B3C
:1026F00001D117236AE1FB685B79002B09D1FB68E4
:102700001800B44B9847031E03D0FB681800B24B67
:1027100098472623FB1800221A802423FB18BA1D91
:1027200012881A80FEE0FB685B79002B2AD1002317
:102730003B6208E0FB681800A84B9847031E07D1CE
:102740003B6A01333B623B6AA54A9342F2D900E0FF
:10275000C046FB6818009F4B9847031E05D0FB68D6
:1027600018009D4B9847042330E1FB6818009B4BF1
:10277000984703001A0001235340DBB2002B01D01D
:10278000122323E1C046FB681800944B98470300CE
:102790001A0001235340DBB2002BF4D12623FB188F
:1027A0001B882622BA18591C11801A00BB689B1876
:1027B0001A781E23FB181A80FB689B79012B15D110
:1027C0002623FB181B882622BA18591C11801A00D0
:1027D000BB689B181B781B021AB21E23FB18002132
:1027E0005B5E13431AB21E23FB181A801E23FB18CC
:1027F0001A88FB68110018007A4B9847FB68DB7950
:102800002422BA182421791809881180002B00D1BC
:1028100088E0FB685B79002B00D069E00023BB6196
:1028200047E0BB1D1B88002B3AD0FB6818006B4BA0
:102830009847031E34D02623FB181B882622BA187B
:10284000591C11801A00BB689B181A781E23FB18AC
:102850001A80FB689B79012B15D12623FB181B8856
:102860002622BA18591C11801A00BB689B181B78C5
:102870001B021AB21E23FB1800215B5E13431AB21F
:102880001E23FB181A801E23FB181A88FB681100F0
:102890001800544B9847BB1D1A88BB1D013A1A807B
:1028A000FB681800504B9847031E07D1BB690133E2
:1028B000BB61BB694A4A9342B3D900E0C046FB689A
:1028C0001800444B9847031E05D0FB681800424B84
:1028D000984704237AE0FB681800434B98470300AD
:1028E0001A0001235340DBB2002B01D012236DE00C
:1028F000C046FB6818003C4B984703001A000123B0
:102900005340DBB2002BF4D11223FA18FB681100FC
:102910001800364B98472423FB181A882423FB18E9
:10292000013A1A80BB1D1B88BA1D591E1180002B4D
:1029300000D0F8E6FB685B79012B0BD1C046FB6841
:102940001800244B984703001A0001235340DBB2C0
:10295000002BF4D1FB685B79002B36D1FB68DB7967
:10296000002B32D02CE000237B6108E0FB681800CC
:102970001D4B9847031E07D17B6901337B617B693F
:10298000174A9342F2D900E0C046FB681800164B84
:10299000984703001A0001235340DBB2002B01D0FB
:1029A000122313E01023FA18FB68110018000F4BD4
:1029B00098472423FB181A882423FB18013A1A800D
:1029C0002423FB181B88002BCDD100231800BD4603
:1029D0000AB080BD85200000CD210000AD200000A0
:1029E00010270000FD200000D52000004521000038
:1029F00090B58DB000AFF860B9607A601A00BB1C6A
:102A00001A80FB6838229B5CDBB2052B01D10523C1
:102A1000E3E1BB1C1B88002B01D11723DDE1FB6820
:102A2000DB7901225340DBB2002B01D01C23D4E11F
:102A3000FB685B79002B09D1FB681800CA4B9847EB
:102A4000031E03D0FB681800C84B98472E23FB18C1
:102A500000221A802C23FB1800221A802A23FB183C
:102A6000BA1C12881A8023E1FB685B79002B2AD1FB
:102A700000237B6208E0FB681800BD4B9847031EEB
:102A800007D17B6A01337B627B6ABA4A9342F2D9EF
:102A900000E0C046FB681800B34B9847031E05D002
:102AA000FB681800B14B9847042396E1FB681800B7
:102AB000AF4B984703001A0001235340DBB2002BB1
:102AC00001D0122389E1C046FB681800A84B984743
:102AD00003001A0001235340DBB2002BF4D12E2354
:102AE000FB181B882E22BA18591C11801A00BB68CB
:102AF0009B181A782223FB181A80FB689B79012BFC
:102B000015D12E23FB181B882E22BA18591C1180B0
:102B10001A00BB689B181B781B021AB22223FB18F1
:102B200000215B5E13431AB22223FB181A80222372
:102B3000FB181A88FB68110018008F4B9847FB6838
:102B40005B79002B65D10023FB6143E0FB68180033
:102B5000874B9847031E34D02E23FB181B882E2248
:102B6000BA18591C11801A00BB689B181A782223C6
:102B7000FB181A80FB689B79012B15D12E23FB18BB
:102B80001B882E22BA18591C11801A00BB689B188A
:102B90001B781B021AB22223FB1800215B5E134331
:102BA0001AB22223FB181A802223FB181A88FB680A
:102BB00011001800704B9847BB1C1A88BB1C013AC7
:102BC0001A80FB6818006D4B9847031E07D1FB69FC
:102BD0000133FB61FB69674A9342B7D900E0C04605
:102BE000FB681800604B9847031E05D0FB6818006F
:102BF0005E4B98470423F0E0FB6818005F4B984752
:102C000003001A0001235340DBB2002B01D0122332
:102C1000E3E0C046FB681800584B984703001A00D1
:102C200001235340DBB2002BF4D11423FB18002204
:102C30001A802A23FB181A882A23FB18013A1A80C3
:102C40001723FC181423FA18FB68110018004C4BCA
:102C50009847030023701723FB181B78002B03D021
:102C60001723FB181B78B8E02C23FB181B882C2299
:102C7000BA18591C11801A007B689B181422BA18C4
:102C80001288D2B21A70FB689B79012B10D12C23C9
:102C9000FB181B882C22BA18591C11801A007B685B
:102CA0009B181422BA181288120A92B2D2B21A7061
:102CB000BB1C1B88BA1C591E1180002B00D0D3E608
:102CC000FB685B79012B0BD1C046FB681800264BD3
:102CD000984703001A0001235340DBB2002BF4D1C4
:102CE000FB685B79002B00D076E06FE00023BB61CE
:102CF00008E0FB681800214B9847031E07D1BB6909
:102D00000133BB61BB691B4A9342F2D900E0C04664
:102D1000FB681800194B984703001A000123534021
:102D2000DBB2002B01D0122357E01223FB18002244
:102D30001A802A23FB181A882A23FB18013A1A80C2
:102D40001623FC181223FA18FB68110018000C4B0C
:102D50009847030023701623FB181B78002B11D013
:102D60001623FB181B7838E085200000CD210000D9
:102D7000AD20000010270000FD200000D52000003D
:102D8000452100002C23FB181B882C22BA18591C43
:102D900011801A007B689B181222BA181288D2B2CE
:102DA0001A70FB689B79012B10D12C23FB181B8810
:102DB0002C22BA18591C11801A007B689B18122209
:102DC000BA181288120A92B2D2B21A702A23FB18C9
:102DD0001B88002B00D089E700231800BD460DB0EA
:102DE00090BDC04680B584B000AF78607B681B683A
:102DF000BB607B68DB6A1B78DAB20E23FB181A8093
:102E00007B68DB6A5A1C7B68DA627B689B79012BE2
:102E100013D17B68DB6A1B78DBB21B021AB20E236C
:102E2000FB1800215B5E13431AB20E23FB181A80B5
:102E30007B68DB6A5A1C7B68DA620E23FB181B88EE
:102E4000DB05DA0DBB689A627B689B8E9BB2013B07
:102E50009AB27B689A86C046BD4604B080BD000029
:102E600080B584B000AF78607B681B68FB60084B5E
:102E70001B881A00FB689A627B685B8E9BB2013BE1
:102E80009AB27B685A86C046BD4604B080BDC04633
:102E90007401002080B584B000AF78607B681B6847
:102EA000FB600A23FB1800221A80FB689A6A0A2337
:102EB000FB181A807B685B8E9BB2013B9AB27B68E1
:102EC0005A86C046BD4604B080BD80B584B000AF10
:102ED00078607B681B68FB60FB689B6A9AB20A2378
:102EE000FB18D205D20D1A807B689B6A0A22BA1899
:102EF0001288D2B21A707B689B6A5A1C7B689A62ED
:102F00007B689B79012B0DD17B689B6A0A22BA18DA
:102F10001288120A92B2D2B21A707B689B6A5A1C4B
:102F20007B689A627B681B8E9BB2013B9AB27B687E
:102F30001A86C046BD4604B080BD000080B586B08C
:102F400000AF0200FB1D1A70FB1D1A78B94B9200EE
:102F5000D3587B617B691B683B617B6937229A5C34
:102F60007B693621595C0F23FB180A401A703B69B4
:102F70001B7EDAB20C23FB181A803B699B7DDBB207
:102F80009AB20C23FB180C21791809880A401A8080
:102F90000C23FB181B880122134041D07B695B790D
:102FA000012B10D17B695B7ADBB2002B0BD17B69E3
:102FB0001800A14B98477B695B8E9BB2002B02D116
:102FC0003B6901221A757B695B79012B04D17B690E
:102FD0005B7ADBB2002B08D17B695B79002B1FD1B8
:102FE0007B695B7ADBB2002B1AD07B691800934BAC
:102FF00098477B699B8E9BB2002B11D13B690122C4
:103000001A757B695B7ADBB2012B09D17B69DB79AD
:1030100001225340DBB2002B02D03B6902229A7599
:103020000C23FB181B880422134000D17EE03B696F
:103030005B8B9BB21A000423134022D07B695B7A1E
:10304000DBB2012B14D07B6938221E2199547B6995
:1030500003225A723B6905221A750F23FB181B784D
:103060000822134004D07B699B697A691000984755
:103070003B699A6A0A23FB181A803B6904225A8327
:1030800054E07B695B7ADBB2012B1ED17B691800AF
:103090006B4B98477B695B8E9BB2002B46D13B699B
:1030A00004221A757B693822002199547B69032216
:1030B0005A720F23FB181B780122134036D07B690C
:1030C000DB687A691000984730E07B6918005D4B37
:1030D00098477B691B8E9BB2002B27D17B693822D6
:1030E000002199543B6904221A757B695B7ADBB233
:1030F000022B0BD10F23FB181B780422134015D091
:103100007B695B697A69100098470FE07B695B7A9D
:10311000DBB2002B0AD10F23FB181B7802221340CD
:1031200004D07B691B697A69100098470C23FB184F
:103130001B880222134046D07B695B79002B1DD18E
:103140003B6907221A753B6902221A767B690322C2
:103150005A727B6900229A867B6900221A867B69F3
:103160003822002199540F23FB181B78102213409A
:1031700004D07B69DB697A69100098477B695B79C9
:10318000012B20D17B695B7ADBB2012B1BD17B69E0
:10319000DB7901225340DBB2002B14D03B690222C1
:1031A0001A757B6903225A727B693822002199546F
:1031B0000F23FB181B780122134004D07B69DB68C6
:1031C0007A69100098470C23FB181B8808221340CB
:1031D00014D07B695B79002B10D13B6908221A75EA
:1031E0003B6908221A760F23FB181B782022134014
:1031F00004D07B691B6A7A69100098470C23FB187E
:103200001B888022134010D03B6980221A753B69CD
:1032100080221A760F23FB181B784022134004D01B
:103220007B695B6A7A6910009847C046BD4606B064
:1032300080BDC04678010020612E0000E52D000011
:10324000952E0000CB2E000080B582B000AF0200AA
:10325000FB1D1A70C046BD4602B080BD80B584B06B
:1032600000AF02003960FB1D1A70134B1B7801225E
:103270005340DBB2002B15D00023FB600CE00F4B5A
:10328000FA6892000E49D1500E4BFA689200002164
:10329000D150FB680133FB60FB68052BEFD9064B6F
:1032A00001221A70FB1D1A78044B92003968D15024
:1032B000C046BD4604B080BDFA000020FC000020DE
:1032C000493200007801002090B585B000AF7860E9
:1032D0000823FB180B4A1168196092889A800F2303
:1032E000FC187B681800084B9847030023700F23D5
:1032F000FB181B780822BA18D35C5BB21800BD46D5
:1033000005B090BD0C4600000D12000080B500AF66
:10331000034B1B6800209847C046BD4680BDC04691
:10332000FC00002080B500AF034B5B68012098478C
:10333000C046BD4680BDC046FC00002080B500AF41
:10334000034B9B6802209847C046BD4680BDC046DF
:10335000FC00002080B500AF034BDB6803209847DA
:10336000C046BD4680BDC046FC00002080B500AF11
:10337000034B1B6904209847C046BD4680BDC0462C
:10338000FC00002080B500AF034B5B690520984727
:10339000C046BD4680BDC046FC00002080B500AFE1
:1033A000C046BD4680BD000080B582B000AF104B66
:1033B0001B68002B12D1EFF310837B607B68002B1E
:1033C00009D172B6BFF35F8F0A4B00221A700A4B05
:1033D00001221A7002E0084B00221A70044B1B688D
:1033E0005A1C034B1A60C046BD4602B080BDC046A1
:1033F00014010020180000201801002080B500AF43
:103400000B4B1B685A1E0A4B1A60094B1B68002B9A
:103410000AD1084B1B78DBB2002B05D0064B0122EA
:103420001A70BFF35F8F62B6C046BD4680BDC0460E
:1034300014010020180100201800002080B582B07F
:1034400000AF78607B6801225A607B6800225A7066
:103450007B6806221A707B6800221A727B68002241
:103460005A72C046BD4602B080BD80B582B000AF82
:1034700078607B6803221A707B6800225A707B6830
:1034800001229A70C046BD4602B080BD80B582B0B0
:1034900000AF0200FB1D1A70034AFB1D1B7813725C
:1034A000C046BD4602B080BD0004004080B582B079
:1034B00000AF0200FB1D1A70BB1D0A1C1A70FB1D19
:1034C0001B78012B08D0022B0BD0002B0ED10B4AFE
:1034D000BB1D1B7853720BE0084ABB1D1B7893720F
:1034E00006E0064ABB1D1B78D37201E0172300E0FB
:1034F00000231800BD4602B080BDC0460004004055
:1035000080B582B000AF0200FB1D1A70084AFB1D97
:103510001B780F210B40D9B253680F20014049009E
:103520001E2083430B435360C046BD4602B080BD9E
:103530000040004180B500AFC046044BDB6810225C
:103540001340FAD0C046BD4680BDC04600080040CA
:1035500080B500AF0C4B02229A840C4B98470A4A64
:103560000B4B9B68D362084A094B5B689362064B1E
:1035700000229A84054B9847034A054B1B689BB26F
:103580009384C046BD4680BD00080040353500002C
:103590001C01002080B582B000AF0200FB1D1A7034
:1035A000FB1D1B78082B40D89A00224BD3181B68B0
:1035B0009F46214B1B6939E0204B1B6A9B059B0FE3
:1035C000DBB21A001E4BD34030E080231B022DE0FB
:1035D00080231B022AE0184B5B6927E0164B1B680F
:1035E0000222134001D1002320E0164B9847124BD2
:1035F0001B680422134009D00020134B9847020097
:103600000D4B9B681B041B0C53430FE00F4B0DE04D
:103610000A4A5023D35CDBB21A000423134001D1C1
:10362000002303E0044BDB6800E000231800BD46E4
:1036300002B080BD144600001C01002000080040BC
:1036400000127A0035350000D13C0000006CDC022D
:1036500080B584B000AF78601A4B1B6AFB607B6852
:103660001B781A1C03231340DAB20D23FB18032125
:103670000A4010001A7803218A43111C021C0A43D5
:103680001A707B689A780C23FB18D0011A787F2176
:103690000A40111C021C0A431A707B685A780C23DA
:1036A000FB1801210A4090011A7840218A43111C1D
:1036B000021C0A431A70034BFA681A62C046BD46E0
:1036C00004B080BD0008004080B582B000AF0200A9
:1036D000FB1D1A70FB1D1B78082B3BD89A00214B51
:1036E000D3181B689F46204B1F4A126A02210A43C7
:1036F0001A62002331E01C4B1B4A926902210A43E3
:103700009A6129E0184A184B1B8A9BB202210B438D
:103710009BB2138220E0144A134B9B8A9BB2022176
:103720000B439BB2938217E0104B1B6802221A4393
:103730000E4B1A600E4B98470EE00B4A0A49442381
:10374000CB5CDBB202210B43D9B24423D15403E05A
:10375000002302E0172300E000231800BD4602B05A
:1037600080BDC04638460000000800401C01002013
:103770005135000080B582B000AF3B0001221A70C5
:1037800000237B6009E07B68DBB23A00110018007F
:10379000054B98477B6801337B607B68242BF2D90B
:1037A000C046BD4602B080BDAD3B000080B5A0B0B4
:1037B00000AF274BC222D2009A600020254B9847C9
:1037C000254B98477C23FB181800244B98477C23F3
:1037D000FB1800221A707C23FB1801229A707C23AC
:1037E000FB1800225A707C23FB1818001C4B9847CA
:1037F00006201C4B98471C4B984700201B4B9847B2
:10380000002100201A4B984700210120184B9847AF
:1038100000210220164B98473B1D1800154B984776
:103820003B1D06221A703B1D01225A603B1D0022DF
:103830001A723B1D00225A723B1D190000200E4BCC
:10384000984700200D4B9847C046BD4620B080BD2C
:103850000008004001350000753700006B3400009F
:1038600051360000C9360000253900008D340000B3
:10387000AD3400003D34000055390000793A0000B5
:1038800080B582B000AF02003960FB1D1A70FB1DCD
:103890001B78012B0AD0022B0FD0002B14D10E4B1A
:1038A0000D4A91693A680A439A610FE00A4B0A4A45
:1038B000D1693A680A43DA6108E0074B064A116A9F
:1038C0003A680A431A6201E0172300E00023180057
:1038D000BD4602B080BDC0460004004080B500AFC8
:1038E000024B9847C046BD4680BDC046A933000084
:1038F00080B500AF024B9847C046BD4680BDC0466C
:10390000FD33000080B500AF054B5B78DBB25BB2E6
:10391000002B01DA012300E000231800BD4680BD22
:10392000000C004080B500AF08210020074B9847ED
:10393000074B01221A70C046054B1B78DBB21A00F8
:1039400001231340F8D1C046BD4680BD8138000038
:10395000000C004080B586B000AF02003960FB1D4E
:103960001A70FB1D1B787B61FB1D1B783B613B685C
:103970001B781B021A007B6913437B613B685B78F1
:10398000002B04D07B698022D20213437B613B6809
:103990005B7A002B04D07B698022120313437B6186
:1039A0003B685B68012B2CD93B685A683B685B68B5
:1039B000013B13401AD10023FB600223BB6005E0EA
:1039C000FB680133FB60BB685B00BB603B685A6807
:1039D000BB689A42F4D8FB681B023A6913433B6107
:1039E0007B698022520313437B610AE03B685B687A
:1039F0001B023A6913433B617B69802292021343A5
:103A00007B613B681B7A002B04D07B698022920388
:103A100013437B61C046134B9847031EFBD1124BE7
:103A20009847124AFB1D1B781370C0460D4B9847F0
:103A3000031EFBD10E4B3A699A60C046094B98476A
:103A4000031EFBD10A4B0A4A5168802252021140E0
:103A50007A690A435A60074B9847C046BD4606B08C
:103A600080BDC04605390000DD380000080C00406C
:103A7000000C0040F138000080B582B000AF0200B9
:103A8000FB1D1A70C0460E4B9847031EFBD10D4B11
:103A900098470D4AFB1D1B781370C046084B98478A
:103AA000031EFBD1094B094A5268802149020A438F
:103AB0005A60074B9847C046BD4602B080BDC0461D
:103AC00005390000DD380000040C0040000C004007
:103AD000F138000080B586B000AF0200FB1D1A70FF
:103AE000C0462A4B9847031EFBD1294B9847294AC9
:103AF000FB1D1B781370C046244B9847031EFBD157
:103B0000254B5B68DB04DB0EDBB21800234B9847C8
:103B100003007B611F4AFB1D1B7813701E4B5B6803
:103B2000DB02DB0FDAB21323FB181A701C4AFB1DF1
:103B30001B781370C046154B9847031EFBD1164BDC
:103B40009B681B021B0C9BB2FB60164B9847132310
:103B5000FB181B78002B09D1FB68012B06D9124BEF
:103B6000F9687869984703007B610AE01323FB1822
:103B70001B78002B05D0FB6801337A69DA4013000B
:103B80007B617B691800BD4606B080BD0539000029
:103B9000DD380000040C0040000C004095350000AA
:103BA000080C0040F13800005943000080B584B093
:103BB00000AF02003960FB1D1A70FB1D1B78FB6013
:103BC0003B681B781B021A00FB681343FB60FB1D5C
:103BD0001B781800044B9847044BFA6892B25A803D
:103BE000C046BD4604B080BD393C0000000C00401A
:103BF00080B582B000AF0200FB1D1A700A4B9847D7
:103C00000A4AFB1D1B7813700949094B5B889BB25C
:103C10008022D20113439BB24B80064B9847C0468B
:103C2000BD4602B080BDC046DD380000020C004039
:103C3000000C0040F138000080B584B000AF0200F5
:103C4000FB1D1A701C4B98471C4AFB1D1B781370F8
:103C50001B4B5B881B051B0FDBB2FB60184A5388AC
:103C600018490B405380164A154B5B889BB2164986
:103C70000B409BB25380C046114B5B889BB21A002D
:103C80008023DB011340F7D10D4AFB68DBB2191C1E
:103C90000F230B40D9B25388081C0F2101400802A2
:103CA00008490B40191C031C0B435380074B9847D2
:103CB000C046BD4604B080BDDD380000020C0040A7
:103CC000000C0040FFF0FFFFFFBFFFFFF1380000D6
:103CD00080B584B000AF0200FB1D1A700D4B9847F1
:103CE0000D4AFB1D1B7813700C4B5B881B051B0FCB
:103CF000DAB20F23FB181A70094B98470F23FB18F1
:103D00001B781800074B984703001800BD4604B005
:103D100080BDC046DD380000020C0040000C0040B1
:103D2000F1380000D53A000080B584B000AF020041
:103D3000FB1D1A700F23FB18FA1D1278D2091A7096
:103D40000E23FB18FA1D127852091A700D4BBB6036
:103D50000F23FB181B78002B0FD10F23FB181B78A8
:103D60009B0010229446BC446344083B1A680E230F
:103D7000FB181B78DB01D31800E000231800BD46B8
:103D800004B080BD0044004180B588B000AFF86049
:103D9000B9607A600023FB617B68DB7801225340C5
:103DA000DBB2002B35D07B681B78802B0BD0FB69F6
:103DB000802252021343FB617B681B781B061A00AA
:103DC000FB691343FB617B685B78002B03D07B6846
:103DD0005B78022B10D1FB69802292021343FB61B6
:103DE0007B689B78002B04D0FB698022D2021343AE
:103DF000FB61FB68BA685A607B685B78012B03D073
:103E00007B685B78022B07D1FB69224A1340FB6178
:103E100002E0FB68BA685A60BB681B041B0CBB61FC
:103E2000BB681B0C7B61BA69FB691343A022D205F6
:103E30001A43FB689A627A69FB691343D02212061F
:103E40001A43FB689A627B68DB7801225340DBB23D
:103E5000002B1AD0FA698023DB0213400AD07B685A
:103E60009B78012B03D1FB68BA689A6102E0FB687A
:103E7000BA685A617B685B78012B03D07B685B78FA
:103E8000022B02D1FB68BA689A60C046BD4608B0F2
:103E900080BDC046FFFFFBFF80B584B000AF0200CD
:103EA0003960FB1D1A70FB1D1B7818000A4B9847E0
:103EB0000300FB60FB1D1B781F22134001229A4068
:103EC0001300BB603A68B968FB681800034B984759
:103ED000C046BD4604B080BD293D0000893D0000BC
:103EE00080B500AFC046BD4680BD000080B500AFC4
:103EF000064B9847064B9847064B9847064B984702
:103F0000064B9847C046BD4680BDC046AD37000051
:103F10009D330000E13E0000E13E0000E13E000074
:103F200080B582B000AF2F4B7B602F4B3B607A682F
:103F30003B689A420CD007E03B681A1D3A607A68E9
:103F4000111D796012681A603A68284B9A42F3D3BF
:103F5000274B3B6004E03B681A1D3A6000221A6060
:103F60003A68244B9A42F6D3234B7B60234B7A6802
:103F7000FF218A439A60224A90235B000221D1509C
:103F8000204AD37803218B43191C02230B43D3709F
:103F90001C4AD3780C218B43191C08230B43D37084
:103FA000194A937B30218B43191C20230B439373B5
:103FB000154A937B0C218B43191C08230B439373E5
:103FC000114A937B03218B43191C02230B439373E8
:103FD0000E4A536880210B4353600D4B98470D4B9D
:103FE0009847FEE790460000000000201C000020DB
:103FF0001C000020900100200000000000ED00E007
:104000000070004100500041004800410040004164
:10401000C54400003D41000080B500AFFEE7000050
:1040200080B582B000AF0200FB1D1A70034AFB1D71
:104030001B781372C046BD4602B080BD000400402C
:1040400080B584B000AF0200FB1D1A700F23FB186F
:10405000FA1D1278D2091A700E23FB18FA1D127875
:1040600052091A700D4BBB600F23FB181B78002BF5
:104070000FD10F23FB181B789B0010229446BC44E1
:104080006344083B1A680E23FB181B78DB01D31826
:1040900000E000231800BD4604B080BD004400418C
:1040A00080B582B000AF0200FB1D1A70FB1D1B78AB
:1040B0001800034B984703001800BD4602B080BDAE
:1040C0004140000080B582B000AF78607B6800227C
:1040D0001A707B6801225A707B6800229A70C04671
:1040E000BD4602B080BD000080B584B000AF0200C4
:1040F000FB1D1A70BB1D0A1C1A70FB1D1B781800D3
:104100000D4B98470300FB60FB1D1B781F221340DB
:1041100001229A401300BB60BB1D1B78002B03D00B
:10412000FB68BA689A6102E0FB68BA685A61C046E7
:10413000BD4604B080BDC046A140000080B582B03D
:1041400000AF3B1D0A4A12681A600A4B98470121CA
:104150002920094B98473B1D04211800074B98471D
:10416000074B9847074B1800074B9847EFE7C046A7
:104170006C4600008D410000590500002906000032
:10418000050600005C460000010A000080B500AF93
:10419000084B9847084B9847084B9847084B984757
:1041A000084B984701210620074B9847C046BD465B
:1041B00080BDC046ED3E0000CD410000F141000051
:1041C0008D04000015080000E940000080B500AF34
:1041D000044B9847044B9847044B9847C046BD464C
:1041E00080BDC046D542000001430000810B0000A5
:1041F00080B582B000AF3B1D1800334B98473B1D84
:1042000000221A703B1D01225A703B1D19000B2021
:104210002E4B98473B1D01221A703B1D19000A20A6
:104220002A4B984701210A20294B98473B1D19002A
:104230000120264B984701210120254B98473B1D23
:1042400019000620214B984701210620204B984752
:104250003B1D190007201D4B9847012107201C4BCF
:1042600098473B1D00221A703B1D01225A703B1DCE
:1042700019000F20154B98473B1D01221A703B1D5A
:1042800019000E20114B984701210E20104B984722
:104290003B1D01221A703B1D02225A703B1D012258
:1042A0001A703B1D01225A703B1D19001120074B4B
:1042B000984701211120064B98473B1D00221A7098
:1042C000C046BD4602B080BDC5400000310C0000B4
:1042D000E940000080B582B000AF3B1D00221A709B
:1042E0003B1D01229A703B1D00225A703B1D180095
:1042F000024B9847C046BD4602B080BD5136000013
:1043000080B584B000AF104B984700200F4B984702
:104310003B1D06221A703B1D00225A723B1D0022D3
:104320005A703B1D01225A603B1D00221A723B1D30
:1043300019000020064B98470020064B9847C046BE
:10434000BD4604B080BDC0462539000021400000B4
:1043500055390000793A0000002243088B4274D39B
:1043600003098B425FD3030A8B4244D3030B8B4276
:1043700028D3030C8B420DD3FF22090212BA030C7F
:104380008B4202D31212090265D0030B8B4219D360
:1043900000E0090AC30B8B4201D3CB03C01A524180
:1043A000830B8B4201D38B03C01A5241430B8B42C8
:1043B00001D34B03C01A5241030B8B4201D30B03B1
:1043C000C01A5241C30A8B4201D3CB02C01A5241D8
:1043D000830A8B4201D38B02C01A5241430A8B429B
:1043E00001D34B02C01A5241030A8B4201D30B0284
:1043F000C01A5241CDD2C3098B4201D3CB01C01A9E
:10440000524183098B4201D38B01C01A52414309A7
:104410008B4201D34B01C01A524103098B4201D395
:104420000B01C01A5241C3088B4201D3CB00C01A02
:10443000524183088B4201D38B00C01A524143087A
:104440008B4201D34B00C01A5241411A00D201469F
:10445000524110467047FFE701B5002000F006F812
:1044600002BDC0460029F7D076E770477047C046C6
:10447000F0B5CE46474615042D0C2E0080B5070436
:10448000140C3F0C9946030C7E435D436743634322
:104490007F19340CE4199C46A54203D980235B02A2
:1044A0009846C4444B46514343433604360C250CCE
:1044B00024046544A4195918491920000CBC9046DD
:1044C0009946F0BD70B500260C4D0D4C641BA41030
:1044D000A64209D1002600F0CBF80A4D0A4C641B15
:1044E000A410A64205D170BDB300EB589847013621
:1044F000EEE7B300EB5898470136F2E77C46000040
:104500007C4600007C4600008046000003008218C4
:10451000934200D1704719700133F9E70023C25C60
:104520000133002AFBD1581E7047000041540D0A88
:104530000000000041542B4E4A4D3D330D0A00004F
:1045400041542B4E413D30303131323233330D0A3C
:104550000000000041542B4E534B3D30303131327E
:104560003233333030313132323333303031313233
:1045700032333330303131323233330D0A00000000
:1045800041542B44534B3D3333323231313030338D
:104590003332323131303033333232313130303303
:1045A000333232313130300D0A00000041542B5487
:1045B0005844523D4452380D0A00000041542B54D7
:1045C00058463D3931353530303030300D0A000035
:1045D000415426570D0A000041545A0D0A000000AC
:1045E00041542B53440D0A0041542B525353490D4F
:1045F0000A00000000080042000C004200100042C7
:104600000014004200180042001C0042090A0B0C72
:104610000D0E0000B23500002A3600002A360000D8
:10462000D0350000CA350000D6350000B83500008E
:10463000DC3500001036000004370000543700005D
:104640005437000050370000F636000016370000DF
:10465000E6360000283700003A37000041542B535B
:10466000454E443D746573740D0A0000623808AA13
:10467000F8B5C046F8BC08BC9E467047DD00000097
:10468000F8B5C046F8BC08BC9E467047B5000000AF
:104690007400002000000000000000008000000006
:0C46A000401F00000800000001000000A6
:0400000300003F2199
:00000001FF
