:10000000D02100203D2500003925000039250000C1
:1000100000000000000000000000000000000000E0
:100020000000000000000000000000003925000072
:100030000000000000000000392500003925000004
:100040003925000039250000392500003925000038
:100050003925000039250000392500003925000028
:1000600039250000491F0000591F0000691F0000CA
:10007000791F00000000000000000000392500008A
:1000800039250000392500003925000039250000F8
:1000900039250000000000000000000039250000A4
:1000A00039250000392500003925000039250000D8
:1000B0000000000010B5064C2378002B07D1054B3B
:1000C000002B02D0044800E000BF0123237010BDC4
:1000D0001C00002000000000F0290000084B10B5B3
:1000E000002B03D00749084800E000BF0748036819
:1000F000002B00D110BD064B002BFBD09847F9E731
:100100000000000020000020F0290000F02900007D
:1001100000000000FF23002802D00023436083601A
:1001200058B2704770B504000D00FF20002C0DD0B0
:10013000074B9847626823689D546368E168581CC0
:10014000044B9847044B61609847002040B270BD53
:100150008D1F0000BD280000C11F0000F0B52C4E0F
:1001600091B0317800294FD1C0239B0305930D2313
:1001700001256B4402ACD9770C22264B08A82570C8
:1001800021746174A574E5742175039104919847F5
:10019000214B224FA362224B2200E36201235B42E8
:1001A0002363204B20496363204B3800A361204B1D
:1001B00098473C681F4B200098471F2318408540F4
:1001C0001D4B1D603B68DD69002DFCD102232268B8
:1001D0001820134323600124184F01A9184B4C70B9
:1001E0008D700C7038707D70BD7098473A785309E7
:1001F000D1090BD11F310A40210091400A00114959
:10020000DB015B189A61347011B0F0BDAD61FFDEA7
:10021000380000208F290000020016007C01002019
:1002200002001700020019000014004240420F00B3
:1002300099150000291F000000E100E0B80100202E
:10024000E10B00000044004137B56B469C1D0029BE
:1002500016D00E4B1843208023881A0A1B02134322
:1002600023800B4D01220B4928000B4B9847052892
:10027000F7D0210028000223084A094CA0473EBDC0
:10028000E0234004400CDB01E4E7C04600F0FFFF40
:100290007C010020B8010020951800003A000020E1
:1002A000ED1A000010B5002202490348034B98479D
:1002B00010BDC046B80100207C0100209518000048
:1002C00010B50A0000230100014C0248A04710BDF0
:1002D000A11700007C01002013B500216B46DC1D36
:1002E000D971054B984701212000044B9847044BD6
:1002F0009847207816BDC04649020000C1020000A0
:10030000A502000010B50A00024B01000248984700
:1003100010BDC0462D1900007C01002013B56B46AE
:10032000DC1DD9710121054B984701212000044BA8
:1003300098470400034B9847200016BD490200006F
:1003400005030000A502000010B5FF213320044B77
:10035000984710243320034B98472042FAD110BD10
:100360001D030000D902000070B56521FE4C02207B
:10037000A0476420FD4DA84708211020A047002178
:100380001120A04706211220A04702212120A047CA
:1003900002212220A04702212320A047022125205C
:1003A000A04702212620A04701216E20A0478020DF
:1003B00006214000A04702206621FF30A04781208F
:1003C00005214000A04704200521FF30A0478220DE
:1003D00035214000A04706205521FF30A04783204B
:1003E00000214000A04708200021FF30A0478420C2
:1003F00000214000A0470A208021FF30A04785202F
:1004000029214000A0470C208921FF30A0478620E9
:1004100022214000A0470E20C021FF30A0478720A6
:10042000DD214000A04710204021FF30A0471620CA
:100430000021FF30A0471820F421FF30A047902072
:10044000E8214000A04722208421FF30A0479220CD
:10045000AD214000A0472620A721FF30A0479320D0
:10046000C3214000A04728200F21FF30A04794203F
:100470001F214000A0472A200A21FF30A0479520D5
:100480000A214000A0472C200621FF30A0479620DB
:1004900000214000A0472E200021FF30A04730203F
:1004A0000021FF30A0479820E8214000A0473220DB
:1004B0008421FF30A047992000214000A04734202C
:1004C0000021FF30A0479A20AB214000A0473620F2
:1004D000A621FF30A0479B20C3214000A047382021
:1004E0000F21FF30A0479C201F214000A0473A2049
:1004F0000A21FF30A0479D200A214000A0473C2050
:100500000621FF30A0479E2000214000A0473E204A
:100510004B21FF30A0479F2016214000A0474020DC
:100520000021FF30A047A820FF214000A047522013
:100530008421FF30A047A92000214000A04754207B
:100540000021FF30A047AA20AA214000A047562042
:10055000A521FF30A047AB20C3214000A047582071
:100560000F21FF30A047AC201F214000A0475A2098
:100570000D21FF30A047AD200D214000A0475C2099
:100580000621FF30A047AE2000214000A0475E209A
:100590004B21FF30A047AF2016214000A04760202C
:1005A0000021FF30A047B02000214000A04762207A
:1005B0000021FF30A047B12002214000A047642065
:1005C0000C21FF30A047B22001214000A047662047
:1005D0000021FF30A047B32004214000A04768203D
:1005E000EA21FF30A047B4200F214000A0476A2035
:1005F000FF21FF30A047B5200F214000A0476C200D
:10060000FF21FF30A047B6200F214000A0476E20F9
:10061000FF21FF30A047B7200F214000A0477020E6
:10062000FF21FF30A047C0208A214000A04784203E
:100630000321FF30A047C4200F214000A0478A209B
:100640007721FF30A047802080218000A047002133
:100650004748A04704214748A047C8214648A0472B
:100660008420AA218000A047CC214448A047AA2189
:100670004348A047CC214348A04785209F218000C4
:10068000A0471F214048A047862055218000A04751
:1006900055213E48A04787208A218000A0470A2193
:1006A0003B48A047882032218000A04714213948C8
:1006B000A04732213848A047892014218000A04754
:1006C00000213648A04773213548A0478A200321DE
:1006D0008000A04735213348A047E6213248A04793
:1006E00000213248A0478C200D218000A047202106
:1006F0002F48A047CC2000218000A04700212D4892
:10070000A04700212C48A04703212C48A047F120F6
:1007100003210001A04707212948A04707212948B4
:10072000A04768212848A047FF212848A0478421E6
:100730002748A04798212748A04708212648A047D6
:1007400010212648A04725212548A047092130200F
:10075000A04702213120A04730213220A047C220EB
:10076000132140003EE0C0461D030000B50B000011
:10077000010200000202000003020000110200005A
:10078000120200001302000016020000190200000D
:100790001E020000210200002302000025020000CA
:1007A000260200002A0200002D0200002F02000095
:1007B0003302000031030000320300000D0F00007F
:1007C000110F00001C0F0000210F0000220F00007D
:1007D000230F0000260F0000340F0000350F00002B
:1007E000440F0000A047F0200F210001A047062180
:1007F0000F48A04701213720A04700213620A047FD
:1008000090213520A0470A213420A04701261D2031
:10081000084B98473042FAD0074B98478021282050
:10082000A0476D210220A0476420A84770BDC046A4
:10083000180F0000D90200004903000030B58023E2
:1008400091B06946FF22DB05009300230A81012253
:100850008B72CB720531CA7769460631CA776A4610
:100860000732D37702AAD3770BAA13702D226A44DA
:10087000137069466A4601931382D3761376137711
:1008800053760A9305934B779623DB0108939023C5
:100890005B030393124B13220C93124B8A760D9336
:1008A00001235B420E930F930F4D6A460F492800B8
:1008B0000F4B98470028F7D12C680E4B2000984723
:1008C0001F2318401E3B83400B4A13602A68D369DC
:1008D000002BFCD1226802331343236011B030BDDA
:1008E00003000400030005003C0000200008004253
:1008F000990E0000291F000000E100E070B5FF25FF
:100900000B4C012221000B480B4B25709847002807
:1009100001D0122809D123783E2B07D0074B0120A4
:10092000984723783E2BEBD1042070BD0020FCE7D4
:10093000700000203C00002089120000B50B000070
:1009400070B50424064D074B6C619847AC610028D4
:1009500004D1054B1B783E2B00D0200070BDC04653
:1009600000440041FD0800007000002010B558212F
:100970000548064B984704000528F8D00120044B91
:100980009847200010BDC0463C0000205D110000CB
:10099000B50B000010B531210348044B98470528DA
:1009A000F9D0034B984710BD3C0000205D110000BA
:1009B000FD08000070B5164C164B2178050016484E
:1009C0009847164A217810780023C0B203281DD812
:1009D00001F0E4FE02080C104F2900D1012313702E
:1009E00000230BE04B29FAD10223F8E70D29F6D1B9
:1009F0000323F4E7137001230A29F1D1084A2800E0
:100A0000137021000122074B984770BD1370F5E762
:100A10004801002025010000000000209100002076
:100A2000900000206913000010B5094C012220003D
:100A30000849094B984722000223313211782000DF
:100A40000B43137005490122054B984710BDC04662
:100A500094000020B5090000511300004801002057
:100A60006913000030B5802391B06946FF22DB0591
:100A7000009300230A8101228B72CB720531CA7761
:100A800069460631CA776A460732D37702AAD37716
:100A90000BAA13702D226A44137069466A460193AB
:100AA0001382D3761376137753760A9305934B7795
:100AB000E1235B02089390235B030393134B132200
:100AC0000C93134B8A760D9301235B420E930F9385
:100AD000104D6A4610492800104B98470028F7D15E
:100AE0002C680F4B200098471F2318401E3B834063
:100AF0000C4A13602A68D369002BFCD122680233A8
:100B000013432360084B984711B030BD0300080021
:100B1000030009009400002000100042990E00001C
:100B2000291F000000E100E0290A0000002370B541
:100B30000500094A094C0A4823701370094B98476D
:100B4000094B28009847290082B2084B084898476B
:100B50002378002BFCD070BD910000209000002075
:100B600000000020150100009F2900000112000074
:100B70009400002070B5094B00209847FA21084CDA
:100B800089000500A047074B074918602800A047C7
:100B90000522064B1860064B1A6070BDF922000052
:100BA000B12700001000002040420F001400002078
:100BB00010E000E030B580240021074B64021A6881
:100BC000064B013800D230BD002AFAD05A60996035
:100BD0001D682542FCD0F4E71000002010E000E082
:100BE00007B5802201AB1A700A785A704A789A7059
:100BF0008A781900DA70014B984707BDDD240000A0
:100C0000F0B5002489B0009201933F23002600270D
:100C10002500069007910393039A134B01200021AE
:100C20009847B6197F41069B079A03400A400496ED
:100C30000597134303D0012333431E00059F019BF7
:100C4000BB4209D802D1009BB34205D8009A019B50
:100C5000B61A9F4104430D43039B5A1E0392DBD2F5
:100C60002000290009B0F0BDC928000010B54908CE
:100C7000040000234020A14201D210BD0300581CF3
:100C8000091B80B28C42F9D94020FF2BF5D8138084
:100C90000020F2E7F0B585B01E000AAB0D00197810
:100CA00003004B4303924027AB4217D8002E18D1C4
:100CB0000200330008001B4C3100A0472A0001004D
:100CC0003300194C3000A04700220123121A8B4137
:100CD000140C180404430027039B1C80380005B043
:100CE000F0BD0024012EF6D10A00230021000D4E94
:100CF000B047009001910B000200210028000A4C2F
:100D0000A047802306009B019842E7D8009A019BE8
:100D1000690FE800A047F400041BE4B26403344305
:100D2000D9E7C046E1280000010C000037B50D4CA2
:100D300005002378002B01D000290CD001A9132035
:100D4000094B0D7098471320084B9847012300204A
:100D5000657023703EBD63780800AB42FAD01D2059
:100D6000F8E7C04649010020092400008123000063
:100D7000274A030000B50800934220D004D8254A32
:100D800093420ED0002314E0234A934224D0234AF6
:100D90009342F7D1002303290BD801F0FFFC362A38
:100DA0002C2E0023032904D801F0F8FC29020507A2
:100DB0001B4B180000BD1B4BFBE71B4BF9E7002347
:100DC0000329F6D801F0EAFC1D020406174BF0E7F0
:100DD000174BEEE7174BECE700230329E9D801F0A6
:100DE000DDFC12020406144BE3E7144BE1E7144B5D
:100DF000DFE7144BDDE7144BDBE7144BD9E7144B6B
:100E0000D7E70323D5E7134BD3E7134BD1E7C0460E
:100E1000000C004200080042001000420014004292
:100E200003000500030006000300070003000100A3
:100E300003001E0003001F000300090003000A0056
:100E400003000B0003001100030012000300130055
:100E50000300040003000800030010007FB569468A
:100E6000094B6A4670CB70C11B680B600023990068
:100E70005158814202D1D8B204B070BD0133042B65
:100E8000F5D10020F8E7C046AC2900000268D3691C
:100E9000002BFCD170470000F0B5070093B0A04BC9
:100EA000396008001600049198470122049B050050
:100EB0001B680520134200D00FE1049B17301C680B
:100EC00002231C4000D008E1EB181B3898400300B7
:100ED000944A1435116AEDB20B43136233002D337B
:100EE00002931B780CA90B7028008F4B98472800A1
:100EF0008E4B9847029B210018788D4B9847F37AC8
:100F000008257B71731DDB7FBB71B31DDB7FFB711C
:100F1000F37E3B72337F7B723B6803931800804BF8
:100F200098470EAB1C80338A143002938023029AB8
:100F3000DB019A4214D008D8802310259B019A42E5
:100F400000D1CDE0102500240AE0C023029ADB0185
:100F50009A4200D1C3E0802303251B029A42F1D1BB
:100F600033680693F368079373690893337E099394
:100F7000F31DDB7F0A93736805933300059A0833EA
:100F8000002A00D1AEE080220599520591420ED18F
:100F9000DB7F002B0BD1674BC0B2346A98470EAA97
:100FA0000100654B20009847002800D095E0737E33
:100FB000002B02D0B37E039A9373604B380098479E
:100FC0000AAB1B8A039A069C9381079B1C43089BD0
:100FD0001C43059B1C43029B1C43099B1B021C4397
:100FE0000A9B5B071C4333000833DB7F002B01D1D6
:100FF00004331C43757E337FAD025B021D43737F58
:10100000F27A1B021D43731DDB7F5B041D43B31D7E
:10101000DB7F1B042B43B57A15431D433389FF2B1C
:1010200000D175E08022520414431D4333002C3359
:101030001B78002B03D1424B9B789B0701D5802363
:101040001C4338003D4B9847039B38005D603B4B89
:101050009847039B00251C6080230DAC2370336BE5
:1010600065700E93736BE5700F93B36BA57010935F
:10107000F36B0293119310200AAAAB001218D058F8
:10108000E9B2002802D104982E4B9847431C05D0A2
:101090002070000CC0B221002B4B98470135042D65
:1010A000E9D13B0000243033FC85FC603C617C616D
:1010B000BC61FC613C62BC627C62BC859C701C7043
:1010C0005C70DC703868164B984705001F4B204950
:1010D000984720001F4BAD00EF5013B0F0BD08251E
:1010E00001243DE7DB7F002B07D02300B16A306A83
:1010F00000950EAA184CA04756E7336AC0B20B936E
:101100000C4B98470095010023000EAA0B98F1E7BD
:10111000F37E002B00D189E78023DB041C4385E7A5
:101120005D0E00000004004009240000812300003F
:101130002D0D0000252400006D0C00008D0E000018
:1011400000200041710D0000DD240000ED1E0000B4
:1011500089130000C0010020950C000070B5C27911
:101160000D001C23002A0CD0C28D173B002A08D189
:10117000054B0468984702232585227E1A42FCD03D
:101180000023180070BDC0468D0E000070B5827936
:101190000E001C23002A13D0828D173B002A0FD18A
:1011A00004250468227E2A420AD0144B9847638B98
:1011B000DBB29A061DD00222134203D01A236283A7
:1011C000180070BD2B4202D065831E23F8E7012270
:1011D000134202D062831323F2E71022134202D09B
:1011E00062834223ECE72022134202D06283412330
:1011F000E6E7238D33800023E2E7C0468D0E000032
:10120000F7B506000F0015001720002A27D0F37944
:101210000530002B23D0336830000193184B9847DA
:10122000002480235B020121019A127E0A4217D01A
:10123000727963189BB2395D012A16D01C0089B2FD
:10124000013D30000F4BADB29847002DE9D180230E
:1012500002225B020199097E11420CD00020FEBDE2
:10126000013B002BDFD11220F9E7FB5C02341B02AB
:10127000A4B21943E4E7013B002BEBD1F3E7C046EE
:101280008D0E00005D110000F0B585B006000091E4
:1012900015001720002A28D0B3790530002B24D060
:1012A00000243368019380235B020421019A127E9B
:1012B0000A421CD002AB9F1D002339003B80300046
:1012C0000E4B9847002810D100993A88631C0A55A4
:1012D00071799BB201290FD100990234120AA4B28C
:1012E000CA54013DADB2002DDDD105B0F0BD013BCA
:1012F000002BDAD11220F8E71C00F2E78D11000074
:10130000F8B50400104B17000E0005689847A28D31
:101310000E4B002A02D098470520F8BDA7859847B4
:1013200023000522323366621A700423AB75237AD8
:10133000002B01D02023AB750020637A8342ECD0D0
:101340000823AB75E9E7C0468D1F0000C11F0000F0
:10135000931C9B00C3185960012393401A0030303E
:10136000037813430370704710B51723002A06D083
:1013700084790533002C02D0024B984703001800F3
:1013800010BDC04601130000F8B5584B8000C4588A
:101390002568EB69002BFCD12B7EAF7D1F4023001D
:1013A00030331A785E78012316401F4219D0E28D3F
:1013B000002A00D172E0A26A511C1378A1626179FF
:1013C000DBB2012964D09BB2DB05DB0D2B85E38DFD
:1013D000013B9BB2E385002B03D101332B75013315
:1013E000AB7502231F4209D02B7523000022333333
:1013F0001A70F30702D52000E368984704231F42C0
:1014000027D0A28D002A00D16DE06B8BDBB21A07CA
:1014100046D43F22134045D002221A2113420FD155
:1014200004221E2113420BD101221321134207D1A2
:1014300010224221134203D12022134204D0412121
:101440002300323319706A83730702D52000636961
:10145000984710231F4206D02B752B761E4202D0D0
:101460002000E369984720231F4206D02B752B7676
:10147000330702D52000A369984708231F4206D0EE
:101480002B752B76B30602D5236A20009847F8BD4A
:101490005178023209020B43A26295E72B75A0E74F
:1014A0003722B7E72B8D616ADB05DB0DDAB20A70F4
:1014B000626A511C61626179012904D11B0A53706F
:1014C000636A01336362A38D013B9BB2A385002B4A
:1014D000BFD104222A75220032321370B307B8D567
:1014E00020002369B4E72B75B3E7C046C001002094
:1014F000002210B54309C409944202D1DA01064B17
:10150000D2181F2318401E3B8340002901D093614D
:1015100010BD5361FCE7C046004400410368187EDB
:101520008007C00F70470368187E0123184070477A
:101530000368187E4007C00F7047000070B5064B67
:101540000C00056898470523002803D00023E40514
:10155000E40DAC62180070BD2715000070B50D4B8E
:1015600006000C0005689847102200280DD00423BF
:10157000698B0022194201D06B831E32B379012B93
:1015800005D1AB6ADB05DB0D2380100070BDAB6AB3
:10159000DBB2F9E731150000F0B505002960140051
:1015A0000A6889B00E001C23920700D5D4E00127F9
:1015B0000B683B400193019A0523002A00D0CBE041
:1015C00008006A4B9847811C8F40694B14301A6A97
:1015D00017431F62631DDB7F02AAC7B2137011009D
:1015E0003800644B98473800634B9847631DD87F99
:1015F0000199624B98472378012B03D132680B3352
:10160000134333602378002B03D13268083313432C
:1016100033602B002A0000260C33283240C39A4244
:10162000FCD12B003633AE86EE622E86AE621E7083
:101630005E709E70032328686B724C4B2E71984726
:1016400007004F4B4F4998474F4BBF00FD50802339
:1016500002AA13710123937123782F685671D671F2
:10166000002B00D196710026A36A0493E36A0593C8
:10167000236B0693636B0793B30004AA9858F1B2E7
:10168000002802D13800414B9847431C06D002ABDA
:101690001871000CC0B203A93D4B98470136042EC7
:1016A000EAD123786B71237CAB71A37CEB71237D32
:1016B0002B7202AB9E1C002333802378012B10D1A8
:1016C0002A4B286898471430324BC0B29847324BA7
:1016D00001003200A0699847172300283CD13378D5
:1016E0003B732378002B3DD1E17FA57F7B6A090402
:1016F00029431943A069A28B631C7962DB7F002B0D
:101700002DD11300A16862680A43E1680A43217C75
:1017100002430B43617C002903D120498978890762
:1017200001D580210A43A17C002902D080218902B1
:101730000B43E17C002902D0802189000B43217DED
:10174000002902D0802189010B4339680A433A609D
:101750007A6813437B600023180009B0F0BD402372
:101760001343CFE700231800CCE7C0465D0E00000E
:101770000004004009240000812300002D0D00001A
:10178000ED1E0000ED1C0000C0010020710D0000E6
:10179000DD240000252400006D0C00000020004125
:1017A000F0B587B00393030004000520029138339D
:1017B0001B781700834236D01230002A33D0E379E9
:1017C0000530002B2FD06379002B07D120002B4B45
:1017D0009847002802D002232268137600256379F7
:1017E000012B08D12000264B98470028FAD00399F6
:1017F0002000244B98476379234E002B1BD1234BA9
:1018000001932000B047002804D1019B013B0193C4
:10181000002BF6D12000194B9847002805D0022252
:10182000042023681A7607B0F0BD2000B0470028D6
:1018300001D11230F7E72000B0470028FBD004ABFD
:101840009E1D0023310033802000114B9847002853
:10185000E9D1029932886B1C4A55A1799BB20129C2
:1018600009D102990235120AADB2CA54013FBFB282
:10187000002FB4D1D7E71D00F8E7C0461D150000C2
:10188000271500003D15000031150000112700004C
:101890005D150000F0B5437985B005000E00140019
:1018A00000931520012B04D12B7A0193002B02D039
:1018B000002005B0F0BD184F002A27D04C78002C2E
:1018C00020D0164B2800984703003078002B03D116
:1018D0000099B8470520ECE70199B847104BB1785B
:1018E00028009847EB79002BE2D128000D4B984750
:1018F0000028FAD0002402AB991D28000A4B0C8066
:101900009847D5E708782100B847D1E708780099CB
:10191000B8472000CDE7C046F114000027150000AD
:101920003D150000311500005D1500000300F0B505
:101930000400052087B0029138331B7815008342DC
:1019400032D01230002A2FD06379002B07D120002B
:101950005F4B9847002802D00223226813760026A6
:101960000195013DADB25B4A6379954208D1012BE7
:1019700000D187E06379002B00D189E0002013E0DB
:10198000002B1AD1544F2000544B9847002802D105
:10199000013F002FF7D120004D4B9847002805D07C
:1019A0000222042023681A7607B0F0BD20004B4BBA
:1019B0009847002801D11230F6E72000474B98479E
:1019C0000028FAD0029A731C915DA2799BB2012A79
:1019D00040D01E0089B2424B20009847E2796B1E2E
:1019E0009BB2002A4CD06379002B24D13A4B03934D
:1019F000002D12D02000394B984700280DD0029BB3
:101A0000771C995DA379BFB2012B2AD089B220003F
:101A1000334B98473E00013DADB22000314FB847EF
:101A2000002825D020002A4B98470028B8D1200054
:101A3000B847002822D020002A4B98470028FAD027
:101A400004AB991D2000284B9847019B013B9BB29A
:101A5000019386E7029A0236D35CB6B21B021943A1
:101A6000B9E7029B0236DB5DB7B21B021943CEE732
:101A7000039B013B0393002BBAD1D3E7122093E7DA
:101A80001D0070E72000124B98470028FAD071E73C
:101A9000E379002B00D171E7019B002B00D16DE7AA
:101AA0000D4D20000F4EB047002802D1013D002D02
:101AB000F7D12000B047002800D17CE704AB991D86
:101AC0002000094B9847019B013B9BB20193E3E740
:101AD0001D150000FFFF0000112700002715000062
:101AE0003D150000311500005D150000F0B51E0029
:101AF00003000400052089B00291039238331B785B
:101B0000834237D01230002E34D0E3790530002BD9
:101B100030D06379002B07D120006E4B9847002806
:101B200002D002232268137600252F000196731E2F
:101B30009BB204936379002E08D1012B00D192E06F
:101B40006379002B00D1BEE0002013E0002B19D1F7
:101B5000614E2000614B9847002802D1013E002EC3
:101B6000F7D120005B4B9847002805D002220420C3
:101B700023681A7609B0F0BD2000584B984700281A
:101B800000D1A4E02000554B98470028FAD0029BD2
:101B90007E1CD95DA379B6B2012B50D089B2504BCF
:101BA000200098476379002B25D14B4B05932000EB
:101BB0004A4B984700280FD0029B771C995DA37968
:101BC000BFB2012B42D089B23E00454B200098475E
:101BD000049B013B9BB204932000424B9847002892
:101BE0003BD020003B4B98470028BFD120003D4B05
:101BF000984700286BD020003A4B98470028FAD02D
:101C000006AB9F1D00233B80019B3900013B9BB22B
:101C100001932000344B98470028ABD103993A88B0
:101C20006B1C4A55A1799BB2012904D10399023555
:101C3000120ACA54ABB237001D00049E77E7029B1C
:101C400002379B5DBEB21B021943A8E7029B023616
:101C5000DB5DB7B21B021943B6E7059B013B059359
:101C6000002BA4D1BDE720001A4B98470028FAD0DA
:101C700066E7194E20001B4FB847002802D1013EED
:101C8000002EF7D12000B847002820D006AB9E1DBB
:101C900000233380019B3100013B9BB20193200064
:101CA000114B9847002800D064E7039932886B1CD9
:101CB0004A55A1799BB2012904D103990235120A30
:101CC000CA54ABB21D00019B002BD2D13CE71220BD
:101CD00050E7C0461D150000112700002715000021
:101CE0003D150000311500005D150000F8B57C4B76
:101CF0008000C458230022003733363225681B7811
:101D000016781E402B7EAF7D1F40FB0739D56279C8
:101D10001300012A33D1637A002B0DD1714B1B883C
:101D2000AB62638E013B9BB26386638E002B00D156
:101D30002A756379012B22D1637A002B21D0E16AC5
:101D40002268481C0B78E062A079DBB2012800D140
:101D500074E09BB2DB05DB0D9362A38E013B9BB26B
:101D6000A386A38E002B0CD101332B75637A012B34
:101D700007D1E379002B04D10233AB7501E0002BCE
:101D8000DAD004210F4215D06B8B0B425CD0637A02
:101D9000012B0CD023001E2238331A7003236372E8
:101DA00002332B75330702D52000A3699847AB6A2D
:101DB00004236B830222174227D06379002B0ED1B4
:101DC000072129752A760132627222003832A386F1
:101DD00023861370F30602D52000E36998476379E0
:101DE000012B12D1637ADBB2012B0ED1E279002AEA
:101DF0000BD10221297501316172210038310A703D
:101E00001E4202D02000E368984708231F4209D0F1
:101E10006279002A06D12B752B76B30602D52000F5
:101E2000236A98477FB2002F07DA80232B752B7621
:101E3000730602D5636A20009847F8BD48780231DE
:101E400000020343E16285E7627A2368D2B29B6AAB
:101E5000012A13D1638E013B9BB26386638E9BB2D2
:101E6000002BA7D12975210038310B700333637221
:101E700016429FD02000E36898479BE7DB05A16AE4
:101E8000DB0DDAB20A70A26A511CA162A1790129A4
:101E900004D11B0A5370A36A0133A362238E013B52
:101EA0009BB22386238E9BB2002B00D082E72200B8
:101EB0003832137004332B75627A022A05D11E4220
:101EC00000D177E720006369D6E7637A002B00D062
:101ED00070E7B30700D46DE720002369CCE7C04664
:101EE000C0010020BC0100207047000070B50A4E00
:101EF0000A4B3278002A0BD1094C0A4D22606260ED
:101F0000A260E26001321D605D609D60DD60327044
:101F10008000195070BDC0464B0100204C010020CC
:101F2000C0010020E91E0000092313B501AC237095
:101F3000013363700133A3700133E370014B9847A1
:101F4000205616BD5D0E000010B5024B00201B6828
:101F5000984710BD4C01002010B5024B01205B6872
:101F6000984710BD4C01002010B5024B02209B6821
:101F7000984710BD4C01002010B5024B0320DB68D0
:101F8000984710BD4C01002070470000094B1968AC
:101F900000290BD1EFF31080074A002805D172B653
:101FA000BFF35F8F05490870012111701A68013273
:101FB0001A6070475C0100206001002018000020BA
:101FC000084B1A68013A1A601B68002B09D1064BAE
:101FD0001B78002B05D00122044B1A70BFF35F8FD2
:101FE00062B670475C0100206001002018000020EC
:101FF00010230249CA681A42FCD07047000800400A
:1020000070B5082806D800F0C9FB0805052E2E1269
:102010000B1526000024200070BD154B1C69FAE743
:10202000144B154C1B6A9B059B0FDC40F3E7104BD0
:102030005C69F0E70E4D00242B689B07EBD50F4B36
:1020400098472B685B0711D520000D4B9847AC686B
:10205000A4B24443DFE70B4B00241B785B07DAD5BF
:10206000034BDC68D7E780242402D4E7064CD2E790
:10207000640100200008004000127A00F11F0000F7
:102080002524000050080040006CDC0270B5847804
:1020900002784578012040260540204080240849E8
:1020A000AD010B6AC001B3432B43A3430343032099
:1020B000024004481202034013430B6270BDC04645
:1020C00000080040FFFCFFFFF8B5082806D800F024
:1020D00065FB1405050C0E1A072034001720F8BD07
:1020E0000223194A116A0B4313620020F7E7022307
:1020F000154A91690B439361F7E70223124A118A4B
:102100000B431382F1E702230F4A918A0B43938218
:10211000EBE7022200240D4E0B4D33680C4F1343A6
:102120003360AA84B847B368EB627368AB62AC846F
:10213000B84733689BB2AB84D7E70223054A1178CE
:102140000B431370D1E7C046000800406401002033
:10215000F11F0000440800407FB5C2221E21194B28
:10216000D2009A60184A0024536801AD8B43536033
:1021700001232B70E0B22900144B01349847252C21
:10218000F8D100246B4601265C709E701C70684676
:102190000F4B98470F4B062098470F4B98470F4B14
:1021A00029001C725C729C72DC72062320002B706A
:1021B0000B4B6E606C702C726C7298472000094B50
:1021C00098477FBD000800400040004109240000FE
:1021D0008D200000C9200000F5210000000400400F
:1021E00015220000B9220000014B5878C009704741
:1021F000000C00400823054A91690B4393610123B9
:10220000034A137011781942FCD170470004004052
:10221000000C0040F8B50C784B782402060005004D
:102220000443002B02D08023DB021C434B7A002B9B
:1022300002D080231B031C434B68012B12D95D1E67
:102240001D400222002D06D01D02802335439B0233
:1022500007E0013552009A42FBD380232D0235431B
:102260005B031C430B7A002B02D080239B031C438F
:102270000C4FB8470028FBD10B4B98470B4B1E70F7
:10228000B8470028FCD10A4B9D601D00B8470028C4
:10229000FCD180226B68520213401C436C60054BDA
:1022A0009847F8BDE92100008D1F0000080C004090
:1022B000000C0040C11F000070B50500094CA0478C
:1022C0000028FBD1084B9847084B1D70A0470028F9
:1022D000FCD18023064A5B0251680B435360054BD7
:1022E000984770BDE92100008D1F0000040C0040DC
:1022F000000C0040C11F0000F7B50700184EB047A2
:102300000028FBD1174B9847174B1F700193B0471C
:102310000028FCD1154D164B6868C004C00E9847C4
:102320000400019B1F706B68DB02DB0F0193114BF4
:102330001F70B0470028FCD1AD680F4B9847019B38
:102340002D022D0C002B08D1012D04D920002900CD
:102350000A4B984704002000FEBD0135EC40FAE727
:10236000E92100008D1F0000040C0040000C00401B
:1023700001200000080C0040C11F0000B127000030
:1023800010B50400064B9847064B074A1C70802383
:102390005188DB010B435380044B984710BDC04666
:1023A0008D1F0000020C0040000C0040C11F000007
:1023B00010B504000E4B98470E4B0F4A1C700F4B84
:1023C0000F4C588859880005114059805988000FD2
:1023D0002140598011008022D2015C881442FCD136
:1023E0005A8800020A4002435A80064B984710BDA3
:1023F0008D1F0000020C0040FFF0FFFF000C0040AA
:10240000FFBFFFFFC11F000010B50C78034B240273
:1024100004439847024BA4B25C8010BDB123000076
:10242000000C004010B50400064B9847064B1C708A
:10243000064B5C88064B2405240F98472000054B6B
:10244000984710BD8D1F0000020C0040000C00409A
:10245000C11F0000F9220000D37830B5002B35D120
:102460001478802C03D0802324065B0223430225AA
:102470005478AC4306D19478002C24D18024A40253
:10248000234341605478013C012C01D8124C234075
:10249000A0248DB2E4052C431C438462D0240D0C8F
:1024A00024062C431C438462D478002C0AD15B039D
:1024B00003D59378012B0CD181615378013B012B1B
:1024C00000D8816030BDC024E402D9E74160002318
:1024D000DEE74161F1E7C046FFFFFBFF10B50300F7
:1024E0000A004409C1090020814202D10449E001E7
:1024F00040181F210B401E399940024B984710BDD0
:1025000000440041592400007047000010B5054BFD
:102510009847054B9847054B9847054B9847054BFF
:10252000984710BD59210000891F000009250000AF
:102530000925000009250000FEE700002148224986
:1025400070B5884204D00023204CCA18A24232D36E
:1025500000211F4B1F4A934231D3FF211E4B1F4ABC
:102560008B43936002220C25082430261C4B1D4807
:102570005A62C378FC398B431343C370C378AB43AF
:102580002343C370184B987BB04306002020304390
:102590009873987BA84304439C73987B88430243B9
:1025A0009A738023114A51680B435360104B98472C
:1025B000104B9847FEE7C55804331560C5E702C3C2
:1025C000C9E7C046F0290000000000201C000020E0
:1025D0001C000020D00100200000000000ED00E001
:1025E000FC700041005000410048004100400041A3
:1025F00035290000312700000023F7B501AC012682
:10260000237000231F4D21000720A3706670A84788
:10261000210006202670A84740231B4F3000BB61D5
:102620002100A84702232100BB611800A84704230A
:102630002100BB610320A8470823BB6100232100C0
:102640000B2023706670A84721000A202670A84737
:102650008023DB00BB61022321000E202670637003
:10266000A8478023DB01BB6121001820267066701B
:10267000A84780235B04BB61002321001B2023703B
:10268000A847F7BDE10B000000440041002307B557
:10269000012201A803704370014B8270984707BD67
:1026A0008D2000001FB50024094B9847094B01A954
:1026B0001C7206230B70053B4B602000064B4C72CE
:1026C0004C700C7298472000044B98471FBDC046C1
:1026D000F52100000004004015220000B92200008E
:1026E00010B5034B9847034B9847034B984710BDD1
:1026F0008D260000A5260000750B000010B5064BC6
:102700009847064B9847064B9847064B9847064B09
:102710009847064B984710BD0D250000E1260000A4
:10272000F92500005D0100003D080000650A000079
:1027300007B50E4B04220E4901A898470D4B984748
:102740000D4B984701210D4B29209847042101A8E2
:102750000B4B98470B4B98470B480C4B98470C4B2F
:1027600098470C4B98470C4B9847EBE77D290000A6
:10277000BC290000FD26000069030000490200009A
:1027800005030000A5020000C02900002D0B000079
:1027900041090000950900006D09000002B471466E
:1027A00049084900095C49008E4402BC7047C04694
:1027B000002243088B4274D303098B425FD3030A80
:1027C0008B4244D3030B8B4228D3030C8B420DD393
:1027D000FF22090212BA030C8B4202D31212090221
:1027E00065D0030B8B4219D300E0090AC30B8B425F
:1027F00001D3CB03C01A5241830B8B4201D38B030D
:10280000C01A5241430B8B4201D34B03C01A5241B1
:10281000030B8B4201D30B03C01A5241C30A8B42F4
:1028200001D3CB02C01A5241830A8B4201D38B02DF
:10283000C01A5241430A8B4201D34B02C01A524183
:10284000030A8B4201D30B02C01A5241CDD2C309F5
:102850008B4201D3CB01C01A524183098B4201D371
:102860008B01C01A524143098B4201D34B01C01A5C
:10287000524103098B4201D30B01C01A5241C308D4
:102880008B4201D3CB00C01A524183088B4201D343
:102890008B00C01A524143088B4201D34B00C01A2F
:1028A0005241411A00D20146524110467047FFE79B
:1028B00001B5002000F006F802BDC0460029F7D09F
:1028C00076E770477047C0469140031C90409C4695
:1028D000203A9340194352426346D340194370470C
:1028E000F0B5CE46474615042D0C2E0080B50704E2
:1028F000140C3F0C9946030C7E435D4367436343CE
:102900007F19340CE4199C46A54203D980235B024D
:102910009846C4444B46514343433604360C250C79
:1029200024046544A4195918491920000CBC904688
:102930009946F0BD70B500260C4D0D4C641BA410DB
:10294000A64209D1002600F043F80A4D0A4C641B48
:10295000A410A64205D170BDB300EB5898470136CC
:10296000EEE7B300EB5898470136F2E7DC290000A8
:10297000DC290000DC290000E0290000002310B55C
:102980009A4200D110BDCC5CC4540133F8E7030077
:102990008218934200D1704719700133F9E7002380
:1029A000C25C0133002AFBD1581E70470008004268
:1029B000000C00420010004200140042623808AAD5
:1029C00041542B53454E443D746573740D0A000009
:1029D000F8B5C046F8BC08BC9E467047DD00000054
:1029E000F8B5C046F8BC08BC9E467047B50000006C
:1029F000C80000200000000000000000800000006F
:0C2A0000401F0000080000000100000062
:040000030000253D97
:00000001FF
